{
	"contracts/CropMarketplace.sol": {
		"CropMarketplace": {
			"abi": [
				{
					"inputs": [],
					"name": "BadQuantity",
					"type": "error"
				},
				{
					"inputs": [],
					"name": "InactiveProduct",
					"type": "error"
				},
				{
					"inputs": [],
					"name": "NotBuyer",
					"type": "error"
				},
				{
					"inputs": [],
					"name": "NotCancellable",
					"type": "error"
				},
				{
					"inputs": [],
					"name": "NotPlaced",
					"type": "error"
				},
				{
					"inputs": [],
					"name": "NotRefundable",
					"type": "error"
				},
				{
					"inputs": [],
					"name": "NotSeller",
					"type": "error"
				},
				{
					"inputs": [],
					"name": "OnlyOwner",
					"type": "error"
				},
				{
					"inputs": [],
					"name": "PriceZero",
					"type": "error"
				},
				{
					"inputs": [],
					"name": "QtyZero",
					"type": "error"
				},
				{
					"inputs": [],
					"name": "Reentrancy",
					"type": "error"
				},
				{
					"inputs": [],
					"name": "WrongValue",
					"type": "error"
				},
				{
					"inputs": [],
					"name": "ZeroAddress",
					"type": "error"
				},
				{
					"anonymous": false,
					"inputs": [
						{
							"indexed": true,
							"internalType": "uint256",
							"name": "orderId",
							"type": "uint256"
						}
					],
					"name": "OrderCancelled",
					"type": "event"
				},
				{
					"anonymous": false,
					"inputs": [
						{
							"indexed": true,
							"internalType": "uint256",
							"name": "orderId",
							"type": "uint256"
						},
						{
							"indexed": true,
							"internalType": "address",
							"name": "buyer",
							"type": "address"
						},
						{
							"indexed": true,
							"internalType": "address",
							"name": "seller",
							"type": "address"
						},
						{
							"indexed": false,
							"internalType": "uint256",
							"name": "paidToSeller",
							"type": "uint256"
						},
						{
							"indexed": false,
							"internalType": "uint256",
							"name": "fee",
							"type": "uint256"
						}
					],
					"name": "OrderCompleted",
					"type": "event"
				},
				{
					"anonymous": false,
					"inputs": [
						{
							"indexed": true,
							"internalType": "uint256",
							"name": "orderId",
							"type": "uint256"
						},
						{
							"indexed": true,
							"internalType": "uint256",
							"name": "productId",
							"type": "uint256"
						},
						{
							"indexed": true,
							"internalType": "address",
							"name": "buyer",
							"type": "address"
						},
						{
							"indexed": false,
							"internalType": "address",
							"name": "seller",
							"type": "address"
						},
						{
							"indexed": false,
							"internalType": "uint256",
							"name": "quantity",
							"type": "uint256"
						},
						{
							"indexed": false,
							"internalType": "uint256",
							"name": "unitPriceWei",
							"type": "uint256"
						},
						{
							"indexed": false,
							"internalType": "uint256",
							"name": "totalWei",
							"type": "uint256"
						},
						{
							"indexed": false,
							"internalType": "uint96",
							"name": "feeBps",
							"type": "uint96"
						}
					],
					"name": "OrderPlaced",
					"type": "event"
				},
				{
					"anonymous": false,
					"inputs": [
						{
							"indexed": true,
							"internalType": "uint256",
							"name": "orderId",
							"type": "uint256"
						},
						{
							"indexed": true,
							"internalType": "address",
							"name": "buyer",
							"type": "address"
						},
						{
							"indexed": false,
							"internalType": "uint256",
							"name": "refundWei",
							"type": "uint256"
						}
					],
					"name": "OrderRefunded",
					"type": "event"
				},
				{
					"anonymous": false,
					"inputs": [
						{
							"indexed": true,
							"internalType": "address",
							"name": "previousOwner",
							"type": "address"
						},
						{
							"indexed": true,
							"internalType": "address",
							"name": "newOwner",
							"type": "address"
						}
					],
					"name": "OwnershipTransferred",
					"type": "event"
				},
				{
					"anonymous": false,
					"inputs": [
						{
							"indexed": true,
							"internalType": "uint256",
							"name": "productId",
							"type": "uint256"
						},
						{
							"indexed": true,
							"internalType": "address",
							"name": "seller",
							"type": "address"
						},
						{
							"indexed": false,
							"internalType": "string",
							"name": "name",
							"type": "string"
						},
						{
							"indexed": false,
							"internalType": "string",
							"name": "unit",
							"type": "string"
						},
						{
							"indexed": false,
							"internalType": "uint256",
							"name": "unitPriceWei",
							"type": "uint256"
						},
						{
							"indexed": false,
							"internalType": "uint256",
							"name": "qty",
							"type": "uint256"
						}
					],
					"name": "ProductListed",
					"type": "event"
				},
				{
					"anonymous": false,
					"inputs": [
						{
							"indexed": true,
							"internalType": "uint256",
							"name": "productId",
							"type": "uint256"
						},
						{
							"indexed": false,
							"internalType": "uint256",
							"name": "unitPriceWei",
							"type": "uint256"
						},
						{
							"indexed": false,
							"internalType": "uint256",
							"name": "availableQty",
							"type": "uint256"
						},
						{
							"indexed": false,
							"internalType": "bool",
							"name": "active",
							"type": "bool"
						}
					],
					"name": "ProductUpdated",
					"type": "event"
				},
				{
					"anonymous": false,
					"inputs": [
						{
							"indexed": true,
							"internalType": "uint256",
							"name": "orderId",
							"type": "uint256"
						},
						{
							"indexed": true,
							"internalType": "uint256",
							"name": "productId",
							"type": "uint256"
						},
						{
							"indexed": true,
							"internalType": "address",
							"name": "buyer",
							"type": "address"
						},
						{
							"indexed": false,
							"internalType": "address",
							"name": "seller",
							"type": "address"
						},
						{
							"indexed": false,
							"internalType": "uint256",
							"name": "quantity",
							"type": "uint256"
						},
						{
							"indexed": false,
							"internalType": "uint256",
							"name": "unitPriceWei",
							"type": "uint256"
						},
						{
							"indexed": false,
							"internalType": "uint256",
							"name": "totalWei",
							"type": "uint256"
						},
						{
							"indexed": false,
							"internalType": "string",
							"name": "note",
							"type": "string"
						}
					],
					"name": "TransactionRecorded",
					"type": "event"
				},
				{
					"inputs": [
						{
							"internalType": "uint256",
							"name": "orderId",
							"type": "uint256"
						}
					],
					"name": "adminRefund",
					"outputs": [],
					"stateMutability": "nonpayable",
					"type": "function"
				},
				{
					"inputs": [
						{
							"internalType": "uint256",
							"name": "productId",
							"type": "uint256"
						},
						{
							"internalType": "uint256",
							"name": "quantity",
							"type": "uint256"
						}
					],
					"name": "buy",
					"outputs": [
						{
							"internalType": "uint256",
							"name": "orderId",
							"type": "uint256"
						}
					],
					"stateMutability": "payable",
					"type": "function"
				},
				{
					"inputs": [
						{
							"internalType": "uint256",
							"name": "orderId",
							"type": "uint256"
						}
					],
					"name": "buyerConfirmReceived",
					"outputs": [],
					"stateMutability": "nonpayable",
					"type": "function"
				},
				{
					"inputs": [],
					"name": "feeBps",
					"outputs": [
						{
							"internalType": "uint96",
							"name": "",
							"type": "uint96"
						}
					],
					"stateMutability": "view",
					"type": "function"
				},
				{
					"inputs": [],
					"name": "feesAccrued",
					"outputs": [
						{
							"internalType": "uint256",
							"name": "",
							"type": "uint256"
						}
					],
					"stateMutability": "view",
					"type": "function"
				},
				{
					"inputs": [
						{
							"internalType": "string",
							"name": "name",
							"type": "string"
						},
						{
							"internalType": "string",
							"name": "unit",
							"type": "string"
						},
						{
							"internalType": "uint256",
							"name": "unitPriceWei",
							"type": "uint256"
						},
						{
							"internalType": "uint256",
							"name": "qty",
							"type": "uint256"
						}
					],
					"name": "listProduct",
					"outputs": [
						{
							"internalType": "uint256",
							"name": "productId",
							"type": "uint256"
						}
					],
					"stateMutability": "nonpayable",
					"type": "function"
				},
				{
					"inputs": [],
					"name": "nextOrderId",
					"outputs": [
						{
							"internalType": "uint256",
							"name": "",
							"type": "uint256"
						}
					],
					"stateMutability": "view",
					"type": "function"
				},
				{
					"inputs": [],
					"name": "nextProductId",
					"outputs": [
						{
							"internalType": "uint256",
							"name": "",
							"type": "uint256"
						}
					],
					"stateMutability": "view",
					"type": "function"
				},
				{
					"inputs": [
						{
							"internalType": "uint256",
							"name": "",
							"type": "uint256"
						}
					],
					"name": "orders",
					"outputs": [
						{
							"internalType": "uint256",
							"name": "id",
							"type": "uint256"
						},
						{
							"internalType": "uint256",
							"name": "productId",
							"type": "uint256"
						},
						{
							"internalType": "address",
							"name": "buyer",
							"type": "address"
						},
						{
							"internalType": "address",
							"name": "seller",
							"type": "address"
						},
						{
							"internalType": "uint256",
							"name": "quantity",
							"type": "uint256"
						},
						{
							"internalType": "uint256",
							"name": "unitPriceWei",
							"type": "uint256"
						},
						{
							"internalType": "uint256",
							"name": "totalWei",
							"type": "uint256"
						},
						{
							"internalType": "enum OrderStatus",
							"name": "status",
							"type": "uint8"
						},
						{
							"internalType": "uint64",
							"name": "placedAt",
							"type": "uint64"
						}
					],
					"stateMutability": "view",
					"type": "function"
				},
				{
					"inputs": [],
					"name": "owner",
					"outputs": [
						{
							"internalType": "address",
							"name": "",
							"type": "address"
						}
					],
					"stateMutability": "view",
					"type": "function"
				},
				{
					"inputs": [
						{
							"internalType": "uint256",
							"name": "productId",
							"type": "uint256"
						}
					],
					"name": "productInfo",
					"outputs": [
						{
							"internalType": "address",
							"name": "seller",
							"type": "address"
						},
						{
							"internalType": "string",
							"name": "name",
							"type": "string"
						},
						{
							"internalType": "string",
							"name": "unit",
							"type": "string"
						},
						{
							"internalType": "uint256",
							"name": "unitPriceWei",
							"type": "uint256"
						},
						{
							"internalType": "uint256",
							"name": "availableQty",
							"type": "uint256"
						},
						{
							"internalType": "bool",
							"name": "active",
							"type": "bool"
						}
					],
					"stateMutability": "view",
					"type": "function"
				},
				{
					"inputs": [
						{
							"internalType": "uint256",
							"name": "",
							"type": "uint256"
						}
					],
					"name": "products",
					"outputs": [
						{
							"internalType": "address",
							"name": "seller",
							"type": "address"
						},
						{
							"internalType": "string",
							"name": "name",
							"type": "string"
						},
						{
							"internalType": "string",
							"name": "unit",
							"type": "string"
						},
						{
							"internalType": "uint256",
							"name": "unitPriceWei",
							"type": "uint256"
						},
						{
							"internalType": "uint256",
							"name": "availableQty",
							"type": "uint256"
						},
						{
							"internalType": "bool",
							"name": "active",
							"type": "bool"
						}
					],
					"stateMutability": "view",
					"type": "function"
				},
				{
					"inputs": [
						{
							"internalType": "uint256",
							"name": "productId",
							"type": "uint256"
						},
						{
							"internalType": "uint256",
							"name": "quantity",
							"type": "uint256"
						}
					],
					"name": "quote",
					"outputs": [
						{
							"internalType": "uint256",
							"name": "total",
							"type": "uint256"
						},
						{
							"internalType": "uint256",
							"name": "fee",
							"type": "uint256"
						},
						{
							"internalType": "uint256",
							"name": "payAmount",
							"type": "uint256"
						}
					],
					"stateMutability": "view",
					"type": "function"
				},
				{
					"inputs": [
						{
							"internalType": "uint256",
							"name": "productId",
							"type": "uint256"
						},
						{
							"internalType": "address",
							"name": "buyer",
							"type": "address"
						},
						{
							"internalType": "uint256",
							"name": "quantity",
							"type": "uint256"
						},
						{
							"internalType": "uint256",
							"name": "unitPriceWei",
							"type": "uint256"
						},
						{
							"internalType": "string",
							"name": "note",
							"type": "string"
						}
					],
					"name": "recordOffchainSale",
					"outputs": [
						{
							"internalType": "uint256",
							"name": "orderId",
							"type": "uint256"
						}
					],
					"stateMutability": "nonpayable",
					"type": "function"
				},
				{
					"inputs": [
						{
							"internalType": "uint256",
							"name": "orderId",
							"type": "uint256"
						}
					],
					"name": "sellerCancel",
					"outputs": [],
					"stateMutability": "nonpayable",
					"type": "function"
				},
				{
					"inputs": [
						{
							"internalType": "uint96",
							"name": "newFeeBps",
							"type": "uint96"
						}
					],
					"name": "setFeeBps",
					"outputs": [],
					"stateMutability": "nonpayable",
					"type": "function"
				},
				{
					"inputs": [
						{
							"internalType": "address",
							"name": "newOwner",
							"type": "address"
						}
					],
					"name": "transferOwnership",
					"outputs": [],
					"stateMutability": "nonpayable",
					"type": "function"
				},
				{
					"inputs": [
						{
							"internalType": "uint256",
							"name": "productId",
							"type": "uint256"
						},
						{
							"internalType": "uint256",
							"name": "newUnitPriceWei",
							"type": "uint256"
						},
						{
							"internalType": "uint256",
							"name": "newAvailableQty",
							"type": "uint256"
						},
						{
							"internalType": "bool",
							"name": "active",
							"type": "bool"
						}
					],
					"name": "updateProduct",
					"outputs": [],
					"stateMutability": "nonpayable",
					"type": "function"
				},
				{
					"inputs": [
						{
							"internalType": "address payable",
							"name": "to",
							"type": "address"
						},
						{
							"internalType": "uint256",
							"name": "amount",
							"type": "uint256"
						}
					],
					"name": "withdrawFees",
					"outputs": [],
					"stateMutability": "nonpayable",
					"type": "function"
				},
				{
					"stateMutability": "payable",
					"type": "receive"
				}
			],
			"devdoc": {
				"kind": "dev",
				"methods": {},
				"version": 1
			},
			"evm": {
				"assembly": "    /* \"contracts/CropMarketplace.sol\":360:466  contract CropMarketplace is... */\n  mstore(0x40, 0x80)\n  callvalue\n  dup1\n  iszero\n  tag_1\n  jumpi\n  revert(0x00, 0x00)\ntag_1:\n  pop\n    /* \"contracts/common/Ownable.sol\":363:373  msg.sender */\n  caller\n    /* \"contracts/common/Ownable.sol\":355:360  owner */\n  0x00\n  0x00\n    /* \"contracts/common/Ownable.sol\":355:373  owner = msg.sender */\n  0x0100\n  exp\n  dup2\n  sload\n  dup2\n  0xffffffffffffffffffffffffffffffffffffffff\n  mul\n  not\n  and\n  swap1\n  dup4\n  0xffffffffffffffffffffffffffffffffffffffff\n  and\n  mul\n  or\n  swap1\n  sstore\n  pop\n    /* \"contracts/common/Ownable.sol\":422:432  msg.sender */\n  caller\n    /* \"contracts/common/Ownable.sol\":389:433  OwnershipTransferred(address(0), msg.sender) */\n  0xffffffffffffffffffffffffffffffffffffffff\n  and\n    /* \"contracts/common/Ownable.sol\":418:419  0 */\n  0x00\n    /* \"contracts/common/Ownable.sol\":389:433  OwnershipTransferred(address(0), msg.sender) */\n  0xffffffffffffffffffffffffffffffffffffffff\n  and\n  0x8be0079c531659141344cd1fd0a4f28419497f9722a3daafe3b4186f6b6457e0\n  mload(0x40)\n  mload(0x40)\n  dup1\n  swap2\n  sub\n  swap1\n  log3\n    /* \"contracts/CropMarketplace.sol\":360:466  contract CropMarketplace is... */\n  dataSize(sub_0)\n  dup1\n  dataOffset(sub_0)\n  0x00\n  codecopy\n  0x00\n  return\nstop\n\nsub_0: assembly {\n        /* \"contracts/CropMarketplace.sol\":360:466  contract CropMarketplace is... */\n      mstore(0x40, 0x80)\n      jumpi(tag_1, lt(calldatasize, 0x04))\n      shr(0xe0, calldataload(0x00))\n      dup1\n      0x8da5cb5b\n      gt\n      tag_22\n      jumpi\n      dup1\n      0xbb119f6e\n      gt\n      tag_23\n      jumpi\n      dup1\n      0xbb119f6e\n      eq\n      tag_17\n      jumpi\n      dup1\n      0xbe126a94\n      eq\n      tag_18\n      jumpi\n      dup1\n      0xd6febde8\n      eq\n      tag_19\n      jumpi\n      dup1\n      0xf2fde38b\n      eq\n      tag_20\n      jumpi\n      dup1\n      0xfaaac390\n      eq\n      tag_21\n      jumpi\n      jump(tag_2)\n    tag_23:\n      dup1\n      0x8da5cb5b\n      eq\n      tag_12\n      jumpi\n      dup1\n      0x94db0595\n      eq\n      tag_13\n      jumpi\n      dup1\n      0xa85c38ef\n      eq\n      tag_14\n      jumpi\n      dup1\n      0xad3b1b47\n      eq\n      tag_15\n      jumpi\n      dup1\n      0xb7f1564e\n      eq\n      tag_16\n      jumpi\n      jump(tag_2)\n    tag_22:\n      dup1\n      0x4c48ede7\n      gt\n      tag_24\n      jumpi\n      dup1\n      0x4c48ede7\n      eq\n      tag_7\n      jumpi\n      dup1\n      0x4d397fd5\n      eq\n      tag_8\n      jumpi\n      dup1\n      0x4de91a63\n      eq\n      tag_9\n      jumpi\n      dup1\n      0x56104161\n      eq\n      tag_10\n      jumpi\n      dup1\n      0x7acc0b20\n      eq\n      tag_11\n      jumpi\n      jump(tag_2)\n    tag_24:\n      dup1\n      0x24a9d853\n      eq\n      tag_3\n      jumpi\n      dup1\n      0x2a58b330\n      eq\n      tag_4\n      jumpi\n      dup1\n      0x301e8a05\n      eq\n      tag_5\n      jumpi\n      dup1\n      0x315f1a41\n      eq\n      tag_6\n      jumpi\n      jump(tag_2)\n    tag_1:\n      jumpi(tag_2, calldatasize)\n      stop\n    tag_2:\n      revert(0x00, 0x00)\n        /* \"contracts/storage/MarketStorage.sol\":376:397  uint96  public feeBps */\n    tag_3:\n      callvalue\n      dup1\n      iszero\n      tag_27\n      jumpi\n      revert(0x00, 0x00)\n    tag_27:\n      pop\n      tag_28\n      tag_29\n      jump\t// in\n    tag_28:\n      mload(0x40)\n      tag_30\n      swap2\n      swap1\n      tag_31\n      jump\t// in\n    tag_30:\n      mload(0x40)\n      dup1\n      swap2\n      sub\n      swap1\n      return\n        /* \"contracts/storage/MarketStorage.sol\":343:369  uint256 public nextOrderId */\n    tag_4:\n      callvalue\n      dup1\n      iszero\n      tag_32\n      jumpi\n      revert(0x00, 0x00)\n    tag_32:\n      pop\n      tag_33\n      tag_34\n      jump\t// in\n    tag_33:\n      mload(0x40)\n      tag_35\n      swap2\n      swap1\n      tag_36\n      jump\t// in\n    tag_35:\n      mload(0x40)\n      dup1\n      swap2\n      sub\n      swap1\n      return\n        /* \"contracts/modules/Escrow.sol\":2921:3684  function sellerCancel(uint256 orderId) public nonReentrant {... */\n    tag_5:\n      callvalue\n      dup1\n      iszero\n      tag_37\n      jumpi\n      revert(0x00, 0x00)\n    tag_37:\n      pop\n      tag_38\n      0x04\n      dup1\n      calldatasize\n      sub\n      dup2\n      add\n      swap1\n      tag_39\n      swap2\n      swap1\n      tag_40\n      jump\t// in\n    tag_39:\n      tag_41\n      jump\t// in\n    tag_38:\n      stop\n        /* \"contracts/modules/Escrow.sol\":612:898  function quote(uint256 productId, uint256 quantity)... */\n    tag_6:\n      callvalue\n      dup1\n      iszero\n      tag_42\n      jumpi\n      revert(0x00, 0x00)\n    tag_42:\n      pop\n      tag_43\n      0x04\n      dup1\n      calldatasize\n      sub\n      dup2\n      add\n      swap1\n      tag_44\n      swap2\n      swap1\n      tag_45\n      jump\t// in\n    tag_44:\n      tag_46\n      jump\t// in\n    tag_43:\n      mload(0x40)\n      tag_47\n      swap4\n      swap3\n      swap2\n      swap1\n      tag_48\n      jump\t// in\n    tag_47:\n      mload(0x40)\n      dup1\n      swap2\n      sub\n      swap1\n      return\n        /* \"contracts/modules/Escrow.sol\":3690:4352  function adminRefund(uint256 orderId) public onlyOwner nonReentrant {... */\n    tag_7:\n      callvalue\n      dup1\n      iszero\n      tag_49\n      jumpi\n      revert(0x00, 0x00)\n    tag_49:\n      pop\n      tag_50\n      0x04\n      dup1\n      calldatasize\n      sub\n      dup2\n      add\n      swap1\n      tag_51\n      swap2\n      swap1\n      tag_40\n      jump\t// in\n    tag_51:\n      tag_52\n      jump\t// in\n    tag_50:\n      stop\n        /* \"contracts/modules/Escrow.sol\":2117:2915  function buyerConfirmReceived(uint256 orderId) public nonReentrant {... */\n    tag_8:\n      callvalue\n      dup1\n      iszero\n      tag_53\n      jumpi\n      revert(0x00, 0x00)\n    tag_53:\n      pop\n      tag_54\n      0x04\n      dup1\n      calldatasize\n      sub\n      dup2\n      add\n      swap1\n      tag_55\n      swap2\n      swap1\n      tag_40\n      jump\t// in\n    tag_55:\n      tag_56\n      jump\t// in\n    tag_54:\n      stop\n        /* \"contracts/storage/MarketStorage.sol\":308:336  uint256 public nextProductId */\n    tag_9:\n      callvalue\n      dup1\n      iszero\n      tag_57\n      jumpi\n      revert(0x00, 0x00)\n    tag_57:\n      pop\n      tag_58\n      tag_59\n      jump\t// in\n    tag_58:\n      mload(0x40)\n      tag_60\n      swap2\n      swap1\n      tag_36\n      jump\t// in\n    tag_60:\n      mload(0x40)\n      dup1\n      swap2\n      sub\n      swap1\n      return\n        /* \"contracts/modules/OffchainRecorder.sol\":309:1433  function recordOffchainSale(... */\n    tag_10:\n      callvalue\n      dup1\n      iszero\n      tag_61\n      jumpi\n      revert(0x00, 0x00)\n    tag_61:\n      pop\n      tag_62\n      0x04\n      dup1\n      calldatasize\n      sub\n      dup2\n      add\n      swap1\n      tag_63\n      swap2\n      swap1\n      tag_64\n      jump\t// in\n    tag_63:\n      tag_65\n      jump\t// in\n    tag_62:\n      mload(0x40)\n      tag_66\n      swap2\n      swap1\n      tag_36\n      jump\t// in\n    tag_66:\n      mload(0x40)\n      dup1\n      swap2\n      sub\n      swap1\n      return\n        /* \"contracts/storage/MarketStorage.sol\":484:527  mapping(uint256 => Product) public products */\n    tag_11:\n      callvalue\n      dup1\n      iszero\n      tag_67\n      jumpi\n      revert(0x00, 0x00)\n    tag_67:\n      pop\n      tag_68\n      0x04\n      dup1\n      calldatasize\n      sub\n      dup2\n      add\n      swap1\n      tag_69\n      swap2\n      swap1\n      tag_40\n      jump\t// in\n    tag_69:\n      tag_70\n      jump\t// in\n    tag_68:\n      mload(0x40)\n      tag_71\n      swap7\n      swap6\n      swap5\n      swap4\n      swap3\n      swap2\n      swap1\n      tag_72\n      jump\t// in\n    tag_71:\n      mload(0x40)\n      dup1\n      swap2\n      sub\n      swap1\n      return\n        /* \"contracts/common/Ownable.sol\":198:218  address public owner */\n    tag_12:\n      callvalue\n      dup1\n      iszero\n      tag_73\n      jumpi\n      revert(0x00, 0x00)\n    tag_73:\n      pop\n      tag_74\n      tag_75\n      jump\t// in\n    tag_74:\n      mload(0x40)\n      tag_76\n      swap2\n      swap1\n      tag_77\n      jump\t// in\n    tag_76:\n      mload(0x40)\n      dup1\n      swap2\n      sub\n      swap1\n      return\n        /* \"contracts/storage/MarketStorage.sol\":422:448  uint256 public feesAccrued */\n    tag_13:\n      callvalue\n      dup1\n      iszero\n      tag_78\n      jumpi\n      revert(0x00, 0x00)\n    tag_78:\n      pop\n      tag_79\n      tag_80\n      jump\t// in\n    tag_79:\n      mload(0x40)\n      tag_81\n      swap2\n      swap1\n      tag_36\n      jump\t// in\n    tag_81:\n      mload(0x40)\n      dup1\n      swap2\n      sub\n      swap1\n      return\n        /* \"contracts/storage/MarketStorage.sol\":534:575  mapping(uint256 => Order)   public orders */\n    tag_14:\n      callvalue\n      dup1\n      iszero\n      tag_82\n      jumpi\n      revert(0x00, 0x00)\n    tag_82:\n      pop\n      tag_83\n      0x04\n      dup1\n      calldatasize\n      sub\n      dup2\n      add\n      swap1\n      tag_84\n      swap2\n      swap1\n      tag_40\n      jump\t// in\n    tag_84:\n      tag_85\n      jump\t// in\n    tag_83:\n      mload(0x40)\n      tag_86\n      swap10\n      swap9\n      swap8\n      swap7\n      swap6\n      swap5\n      swap4\n      swap3\n      swap2\n      swap1\n      tag_87\n      jump\t// in\n    tag_86:\n      mload(0x40)\n      dup1\n      swap2\n      sub\n      swap1\n      return\n        /* \"contracts/modules/FeeManager.sol\":324:601  function withdrawFees(address payable to, uint256 amount) public onlyOwner nonReentrant {... */\n    tag_15:\n      callvalue\n      dup1\n      iszero\n      tag_88\n      jumpi\n      revert(0x00, 0x00)\n    tag_88:\n      pop\n      tag_89\n      0x04\n      dup1\n      calldatasize\n      sub\n      dup2\n      add\n      swap1\n      tag_90\n      swap2\n      swap1\n      tag_91\n      jump\t// in\n    tag_90:\n      tag_92\n      jump\t// in\n    tag_89:\n      stop\n        /* \"contracts/modules/FeeManager.sol\":177:316  function setFeeBps(uint96 newFeeBps) public onlyOwner {... */\n    tag_16:\n      callvalue\n      dup1\n      iszero\n      tag_93\n      jumpi\n      revert(0x00, 0x00)\n    tag_93:\n      pop\n      tag_94\n      0x04\n      dup1\n      calldatasize\n      sub\n      dup2\n      add\n      swap1\n      tag_95\n      swap2\n      swap1\n      tag_96\n      jump\t// in\n    tag_95:\n      tag_97\n      jump\t// in\n    tag_94:\n      stop\n        /* \"contracts/modules/ProductCatalog.sol\":1478:1812  function productInfo(uint256 productId) public view returns (... */\n    tag_17:\n      callvalue\n      dup1\n      iszero\n      tag_98\n      jumpi\n      revert(0x00, 0x00)\n    tag_98:\n      pop\n      tag_99\n      0x04\n      dup1\n      calldatasize\n      sub\n      dup2\n      add\n      swap1\n      tag_100\n      swap2\n      swap1\n      tag_40\n      jump\t// in\n    tag_100:\n      tag_101\n      jump\t// in\n    tag_99:\n      mload(0x40)\n      tag_102\n      swap7\n      swap6\n      swap5\n      swap4\n      swap3\n      swap2\n      swap1\n      tag_72\n      jump\t// in\n    tag_102:\n      mload(0x40)\n      dup1\n      swap2\n      sub\n      swap1\n      return\n        /* \"contracts/modules/ProductCatalog.sol\":296:936  function listProduct(... */\n    tag_18:\n      callvalue\n      dup1\n      iszero\n      tag_103\n      jumpi\n      revert(0x00, 0x00)\n    tag_103:\n      pop\n      tag_104\n      0x04\n      dup1\n      calldatasize\n      sub\n      dup2\n      add\n      swap1\n      tag_105\n      swap2\n      swap1\n      tag_106\n      jump\t// in\n    tag_105:\n      tag_107\n      jump\t// in\n    tag_104:\n      mload(0x40)\n      tag_108\n      swap2\n      swap1\n      tag_36\n      jump\t// in\n    tag_108:\n      mload(0x40)\n      dup1\n      swap2\n      sub\n      swap1\n      return\n        /* \"contracts/modules/Escrow.sol\":904:2111  function buy(uint256 productId, uint256 quantity)... */\n    tag_19:\n      tag_109\n      0x04\n      dup1\n      calldatasize\n      sub\n      dup2\n      add\n      swap1\n      tag_110\n      swap2\n      swap1\n      tag_45\n      jump\t// in\n    tag_110:\n      tag_111\n      jump\t// in\n    tag_109:\n      mload(0x40)\n      tag_112\n      swap2\n      swap1\n      tag_36\n      jump\t// in\n    tag_112:\n      mload(0x40)\n      dup1\n      swap2\n      sub\n      swap1\n      return\n        /* \"contracts/common/Ownable.sol\":449:658  function transferOwnership(address newOwner) public onlyOwner {... */\n    tag_20:\n      callvalue\n      dup1\n      iszero\n      tag_113\n      jumpi\n      revert(0x00, 0x00)\n    tag_113:\n      pop\n      tag_114\n      0x04\n      dup1\n      calldatasize\n      sub\n      dup2\n      add\n      swap1\n      tag_115\n      swap2\n      swap1\n      tag_116\n      jump\t// in\n    tag_115:\n      tag_117\n      jump\t// in\n    tag_114:\n      stop\n        /* \"contracts/modules/ProductCatalog.sol\":944:1470  function updateProduct(... */\n    tag_21:\n      callvalue\n      dup1\n      iszero\n      tag_118\n      jumpi\n      revert(0x00, 0x00)\n    tag_118:\n      pop\n      tag_119\n      0x04\n      dup1\n      calldatasize\n      sub\n      dup2\n      add\n      swap1\n      tag_120\n      swap2\n      swap1\n      tag_121\n      jump\t// in\n    tag_120:\n      tag_122\n      jump\t// in\n    tag_119:\n      stop\n        /* \"contracts/storage/MarketStorage.sol\":376:397  uint96  public feeBps */\n    tag_29:\n      0x04\n      0x00\n      swap1\n      sload\n      swap1\n      0x0100\n      exp\n      swap1\n      div\n      0xffffffffffffffffffffffff\n      and\n      dup2\n      jump\t// out\n        /* \"contracts/storage/MarketStorage.sol\":343:369  uint256 public nextOrderId */\n    tag_34:\n      sload(0x03)\n      dup2\n      jump\t// out\n        /* \"contracts/modules/Escrow.sol\":2921:3684  function sellerCancel(uint256 orderId) public nonReentrant {... */\n    tag_41:\n        /* \"contracts/common/ReentrancyGuard.sol\":228:229  1 */\n      0x01\n        /* \"contracts/common/ReentrancyGuard.sol\":217:224  _status */\n      dup1\n      sload\n        /* \"contracts/common/ReentrancyGuard.sol\":217:229  _status == 1 */\n      sub\n        /* \"contracts/common/ReentrancyGuard.sol\":213:250  if (_status == 1) revert Reentrancy() */\n      tag_124\n      jumpi\n        /* \"contracts/common/ReentrancyGuard.sol\":238:250  Reentrancy() */\n      mload(0x40)\n      0xab143c0600000000000000000000000000000000000000000000000000000000\n      dup2\n      mstore\n      0x04\n      add\n      mload(0x40)\n      dup1\n      swap2\n      sub\n      swap1\n      revert\n        /* \"contracts/common/ReentrancyGuard.sol\":213:250  if (_status == 1) revert Reentrancy() */\n    tag_124:\n        /* \"contracts/common/ReentrancyGuard.sol\":271:272  1 */\n      0x01\n        /* \"contracts/common/ReentrancyGuard.sol\":261:268  _status */\n      dup1\n        /* \"contracts/common/ReentrancyGuard.sol\":261:272  _status = 1 */\n      dup2\n      swap1\n      sstore\n      pop\n        /* \"contracts/modules/Escrow.sol\":3020:3038  OrderStatus.Placed */\n      0x01\n        /* \"contracts/modules/Escrow.sol\":2994:3038  orders[orderId].status != OrderStatus.Placed */\n      0x05\n      dup2\n      gt\n      iszero\n      tag_126\n      jumpi\n      tag_127\n      tag_128\n      jump\t// in\n    tag_127:\n    tag_126:\n        /* \"contracts/modules/Escrow.sol\":2994:3000  orders */\n      0x07\n        /* \"contracts/modules/Escrow.sol\":2994:3009  orders[orderId] */\n      0x00\n        /* \"contracts/modules/Escrow.sol\":3001:3008  orderId */\n      dup4\n        /* \"contracts/modules/Escrow.sol\":2994:3009  orders[orderId] */\n      dup2\n      mstore\n      0x20\n      add\n      swap1\n      dup2\n      mstore\n      0x20\n      add\n      0x00\n      keccak256\n        /* \"contracts/modules/Escrow.sol\":2994:3016  orders[orderId].status */\n      0x07\n      add\n      0x00\n      swap1\n      sload\n      swap1\n      0x0100\n      exp\n      swap1\n      div\n      0xff\n      and\n        /* \"contracts/modules/Escrow.sol\":2994:3038  orders[orderId].status != OrderStatus.Placed */\n      0x05\n      dup2\n      gt\n      iszero\n      tag_129\n      jumpi\n      tag_130\n      tag_128\n      jump\t// in\n    tag_130:\n    tag_129:\n      eq\n        /* \"contracts/modules/Escrow.sol\":2990:3075  if (orders[orderId].status != OrderStatus.Placed)... */\n      tag_131\n      jumpi\n        /* \"contracts/modules/Escrow.sol\":3059:3075  NotCancellable() */\n      mload(0x40)\n      0x67909b1500000000000000000000000000000000000000000000000000000000\n      dup2\n      mstore\n      0x04\n      add\n      mload(0x40)\n      dup1\n      swap2\n      sub\n      swap1\n      revert\n        /* \"contracts/modules/Escrow.sol\":2990:3075  if (orders[orderId].status != OrderStatus.Placed)... */\n    tag_131:\n        /* \"contracts/modules/Escrow.sol\":3103:3109  orders */\n      0x07\n        /* \"contracts/modules/Escrow.sol\":3103:3118  orders[orderId] */\n      0x00\n        /* \"contracts/modules/Escrow.sol\":3110:3117  orderId */\n      dup3\n        /* \"contracts/modules/Escrow.sol\":3103:3118  orders[orderId] */\n      dup2\n      mstore\n      0x20\n      add\n      swap1\n      dup2\n      mstore\n      0x20\n      add\n      0x00\n      keccak256\n        /* \"contracts/modules/Escrow.sol\":3103:3125  orders[orderId].seller */\n      0x03\n      add\n      0x00\n      swap1\n      sload\n      swap1\n      0x0100\n      exp\n      swap1\n      div\n      0xffffffffffffffffffffffffffffffffffffffff\n      and\n        /* \"contracts/modules/Escrow.sol\":3089:3125  msg.sender != orders[orderId].seller */\n      0xffffffffffffffffffffffffffffffffffffffff\n      and\n        /* \"contracts/modules/Escrow.sol\":3089:3099  msg.sender */\n      caller\n        /* \"contracts/modules/Escrow.sol\":3089:3125  msg.sender != orders[orderId].seller */\n      0xffffffffffffffffffffffffffffffffffffffff\n      and\n      eq\n        /* \"contracts/modules/Escrow.sol\":3085:3145  if (msg.sender != orders[orderId].seller) revert NotSeller() */\n      tag_132\n      jumpi\n        /* \"contracts/modules/Escrow.sol\":3134:3145  NotSeller() */\n      mload(0x40)\n      0x5ec8235100000000000000000000000000000000000000000000000000000000\n      dup2\n      mstore\n      0x04\n      add\n      mload(0x40)\n      dup1\n      swap2\n      sub\n      swap1\n      revert\n        /* \"contracts/modules/Escrow.sol\":3085:3145  if (msg.sender != orders[orderId].seller) revert NotSeller() */\n    tag_132:\n        /* \"contracts/modules/Escrow.sol\":3181:3202  OrderStatus.Cancelled */\n      0x04\n        /* \"contracts/modules/Escrow.sol\":3156:3162  orders */\n      0x07\n        /* \"contracts/modules/Escrow.sol\":3156:3171  orders[orderId] */\n      0x00\n        /* \"contracts/modules/Escrow.sol\":3163:3170  orderId */\n      dup4\n        /* \"contracts/modules/Escrow.sol\":3156:3171  orders[orderId] */\n      dup2\n      mstore\n      0x20\n      add\n      swap1\n      dup2\n      mstore\n      0x20\n      add\n      0x00\n      keccak256\n        /* \"contracts/modules/Escrow.sol\":3156:3178  orders[orderId].status */\n      0x07\n      add\n      0x00\n        /* \"contracts/modules/Escrow.sol\":3156:3202  orders[orderId].status = OrderStatus.Cancelled */\n      0x0100\n      exp\n      dup2\n      sload\n      dup2\n      0xff\n      mul\n      not\n      and\n      swap1\n      dup4\n      0x05\n      dup2\n      gt\n      iszero\n      tag_133\n      jumpi\n      tag_134\n      tag_128\n      jump\t// in\n    tag_134:\n    tag_133:\n      mul\n      or\n      swap1\n      sstore\n      pop\n        /* \"contracts/modules/Escrow.sol\":3290:3296  orders */\n      0x07\n        /* \"contracts/modules/Escrow.sol\":3290:3305  orders[orderId] */\n      0x00\n        /* \"contracts/modules/Escrow.sol\":3297:3304  orderId */\n      dup3\n        /* \"contracts/modules/Escrow.sol\":3290:3305  orders[orderId] */\n      dup2\n      mstore\n      0x20\n      add\n      swap1\n      dup2\n      mstore\n      0x20\n      add\n      0x00\n      keccak256\n        /* \"contracts/modules/Escrow.sol\":3290:3327  orders[orderId]... */\n      0x04\n      add\n      sload\n        /* \"contracts/modules/Escrow.sol\":3238:3246  products */\n      0x06\n        /* \"contracts/modules/Escrow.sol\":3238:3273  products[orders[orderId].productId] */\n      0x00\n        /* \"contracts/modules/Escrow.sol\":3247:3253  orders */\n      0x07\n        /* \"contracts/modules/Escrow.sol\":3247:3262  orders[orderId] */\n      0x00\n        /* \"contracts/modules/Escrow.sol\":3254:3261  orderId */\n      dup6\n        /* \"contracts/modules/Escrow.sol\":3247:3262  orders[orderId] */\n      dup2\n      mstore\n      0x20\n      add\n      swap1\n      dup2\n      mstore\n      0x20\n      add\n      0x00\n      keccak256\n        /* \"contracts/modules/Escrow.sol\":3247:3272  orders[orderId].productId */\n      0x01\n      add\n      sload\n        /* \"contracts/modules/Escrow.sol\":3238:3273  products[orders[orderId].productId] */\n      dup2\n      mstore\n      0x20\n      add\n      swap1\n      dup2\n      mstore\n      0x20\n      add\n      0x00\n      keccak256\n        /* \"contracts/modules/Escrow.sol\":3238:3286  products[orders[orderId].productId].availableQty */\n      0x04\n      add\n      0x00\n        /* \"contracts/modules/Escrow.sol\":3238:3327  products[orders[orderId].productId].availableQty += orders[orderId]... */\n      dup3\n      dup3\n      sload\n      tag_135\n      swap2\n      swap1\n      tag_136\n      jump\t// in\n    tag_135:\n      swap3\n      pop\n      pop\n      dup2\n      swap1\n      sstore\n      pop\n        /* \"contracts/modules/Escrow.sol\":3338:3349  uint256 fee */\n      0x00\n        /* \"contracts/modules/Escrow.sol\":3390:3396  10_000 */\n      0x2710\n        /* \"contracts/modules/Escrow.sol\":3380:3386  feeBps */\n      0x04\n      0x00\n      swap1\n      sload\n      swap1\n      0x0100\n      exp\n      swap1\n      div\n      0xffffffffffffffffffffffff\n      and\n        /* \"contracts/modules/Escrow.sol\":3353:3386  orders[orderId].totalWei * feeBps */\n      0xffffffffffffffffffffffff\n      and\n        /* \"contracts/modules/Escrow.sol\":3353:3359  orders */\n      0x07\n        /* \"contracts/modules/Escrow.sol\":3353:3368  orders[orderId] */\n      0x00\n        /* \"contracts/modules/Escrow.sol\":3360:3367  orderId */\n      dup6\n        /* \"contracts/modules/Escrow.sol\":3353:3368  orders[orderId] */\n      dup2\n      mstore\n      0x20\n      add\n      swap1\n      dup2\n      mstore\n      0x20\n      add\n      0x00\n      keccak256\n        /* \"contracts/modules/Escrow.sol\":3353:3377  orders[orderId].totalWei */\n      0x06\n      add\n      sload\n        /* \"contracts/modules/Escrow.sol\":3353:3386  orders[orderId].totalWei * feeBps */\n      tag_137\n      swap2\n      swap1\n      tag_138\n      jump\t// in\n    tag_137:\n        /* \"contracts/modules/Escrow.sol\":3352:3396  (orders[orderId].totalWei * feeBps) / 10_000 */\n      tag_139\n      swap2\n      swap1\n      tag_140\n      jump\t// in\n    tag_139:\n        /* \"contracts/modules/Escrow.sol\":3338:3396  uint256 fee = (orders[orderId].totalWei * feeBps) / 10_000 */\n      swap1\n      pop\n        /* \"contracts/modules/Escrow.sol\":3406:3420  uint256 refund */\n      0x00\n        /* \"contracts/modules/Escrow.sol\":3450:3453  fee */\n      dup2\n        /* \"contracts/modules/Escrow.sol\":3423:3429  orders */\n      0x07\n        /* \"contracts/modules/Escrow.sol\":3423:3438  orders[orderId] */\n      0x00\n        /* \"contracts/modules/Escrow.sol\":3430:3437  orderId */\n      dup6\n        /* \"contracts/modules/Escrow.sol\":3423:3438  orders[orderId] */\n      dup2\n      mstore\n      0x20\n      add\n      swap1\n      dup2\n      mstore\n      0x20\n      add\n      0x00\n      keccak256\n        /* \"contracts/modules/Escrow.sol\":3423:3447  orders[orderId].totalWei */\n      0x06\n      add\n      sload\n        /* \"contracts/modules/Escrow.sol\":3423:3453  orders[orderId].totalWei + fee */\n      tag_141\n      swap2\n      swap1\n      tag_136\n      jump\t// in\n    tag_141:\n        /* \"contracts/modules/Escrow.sol\":3406:3453  uint256 refund = orders[orderId].totalWei + fee */\n      swap1\n      pop\n        /* \"contracts/modules/Escrow.sol\":3465:3472  bool ok */\n      0x00\n        /* \"contracts/modules/Escrow.sol\":3486:3492  orders */\n      0x07\n        /* \"contracts/modules/Escrow.sol\":3486:3501  orders[orderId] */\n      0x00\n        /* \"contracts/modules/Escrow.sol\":3493:3500  orderId */\n      dup6\n        /* \"contracts/modules/Escrow.sol\":3486:3501  orders[orderId] */\n      dup2\n      mstore\n      0x20\n      add\n      swap1\n      dup2\n      mstore\n      0x20\n      add\n      0x00\n      keccak256\n        /* \"contracts/modules/Escrow.sol\":3486:3507  orders[orderId].buyer */\n      0x02\n      add\n      0x00\n      swap1\n      sload\n      swap1\n      0x0100\n      exp\n      swap1\n      div\n      0xffffffffffffffffffffffffffffffffffffffff\n      and\n        /* \"contracts/modules/Escrow.sol\":3478:3513  payable(orders[orderId].buyer).call */\n      0xffffffffffffffffffffffffffffffffffffffff\n      and\n        /* \"contracts/modules/Escrow.sol\":3521:3527  refund */\n      dup3\n        /* \"contracts/modules/Escrow.sol\":3478:3532  payable(orders[orderId].buyer).call{value: refund}(\"\") */\n      mload(0x40)\n      tag_142\n      swap1\n      tag_143\n      jump\t// in\n    tag_142:\n      0x00\n      mload(0x40)\n      dup1\n      dup4\n      sub\n      dup2\n      dup6\n      dup8\n      gas\n      call\n      swap3\n      pop\n      pop\n      pop\n      returndatasize\n      dup1\n      0x00\n      dup2\n      eq\n      tag_146\n      jumpi\n      mload(0x40)\n      swap2\n      pop\n      and(add(returndatasize, 0x3f), not(0x1f))\n      dup3\n      add\n      0x40\n      mstore\n      returndatasize\n      dup3\n      mstore\n      returndatasize\n      0x00\n      0x20\n      dup5\n      add\n      returndatacopy\n      jump(tag_145)\n    tag_146:\n      0x60\n      swap2\n      pop\n    tag_145:\n      pop\n        /* \"contracts/modules/Escrow.sol\":3464:3532  (bool ok, ) = payable(orders[orderId].buyer).call{value: refund}(\"\") */\n      pop\n      swap1\n      pop\n        /* \"contracts/modules/Escrow.sol\":3550:3552  ok */\n      dup1\n        /* \"contracts/modules/Escrow.sol\":3542:3570  require(ok, \"refund failed\") */\n      tag_147\n      jumpi\n      mload(0x40)\n      0x08c379a000000000000000000000000000000000000000000000000000000000\n      dup2\n      mstore\n      0x04\n      add\n      tag_148\n      swap1\n      tag_149\n      jump\t// in\n    tag_148:\n      mload(0x40)\n      dup1\n      swap2\n      sub\n      swap1\n      revert\n    tag_147:\n        /* \"contracts/modules/Escrow.sol\":3601:3608  orderId */\n      dup4\n        /* \"contracts/modules/Escrow.sol\":3586:3609  OrderCancelled(orderId) */\n      0x61b9399f2f0f32ca39ce8d7be32caed5ec22fe07a6daba3a467ed479ec606582\n      mload(0x40)\n      mload(0x40)\n      dup1\n      swap2\n      sub\n      swap1\n      log2\n        /* \"contracts/modules/Escrow.sol\":3647:3653  orders */\n      0x07\n        /* \"contracts/modules/Escrow.sol\":3647:3662  orders[orderId] */\n      0x00\n        /* \"contracts/modules/Escrow.sol\":3654:3661  orderId */\n      dup6\n        /* \"contracts/modules/Escrow.sol\":3647:3662  orders[orderId] */\n      dup2\n      mstore\n      0x20\n      add\n      swap1\n      dup2\n      mstore\n      0x20\n      add\n      0x00\n      keccak256\n        /* \"contracts/modules/Escrow.sol\":3647:3668  orders[orderId].buyer */\n      0x02\n      add\n      0x00\n      swap1\n      sload\n      swap1\n      0x0100\n      exp\n      swap1\n      div\n      0xffffffffffffffffffffffffffffffffffffffff\n      and\n        /* \"contracts/modules/Escrow.sol\":3624:3677  OrderRefunded(orderId, orders[orderId].buyer, refund) */\n      0xffffffffffffffffffffffffffffffffffffffff\n      and\n        /* \"contracts/modules/Escrow.sol\":3638:3645  orderId */\n      dup5\n        /* \"contracts/modules/Escrow.sol\":3624:3677  OrderRefunded(orderId, orders[orderId].buyer, refund) */\n      0xe18debf292fbfc1f009a15d4e4932c1da2be34d7343f86f50989d09a04571e1b\n        /* \"contracts/modules/Escrow.sol\":3670:3676  refund */\n      dup5\n        /* \"contracts/modules/Escrow.sol\":3624:3677  OrderRefunded(orderId, orders[orderId].buyer, refund) */\n      mload(0x40)\n      tag_150\n      swap2\n      swap1\n      tag_36\n      jump\t// in\n    tag_150:\n      mload(0x40)\n      dup1\n      swap2\n      sub\n      swap1\n      log3\n        /* \"contracts/modules/Escrow.sol\":2980:3684  {... */\n      pop\n      pop\n      pop\n        /* \"contracts/common/ReentrancyGuard.sol\":305:306  0 */\n      0x00\n        /* \"contracts/common/ReentrancyGuard.sol\":295:302  _status */\n      0x01\n        /* \"contracts/common/ReentrancyGuard.sol\":295:306  _status = 0 */\n      dup2\n      swap1\n      sstore\n      pop\n        /* \"contracts/modules/Escrow.sol\":2921:3684  function sellerCancel(uint256 orderId) public nonReentrant {... */\n      pop\n      jump\t// out\n        /* \"contracts/modules/Escrow.sol\":612:898  function quote(uint256 productId, uint256 quantity)... */\n    tag_46:\n        /* \"contracts/modules/Escrow.sol\":722:735  uint256 total */\n      0x00\n        /* \"contracts/modules/Escrow.sol\":749:760  uint256 fee */\n      0x00\n        /* \"contracts/modules/Escrow.sol\":774:791  uint256 payAmount */\n      0x00\n        /* \"contracts/modules/Escrow.sol\":831:858  _quote(productId, quantity) */\n      tag_152\n        /* \"contracts/modules/Escrow.sol\":838:847  productId */\n      dup6\n        /* \"contracts/modules/Escrow.sol\":849:857  quantity */\n      dup6\n        /* \"contracts/modules/Escrow.sol\":831:837  _quote */\n      tag_153\n        /* \"contracts/modules/Escrow.sol\":831:858  _quote(productId, quantity) */\n      jump\t// in\n    tag_152:\n        /* \"contracts/modules/Escrow.sol\":816:858  (total, fee) = _quote(productId, quantity) */\n      dup1\n      swap4\n      pop\n      dup2\n      swap5\n      pop\n      pop\n      pop\n        /* \"contracts/modules/Escrow.sol\":888:891  fee */\n      dup2\n        /* \"contracts/modules/Escrow.sol\":880:885  total */\n      dup4\n        /* \"contracts/modules/Escrow.sol\":880:891  total + fee */\n      tag_154\n      swap2\n      swap1\n      tag_136\n      jump\t// in\n    tag_154:\n        /* \"contracts/modules/Escrow.sol\":868:891  payAmount = total + fee */\n      swap1\n      pop\n        /* \"contracts/modules/Escrow.sol\":612:898  function quote(uint256 productId, uint256 quantity)... */\n      swap3\n      pop\n      swap3\n      pop\n      swap3\n      jump\t// out\n        /* \"contracts/modules/Escrow.sol\":3690:4352  function adminRefund(uint256 orderId) public onlyOwner nonReentrant {... */\n    tag_52:\n        /* \"contracts/common/Ownable.sol\":277:282  owner */\n      0x00\n      0x00\n      swap1\n      sload\n      swap1\n      0x0100\n      exp\n      swap1\n      div\n      0xffffffffffffffffffffffffffffffffffffffff\n      and\n        /* \"contracts/common/Ownable.sol\":263:282  msg.sender != owner */\n      0xffffffffffffffffffffffffffffffffffffffff\n      and\n        /* \"contracts/common/Ownable.sol\":263:273  msg.sender */\n      caller\n        /* \"contracts/common/Ownable.sol\":263:282  msg.sender != owner */\n      0xffffffffffffffffffffffffffffffffffffffff\n      and\n      eq\n        /* \"contracts/common/Ownable.sol\":259:302  if (msg.sender != owner) revert OnlyOwner() */\n      tag_156\n      jumpi\n        /* \"contracts/common/Ownable.sol\":291:302  OnlyOwner() */\n      mload(0x40)\n      0x5fc483c500000000000000000000000000000000000000000000000000000000\n      dup2\n      mstore\n      0x04\n      add\n      mload(0x40)\n      dup1\n      swap2\n      sub\n      swap1\n      revert\n        /* \"contracts/common/Ownable.sol\":259:302  if (msg.sender != owner) revert OnlyOwner() */\n    tag_156:\n        /* \"contracts/common/ReentrancyGuard.sol\":228:229  1 */\n      0x01\n        /* \"contracts/common/ReentrancyGuard.sol\":217:224  _status */\n      dup1\n      sload\n        /* \"contracts/common/ReentrancyGuard.sol\":217:229  _status == 1 */\n      sub\n        /* \"contracts/common/ReentrancyGuard.sol\":213:250  if (_status == 1) revert Reentrancy() */\n      tag_158\n      jumpi\n        /* \"contracts/common/ReentrancyGuard.sol\":238:250  Reentrancy() */\n      mload(0x40)\n      0xab143c0600000000000000000000000000000000000000000000000000000000\n      dup2\n      mstore\n      0x04\n      add\n      mload(0x40)\n      dup1\n      swap2\n      sub\n      swap1\n      revert\n        /* \"contracts/common/ReentrancyGuard.sol\":213:250  if (_status == 1) revert Reentrancy() */\n    tag_158:\n        /* \"contracts/common/ReentrancyGuard.sol\":271:272  1 */\n      0x01\n        /* \"contracts/common/ReentrancyGuard.sol\":261:268  _status */\n      dup1\n        /* \"contracts/common/ReentrancyGuard.sol\":261:272  _status = 1 */\n      dup2\n      swap1\n      sstore\n      pop\n        /* \"contracts/modules/Escrow.sol\":3798:3816  OrderStatus.Placed */\n      0x01\n        /* \"contracts/modules/Escrow.sol\":3772:3816  orders[orderId].status != OrderStatus.Placed */\n      0x05\n      dup2\n      gt\n      iszero\n      tag_160\n      jumpi\n      tag_161\n      tag_128\n      jump\t// in\n    tag_161:\n    tag_160:\n        /* \"contracts/modules/Escrow.sol\":3772:3778  orders */\n      0x07\n        /* \"contracts/modules/Escrow.sol\":3772:3787  orders[orderId] */\n      0x00\n        /* \"contracts/modules/Escrow.sol\":3779:3786  orderId */\n      dup4\n        /* \"contracts/modules/Escrow.sol\":3772:3787  orders[orderId] */\n      dup2\n      mstore\n      0x20\n      add\n      swap1\n      dup2\n      mstore\n      0x20\n      add\n      0x00\n      keccak256\n        /* \"contracts/modules/Escrow.sol\":3772:3794  orders[orderId].status */\n      0x07\n      add\n      0x00\n      swap1\n      sload\n      swap1\n      0x0100\n      exp\n      swap1\n      div\n      0xff\n      and\n        /* \"contracts/modules/Escrow.sol\":3772:3816  orders[orderId].status != OrderStatus.Placed */\n      0x05\n      dup2\n      gt\n      iszero\n      tag_162\n      jumpi\n      tag_163\n      tag_128\n      jump\t// in\n    tag_163:\n    tag_162:\n      eq\n        /* \"contracts/modules/Escrow.sol\":3768:3852  if (orders[orderId].status != OrderStatus.Placed)... */\n      tag_164\n      jumpi\n        /* \"contracts/modules/Escrow.sol\":3837:3852  NotRefundable() */\n      mload(0x40)\n      0x3742d1f600000000000000000000000000000000000000000000000000000000\n      dup2\n      mstore\n      0x04\n      add\n      mload(0x40)\n      dup1\n      swap2\n      sub\n      swap1\n      revert\n        /* \"contracts/modules/Escrow.sol\":3768:3852  if (orders[orderId].status != OrderStatus.Placed)... */\n    tag_164:\n        /* \"contracts/modules/Escrow.sol\":3888:3908  OrderStatus.Refunded */\n      0x03\n        /* \"contracts/modules/Escrow.sol\":3863:3869  orders */\n      0x07\n        /* \"contracts/modules/Escrow.sol\":3863:3878  orders[orderId] */\n      0x00\n        /* \"contracts/modules/Escrow.sol\":3870:3877  orderId */\n      dup4\n        /* \"contracts/modules/Escrow.sol\":3863:3878  orders[orderId] */\n      dup2\n      mstore\n      0x20\n      add\n      swap1\n      dup2\n      mstore\n      0x20\n      add\n      0x00\n      keccak256\n        /* \"contracts/modules/Escrow.sol\":3863:3885  orders[orderId].status */\n      0x07\n      add\n      0x00\n        /* \"contracts/modules/Escrow.sol\":3863:3908  orders[orderId].status = OrderStatus.Refunded */\n      0x0100\n      exp\n      dup2\n      sload\n      dup2\n      0xff\n      mul\n      not\n      and\n      swap1\n      dup4\n      0x05\n      dup2\n      gt\n      iszero\n      tag_165\n      jumpi\n      tag_166\n      tag_128\n      jump\t// in\n    tag_166:\n    tag_165:\n      mul\n      or\n      swap1\n      sstore\n      pop\n        /* \"contracts/modules/Escrow.sol\":3996:4002  orders */\n      0x07\n        /* \"contracts/modules/Escrow.sol\":3996:4011  orders[orderId] */\n      0x00\n        /* \"contracts/modules/Escrow.sol\":4003:4010  orderId */\n      dup3\n        /* \"contracts/modules/Escrow.sol\":3996:4011  orders[orderId] */\n      dup2\n      mstore\n      0x20\n      add\n      swap1\n      dup2\n      mstore\n      0x20\n      add\n      0x00\n      keccak256\n        /* \"contracts/modules/Escrow.sol\":3996:4033  orders[orderId]... */\n      0x04\n      add\n      sload\n        /* \"contracts/modules/Escrow.sol\":3944:3952  products */\n      0x06\n        /* \"contracts/modules/Escrow.sol\":3944:3979  products[orders[orderId].productId] */\n      0x00\n        /* \"contracts/modules/Escrow.sol\":3953:3959  orders */\n      0x07\n        /* \"contracts/modules/Escrow.sol\":3953:3968  orders[orderId] */\n      0x00\n        /* \"contracts/modules/Escrow.sol\":3960:3967  orderId */\n      dup6\n        /* \"contracts/modules/Escrow.sol\":3953:3968  orders[orderId] */\n      dup2\n      mstore\n      0x20\n      add\n      swap1\n      dup2\n      mstore\n      0x20\n      add\n      0x00\n      keccak256\n        /* \"contracts/modules/Escrow.sol\":3953:3978  orders[orderId].productId */\n      0x01\n      add\n      sload\n        /* \"contracts/modules/Escrow.sol\":3944:3979  products[orders[orderId].productId] */\n      dup2\n      mstore\n      0x20\n      add\n      swap1\n      dup2\n      mstore\n      0x20\n      add\n      0x00\n      keccak256\n        /* \"contracts/modules/Escrow.sol\":3944:3992  products[orders[orderId].productId].availableQty */\n      0x04\n      add\n      0x00\n        /* \"contracts/modules/Escrow.sol\":3944:4033  products[orders[orderId].productId].availableQty += orders[orderId]... */\n      dup3\n      dup3\n      sload\n      tag_167\n      swap2\n      swap1\n      tag_136\n      jump\t// in\n    tag_167:\n      swap3\n      pop\n      pop\n      dup2\n      swap1\n      sstore\n      pop\n        /* \"contracts/modules/Escrow.sol\":4044:4055  uint256 fee */\n      0x00\n        /* \"contracts/modules/Escrow.sol\":4096:4102  10_000 */\n      0x2710\n        /* \"contracts/modules/Escrow.sol\":4086:4092  feeBps */\n      0x04\n      0x00\n      swap1\n      sload\n      swap1\n      0x0100\n      exp\n      swap1\n      div\n      0xffffffffffffffffffffffff\n      and\n        /* \"contracts/modules/Escrow.sol\":4059:4092  orders[orderId].totalWei * feeBps */\n      0xffffffffffffffffffffffff\n      and\n        /* \"contracts/modules/Escrow.sol\":4059:4065  orders */\n      0x07\n        /* \"contracts/modules/Escrow.sol\":4059:4074  orders[orderId] */\n      0x00\n        /* \"contracts/modules/Escrow.sol\":4066:4073  orderId */\n      dup6\n        /* \"contracts/modules/Escrow.sol\":4059:4074  orders[orderId] */\n      dup2\n      mstore\n      0x20\n      add\n      swap1\n      dup2\n      mstore\n      0x20\n      add\n      0x00\n      keccak256\n        /* \"contracts/modules/Escrow.sol\":4059:4083  orders[orderId].totalWei */\n      0x06\n      add\n      sload\n        /* \"contracts/modules/Escrow.sol\":4059:4092  orders[orderId].totalWei * feeBps */\n      tag_168\n      swap2\n      swap1\n      tag_138\n      jump\t// in\n    tag_168:\n        /* \"contracts/modules/Escrow.sol\":4058:4102  (orders[orderId].totalWei * feeBps) / 10_000 */\n      tag_169\n      swap2\n      swap1\n      tag_140\n      jump\t// in\n    tag_169:\n        /* \"contracts/modules/Escrow.sol\":4044:4102  uint256 fee = (orders[orderId].totalWei * feeBps) / 10_000 */\n      swap1\n      pop\n        /* \"contracts/modules/Escrow.sol\":4112:4126  uint256 refund */\n      0x00\n        /* \"contracts/modules/Escrow.sol\":4156:4159  fee */\n      dup2\n        /* \"contracts/modules/Escrow.sol\":4129:4135  orders */\n      0x07\n        /* \"contracts/modules/Escrow.sol\":4129:4144  orders[orderId] */\n      0x00\n        /* \"contracts/modules/Escrow.sol\":4136:4143  orderId */\n      dup6\n        /* \"contracts/modules/Escrow.sol\":4129:4144  orders[orderId] */\n      dup2\n      mstore\n      0x20\n      add\n      swap1\n      dup2\n      mstore\n      0x20\n      add\n      0x00\n      keccak256\n        /* \"contracts/modules/Escrow.sol\":4129:4153  orders[orderId].totalWei */\n      0x06\n      add\n      sload\n        /* \"contracts/modules/Escrow.sol\":4129:4159  orders[orderId].totalWei + fee */\n      tag_170\n      swap2\n      swap1\n      tag_136\n      jump\t// in\n    tag_170:\n        /* \"contracts/modules/Escrow.sol\":4112:4159  uint256 refund = orders[orderId].totalWei + fee */\n      swap1\n      pop\n        /* \"contracts/modules/Escrow.sol\":4171:4178  bool ok */\n      0x00\n        /* \"contracts/modules/Escrow.sol\":4192:4198  orders */\n      0x07\n        /* \"contracts/modules/Escrow.sol\":4192:4207  orders[orderId] */\n      0x00\n        /* \"contracts/modules/Escrow.sol\":4199:4206  orderId */\n      dup6\n        /* \"contracts/modules/Escrow.sol\":4192:4207  orders[orderId] */\n      dup2\n      mstore\n      0x20\n      add\n      swap1\n      dup2\n      mstore\n      0x20\n      add\n      0x00\n      keccak256\n        /* \"contracts/modules/Escrow.sol\":4192:4213  orders[orderId].buyer */\n      0x02\n      add\n      0x00\n      swap1\n      sload\n      swap1\n      0x0100\n      exp\n      swap1\n      div\n      0xffffffffffffffffffffffffffffffffffffffff\n      and\n        /* \"contracts/modules/Escrow.sol\":4184:4219  payable(orders[orderId].buyer).call */\n      0xffffffffffffffffffffffffffffffffffffffff\n      and\n        /* \"contracts/modules/Escrow.sol\":4227:4233  refund */\n      dup3\n        /* \"contracts/modules/Escrow.sol\":4184:4238  payable(orders[orderId].buyer).call{value: refund}(\"\") */\n      mload(0x40)\n      tag_171\n      swap1\n      tag_143\n      jump\t// in\n    tag_171:\n      0x00\n      mload(0x40)\n      dup1\n      dup4\n      sub\n      dup2\n      dup6\n      dup8\n      gas\n      call\n      swap3\n      pop\n      pop\n      pop\n      returndatasize\n      dup1\n      0x00\n      dup2\n      eq\n      tag_174\n      jumpi\n      mload(0x40)\n      swap2\n      pop\n      and(add(returndatasize, 0x3f), not(0x1f))\n      dup3\n      add\n      0x40\n      mstore\n      returndatasize\n      dup3\n      mstore\n      returndatasize\n      0x00\n      0x20\n      dup5\n      add\n      returndatacopy\n      jump(tag_173)\n    tag_174:\n      0x60\n      swap2\n      pop\n    tag_173:\n      pop\n        /* \"contracts/modules/Escrow.sol\":4170:4238  (bool ok, ) = payable(orders[orderId].buyer).call{value: refund}(\"\") */\n      pop\n      swap1\n      pop\n        /* \"contracts/modules/Escrow.sol\":4256:4258  ok */\n      dup1\n        /* \"contracts/modules/Escrow.sol\":4248:4276  require(ok, \"refund failed\") */\n      tag_175\n      jumpi\n      mload(0x40)\n      0x08c379a000000000000000000000000000000000000000000000000000000000\n      dup2\n      mstore\n      0x04\n      add\n      tag_176\n      swap1\n      tag_149\n      jump\t// in\n    tag_176:\n      mload(0x40)\n      dup1\n      swap2\n      sub\n      swap1\n      revert\n    tag_175:\n        /* \"contracts/modules/Escrow.sol\":4315:4321  orders */\n      0x07\n        /* \"contracts/modules/Escrow.sol\":4315:4330  orders[orderId] */\n      0x00\n        /* \"contracts/modules/Escrow.sol\":4322:4329  orderId */\n      dup6\n        /* \"contracts/modules/Escrow.sol\":4315:4330  orders[orderId] */\n      dup2\n      mstore\n      0x20\n      add\n      swap1\n      dup2\n      mstore\n      0x20\n      add\n      0x00\n      keccak256\n        /* \"contracts/modules/Escrow.sol\":4315:4336  orders[orderId].buyer */\n      0x02\n      add\n      0x00\n      swap1\n      sload\n      swap1\n      0x0100\n      exp\n      swap1\n      div\n      0xffffffffffffffffffffffffffffffffffffffff\n      and\n        /* \"contracts/modules/Escrow.sol\":4292:4345  OrderRefunded(orderId, orders[orderId].buyer, refund) */\n      0xffffffffffffffffffffffffffffffffffffffff\n      and\n        /* \"contracts/modules/Escrow.sol\":4306:4313  orderId */\n      dup5\n        /* \"contracts/modules/Escrow.sol\":4292:4345  OrderRefunded(orderId, orders[orderId].buyer, refund) */\n      0xe18debf292fbfc1f009a15d4e4932c1da2be34d7343f86f50989d09a04571e1b\n        /* \"contracts/modules/Escrow.sol\":4338:4344  refund */\n      dup5\n        /* \"contracts/modules/Escrow.sol\":4292:4345  OrderRefunded(orderId, orders[orderId].buyer, refund) */\n      mload(0x40)\n      tag_177\n      swap2\n      swap1\n      tag_36\n      jump\t// in\n    tag_177:\n      mload(0x40)\n      dup1\n      swap2\n      sub\n      swap1\n      log3\n        /* \"contracts/modules/Escrow.sol\":3758:4352  {... */\n      pop\n      pop\n      pop\n        /* \"contracts/common/ReentrancyGuard.sol\":305:306  0 */\n      0x00\n        /* \"contracts/common/ReentrancyGuard.sol\":295:302  _status */\n      0x01\n        /* \"contracts/common/ReentrancyGuard.sol\":295:306  _status = 0 */\n      dup2\n      swap1\n      sstore\n      pop\n        /* \"contracts/modules/Escrow.sol\":3690:4352  function adminRefund(uint256 orderId) public onlyOwner nonReentrant {... */\n      pop\n      jump\t// out\n        /* \"contracts/modules/Escrow.sol\":2117:2915  function buyerConfirmReceived(uint256 orderId) public nonReentrant {... */\n    tag_56:\n        /* \"contracts/common/ReentrancyGuard.sol\":228:229  1 */\n      0x01\n        /* \"contracts/common/ReentrancyGuard.sol\":217:224  _status */\n      dup1\n      sload\n        /* \"contracts/common/ReentrancyGuard.sol\":217:229  _status == 1 */\n      sub\n        /* \"contracts/common/ReentrancyGuard.sol\":213:250  if (_status == 1) revert Reentrancy() */\n      tag_179\n      jumpi\n        /* \"contracts/common/ReentrancyGuard.sol\":238:250  Reentrancy() */\n      mload(0x40)\n      0xab143c0600000000000000000000000000000000000000000000000000000000\n      dup2\n      mstore\n      0x04\n      add\n      mload(0x40)\n      dup1\n      swap2\n      sub\n      swap1\n      revert\n        /* \"contracts/common/ReentrancyGuard.sol\":213:250  if (_status == 1) revert Reentrancy() */\n    tag_179:\n        /* \"contracts/common/ReentrancyGuard.sol\":271:272  1 */\n      0x01\n        /* \"contracts/common/ReentrancyGuard.sol\":261:268  _status */\n      dup1\n        /* \"contracts/common/ReentrancyGuard.sol\":261:272  _status = 1 */\n      dup2\n      swap1\n      sstore\n      pop\n        /* \"contracts/modules/Escrow.sol\":2224:2242  OrderStatus.Placed */\n      0x01\n        /* \"contracts/modules/Escrow.sol\":2198:2242  orders[orderId].status != OrderStatus.Placed */\n      0x05\n      dup2\n      gt\n      iszero\n      tag_181\n      jumpi\n      tag_182\n      tag_128\n      jump\t// in\n    tag_182:\n    tag_181:\n        /* \"contracts/modules/Escrow.sol\":2198:2204  orders */\n      0x07\n        /* \"contracts/modules/Escrow.sol\":2198:2213  orders[orderId] */\n      0x00\n        /* \"contracts/modules/Escrow.sol\":2205:2212  orderId */\n      dup4\n        /* \"contracts/modules/Escrow.sol\":2198:2213  orders[orderId] */\n      dup2\n      mstore\n      0x20\n      add\n      swap1\n      dup2\n      mstore\n      0x20\n      add\n      0x00\n      keccak256\n        /* \"contracts/modules/Escrow.sol\":2198:2220  orders[orderId].status */\n      0x07\n      add\n      0x00\n      swap1\n      sload\n      swap1\n      0x0100\n      exp\n      swap1\n      div\n      0xff\n      and\n        /* \"contracts/modules/Escrow.sol\":2198:2242  orders[orderId].status != OrderStatus.Placed */\n      0x05\n      dup2\n      gt\n      iszero\n      tag_183\n      jumpi\n      tag_184\n      tag_128\n      jump\t// in\n    tag_184:\n    tag_183:\n      eq\n        /* \"contracts/modules/Escrow.sol\":2194:2262  if (orders[orderId].status != OrderStatus.Placed) revert NotPlaced() */\n      tag_185\n      jumpi\n        /* \"contracts/modules/Escrow.sol\":2251:2262  NotPlaced() */\n      mload(0x40)\n      0xa5eeaea300000000000000000000000000000000000000000000000000000000\n      dup2\n      mstore\n      0x04\n      add\n      mload(0x40)\n      dup1\n      swap2\n      sub\n      swap1\n      revert\n        /* \"contracts/modules/Escrow.sol\":2194:2262  if (orders[orderId].status != OrderStatus.Placed) revert NotPlaced() */\n    tag_185:\n        /* \"contracts/modules/Escrow.sol\":2290:2296  orders */\n      0x07\n        /* \"contracts/modules/Escrow.sol\":2290:2305  orders[orderId] */\n      0x00\n        /* \"contracts/modules/Escrow.sol\":2297:2304  orderId */\n      dup3\n        /* \"contracts/modules/Escrow.sol\":2290:2305  orders[orderId] */\n      dup2\n      mstore\n      0x20\n      add\n      swap1\n      dup2\n      mstore\n      0x20\n      add\n      0x00\n      keccak256\n        /* \"contracts/modules/Escrow.sol\":2290:2311  orders[orderId].buyer */\n      0x02\n      add\n      0x00\n      swap1\n      sload\n      swap1\n      0x0100\n      exp\n      swap1\n      div\n      0xffffffffffffffffffffffffffffffffffffffff\n      and\n        /* \"contracts/modules/Escrow.sol\":2276:2311  msg.sender != orders[orderId].buyer */\n      0xffffffffffffffffffffffffffffffffffffffff\n      and\n        /* \"contracts/modules/Escrow.sol\":2276:2286  msg.sender */\n      caller\n        /* \"contracts/modules/Escrow.sol\":2276:2311  msg.sender != orders[orderId].buyer */\n      0xffffffffffffffffffffffffffffffffffffffff\n      and\n      eq\n        /* \"contracts/modules/Escrow.sol\":2272:2330  if (msg.sender != orders[orderId].buyer) revert NotBuyer() */\n      tag_186\n      jumpi\n        /* \"contracts/modules/Escrow.sol\":2320:2330  NotBuyer() */\n      mload(0x40)\n      0x472e017e00000000000000000000000000000000000000000000000000000000\n      dup2\n      mstore\n      0x04\n      add\n      mload(0x40)\n      dup1\n      swap2\n      sub\n      swap1\n      revert\n        /* \"contracts/modules/Escrow.sol\":2272:2330  if (msg.sender != orders[orderId].buyer) revert NotBuyer() */\n    tag_186:\n        /* \"contracts/modules/Escrow.sol\":2366:2387  OrderStatus.Completed */\n      0x02\n        /* \"contracts/modules/Escrow.sol\":2341:2347  orders */\n      0x07\n        /* \"contracts/modules/Escrow.sol\":2341:2356  orders[orderId] */\n      0x00\n        /* \"contracts/modules/Escrow.sol\":2348:2355  orderId */\n      dup4\n        /* \"contracts/modules/Escrow.sol\":2341:2356  orders[orderId] */\n      dup2\n      mstore\n      0x20\n      add\n      swap1\n      dup2\n      mstore\n      0x20\n      add\n      0x00\n      keccak256\n        /* \"contracts/modules/Escrow.sol\":2341:2363  orders[orderId].status */\n      0x07\n      add\n      0x00\n        /* \"contracts/modules/Escrow.sol\":2341:2387  orders[orderId].status = OrderStatus.Completed */\n      0x0100\n      exp\n      dup2\n      sload\n      dup2\n      0xff\n      mul\n      not\n      and\n      swap1\n      dup4\n      0x05\n      dup2\n      gt\n      iszero\n      tag_187\n      jumpi\n      tag_188\n      tag_128\n      jump\t// in\n    tag_188:\n    tag_187:\n      mul\n      or\n      swap1\n      sstore\n      pop\n        /* \"contracts/modules/Escrow.sol\":2398:2409  uint256 fee */\n      0x00\n        /* \"contracts/modules/Escrow.sol\":2450:2456  10_000 */\n      0x2710\n        /* \"contracts/modules/Escrow.sol\":2440:2446  feeBps */\n      0x04\n      0x00\n      swap1\n      sload\n      swap1\n      0x0100\n      exp\n      swap1\n      div\n      0xffffffffffffffffffffffff\n      and\n        /* \"contracts/modules/Escrow.sol\":2413:2446  orders[orderId].totalWei * feeBps */\n      0xffffffffffffffffffffffff\n      and\n        /* \"contracts/modules/Escrow.sol\":2413:2419  orders */\n      0x07\n        /* \"contracts/modules/Escrow.sol\":2413:2428  orders[orderId] */\n      0x00\n        /* \"contracts/modules/Escrow.sol\":2420:2427  orderId */\n      dup6\n        /* \"contracts/modules/Escrow.sol\":2413:2428  orders[orderId] */\n      dup2\n      mstore\n      0x20\n      add\n      swap1\n      dup2\n      mstore\n      0x20\n      add\n      0x00\n      keccak256\n        /* \"contracts/modules/Escrow.sol\":2413:2437  orders[orderId].totalWei */\n      0x06\n      add\n      sload\n        /* \"contracts/modules/Escrow.sol\":2413:2446  orders[orderId].totalWei * feeBps */\n      tag_189\n      swap2\n      swap1\n      tag_138\n      jump\t// in\n    tag_189:\n        /* \"contracts/modules/Escrow.sol\":2412:2456  (orders[orderId].totalWei * feeBps) / 10_000 */\n      tag_190\n      swap2\n      swap1\n      tag_140\n      jump\t// in\n    tag_190:\n        /* \"contracts/modules/Escrow.sol\":2398:2456  uint256 fee = (orders[orderId].totalWei * feeBps) / 10_000 */\n      swap1\n      pop\n        /* \"contracts/modules/Escrow.sol\":2466:2482  uint256 toSeller */\n      0x00\n        /* \"contracts/modules/Escrow.sol\":2485:2491  orders */\n      0x07\n        /* \"contracts/modules/Escrow.sol\":2485:2500  orders[orderId] */\n      0x00\n        /* \"contracts/modules/Escrow.sol\":2492:2499  orderId */\n      dup5\n        /* \"contracts/modules/Escrow.sol\":2485:2500  orders[orderId] */\n      dup2\n      mstore\n      0x20\n      add\n      swap1\n      dup2\n      mstore\n      0x20\n      add\n      0x00\n      keccak256\n        /* \"contracts/modules/Escrow.sol\":2485:2509  orders[orderId].totalWei */\n      0x06\n      add\n      sload\n        /* \"contracts/modules/Escrow.sol\":2466:2509  uint256 toSeller = orders[orderId].totalWei */\n      swap1\n      pop\n        /* \"contracts/modules/Escrow.sol\":2533:2534  0 */\n      0x00\n        /* \"contracts/modules/Escrow.sol\":2524:2530  feeBps */\n      0x04\n      0x00\n      swap1\n      sload\n      swap1\n      0x0100\n      exp\n      swap1\n      div\n      0xffffffffffffffffffffffff\n      and\n        /* \"contracts/modules/Escrow.sol\":2524:2534  feeBps > 0 */\n      0xffffffffffffffffffffffff\n      and\n      gt\n        /* \"contracts/modules/Escrow.sol\":2520:2614  if (feeBps > 0) {... */\n      iszero\n      tag_191\n      jumpi\n        /* \"contracts/modules/Escrow.sol\":2565:2568  fee */\n      dup2\n        /* \"contracts/modules/Escrow.sol\":2550:2561  feesAccrued */\n      0x05\n      0x00\n        /* \"contracts/modules/Escrow.sol\":2550:2568  feesAccrued += fee */\n      dup3\n      dup3\n      sload\n      tag_192\n      swap2\n      swap1\n      tag_136\n      jump\t// in\n    tag_192:\n      swap3\n      pop\n      pop\n      dup2\n      swap1\n      sstore\n      pop\n        /* \"contracts/modules/Escrow.sol\":2520:2614  if (feeBps > 0) {... */\n    tag_191:\n        /* \"contracts/modules/Escrow.sol\":2625:2632  bool ok */\n      0x00\n        /* \"contracts/modules/Escrow.sol\":2646:2652  orders */\n      0x07\n        /* \"contracts/modules/Escrow.sol\":2646:2661  orders[orderId] */\n      0x00\n        /* \"contracts/modules/Escrow.sol\":2653:2660  orderId */\n      dup6\n        /* \"contracts/modules/Escrow.sol\":2646:2661  orders[orderId] */\n      dup2\n      mstore\n      0x20\n      add\n      swap1\n      dup2\n      mstore\n      0x20\n      add\n      0x00\n      keccak256\n        /* \"contracts/modules/Escrow.sol\":2646:2668  orders[orderId].seller */\n      0x03\n      add\n      0x00\n      swap1\n      sload\n      swap1\n      0x0100\n      exp\n      swap1\n      div\n      0xffffffffffffffffffffffffffffffffffffffff\n      and\n        /* \"contracts/modules/Escrow.sol\":2638:2674  payable(orders[orderId].seller).call */\n      0xffffffffffffffffffffffffffffffffffffffff\n      and\n        /* \"contracts/modules/Escrow.sol\":2682:2690  toSeller */\n      dup3\n        /* \"contracts/modules/Escrow.sol\":2638:2695  payable(orders[orderId].seller).call{value: toSeller}(\"\") */\n      mload(0x40)\n      tag_193\n      swap1\n      tag_143\n      jump\t// in\n    tag_193:\n      0x00\n      mload(0x40)\n      dup1\n      dup4\n      sub\n      dup2\n      dup6\n      dup8\n      gas\n      call\n      swap3\n      pop\n      pop\n      pop\n      returndatasize\n      dup1\n      0x00\n      dup2\n      eq\n      tag_196\n      jumpi\n      mload(0x40)\n      swap2\n      pop\n      and(add(returndatasize, 0x3f), not(0x1f))\n      dup3\n      add\n      0x40\n      mstore\n      returndatasize\n      dup3\n      mstore\n      returndatasize\n      0x00\n      0x20\n      dup5\n      add\n      returndatacopy\n      jump(tag_195)\n    tag_196:\n      0x60\n      swap2\n      pop\n    tag_195:\n      pop\n        /* \"contracts/modules/Escrow.sol\":2624:2695  (bool ok, ) = payable(orders[orderId].seller).call{value: toSeller}(\"\") */\n      pop\n      swap1\n      pop\n        /* \"contracts/modules/Escrow.sol\":2713:2715  ok */\n      dup1\n        /* \"contracts/modules/Escrow.sol\":2705:2737  require(ok, \"pay seller failed\") */\n      tag_197\n      jumpi\n      mload(0x40)\n      0x08c379a000000000000000000000000000000000000000000000000000000000\n      dup2\n      mstore\n      0x04\n      add\n      tag_198\n      swap1\n      tag_199\n      jump\t// in\n    tag_198:\n      mload(0x40)\n      dup1\n      swap2\n      sub\n      swap1\n      revert\n    tag_197:\n        /* \"contracts/modules/Escrow.sol\":2837:2843  orders */\n      0x07\n        /* \"contracts/modules/Escrow.sol\":2837:2852  orders[orderId] */\n      0x00\n        /* \"contracts/modules/Escrow.sol\":2844:2851  orderId */\n      dup6\n        /* \"contracts/modules/Escrow.sol\":2837:2852  orders[orderId] */\n      dup2\n      mstore\n      0x20\n      add\n      swap1\n      dup2\n      mstore\n      0x20\n      add\n      0x00\n      keccak256\n        /* \"contracts/modules/Escrow.sol\":2837:2859  orders[orderId].seller */\n      0x03\n      add\n      0x00\n      swap1\n      sload\n      swap1\n      0x0100\n      exp\n      swap1\n      div\n      0xffffffffffffffffffffffffffffffffffffffff\n      and\n        /* \"contracts/modules/Escrow.sol\":2753:2908  OrderCompleted(... */\n      0xffffffffffffffffffffffffffffffffffffffff\n      and\n        /* \"contracts/modules/Escrow.sol\":2802:2808  orders */\n      0x07\n        /* \"contracts/modules/Escrow.sol\":2802:2817  orders[orderId] */\n      0x00\n        /* \"contracts/modules/Escrow.sol\":2809:2816  orderId */\n      dup7\n        /* \"contracts/modules/Escrow.sol\":2802:2817  orders[orderId] */\n      dup2\n      mstore\n      0x20\n      add\n      swap1\n      dup2\n      mstore\n      0x20\n      add\n      0x00\n      keccak256\n        /* \"contracts/modules/Escrow.sol\":2802:2823  orders[orderId].buyer */\n      0x02\n      add\n      0x00\n      swap1\n      sload\n      swap1\n      0x0100\n      exp\n      swap1\n      div\n      0xffffffffffffffffffffffffffffffffffffffff\n      and\n        /* \"contracts/modules/Escrow.sol\":2753:2908  OrderCompleted(... */\n      0xffffffffffffffffffffffffffffffffffffffff\n      and\n        /* \"contracts/modules/Escrow.sol\":2781:2788  orderId */\n      dup6\n        /* \"contracts/modules/Escrow.sol\":2753:2908  OrderCompleted(... */\n      0xea444e36ddc975c66fb8b391c01dfd6f4482f51e19554ccc5bd80c647f4dfb07\n        /* \"contracts/modules/Escrow.sol\":2873:2881  toSeller */\n      dup6\n        /* \"contracts/modules/Escrow.sol\":2895:2898  fee */\n      dup8\n        /* \"contracts/modules/Escrow.sol\":2753:2908  OrderCompleted(... */\n      mload(0x40)\n      tag_200\n      swap3\n      swap2\n      swap1\n      tag_201\n      jump\t// in\n    tag_200:\n      mload(0x40)\n      dup1\n      swap2\n      sub\n      swap1\n      log4\n        /* \"contracts/modules/Escrow.sol\":2184:2915  {... */\n      pop\n      pop\n      pop\n        /* \"contracts/common/ReentrancyGuard.sol\":305:306  0 */\n      0x00\n        /* \"contracts/common/ReentrancyGuard.sol\":295:302  _status */\n      0x01\n        /* \"contracts/common/ReentrancyGuard.sol\":295:306  _status = 0 */\n      dup2\n      swap1\n      sstore\n      pop\n        /* \"contracts/modules/Escrow.sol\":2117:2915  function buyerConfirmReceived(uint256 orderId) public nonReentrant {... */\n      pop\n      jump\t// out\n        /* \"contracts/storage/MarketStorage.sol\":308:336  uint256 public nextProductId */\n    tag_59:\n      sload(0x02)\n      dup2\n      jump\t// out\n        /* \"contracts/modules/OffchainRecorder.sol\":309:1433  function recordOffchainSale(... */\n    tag_65:\n        /* \"contracts/modules/OffchainRecorder.sol\":501:516  uint256 orderId */\n      0x00\n        /* \"contracts/modules/OffchainRecorder.sol\":563:573  msg.sender */\n      caller\n        /* \"contracts/modules/OffchainRecorder.sol\":533:573  products[productId].seller != msg.sender */\n      0xffffffffffffffffffffffffffffffffffffffff\n      and\n        /* \"contracts/modules/OffchainRecorder.sol\":533:541  products */\n      0x06\n        /* \"contracts/modules/OffchainRecorder.sol\":533:552  products[productId] */\n      0x00\n        /* \"contracts/modules/OffchainRecorder.sol\":542:551  productId */\n      dup10\n        /* \"contracts/modules/OffchainRecorder.sol\":533:552  products[productId] */\n      dup2\n      mstore\n      0x20\n      add\n      swap1\n      dup2\n      mstore\n      0x20\n      add\n      0x00\n      keccak256\n        /* \"contracts/modules/OffchainRecorder.sol\":533:559  products[productId].seller */\n      0x00\n      add\n      0x00\n      swap1\n      sload\n      swap1\n      0x0100\n      exp\n      swap1\n      div\n      0xffffffffffffffffffffffffffffffffffffffff\n      and\n        /* \"contracts/modules/OffchainRecorder.sol\":533:573  products[productId].seller != msg.sender */\n      0xffffffffffffffffffffffffffffffffffffffff\n      and\n      eq\n      iszero\n        /* \"contracts/modules/OffchainRecorder.sol\":533:596  products[productId].seller != msg.sender && msg.sender != owner */\n      dup1\n      iszero\n      tag_203\n      jumpi\n      pop\n        /* \"contracts/modules/OffchainRecorder.sol\":591:596  owner */\n      0x00\n      0x00\n      swap1\n      sload\n      swap1\n      0x0100\n      exp\n      swap1\n      div\n      0xffffffffffffffffffffffffffffffffffffffff\n      and\n        /* \"contracts/modules/OffchainRecorder.sol\":577:596  msg.sender != owner */\n      0xffffffffffffffffffffffffffffffffffffffff\n      and\n        /* \"contracts/modules/OffchainRecorder.sol\":577:587  msg.sender */\n      caller\n        /* \"contracts/modules/OffchainRecorder.sol\":577:596  msg.sender != owner */\n      0xffffffffffffffffffffffffffffffffffffffff\n      and\n      eq\n      iszero\n        /* \"contracts/modules/OffchainRecorder.sol\":533:596  products[productId].seller != msg.sender && msg.sender != owner */\n    tag_203:\n        /* \"contracts/modules/OffchainRecorder.sol\":529:616  if (products[productId].seller != msg.sender && msg.sender != owner) revert NotSeller() */\n      iszero\n      tag_204\n      jumpi\n        /* \"contracts/modules/OffchainRecorder.sol\":605:616  NotSeller() */\n      mload(0x40)\n      0x5ec8235100000000000000000000000000000000000000000000000000000000\n      dup2\n      mstore\n      0x04\n      add\n      mload(0x40)\n      dup1\n      swap2\n      sub\n      swap1\n      revert\n        /* \"contracts/modules/OffchainRecorder.sol\":529:616  if (products[productId].seller != msg.sender && msg.sender != owner) revert NotSeller() */\n    tag_204:\n        /* \"contracts/modules/OffchainRecorder.sol\":643:644  0 */\n      0x00\n        /* \"contracts/modules/OffchainRecorder.sol\":631:639  quantity */\n      dup6\n        /* \"contracts/modules/OffchainRecorder.sol\":631:644  quantity == 0 */\n      sub\n        /* \"contracts/modules/OffchainRecorder.sol\":627:662  if (quantity == 0) revert QtyZero() */\n      tag_205\n      jumpi\n        /* \"contracts/modules/OffchainRecorder.sol\":653:662  QtyZero() */\n      mload(0x40)\n      0xd481977e00000000000000000000000000000000000000000000000000000000\n      dup2\n      mstore\n      0x04\n      add\n      mload(0x40)\n      dup1\n      swap2\n      sub\n      swap1\n      revert\n        /* \"contracts/modules/OffchainRecorder.sol\":627:662  if (quantity == 0) revert QtyZero() */\n    tag_205:\n        /* \"contracts/modules/OffchainRecorder.sol\":693:694  0 */\n      0x00\n        /* \"contracts/modules/OffchainRecorder.sol\":677:689  unitPriceWei */\n      dup5\n        /* \"contracts/modules/OffchainRecorder.sol\":677:694  unitPriceWei == 0 */\n      sub\n        /* \"contracts/modules/OffchainRecorder.sol\":673:714  if (unitPriceWei == 0) revert PriceZero() */\n      tag_206\n      jumpi\n        /* \"contracts/modules/OffchainRecorder.sol\":703:714  PriceZero() */\n      mload(0x40)\n      0xe528e11e00000000000000000000000000000000000000000000000000000000\n      dup2\n      mstore\n      0x04\n      add\n      mload(0x40)\n      dup1\n      swap2\n      sub\n      swap1\n      revert\n        /* \"contracts/modules/OffchainRecorder.sol\":673:714  if (unitPriceWei == 0) revert PriceZero() */\n    tag_206:\n        /* \"contracts/modules/OffchainRecorder.sol\":727:740  uint256 total */\n      0x00\n        /* \"contracts/modules/OffchainRecorder.sol\":758:766  quantity */\n      dup6\n        /* \"contracts/modules/OffchainRecorder.sol\":743:755  unitPriceWei */\n      dup6\n        /* \"contracts/modules/OffchainRecorder.sol\":743:766  unitPriceWei * quantity */\n      tag_207\n      swap2\n      swap1\n      tag_138\n      jump\t// in\n    tag_207:\n        /* \"contracts/modules/OffchainRecorder.sol\":727:766  uint256 total = unitPriceWei * quantity */\n      swap1\n      pop\n        /* \"contracts/modules/OffchainRecorder.sol\":791:802  nextOrderId */\n      0x03\n      0x00\n        /* \"contracts/modules/OffchainRecorder.sol\":789:802  ++nextOrderId */\n      dup2\n      sload\n      tag_208\n      swap1\n      tag_209\n      jump\t// in\n    tag_208:\n      swap2\n      swap1\n      pop\n      dup2\n      swap1\n      sstore\n        /* \"contracts/modules/OffchainRecorder.sol\":779:802  orderId = ++nextOrderId */\n      swap2\n      pop\n        /* \"contracts/modules/OffchainRecorder.sol\":831:1181  Order({... */\n      mload(0x40)\n      dup1\n      0x0120\n      add\n      0x40\n      mstore\n      dup1\n        /* \"contracts/modules/OffchainRecorder.sol\":856:863  orderId */\n      dup4\n        /* \"contracts/modules/OffchainRecorder.sol\":831:1181  Order({... */\n      dup2\n      mstore\n      0x20\n      add\n        /* \"contracts/modules/OffchainRecorder.sol\":889:898  productId */\n      dup10\n        /* \"contracts/modules/OffchainRecorder.sol\":831:1181  Order({... */\n      dup2\n      mstore\n      0x20\n      add\n        /* \"contracts/modules/OffchainRecorder.sol\":920:925  buyer */\n      dup9\n        /* \"contracts/modules/OffchainRecorder.sol\":831:1181  Order({... */\n      0xffffffffffffffffffffffffffffffffffffffff\n      and\n      dup2\n      mstore\n      0x20\n      add\n        /* \"contracts/modules/OffchainRecorder.sol\":948:956  products */\n      0x06\n        /* \"contracts/modules/OffchainRecorder.sol\":948:967  products[productId] */\n      0x00\n        /* \"contracts/modules/OffchainRecorder.sol\":957:966  productId */\n      dup12\n        /* \"contracts/modules/OffchainRecorder.sol\":948:967  products[productId] */\n      dup2\n      mstore\n      0x20\n      add\n      swap1\n      dup2\n      mstore\n      0x20\n      add\n      0x00\n      keccak256\n        /* \"contracts/modules/OffchainRecorder.sol\":948:974  products[productId].seller */\n      0x00\n      add\n      0x00\n      swap1\n      sload\n      swap1\n      0x0100\n      exp\n      swap1\n      div\n      0xffffffffffffffffffffffffffffffffffffffff\n      and\n        /* \"contracts/modules/OffchainRecorder.sol\":831:1181  Order({... */\n      0xffffffffffffffffffffffffffffffffffffffff\n      and\n      dup2\n      mstore\n      0x20\n      add\n        /* \"contracts/modules/OffchainRecorder.sol\":999:1007  quantity */\n      dup8\n        /* \"contracts/modules/OffchainRecorder.sol\":831:1181  Order({... */\n      dup2\n      mstore\n      0x20\n      add\n        /* \"contracts/modules/OffchainRecorder.sol\":1036:1048  unitPriceWei */\n      dup7\n        /* \"contracts/modules/OffchainRecorder.sol\":831:1181  Order({... */\n      dup2\n      mstore\n      0x20\n      add\n        /* \"contracts/modules/OffchainRecorder.sol\":1073:1078  total */\n      dup3\n        /* \"contracts/modules/OffchainRecorder.sol\":831:1181  Order({... */\n      dup2\n      mstore\n      0x20\n      add\n        /* \"contracts/modules/OffchainRecorder.sol\":1101:1121  OrderStatus.Recorded */\n      0x05\n        /* \"contracts/modules/OffchainRecorder.sol\":831:1181  Order({... */\n      dup1\n      dup2\n      gt\n      iszero\n      tag_210\n      jumpi\n      tag_211\n      tag_128\n      jump\t// in\n    tag_211:\n    tag_210:\n      dup2\n      mstore\n      0x20\n      add\n        /* \"contracts/modules/OffchainRecorder.sol\":1153:1168  block.timestamp */\n      timestamp\n        /* \"contracts/modules/OffchainRecorder.sol\":831:1181  Order({... */\n      0xffffffffffffffff\n      and\n      dup2\n      mstore\n      pop\n        /* \"contracts/modules/OffchainRecorder.sol\":813:819  orders */\n      0x07\n        /* \"contracts/modules/OffchainRecorder.sol\":813:828  orders[orderId] */\n      0x00\n        /* \"contracts/modules/OffchainRecorder.sol\":820:827  orderId */\n      dup5\n        /* \"contracts/modules/OffchainRecorder.sol\":813:828  orders[orderId] */\n      dup2\n      mstore\n      0x20\n      add\n      swap1\n      dup2\n      mstore\n      0x20\n      add\n      0x00\n      keccak256\n        /* \"contracts/modules/OffchainRecorder.sol\":813:1181  orders[orderId] = Order({... */\n      0x00\n      dup3\n      add\n      mload\n      dup2\n      0x00\n      add\n      sstore\n      0x20\n      dup3\n      add\n      mload\n      dup2\n      0x01\n      add\n      sstore\n      0x40\n      dup3\n      add\n      mload\n      dup2\n      0x02\n      add\n      exp(0x0100, 0x00)\n      dup2\n      sload\n      dup2\n      0xffffffffffffffffffffffffffffffffffffffff\n      mul\n      not\n      and\n      swap1\n      dup4\n      0xffffffffffffffffffffffffffffffffffffffff\n      and\n      mul\n      or\n      swap1\n      sstore\n      pop\n      0x60\n      dup3\n      add\n      mload\n      dup2\n      0x03\n      add\n      exp(0x0100, 0x00)\n      dup2\n      sload\n      dup2\n      0xffffffffffffffffffffffffffffffffffffffff\n      mul\n      not\n      and\n      swap1\n      dup4\n      0xffffffffffffffffffffffffffffffffffffffff\n      and\n      mul\n      or\n      swap1\n      sstore\n      pop\n      0x80\n      dup3\n      add\n      mload\n      dup2\n      0x04\n      add\n      sstore\n      0xa0\n      dup3\n      add\n      mload\n      dup2\n      0x05\n      add\n      sstore\n      0xc0\n      dup3\n      add\n      mload\n      dup2\n      0x06\n      add\n      sstore\n      0xe0\n      dup3\n      add\n      mload\n      dup2\n      0x07\n      add\n      exp(0x0100, 0x00)\n      dup2\n      sload\n      dup2\n      0xff\n      mul\n      not\n      and\n      swap1\n      dup4\n      0x05\n      dup2\n      gt\n      iszero\n      tag_212\n      jumpi\n      tag_213\n      tag_128\n      jump\t// in\n    tag_213:\n    tag_212:\n      mul\n      or\n      swap1\n      sstore\n      pop\n      0x0100\n      dup3\n      add\n      mload\n      dup2\n      0x07\n      add\n      exp(0x0100, 0x01)\n      dup2\n      sload\n      dup2\n      0xffffffffffffffff\n      mul\n      not\n      and\n      swap1\n      dup4\n      0xffffffffffffffff\n      and\n      mul\n      or\n      swap1\n      sstore\n      pop\n      swap1\n      pop\n      pop\n        /* \"contracts/modules/OffchainRecorder.sol\":1279:1284  buyer */\n      dup7\n        /* \"contracts/modules/OffchainRecorder.sol\":1199:1425  TransactionRecorded(... */\n      0xffffffffffffffffffffffffffffffffffffffff\n      and\n        /* \"contracts/modules/OffchainRecorder.sol\":1255:1264  productId */\n      dup9\n        /* \"contracts/modules/OffchainRecorder.sol\":1233:1240  orderId */\n      dup4\n        /* \"contracts/modules/OffchainRecorder.sol\":1199:1425  TransactionRecorded(... */\n      0x4407b6b6e998539a49e8aa044ff1a64c6d92b26870352c041a86cc0ef9cbff86\n        /* \"contracts/modules/OffchainRecorder.sol\":1299:1307  products */\n      0x06\n        /* \"contracts/modules/OffchainRecorder.sol\":1299:1318  products[productId] */\n      0x00\n        /* \"contracts/modules/OffchainRecorder.sol\":1308:1317  productId */\n      dup14\n        /* \"contracts/modules/OffchainRecorder.sol\":1299:1318  products[productId] */\n      dup2\n      mstore\n      0x20\n      add\n      swap1\n      dup2\n      mstore\n      0x20\n      add\n      0x00\n      keccak256\n        /* \"contracts/modules/OffchainRecorder.sol\":1299:1325  products[productId].seller */\n      0x00\n      add\n      0x00\n      swap1\n      sload\n      swap1\n      0x0100\n      exp\n      swap1\n      div\n      0xffffffffffffffffffffffffffffffffffffffff\n      and\n        /* \"contracts/modules/OffchainRecorder.sol\":1340:1348  quantity */\n      dup11\n        /* \"contracts/modules/OffchainRecorder.sol\":1363:1375  unitPriceWei */\n      dup11\n        /* \"contracts/modules/OffchainRecorder.sol\":1390:1395  total */\n      dup8\n        /* \"contracts/modules/OffchainRecorder.sol\":1410:1414  note */\n      dup12\n      dup12\n        /* \"contracts/modules/OffchainRecorder.sol\":1199:1425  TransactionRecorded(... */\n      mload(0x40)\n      tag_214\n      swap7\n      swap6\n      swap5\n      swap4\n      swap3\n      swap2\n      swap1\n      tag_215\n      jump\t// in\n    tag_214:\n      mload(0x40)\n      dup1\n      swap2\n      sub\n      swap1\n      log4\n        /* \"contracts/modules/OffchainRecorder.sol\":518:1433  {... */\n      pop\n        /* \"contracts/modules/OffchainRecorder.sol\":309:1433  function recordOffchainSale(... */\n      swap7\n      swap6\n      pop\n      pop\n      pop\n      pop\n      pop\n      pop\n      jump\t// out\n        /* \"contracts/storage/MarketStorage.sol\":484:527  mapping(uint256 => Product) public products */\n    tag_70:\n      mstore(0x20, 0x06)\n      dup1\n      0x00\n      mstore\n      keccak256(0x00, 0x40)\n      0x00\n      swap2\n      pop\n      swap1\n      pop\n      dup1\n      0x00\n      add\n      0x00\n      swap1\n      sload\n      swap1\n      0x0100\n      exp\n      swap1\n      div\n      0xffffffffffffffffffffffffffffffffffffffff\n      and\n      swap1\n      dup1\n      0x01\n      add\n      dup1\n      sload\n      tag_216\n      swap1\n      tag_217\n      jump\t// in\n    tag_216:\n      dup1\n      0x1f\n      add\n      0x20\n      dup1\n      swap2\n      div\n      mul\n      0x20\n      add\n      mload(0x40)\n      swap1\n      dup2\n      add\n      0x40\n      mstore\n      dup1\n      swap3\n      swap2\n      swap1\n      dup2\n      dup2\n      mstore\n      0x20\n      add\n      dup3\n      dup1\n      sload\n      tag_218\n      swap1\n      tag_217\n      jump\t// in\n    tag_218:\n      dup1\n      iszero\n      tag_219\n      jumpi\n      dup1\n      0x1f\n      lt\n      tag_220\n      jumpi\n      0x0100\n      dup1\n      dup4\n      sload\n      div\n      mul\n      dup4\n      mstore\n      swap2\n      0x20\n      add\n      swap2\n      jump(tag_219)\n    tag_220:\n      dup3\n      add\n      swap2\n      swap1\n      0x00\n      mstore\n      keccak256(0x00, 0x20)\n      swap1\n    tag_221:\n      dup2\n      sload\n      dup2\n      mstore\n      swap1\n      0x01\n      add\n      swap1\n      0x20\n      add\n      dup1\n      dup4\n      gt\n      tag_221\n      jumpi\n      dup3\n      swap1\n      sub\n      0x1f\n      and\n      dup3\n      add\n      swap2\n    tag_219:\n      pop\n      pop\n      pop\n      pop\n      pop\n      swap1\n      dup1\n      0x02\n      add\n      dup1\n      sload\n      tag_222\n      swap1\n      tag_217\n      jump\t// in\n    tag_222:\n      dup1\n      0x1f\n      add\n      0x20\n      dup1\n      swap2\n      div\n      mul\n      0x20\n      add\n      mload(0x40)\n      swap1\n      dup2\n      add\n      0x40\n      mstore\n      dup1\n      swap3\n      swap2\n      swap1\n      dup2\n      dup2\n      mstore\n      0x20\n      add\n      dup3\n      dup1\n      sload\n      tag_223\n      swap1\n      tag_217\n      jump\t// in\n    tag_223:\n      dup1\n      iszero\n      tag_224\n      jumpi\n      dup1\n      0x1f\n      lt\n      tag_225\n      jumpi\n      0x0100\n      dup1\n      dup4\n      sload\n      div\n      mul\n      dup4\n      mstore\n      swap2\n      0x20\n      add\n      swap2\n      jump(tag_224)\n    tag_225:\n      dup3\n      add\n      swap2\n      swap1\n      0x00\n      mstore\n      keccak256(0x00, 0x20)\n      swap1\n    tag_226:\n      dup2\n      sload\n      dup2\n      mstore\n      swap1\n      0x01\n      add\n      swap1\n      0x20\n      add\n      dup1\n      dup4\n      gt\n      tag_226\n      jumpi\n      dup3\n      swap1\n      sub\n      0x1f\n      and\n      dup3\n      add\n      swap2\n    tag_224:\n      pop\n      pop\n      pop\n      pop\n      pop\n      swap1\n      dup1\n      0x03\n      add\n      sload\n      swap1\n      dup1\n      0x04\n      add\n      sload\n      swap1\n      dup1\n      0x05\n      add\n      0x00\n      swap1\n      sload\n      swap1\n      0x0100\n      exp\n      swap1\n      div\n      0xff\n      and\n      swap1\n      pop\n      dup7\n      jump\t// out\n        /* \"contracts/common/Ownable.sol\":198:218  address public owner */\n    tag_75:\n      0x00\n      0x00\n      swap1\n      sload\n      swap1\n      0x0100\n      exp\n      swap1\n      div\n      0xffffffffffffffffffffffffffffffffffffffff\n      and\n      dup2\n      jump\t// out\n        /* \"contracts/storage/MarketStorage.sol\":422:448  uint256 public feesAccrued */\n    tag_80:\n      sload(0x05)\n      dup2\n      jump\t// out\n        /* \"contracts/storage/MarketStorage.sol\":534:575  mapping(uint256 => Order)   public orders */\n    tag_85:\n      mstore(0x20, 0x07)\n      dup1\n      0x00\n      mstore\n      keccak256(0x00, 0x40)\n      0x00\n      swap2\n      pop\n      swap1\n      pop\n      dup1\n      0x00\n      add\n      sload\n      swap1\n      dup1\n      0x01\n      add\n      sload\n      swap1\n      dup1\n      0x02\n      add\n      0x00\n      swap1\n      sload\n      swap1\n      0x0100\n      exp\n      swap1\n      div\n      0xffffffffffffffffffffffffffffffffffffffff\n      and\n      swap1\n      dup1\n      0x03\n      add\n      0x00\n      swap1\n      sload\n      swap1\n      0x0100\n      exp\n      swap1\n      div\n      0xffffffffffffffffffffffffffffffffffffffff\n      and\n      swap1\n      dup1\n      0x04\n      add\n      sload\n      swap1\n      dup1\n      0x05\n      add\n      sload\n      swap1\n      dup1\n      0x06\n      add\n      sload\n      swap1\n      dup1\n      0x07\n      add\n      0x00\n      swap1\n      sload\n      swap1\n      0x0100\n      exp\n      swap1\n      div\n      0xff\n      and\n      swap1\n      dup1\n      0x07\n      add\n      0x01\n      swap1\n      sload\n      swap1\n      0x0100\n      exp\n      swap1\n      div\n      0xffffffffffffffff\n      and\n      swap1\n      pop\n      dup10\n      jump\t// out\n        /* \"contracts/modules/FeeManager.sol\":324:601  function withdrawFees(address payable to, uint256 amount) public onlyOwner nonReentrant {... */\n    tag_92:\n        /* \"contracts/common/Ownable.sol\":277:282  owner */\n      0x00\n      0x00\n      swap1\n      sload\n      swap1\n      0x0100\n      exp\n      swap1\n      div\n      0xffffffffffffffffffffffffffffffffffffffff\n      and\n        /* \"contracts/common/Ownable.sol\":263:282  msg.sender != owner */\n      0xffffffffffffffffffffffffffffffffffffffff\n      and\n        /* \"contracts/common/Ownable.sol\":263:273  msg.sender */\n      caller\n        /* \"contracts/common/Ownable.sol\":263:282  msg.sender != owner */\n      0xffffffffffffffffffffffffffffffffffffffff\n      and\n      eq\n        /* \"contracts/common/Ownable.sol\":259:302  if (msg.sender != owner) revert OnlyOwner() */\n      tag_228\n      jumpi\n        /* \"contracts/common/Ownable.sol\":291:302  OnlyOwner() */\n      mload(0x40)\n      0x5fc483c500000000000000000000000000000000000000000000000000000000\n      dup2\n      mstore\n      0x04\n      add\n      mload(0x40)\n      dup1\n      swap2\n      sub\n      swap1\n      revert\n        /* \"contracts/common/Ownable.sol\":259:302  if (msg.sender != owner) revert OnlyOwner() */\n    tag_228:\n        /* \"contracts/common/ReentrancyGuard.sol\":228:229  1 */\n      0x01\n        /* \"contracts/common/ReentrancyGuard.sol\":217:224  _status */\n      dup1\n      sload\n        /* \"contracts/common/ReentrancyGuard.sol\":217:229  _status == 1 */\n      sub\n        /* \"contracts/common/ReentrancyGuard.sol\":213:250  if (_status == 1) revert Reentrancy() */\n      tag_230\n      jumpi\n        /* \"contracts/common/ReentrancyGuard.sol\":238:250  Reentrancy() */\n      mload(0x40)\n      0xab143c0600000000000000000000000000000000000000000000000000000000\n      dup2\n      mstore\n      0x04\n      add\n      mload(0x40)\n      dup1\n      swap2\n      sub\n      swap1\n      revert\n        /* \"contracts/common/ReentrancyGuard.sol\":213:250  if (_status == 1) revert Reentrancy() */\n    tag_230:\n        /* \"contracts/common/ReentrancyGuard.sol\":271:272  1 */\n      0x01\n        /* \"contracts/common/ReentrancyGuard.sol\":261:268  _status */\n      dup1\n        /* \"contracts/common/ReentrancyGuard.sol\":261:272  _status = 1 */\n      dup2\n      swap1\n      sstore\n      pop\n        /* \"contracts/modules/FeeManager.sol\":441:452  feesAccrued */\n      sload(0x05)\n        /* \"contracts/modules/FeeManager.sol\":431:437  amount */\n      dup2\n        /* \"contracts/modules/FeeManager.sol\":431:452  amount <= feesAccrued */\n      gt\n      iszero\n        /* \"contracts/modules/FeeManager.sol\":423:469  require(amount <= feesAccrued, \"exceeds fees\") */\n      tag_232\n      jumpi\n      mload(0x40)\n      0x08c379a000000000000000000000000000000000000000000000000000000000\n      dup2\n      mstore\n      0x04\n      add\n      tag_233\n      swap1\n      tag_234\n      jump\t// in\n    tag_233:\n      mload(0x40)\n      dup1\n      swap2\n      sub\n      swap1\n      revert\n    tag_232:\n        /* \"contracts/modules/FeeManager.sol\":495:501  amount */\n      dup1\n        /* \"contracts/modules/FeeManager.sol\":480:491  feesAccrued */\n      0x05\n      0x00\n        /* \"contracts/modules/FeeManager.sol\":480:501  feesAccrued -= amount */\n      dup3\n      dup3\n      sload\n      tag_235\n      swap2\n      swap1\n      tag_236\n      jump\t// in\n    tag_235:\n      swap3\n      pop\n      pop\n      dup2\n      swap1\n      sstore\n      pop\n        /* \"contracts/modules/FeeManager.sol\":513:520  bool ok */\n      0x00\n        /* \"contracts/modules/FeeManager.sol\":526:528  to */\n      dup3\n        /* \"contracts/modules/FeeManager.sol\":526:533  to.call */\n      0xffffffffffffffffffffffffffffffffffffffff\n      and\n        /* \"contracts/modules/FeeManager.sol\":541:547  amount */\n      dup3\n        /* \"contracts/modules/FeeManager.sol\":526:552  to.call{value: amount}(\"\") */\n      mload(0x40)\n      tag_237\n      swap1\n      tag_143\n      jump\t// in\n    tag_237:\n      0x00\n      mload(0x40)\n      dup1\n      dup4\n      sub\n      dup2\n      dup6\n      dup8\n      gas\n      call\n      swap3\n      pop\n      pop\n      pop\n      returndatasize\n      dup1\n      0x00\n      dup2\n      eq\n      tag_240\n      jumpi\n      mload(0x40)\n      swap2\n      pop\n      and(add(returndatasize, 0x3f), not(0x1f))\n      dup3\n      add\n      0x40\n      mstore\n      returndatasize\n      dup3\n      mstore\n      returndatasize\n      0x00\n      0x20\n      dup5\n      add\n      returndatacopy\n      jump(tag_239)\n    tag_240:\n      0x60\n      swap2\n      pop\n    tag_239:\n      pop\n        /* \"contracts/modules/FeeManager.sol\":512:552  (bool ok, ) = to.call{value: amount}(\"\") */\n      pop\n      swap1\n      pop\n        /* \"contracts/modules/FeeManager.sol\":571:573  ok */\n      dup1\n        /* \"contracts/modules/FeeManager.sol\":563:593  require(ok, \"withdraw failed\") */\n      tag_241\n      jumpi\n      mload(0x40)\n      0x08c379a000000000000000000000000000000000000000000000000000000000\n      dup2\n      mstore\n      0x04\n      add\n      tag_242\n      swap1\n      tag_243\n      jump\t// in\n    tag_242:\n      mload(0x40)\n      dup1\n      swap2\n      sub\n      swap1\n      revert\n    tag_241:\n        /* \"contracts/modules/FeeManager.sol\":412:601  {... */\n      pop\n        /* \"contracts/common/ReentrancyGuard.sol\":305:306  0 */\n      0x00\n        /* \"contracts/common/ReentrancyGuard.sol\":295:302  _status */\n      0x01\n        /* \"contracts/common/ReentrancyGuard.sol\":295:306  _status = 0 */\n      dup2\n      swap1\n      sstore\n      pop\n        /* \"contracts/modules/FeeManager.sol\":324:601  function withdrawFees(address payable to, uint256 amount) public onlyOwner nonReentrant {... */\n      pop\n      pop\n      jump\t// out\n        /* \"contracts/modules/FeeManager.sol\":177:316  function setFeeBps(uint96 newFeeBps) public onlyOwner {... */\n    tag_97:\n        /* \"contracts/common/Ownable.sol\":277:282  owner */\n      0x00\n      0x00\n      swap1\n      sload\n      swap1\n      0x0100\n      exp\n      swap1\n      div\n      0xffffffffffffffffffffffffffffffffffffffff\n      and\n        /* \"contracts/common/Ownable.sol\":263:282  msg.sender != owner */\n      0xffffffffffffffffffffffffffffffffffffffff\n      and\n        /* \"contracts/common/Ownable.sol\":263:273  msg.sender */\n      caller\n        /* \"contracts/common/Ownable.sol\":263:282  msg.sender != owner */\n      0xffffffffffffffffffffffffffffffffffffffff\n      and\n      eq\n        /* \"contracts/common/Ownable.sol\":259:302  if (msg.sender != owner) revert OnlyOwner() */\n      tag_245\n      jumpi\n        /* \"contracts/common/Ownable.sol\":291:302  OnlyOwner() */\n      mload(0x40)\n      0x5fc483c500000000000000000000000000000000000000000000000000000000\n      dup2\n      mstore\n      0x04\n      add\n      mload(0x40)\n      dup1\n      swap2\n      sub\n      swap1\n      revert\n        /* \"contracts/common/Ownable.sol\":259:302  if (msg.sender != owner) revert OnlyOwner() */\n    tag_245:\n        /* \"contracts/modules/FeeManager.sol\":263:267  1000 */\n      0x03e8\n        /* \"contracts/modules/FeeManager.sol\":250:259  newFeeBps */\n      dup2\n        /* \"contracts/modules/FeeManager.sol\":250:267  newFeeBps <= 1000 */\n      0xffffffffffffffffffffffff\n      and\n      gt\n      iszero\n        /* \"contracts/modules/FeeManager.sol\":242:279  require(newFeeBps <= 1000, \"max 10%\") */\n      tag_247\n      jumpi\n      mload(0x40)\n      0x08c379a000000000000000000000000000000000000000000000000000000000\n      dup2\n      mstore\n      0x04\n      add\n      tag_248\n      swap1\n      tag_249\n      jump\t// in\n    tag_248:\n      mload(0x40)\n      dup1\n      swap2\n      sub\n      swap1\n      revert\n    tag_247:\n        /* \"contracts/modules/FeeManager.sol\":299:308  newFeeBps */\n      dup1\n        /* \"contracts/modules/FeeManager.sol\":290:296  feeBps */\n      0x04\n      0x00\n        /* \"contracts/modules/FeeManager.sol\":290:308  feeBps = newFeeBps */\n      0x0100\n      exp\n      dup2\n      sload\n      dup2\n      0xffffffffffffffffffffffff\n      mul\n      not\n      and\n      swap1\n      dup4\n      0xffffffffffffffffffffffff\n      and\n      mul\n      or\n      swap1\n      sstore\n      pop\n        /* \"contracts/modules/FeeManager.sol\":177:316  function setFeeBps(uint96 newFeeBps) public onlyOwner {... */\n      pop\n      jump\t// out\n        /* \"contracts/modules/ProductCatalog.sol\":1478:1812  function productInfo(uint256 productId) public view returns (... */\n    tag_101:\n        /* \"contracts/modules/ProductCatalog.sol\":1549:1563  address seller */\n      0x00\n        /* \"contracts/modules/ProductCatalog.sol\":1565:1583  string memory name */\n      0x60\n        /* \"contracts/modules/ProductCatalog.sol\":1585:1603  string memory unit */\n      dup1\n        /* \"contracts/modules/ProductCatalog.sol\":1605:1625  uint256 unitPriceWei */\n      0x00\n        /* \"contracts/modules/ProductCatalog.sol\":1627:1647  uint256 availableQty */\n      0x00\n        /* \"contracts/modules/ProductCatalog.sol\":1649:1660  bool active */\n      0x00\n        /* \"contracts/modules/ProductCatalog.sol\":1679:1696  Product storage p */\n      0x00\n        /* \"contracts/modules/ProductCatalog.sol\":1699:1707  products */\n      0x06\n        /* \"contracts/modules/ProductCatalog.sol\":1699:1718  products[productId] */\n      0x00\n        /* \"contracts/modules/ProductCatalog.sol\":1708:1717  productId */\n      dup10\n        /* \"contracts/modules/ProductCatalog.sol\":1699:1718  products[productId] */\n      dup2\n      mstore\n      0x20\n      add\n      swap1\n      dup2\n      mstore\n      0x20\n      add\n      0x00\n      keccak256\n        /* \"contracts/modules/ProductCatalog.sol\":1679:1718  Product storage p = products[productId] */\n      swap1\n      pop\n        /* \"contracts/modules/ProductCatalog.sol\":1737:1738  p */\n      dup1\n        /* \"contracts/modules/ProductCatalog.sol\":1737:1745  p.seller */\n      0x00\n      add\n      0x00\n      swap1\n      sload\n      swap1\n      0x0100\n      exp\n      swap1\n      div\n      0xffffffffffffffffffffffffffffffffffffffff\n      and\n        /* \"contracts/modules/ProductCatalog.sol\":1747:1748  p */\n      dup2\n        /* \"contracts/modules/ProductCatalog.sol\":1747:1753  p.name */\n      0x01\n      add\n        /* \"contracts/modules/ProductCatalog.sol\":1755:1756  p */\n      dup3\n        /* \"contracts/modules/ProductCatalog.sol\":1755:1761  p.unit */\n      0x02\n      add\n        /* \"contracts/modules/ProductCatalog.sol\":1763:1764  p */\n      dup4\n        /* \"contracts/modules/ProductCatalog.sol\":1763:1777  p.unitPriceWei */\n      0x03\n      add\n      sload\n        /* \"contracts/modules/ProductCatalog.sol\":1779:1780  p */\n      dup5\n        /* \"contracts/modules/ProductCatalog.sol\":1779:1793  p.availableQty */\n      0x04\n      add\n      sload\n        /* \"contracts/modules/ProductCatalog.sol\":1795:1796  p */\n      dup6\n        /* \"contracts/modules/ProductCatalog.sol\":1795:1803  p.active */\n      0x05\n      add\n      0x00\n      swap1\n      sload\n      swap1\n      0x0100\n      exp\n      swap1\n      div\n      0xff\n      and\n        /* \"contracts/modules/ProductCatalog.sol\":1729:1804  return (p.seller, p.name, p.unit, p.unitPriceWei, p.availableQty, p.active) */\n      dup5\n      dup1\n      sload\n      tag_251\n      swap1\n      tag_217\n      jump\t// in\n    tag_251:\n      dup1\n      0x1f\n      add\n      0x20\n      dup1\n      swap2\n      div\n      mul\n      0x20\n      add\n      mload(0x40)\n      swap1\n      dup2\n      add\n      0x40\n      mstore\n      dup1\n      swap3\n      swap2\n      swap1\n      dup2\n      dup2\n      mstore\n      0x20\n      add\n      dup3\n      dup1\n      sload\n      tag_252\n      swap1\n      tag_217\n      jump\t// in\n    tag_252:\n      dup1\n      iszero\n      tag_253\n      jumpi\n      dup1\n      0x1f\n      lt\n      tag_254\n      jumpi\n      0x0100\n      dup1\n      dup4\n      sload\n      div\n      mul\n      dup4\n      mstore\n      swap2\n      0x20\n      add\n      swap2\n      jump(tag_253)\n    tag_254:\n      dup3\n      add\n      swap2\n      swap1\n      0x00\n      mstore\n      keccak256(0x00, 0x20)\n      swap1\n    tag_255:\n      dup2\n      sload\n      dup2\n      mstore\n      swap1\n      0x01\n      add\n      swap1\n      0x20\n      add\n      dup1\n      dup4\n      gt\n      tag_255\n      jumpi\n      dup3\n      swap1\n      sub\n      0x1f\n      and\n      dup3\n      add\n      swap2\n    tag_253:\n      pop\n      pop\n      pop\n      pop\n      pop\n      swap5\n      pop\n      dup4\n      dup1\n      sload\n      tag_256\n      swap1\n      tag_217\n      jump\t// in\n    tag_256:\n      dup1\n      0x1f\n      add\n      0x20\n      dup1\n      swap2\n      div\n      mul\n      0x20\n      add\n      mload(0x40)\n      swap1\n      dup2\n      add\n      0x40\n      mstore\n      dup1\n      swap3\n      swap2\n      swap1\n      dup2\n      dup2\n      mstore\n      0x20\n      add\n      dup3\n      dup1\n      sload\n      tag_257\n      swap1\n      tag_217\n      jump\t// in\n    tag_257:\n      dup1\n      iszero\n      tag_258\n      jumpi\n      dup1\n      0x1f\n      lt\n      tag_259\n      jumpi\n      0x0100\n      dup1\n      dup4\n      sload\n      div\n      mul\n      dup4\n      mstore\n      swap2\n      0x20\n      add\n      swap2\n      jump(tag_258)\n    tag_259:\n      dup3\n      add\n      swap2\n      swap1\n      0x00\n      mstore\n      keccak256(0x00, 0x20)\n      swap1\n    tag_260:\n      dup2\n      sload\n      dup2\n      mstore\n      swap1\n      0x01\n      add\n      swap1\n      0x20\n      add\n      dup1\n      dup4\n      gt\n      tag_260\n      jumpi\n      dup3\n      swap1\n      sub\n      0x1f\n      and\n      dup3\n      add\n      swap2\n    tag_258:\n      pop\n      pop\n      pop\n      pop\n      pop\n      swap4\n      pop\n      swap7\n      pop\n      swap7\n      pop\n      swap7\n      pop\n      swap7\n      pop\n      swap7\n      pop\n      swap7\n      pop\n      pop\n        /* \"contracts/modules/ProductCatalog.sol\":1478:1812  function productInfo(uint256 productId) public view returns (... */\n      swap2\n      swap4\n      swap6\n      pop\n      swap2\n      swap4\n      swap6\n      jump\t// out\n        /* \"contracts/modules/ProductCatalog.sol\":296:936  function listProduct(... */\n    tag_107:\n        /* \"contracts/modules/ProductCatalog.sol\":455:472  uint256 productId */\n      0x00\n        /* \"contracts/modules/ProductCatalog.sol\":505:506  0 */\n      0x00\n        /* \"contracts/modules/ProductCatalog.sol\":489:501  unitPriceWei */\n      dup4\n        /* \"contracts/modules/ProductCatalog.sol\":489:506  unitPriceWei == 0 */\n      sub\n        /* \"contracts/modules/ProductCatalog.sol\":485:526  if (unitPriceWei == 0) revert PriceZero() */\n      tag_262\n      jumpi\n        /* \"contracts/modules/ProductCatalog.sol\":515:526  PriceZero() */\n      mload(0x40)\n      0xe528e11e00000000000000000000000000000000000000000000000000000000\n      dup2\n      mstore\n      0x04\n      add\n      mload(0x40)\n      dup1\n      swap2\n      sub\n      swap1\n      revert\n        /* \"contracts/modules/ProductCatalog.sol\":485:526  if (unitPriceWei == 0) revert PriceZero() */\n    tag_262:\n        /* \"contracts/modules/ProductCatalog.sol\":548:549  0 */\n      0x00\n        /* \"contracts/modules/ProductCatalog.sol\":541:544  qty */\n      dup3\n        /* \"contracts/modules/ProductCatalog.sol\":541:549  qty == 0 */\n      sub\n        /* \"contracts/modules/ProductCatalog.sol\":537:567  if (qty == 0) revert QtyZero() */\n      tag_263\n      jumpi\n        /* \"contracts/modules/ProductCatalog.sol\":558:567  QtyZero() */\n      mload(0x40)\n      0xd481977e00000000000000000000000000000000000000000000000000000000\n      dup2\n      mstore\n      0x04\n      add\n      mload(0x40)\n      dup1\n      swap2\n      sub\n      swap1\n      revert\n        /* \"contracts/modules/ProductCatalog.sol\":537:567  if (qty == 0) revert QtyZero() */\n    tag_263:\n        /* \"contracts/modules/ProductCatalog.sol\":594:607  nextProductId */\n      0x02\n      0x00\n        /* \"contracts/modules/ProductCatalog.sol\":592:607  ++nextProductId */\n      dup2\n      sload\n      tag_264\n      swap1\n      tag_209\n      jump\t// in\n    tag_264:\n      swap2\n      swap1\n      pop\n      dup2\n      swap1\n      sstore\n        /* \"contracts/modules/ProductCatalog.sol\":580:607  productId = ++nextProductId */\n      swap1\n      pop\n        /* \"contracts/modules/ProductCatalog.sol\":640:843  Product({... */\n      mload(0x40)\n      dup1\n      0xc0\n      add\n      0x40\n      mstore\n      dup1\n        /* \"contracts/modules/ProductCatalog.sol\":671:681  msg.sender */\n      caller\n        /* \"contracts/modules/ProductCatalog.sol\":640:843  Product({... */\n      0xffffffffffffffffffffffffffffffffffffffff\n      and\n      dup2\n      mstore\n      0x20\n      add\n        /* \"contracts/modules/ProductCatalog.sol\":702:706  name */\n      dup9\n      dup9\n        /* \"contracts/modules/ProductCatalog.sol\":640:843  Product({... */\n      dup1\n      dup1\n      0x1f\n      add\n      0x20\n      dup1\n      swap2\n      div\n      mul\n      0x20\n      add\n      mload(0x40)\n      swap1\n      dup2\n      add\n      0x40\n      mstore\n      dup1\n      swap4\n      swap3\n      swap2\n      swap1\n      dup2\n      dup2\n      mstore\n      0x20\n      add\n      dup4\n      dup4\n      dup1\n      dup3\n      dup5\n      calldatacopy\n      0x00\n      dup2\n      dup5\n      add\n      mstore\n      not(0x1f)\n      0x1f\n      dup3\n      add\n      and\n      swap1\n      pop\n      dup1\n      dup4\n      add\n      swap3\n      pop\n      pop\n      pop\n      pop\n      pop\n      pop\n      pop\n      dup2\n      mstore\n      0x20\n      add\n        /* \"contracts/modules/ProductCatalog.sol\":727:731  unit */\n      dup7\n      dup7\n        /* \"contracts/modules/ProductCatalog.sol\":640:843  Product({... */\n      dup1\n      dup1\n      0x1f\n      add\n      0x20\n      dup1\n      swap2\n      div\n      mul\n      0x20\n      add\n      mload(0x40)\n      swap1\n      dup2\n      add\n      0x40\n      mstore\n      dup1\n      swap4\n      swap3\n      swap2\n      swap1\n      dup2\n      dup2\n      mstore\n      0x20\n      add\n      dup4\n      dup4\n      dup1\n      dup3\n      dup5\n      calldatacopy\n      0x00\n      dup2\n      dup5\n      add\n      mstore\n      not(0x1f)\n      0x1f\n      dup3\n      add\n      and\n      swap1\n      pop\n      dup1\n      dup4\n      add\n      swap3\n      pop\n      pop\n      pop\n      pop\n      pop\n      pop\n      pop\n      dup2\n      mstore\n      0x20\n      add\n        /* \"contracts/modules/ProductCatalog.sol\":760:772  unitPriceWei */\n      dup5\n        /* \"contracts/modules/ProductCatalog.sol\":640:843  Product({... */\n      dup2\n      mstore\n      0x20\n      add\n        /* \"contracts/modules/ProductCatalog.sol\":801:804  qty */\n      dup4\n        /* \"contracts/modules/ProductCatalog.sol\":640:843  Product({... */\n      dup2\n      mstore\n      0x20\n      add\n        /* \"contracts/modules/ProductCatalog.sol\":827:831  true */\n      0x01\n        /* \"contracts/modules/ProductCatalog.sol\":640:843  Product({... */\n      iszero\n      iszero\n      dup2\n      mstore\n      pop\n        /* \"contracts/modules/ProductCatalog.sol\":618:626  products */\n      0x06\n        /* \"contracts/modules/ProductCatalog.sol\":618:637  products[productId] */\n      0x00\n        /* \"contracts/modules/ProductCatalog.sol\":627:636  productId */\n      dup4\n        /* \"contracts/modules/ProductCatalog.sol\":618:637  products[productId] */\n      dup2\n      mstore\n      0x20\n      add\n      swap1\n      dup2\n      mstore\n      0x20\n      add\n      0x00\n      keccak256\n        /* \"contracts/modules/ProductCatalog.sol\":618:843  products[productId] = Product({... */\n      0x00\n      dup3\n      add\n      mload\n      dup2\n      0x00\n      add\n      exp(0x0100, 0x00)\n      dup2\n      sload\n      dup2\n      0xffffffffffffffffffffffffffffffffffffffff\n      mul\n      not\n      and\n      swap1\n      dup4\n      0xffffffffffffffffffffffffffffffffffffffff\n      and\n      mul\n      or\n      swap1\n      sstore\n      pop\n      0x20\n      dup3\n      add\n      mload\n      dup2\n      0x01\n      add\n      swap1\n      dup2\n      tag_265\n      swap2\n      swap1\n      tag_266\n      jump\t// in\n    tag_265:\n      pop\n      0x40\n      dup3\n      add\n      mload\n      dup2\n      0x02\n      add\n      swap1\n      dup2\n      tag_267\n      swap2\n      swap1\n      tag_266\n      jump\t// in\n    tag_267:\n      pop\n      0x60\n      dup3\n      add\n      mload\n      dup2\n      0x03\n      add\n      sstore\n      0x80\n      dup3\n      add\n      mload\n      dup2\n      0x04\n      add\n      sstore\n      0xa0\n      dup3\n      add\n      mload\n      dup2\n      0x05\n      add\n      exp(0x0100, 0x00)\n      dup2\n      sload\n      dup2\n      0xff\n      mul\n      not\n      and\n      swap1\n      dup4\n      iszero\n      iszero\n      mul\n      or\n      swap1\n      sstore\n      pop\n      swap1\n      pop\n      pop\n        /* \"contracts/modules/ProductCatalog.sol\":886:896  msg.sender */\n      caller\n        /* \"contracts/modules/ProductCatalog.sol\":861:928  ProductListed(productId, msg.sender, name, unit, unitPriceWei, qty) */\n      0xffffffffffffffffffffffffffffffffffffffff\n      and\n        /* \"contracts/modules/ProductCatalog.sol\":875:884  productId */\n      dup2\n        /* \"contracts/modules/ProductCatalog.sol\":861:928  ProductListed(productId, msg.sender, name, unit, unitPriceWei, qty) */\n      0xe8afb275df5dc1626ad09a4d4e6e646bc6cb51e8b63f8274a81248b0fbc067cb\n        /* \"contracts/modules/ProductCatalog.sol\":898:902  name */\n      dup10\n      dup10\n        /* \"contracts/modules/ProductCatalog.sol\":904:908  unit */\n      dup10\n      dup10\n        /* \"contracts/modules/ProductCatalog.sol\":910:922  unitPriceWei */\n      dup10\n        /* \"contracts/modules/ProductCatalog.sol\":924:927  qty */\n      dup10\n        /* \"contracts/modules/ProductCatalog.sol\":861:928  ProductListed(productId, msg.sender, name, unit, unitPriceWei, qty) */\n      mload(0x40)\n      tag_268\n      swap7\n      swap6\n      swap5\n      swap4\n      swap3\n      swap2\n      swap1\n      tag_269\n      jump\t// in\n    tag_268:\n      mload(0x40)\n      dup1\n      swap2\n      sub\n      swap1\n      log3\n        /* \"contracts/modules/ProductCatalog.sol\":296:936  function listProduct(... */\n      swap7\n      swap6\n      pop\n      pop\n      pop\n      pop\n      pop\n      pop\n      jump\t// out\n        /* \"contracts/modules/Escrow.sol\":904:2111  function buy(uint256 productId, uint256 quantity)... */\n    tag_111:\n        /* \"contracts/modules/Escrow.sol\":1023:1038  uint256 orderId */\n      0x00\n        /* \"contracts/common/ReentrancyGuard.sol\":228:229  1 */\n      0x01\n        /* \"contracts/common/ReentrancyGuard.sol\":217:224  _status */\n      dup1\n      sload\n        /* \"contracts/common/ReentrancyGuard.sol\":217:229  _status == 1 */\n      sub\n        /* \"contracts/common/ReentrancyGuard.sol\":213:250  if (_status == 1) revert Reentrancy() */\n      tag_271\n      jumpi\n        /* \"contracts/common/ReentrancyGuard.sol\":238:250  Reentrancy() */\n      mload(0x40)\n      0xab143c0600000000000000000000000000000000000000000000000000000000\n      dup2\n      mstore\n      0x04\n      add\n      mload(0x40)\n      dup1\n      swap2\n      sub\n      swap1\n      revert\n        /* \"contracts/common/ReentrancyGuard.sol\":213:250  if (_status == 1) revert Reentrancy() */\n    tag_271:\n        /* \"contracts/common/ReentrancyGuard.sol\":271:272  1 */\n      0x01\n        /* \"contracts/common/ReentrancyGuard.sol\":261:268  _status */\n      dup1\n        /* \"contracts/common/ReentrancyGuard.sol\":261:272  _status = 1 */\n      dup2\n      swap1\n      sstore\n      pop\n        /* \"contracts/modules/Escrow.sol\":1059:1067  products */\n      0x06\n        /* \"contracts/modules/Escrow.sol\":1059:1078  products[productId] */\n      0x00\n        /* \"contracts/modules/Escrow.sol\":1068:1077  productId */\n      dup5\n        /* \"contracts/modules/Escrow.sol\":1059:1078  products[productId] */\n      dup2\n      mstore\n      0x20\n      add\n      swap1\n      dup2\n      mstore\n      0x20\n      add\n      0x00\n      keccak256\n        /* \"contracts/modules/Escrow.sol\":1059:1085  products[productId].active */\n      0x05\n      add\n      0x00\n      swap1\n      sload\n      swap1\n      0x0100\n      exp\n      swap1\n      div\n      0xff\n      and\n        /* \"contracts/modules/Escrow.sol\":1054:1111  if (!products[productId].active) revert InactiveProduct() */\n      tag_273\n      jumpi\n        /* \"contracts/modules/Escrow.sol\":1094:1111  InactiveProduct() */\n      mload(0x40)\n      0xa10e397d00000000000000000000000000000000000000000000000000000000\n      dup2\n      mstore\n      0x04\n      add\n      mload(0x40)\n      dup1\n      swap2\n      sub\n      swap1\n      revert\n        /* \"contracts/modules/Escrow.sol\":1054:1111  if (!products[productId].active) revert InactiveProduct() */\n    tag_273:\n        /* \"contracts/modules/Escrow.sol\":1137:1138  0 */\n      0x00\n        /* \"contracts/modules/Escrow.sol\":1125:1133  quantity */\n      dup3\n        /* \"contracts/modules/Escrow.sol\":1125:1138  quantity == 0 */\n      eq\n        /* \"contracts/modules/Escrow.sol\":1125:1185  quantity == 0 || quantity > products[productId].availableQty */\n      dup1\n      tag_274\n      jumpi\n      pop\n        /* \"contracts/modules/Escrow.sol\":1153:1161  products */\n      0x06\n        /* \"contracts/modules/Escrow.sol\":1153:1172  products[productId] */\n      0x00\n        /* \"contracts/modules/Escrow.sol\":1162:1171  productId */\n      dup5\n        /* \"contracts/modules/Escrow.sol\":1153:1172  products[productId] */\n      dup2\n      mstore\n      0x20\n      add\n      swap1\n      dup2\n      mstore\n      0x20\n      add\n      0x00\n      keccak256\n        /* \"contracts/modules/Escrow.sol\":1153:1185  products[productId].availableQty */\n      0x04\n      add\n      sload\n        /* \"contracts/modules/Escrow.sol\":1142:1150  quantity */\n      dup3\n        /* \"contracts/modules/Escrow.sol\":1142:1185  quantity > products[productId].availableQty */\n      gt\n        /* \"contracts/modules/Escrow.sol\":1125:1185  quantity == 0 || quantity > products[productId].availableQty */\n    tag_274:\n        /* \"contracts/modules/Escrow.sol\":1121:1219  if (quantity == 0 || quantity > products[productId].availableQty)... */\n      iszero\n      tag_275\n      jumpi\n        /* \"contracts/modules/Escrow.sol\":1206:1219  BadQuantity() */\n      mload(0x40)\n      0x888e58a800000000000000000000000000000000000000000000000000000000\n      dup2\n      mstore\n      0x04\n      add\n      mload(0x40)\n      dup1\n      swap2\n      sub\n      swap1\n      revert\n        /* \"contracts/modules/Escrow.sol\":1121:1219  if (quantity == 0 || quantity > products[productId].availableQty)... */\n    tag_275:\n        /* \"contracts/modules/Escrow.sol\":1231:1244  uint256 total */\n      0x00\n        /* \"contracts/modules/Escrow.sol\":1246:1257  uint256 fee */\n      0x00\n        /* \"contracts/modules/Escrow.sol\":1261:1288  _quote(productId, quantity) */\n      tag_276\n        /* \"contracts/modules/Escrow.sol\":1268:1277  productId */\n      dup6\n        /* \"contracts/modules/Escrow.sol\":1279:1287  quantity */\n      dup6\n        /* \"contracts/modules/Escrow.sol\":1261:1267  _quote */\n      tag_153\n        /* \"contracts/modules/Escrow.sol\":1261:1288  _quote(productId, quantity) */\n      jump\t// in\n    tag_276:\n        /* \"contracts/modules/Escrow.sol\":1230:1288  (uint256 total, uint256 fee) = _quote(productId, quantity) */\n      swap2\n      pop\n      swap2\n      pop\n        /* \"contracts/modules/Escrow.sol\":1323:1326  fee */\n      dup1\n        /* \"contracts/modules/Escrow.sol\":1315:1320  total */\n      dup3\n        /* \"contracts/modules/Escrow.sol\":1315:1326  total + fee */\n      tag_277\n      swap2\n      swap1\n      tag_136\n      jump\t// in\n    tag_277:\n        /* \"contracts/modules/Escrow.sol\":1302:1311  msg.value */\n      callvalue\n        /* \"contracts/modules/Escrow.sol\":1302:1326  msg.value != total + fee */\n      eq\n        /* \"contracts/modules/Escrow.sol\":1298:1347  if (msg.value != total + fee) revert WrongValue() */\n      tag_278\n      jumpi\n        /* \"contracts/modules/Escrow.sol\":1335:1347  WrongValue() */\n      mload(0x40)\n      0x98d4901c00000000000000000000000000000000000000000000000000000000\n      dup2\n      mstore\n      0x04\n      add\n      mload(0x40)\n      dup1\n      swap2\n      sub\n      swap1\n      revert\n        /* \"contracts/modules/Escrow.sol\":1298:1347  if (msg.value != total + fee) revert WrongValue() */\n    tag_278:\n        /* \"contracts/modules/Escrow.sol\":1419:1427  quantity */\n      dup4\n        /* \"contracts/modules/Escrow.sol\":1383:1391  products */\n      0x06\n        /* \"contracts/modules/Escrow.sol\":1383:1402  products[productId] */\n      0x00\n        /* \"contracts/modules/Escrow.sol\":1392:1401  productId */\n      dup8\n        /* \"contracts/modules/Escrow.sol\":1383:1402  products[productId] */\n      dup2\n      mstore\n      0x20\n      add\n      swap1\n      dup2\n      mstore\n      0x20\n      add\n      0x00\n      keccak256\n        /* \"contracts/modules/Escrow.sol\":1383:1415  products[productId].availableQty */\n      0x04\n      add\n      0x00\n        /* \"contracts/modules/Escrow.sol\":1383:1427  products[productId].availableQty -= quantity */\n      dup3\n      dup3\n      sload\n      tag_279\n      swap2\n      swap1\n      tag_236\n      jump\t// in\n    tag_279:\n      swap3\n      pop\n      pop\n      dup2\n      swap1\n      sstore\n      pop\n        /* \"contracts/modules/Escrow.sol\":1450:1461  nextOrderId */\n      0x03\n      0x00\n        /* \"contracts/modules/Escrow.sol\":1448:1461  ++nextOrderId */\n      dup2\n      sload\n      tag_280\n      swap1\n      tag_209\n      jump\t// in\n    tag_280:\n      swap2\n      swap1\n      pop\n      dup2\n      swap1\n      sstore\n        /* \"contracts/modules/Escrow.sol\":1438:1461  orderId = ++nextOrderId */\n      swap3\n      pop\n        /* \"contracts/modules/Escrow.sol\":1489:1852  Order({... */\n      mload(0x40)\n      dup1\n      0x0120\n      add\n      0x40\n      mstore\n      dup1\n        /* \"contracts/modules/Escrow.sol\":1513:1520  orderId */\n      dup5\n        /* \"contracts/modules/Escrow.sol\":1489:1852  Order({... */\n      dup2\n      mstore\n      0x20\n      add\n        /* \"contracts/modules/Escrow.sol\":1545:1554  productId */\n      dup7\n        /* \"contracts/modules/Escrow.sol\":1489:1852  Order({... */\n      dup2\n      mstore\n      0x20\n      add\n        /* \"contracts/modules/Escrow.sol\":1575:1585  msg.sender */\n      caller\n        /* \"contracts/modules/Escrow.sol\":1489:1852  Order({... */\n      0xffffffffffffffffffffffffffffffffffffffff\n      and\n      dup2\n      mstore\n      0x20\n      add\n        /* \"contracts/modules/Escrow.sol\":1607:1615  products */\n      0x06\n        /* \"contracts/modules/Escrow.sol\":1607:1626  products[productId] */\n      0x00\n        /* \"contracts/modules/Escrow.sol\":1616:1625  productId */\n      dup9\n        /* \"contracts/modules/Escrow.sol\":1607:1626  products[productId] */\n      dup2\n      mstore\n      0x20\n      add\n      swap1\n      dup2\n      mstore\n      0x20\n      add\n      0x00\n      keccak256\n        /* \"contracts/modules/Escrow.sol\":1607:1633  products[productId].seller */\n      0x00\n      add\n      0x00\n      swap1\n      sload\n      swap1\n      0x0100\n      exp\n      swap1\n      div\n      0xffffffffffffffffffffffffffffffffffffffff\n      and\n        /* \"contracts/modules/Escrow.sol\":1489:1852  Order({... */\n      0xffffffffffffffffffffffffffffffffffffffff\n      and\n      dup2\n      mstore\n      0x20\n      add\n        /* \"contracts/modules/Escrow.sol\":1657:1665  quantity */\n      dup6\n        /* \"contracts/modules/Escrow.sol\":1489:1852  Order({... */\n      dup2\n      mstore\n      0x20\n      add\n        /* \"contracts/modules/Escrow.sol\":1693:1701  products */\n      0x06\n        /* \"contracts/modules/Escrow.sol\":1693:1712  products[productId] */\n      0x00\n        /* \"contracts/modules/Escrow.sol\":1702:1711  productId */\n      dup9\n        /* \"contracts/modules/Escrow.sol\":1693:1712  products[productId] */\n      dup2\n      mstore\n      0x20\n      add\n      swap1\n      dup2\n      mstore\n      0x20\n      add\n      0x00\n      keccak256\n        /* \"contracts/modules/Escrow.sol\":1693:1725  products[productId].unitPriceWei */\n      0x03\n      add\n      sload\n        /* \"contracts/modules/Escrow.sol\":1489:1852  Order({... */\n      dup2\n      mstore\n      0x20\n      add\n        /* \"contracts/modules/Escrow.sol\":1749:1754  total */\n      dup4\n        /* \"contracts/modules/Escrow.sol\":1489:1852  Order({... */\n      dup2\n      mstore\n      0x20\n      add\n        /* \"contracts/modules/Escrow.sol\":1776:1794  OrderStatus.Placed */\n      0x01\n        /* \"contracts/modules/Escrow.sol\":1489:1852  Order({... */\n      0x05\n      dup2\n      gt\n      iszero\n      tag_281\n      jumpi\n      tag_282\n      tag_128\n      jump\t// in\n    tag_282:\n    tag_281:\n      dup2\n      mstore\n      0x20\n      add\n        /* \"contracts/modules/Escrow.sol\":1825:1840  block.timestamp */\n      timestamp\n        /* \"contracts/modules/Escrow.sol\":1489:1852  Order({... */\n      0xffffffffffffffff\n      and\n      dup2\n      mstore\n      pop\n        /* \"contracts/modules/Escrow.sol\":1471:1477  orders */\n      0x07\n        /* \"contracts/modules/Escrow.sol\":1471:1486  orders[orderId] */\n      0x00\n        /* \"contracts/modules/Escrow.sol\":1478:1485  orderId */\n      dup6\n        /* \"contracts/modules/Escrow.sol\":1471:1486  orders[orderId] */\n      dup2\n      mstore\n      0x20\n      add\n      swap1\n      dup2\n      mstore\n      0x20\n      add\n      0x00\n      keccak256\n        /* \"contracts/modules/Escrow.sol\":1471:1852  orders[orderId] = Order({... */\n      0x00\n      dup3\n      add\n      mload\n      dup2\n      0x00\n      add\n      sstore\n      0x20\n      dup3\n      add\n      mload\n      dup2\n      0x01\n      add\n      sstore\n      0x40\n      dup3\n      add\n      mload\n      dup2\n      0x02\n      add\n      exp(0x0100, 0x00)\n      dup2\n      sload\n      dup2\n      0xffffffffffffffffffffffffffffffffffffffff\n      mul\n      not\n      and\n      swap1\n      dup4\n      0xffffffffffffffffffffffffffffffffffffffff\n      and\n      mul\n      or\n      swap1\n      sstore\n      pop\n      0x60\n      dup3\n      add\n      mload\n      dup2\n      0x03\n      add\n      exp(0x0100, 0x00)\n      dup2\n      sload\n      dup2\n      0xffffffffffffffffffffffffffffffffffffffff\n      mul\n      not\n      and\n      swap1\n      dup4\n      0xffffffffffffffffffffffffffffffffffffffff\n      and\n      mul\n      or\n      swap1\n      sstore\n      pop\n      0x80\n      dup3\n      add\n      mload\n      dup2\n      0x04\n      add\n      sstore\n      0xa0\n      dup3\n      add\n      mload\n      dup2\n      0x05\n      add\n      sstore\n      0xc0\n      dup3\n      add\n      mload\n      dup2\n      0x06\n      add\n      sstore\n      0xe0\n      dup3\n      add\n      mload\n      dup2\n      0x07\n      add\n      exp(0x0100, 0x00)\n      dup2\n      sload\n      dup2\n      0xff\n      mul\n      not\n      and\n      swap1\n      dup4\n      0x05\n      dup2\n      gt\n      iszero\n      tag_283\n      jumpi\n      tag_284\n      tag_128\n      jump\t// in\n    tag_284:\n    tag_283:\n      mul\n      or\n      swap1\n      sstore\n      pop\n      0x0100\n      dup3\n      add\n      mload\n      dup2\n      0x07\n      add\n      exp(0x0100, 0x01)\n      dup2\n      sload\n      dup2\n      0xffffffffffffffff\n      mul\n      not\n      and\n      swap1\n      dup4\n      0xffffffffffffffff\n      and\n      mul\n      or\n      swap1\n      sstore\n      pop\n      swap1\n      pop\n      pop\n        /* \"contracts/modules/Escrow.sol\":1937:1947  msg.sender */\n      caller\n        /* \"contracts/modules/Escrow.sol\":1868:2104  OrderPlaced(... */\n      0xffffffffffffffffffffffffffffffffffffffff\n      and\n        /* \"contracts/modules/Escrow.sol\":1914:1923  productId */\n      dup6\n        /* \"contracts/modules/Escrow.sol\":1893:1900  orderId */\n      dup5\n        /* \"contracts/modules/Escrow.sol\":1868:2104  OrderPlaced(... */\n      0xb05d81effad3ee84ee036ba00fe39c2434981b97189a33164e7288215ab0e8df\n        /* \"contracts/modules/Escrow.sol\":1961:1969  products */\n      0x06\n        /* \"contracts/modules/Escrow.sol\":1961:1980  products[productId] */\n      0x00\n        /* \"contracts/modules/Escrow.sol\":1970:1979  productId */\n      dup11\n        /* \"contracts/modules/Escrow.sol\":1961:1980  products[productId] */\n      dup2\n      mstore\n      0x20\n      add\n      swap1\n      dup2\n      mstore\n      0x20\n      add\n      0x00\n      keccak256\n        /* \"contracts/modules/Escrow.sol\":1961:1987  products[productId].seller */\n      0x00\n      add\n      0x00\n      swap1\n      sload\n      swap1\n      0x0100\n      exp\n      swap1\n      div\n      0xffffffffffffffffffffffffffffffffffffffff\n      and\n        /* \"contracts/modules/Escrow.sol\":2001:2009  quantity */\n      dup9\n        /* \"contracts/modules/Escrow.sol\":2023:2031  products */\n      0x06\n        /* \"contracts/modules/Escrow.sol\":2023:2042  products[productId] */\n      0x00\n        /* \"contracts/modules/Escrow.sol\":2032:2041  productId */\n      dup13\n        /* \"contracts/modules/Escrow.sol\":2023:2042  products[productId] */\n      dup2\n      mstore\n      0x20\n      add\n      swap1\n      dup2\n      mstore\n      0x20\n      add\n      0x00\n      keccak256\n        /* \"contracts/modules/Escrow.sol\":2023:2055  products[productId].unitPriceWei */\n      0x03\n      add\n      sload\n        /* \"contracts/modules/Escrow.sol\":2069:2074  total */\n      dup9\n        /* \"contracts/modules/Escrow.sol\":2088:2094  feeBps */\n      0x04\n      0x00\n      swap1\n      sload\n      swap1\n      0x0100\n      exp\n      swap1\n      div\n      0xffffffffffffffffffffffff\n      and\n        /* \"contracts/modules/Escrow.sol\":1868:2104  OrderPlaced(... */\n      mload(0x40)\n      tag_285\n      swap6\n      swap5\n      swap4\n      swap3\n      swap2\n      swap1\n      tag_286\n      jump\t// in\n    tag_285:\n      mload(0x40)\n      dup1\n      swap2\n      sub\n      swap1\n      log4\n        /* \"contracts/modules/Escrow.sol\":1044:2111  {... */\n      pop\n      pop\n        /* \"contracts/common/ReentrancyGuard.sol\":305:306  0 */\n      0x00\n        /* \"contracts/common/ReentrancyGuard.sol\":295:302  _status */\n      0x01\n        /* \"contracts/common/ReentrancyGuard.sol\":295:306  _status = 0 */\n      dup2\n      swap1\n      sstore\n      pop\n        /* \"contracts/modules/Escrow.sol\":904:2111  function buy(uint256 productId, uint256 quantity)... */\n      swap3\n      swap2\n      pop\n      pop\n      jump\t// out\n        /* \"contracts/common/Ownable.sol\":449:658  function transferOwnership(address newOwner) public onlyOwner {... */\n    tag_117:\n        /* \"contracts/common/Ownable.sol\":277:282  owner */\n      0x00\n      0x00\n      swap1\n      sload\n      swap1\n      0x0100\n      exp\n      swap1\n      div\n      0xffffffffffffffffffffffffffffffffffffffff\n      and\n        /* \"contracts/common/Ownable.sol\":263:282  msg.sender != owner */\n      0xffffffffffffffffffffffffffffffffffffffff\n      and\n        /* \"contracts/common/Ownable.sol\":263:273  msg.sender */\n      caller\n        /* \"contracts/common/Ownable.sol\":263:282  msg.sender != owner */\n      0xffffffffffffffffffffffffffffffffffffffff\n      and\n      eq\n        /* \"contracts/common/Ownable.sol\":259:302  if (msg.sender != owner) revert OnlyOwner() */\n      tag_288\n      jumpi\n        /* \"contracts/common/Ownable.sol\":291:302  OnlyOwner() */\n      mload(0x40)\n      0x5fc483c500000000000000000000000000000000000000000000000000000000\n      dup2\n      mstore\n      0x04\n      add\n      mload(0x40)\n      dup1\n      swap2\n      sub\n      swap1\n      revert\n        /* \"contracts/common/Ownable.sol\":259:302  if (msg.sender != owner) revert OnlyOwner() */\n    tag_288:\n        /* \"contracts/common/Ownable.sol\":546:547  0 */\n      0x00\n        /* \"contracts/common/Ownable.sol\":526:548  newOwner == address(0) */\n      0xffffffffffffffffffffffffffffffffffffffff\n      and\n        /* \"contracts/common/Ownable.sol\":526:534  newOwner */\n      dup2\n        /* \"contracts/common/Ownable.sol\":526:548  newOwner == address(0) */\n      0xffffffffffffffffffffffffffffffffffffffff\n      and\n      sub\n        /* \"contracts/common/Ownable.sol\":522:570  if (newOwner == address(0)) revert ZeroAddress() */\n      tag_290\n      jumpi\n        /* \"contracts/common/Ownable.sol\":557:570  ZeroAddress() */\n      mload(0x40)\n      0xd92e233d00000000000000000000000000000000000000000000000000000000\n      dup2\n      mstore\n      0x04\n      add\n      mload(0x40)\n      dup1\n      swap2\n      sub\n      swap1\n      revert\n        /* \"contracts/common/Ownable.sol\":522:570  if (newOwner == address(0)) revert ZeroAddress() */\n    tag_290:\n        /* \"contracts/common/Ownable.sol\":614:622  newOwner */\n      dup1\n        /* \"contracts/common/Ownable.sol\":586:623  OwnershipTransferred(owner, newOwner) */\n      0xffffffffffffffffffffffffffffffffffffffff\n      and\n        /* \"contracts/common/Ownable.sol\":607:612  owner */\n      0x00\n      0x00\n      swap1\n      sload\n      swap1\n      0x0100\n      exp\n      swap1\n      div\n      0xffffffffffffffffffffffffffffffffffffffff\n      and\n        /* \"contracts/common/Ownable.sol\":586:623  OwnershipTransferred(owner, newOwner) */\n      0xffffffffffffffffffffffffffffffffffffffff\n      and\n      0x8be0079c531659141344cd1fd0a4f28419497f9722a3daafe3b4186f6b6457e0\n      mload(0x40)\n      mload(0x40)\n      dup1\n      swap2\n      sub\n      swap1\n      log3\n        /* \"contracts/common/Ownable.sol\":642:650  newOwner */\n      dup1\n        /* \"contracts/common/Ownable.sol\":634:639  owner */\n      0x00\n      0x00\n        /* \"contracts/common/Ownable.sol\":634:650  owner = newOwner */\n      0x0100\n      exp\n      dup2\n      sload\n      dup2\n      0xffffffffffffffffffffffffffffffffffffffff\n      mul\n      not\n      and\n      swap1\n      dup4\n      0xffffffffffffffffffffffffffffffffffffffff\n      and\n      mul\n      or\n      swap1\n      sstore\n      pop\n        /* \"contracts/common/Ownable.sol\":449:658  function transferOwnership(address newOwner) public onlyOwner {... */\n      pop\n      jump\t// out\n        /* \"contracts/modules/ProductCatalog.sol\":944:1470  function updateProduct(... */\n    tag_122:\n        /* \"contracts/modules/ProductCatalog.sol\":1110:1127  Product storage p */\n      0x00\n        /* \"contracts/modules/ProductCatalog.sol\":1130:1138  products */\n      0x06\n        /* \"contracts/modules/ProductCatalog.sol\":1130:1149  products[productId] */\n      0x00\n        /* \"contracts/modules/ProductCatalog.sol\":1139:1148  productId */\n      dup7\n        /* \"contracts/modules/ProductCatalog.sol\":1130:1149  products[productId] */\n      dup2\n      mstore\n      0x20\n      add\n      swap1\n      dup2\n      mstore\n      0x20\n      add\n      0x00\n      keccak256\n        /* \"contracts/modules/ProductCatalog.sol\":1110:1149  Product storage p = products[productId] */\n      swap1\n      pop\n        /* \"contracts/modules/ProductCatalog.sol\":1176:1186  msg.sender */\n      caller\n        /* \"contracts/modules/ProductCatalog.sol\":1164:1186  p.seller != msg.sender */\n      0xffffffffffffffffffffffffffffffffffffffff\n      and\n        /* \"contracts/modules/ProductCatalog.sol\":1164:1165  p */\n      dup2\n        /* \"contracts/modules/ProductCatalog.sol\":1164:1172  p.seller */\n      0x00\n      add\n      0x00\n      swap1\n      sload\n      swap1\n      0x0100\n      exp\n      swap1\n      div\n      0xffffffffffffffffffffffffffffffffffffffff\n      and\n        /* \"contracts/modules/ProductCatalog.sol\":1164:1186  p.seller != msg.sender */\n      0xffffffffffffffffffffffffffffffffffffffff\n      and\n      eq\n        /* \"contracts/modules/ProductCatalog.sol\":1160:1206  if (p.seller != msg.sender) revert NotSeller() */\n      tag_292\n      jumpi\n        /* \"contracts/modules/ProductCatalog.sol\":1195:1206  NotSeller() */\n      mload(0x40)\n      0x5ec8235100000000000000000000000000000000000000000000000000000000\n      dup2\n      mstore\n      0x04\n      add\n      mload(0x40)\n      dup1\n      swap2\n      sub\n      swap1\n      revert\n        /* \"contracts/modules/ProductCatalog.sol\":1160:1206  if (p.seller != msg.sender) revert NotSeller() */\n    tag_292:\n        /* \"contracts/modules/ProductCatalog.sol\":1240:1241  0 */\n      0x00\n        /* \"contracts/modules/ProductCatalog.sol\":1221:1236  newUnitPriceWei */\n      dup5\n        /* \"contracts/modules/ProductCatalog.sol\":1221:1241  newUnitPriceWei == 0 */\n      sub\n        /* \"contracts/modules/ProductCatalog.sol\":1217:1261  if (newUnitPriceWei == 0) revert PriceZero() */\n      tag_293\n      jumpi\n        /* \"contracts/modules/ProductCatalog.sol\":1250:1261  PriceZero() */\n      mload(0x40)\n      0xe528e11e00000000000000000000000000000000000000000000000000000000\n      dup2\n      mstore\n      0x04\n      add\n      mload(0x40)\n      dup1\n      swap2\n      sub\n      swap1\n      revert\n        /* \"contracts/modules/ProductCatalog.sol\":1217:1261  if (newUnitPriceWei == 0) revert PriceZero() */\n    tag_293:\n        /* \"contracts/modules/ProductCatalog.sol\":1291:1306  newUnitPriceWei */\n      dup4\n        /* \"contracts/modules/ProductCatalog.sol\":1274:1275  p */\n      dup2\n        /* \"contracts/modules/ProductCatalog.sol\":1274:1288  p.unitPriceWei */\n      0x03\n      add\n        /* \"contracts/modules/ProductCatalog.sol\":1274:1306  p.unitPriceWei = newUnitPriceWei */\n      dup2\n      swap1\n      sstore\n      pop\n        /* \"contracts/modules/ProductCatalog.sol\":1334:1349  newAvailableQty */\n      dup3\n        /* \"contracts/modules/ProductCatalog.sol\":1317:1318  p */\n      dup2\n        /* \"contracts/modules/ProductCatalog.sol\":1317:1331  p.availableQty */\n      0x04\n      add\n        /* \"contracts/modules/ProductCatalog.sol\":1317:1349  p.availableQty = newAvailableQty */\n      dup2\n      swap1\n      sstore\n      pop\n        /* \"contracts/modules/ProductCatalog.sol\":1371:1377  active */\n      dup2\n        /* \"contracts/modules/ProductCatalog.sol\":1360:1361  p */\n      dup2\n        /* \"contracts/modules/ProductCatalog.sol\":1360:1368  p.active */\n      0x05\n      add\n      0x00\n        /* \"contracts/modules/ProductCatalog.sol\":1360:1377  p.active = active */\n      0x0100\n      exp\n      dup2\n      sload\n      dup2\n      0xff\n      mul\n      not\n      and\n      swap1\n      dup4\n      iszero\n      iszero\n      mul\n      or\n      swap1\n      sstore\n      pop\n        /* \"contracts/modules/ProductCatalog.sol\":1410:1419  productId */\n      dup5\n        /* \"contracts/modules/ProductCatalog.sol\":1395:1462  ProductUpdated(productId, newUnitPriceWei, newAvailableQty, active) */\n      0x24833e9f5188ae0f7e72e30363b10145255676df1ab74b5137059e1b8e4cba66\n        /* \"contracts/modules/ProductCatalog.sol\":1421:1436  newUnitPriceWei */\n      dup6\n        /* \"contracts/modules/ProductCatalog.sol\":1438:1453  newAvailableQty */\n      dup6\n        /* \"contracts/modules/ProductCatalog.sol\":1455:1461  active */\n      dup6\n        /* \"contracts/modules/ProductCatalog.sol\":1395:1462  ProductUpdated(productId, newUnitPriceWei, newAvailableQty, active) */\n      mload(0x40)\n      tag_294\n      swap4\n      swap3\n      swap2\n      swap1\n      tag_295\n      jump\t// in\n    tag_294:\n      mload(0x40)\n      dup1\n      swap2\n      sub\n      swap1\n      log2\n        /* \"contracts/modules/ProductCatalog.sol\":1099:1470  {... */\n      pop\n        /* \"contracts/modules/ProductCatalog.sol\":944:1470  function updateProduct(... */\n      pop\n      pop\n      pop\n      pop\n      jump\t// out\n        /* \"contracts/modules/Escrow.sol\":365:606  function _quote(uint256 productId, uint256 quantity)... */\n    tag_153:\n        /* \"contracts/modules/Escrow.sol\":465:478  uint256 total */\n      0x00\n        /* \"contracts/modules/Escrow.sol\":480:491  uint256 fee */\n      0x00\n        /* \"contracts/modules/Escrow.sol\":550:558  quantity */\n      dup3\n        /* \"contracts/modules/Escrow.sol\":515:523  products */\n      0x06\n        /* \"contracts/modules/Escrow.sol\":515:534  products[productId] */\n      0x00\n        /* \"contracts/modules/Escrow.sol\":524:533  productId */\n      dup7\n        /* \"contracts/modules/Escrow.sol\":515:534  products[productId] */\n      dup2\n      mstore\n      0x20\n      add\n      swap1\n      dup2\n      mstore\n      0x20\n      add\n      0x00\n      keccak256\n        /* \"contracts/modules/Escrow.sol\":515:547  products[productId].unitPriceWei */\n      0x03\n      add\n      sload\n        /* \"contracts/modules/Escrow.sol\":515:558  products[productId].unitPriceWei * quantity */\n      tag_297\n      swap2\n      swap1\n      tag_138\n      jump\t// in\n    tag_297:\n        /* \"contracts/modules/Escrow.sol\":507:558  total = products[productId].unitPriceWei * quantity */\n      swap2\n      pop\n        /* \"contracts/modules/Escrow.sol\":593:599  10_000 */\n      0x2710\n        /* \"contracts/modules/Escrow.sol\":583:589  feeBps */\n      0x04\n      0x00\n      swap1\n      sload\n      swap1\n      0x0100\n      exp\n      swap1\n      div\n      0xffffffffffffffffffffffff\n      and\n        /* \"contracts/modules/Escrow.sol\":575:589  total * feeBps */\n      0xffffffffffffffffffffffff\n      and\n        /* \"contracts/modules/Escrow.sol\":575:580  total */\n      dup4\n        /* \"contracts/modules/Escrow.sol\":575:589  total * feeBps */\n      tag_298\n      swap2\n      swap1\n      tag_138\n      jump\t// in\n    tag_298:\n        /* \"contracts/modules/Escrow.sol\":574:599  (total * feeBps) / 10_000 */\n      tag_299\n      swap2\n      swap1\n      tag_140\n      jump\t// in\n    tag_299:\n        /* \"contracts/modules/Escrow.sol\":568:599  fee = (total * feeBps) / 10_000 */\n      swap1\n      pop\n        /* \"contracts/modules/Escrow.sol\":365:606  function _quote(uint256 productId, uint256 quantity)... */\n      swap3\n      pop\n      swap3\n      swap1\n      pop\n      jump\t// out\n        /* \"#utility.yul\":7:116   */\n    tag_300:\n        /* \"#utility.yul\":43:50   */\n      0x00\n        /* \"#utility.yul\":83:109   */\n      0xffffffffffffffffffffffff\n        /* \"#utility.yul\":76:81   */\n      dup3\n        /* \"#utility.yul\":72:110   */\n      and\n        /* \"#utility.yul\":61:110   */\n      swap1\n      pop\n        /* \"#utility.yul\":7:116   */\n      swap2\n      swap1\n      pop\n      jump\t// out\n        /* \"#utility.yul\":122:237   */\n    tag_301:\n        /* \"#utility.yul\":207:230   */\n      tag_375\n        /* \"#utility.yul\":224:229   */\n      dup2\n        /* \"#utility.yul\":207:230   */\n      tag_300\n      jump\t// in\n    tag_375:\n        /* \"#utility.yul\":202:205   */\n      dup3\n        /* \"#utility.yul\":195:231   */\n      mstore\n        /* \"#utility.yul\":122:237   */\n      pop\n      pop\n      jump\t// out\n        /* \"#utility.yul\":243:461   */\n    tag_31:\n        /* \"#utility.yul\":334:338   */\n      0x00\n        /* \"#utility.yul\":372:374   */\n      0x20\n        /* \"#utility.yul\":361:370   */\n      dup3\n        /* \"#utility.yul\":357:375   */\n      add\n        /* \"#utility.yul\":349:375   */\n      swap1\n      pop\n        /* \"#utility.yul\":385:454   */\n      tag_377\n        /* \"#utility.yul\":451:452   */\n      0x00\n        /* \"#utility.yul\":440:449   */\n      dup4\n        /* \"#utility.yul\":436:453   */\n      add\n        /* \"#utility.yul\":427:433   */\n      dup5\n        /* \"#utility.yul\":385:454   */\n      tag_301\n      jump\t// in\n    tag_377:\n        /* \"#utility.yul\":243:461   */\n      swap3\n      swap2\n      pop\n      pop\n      jump\t// out\n        /* \"#utility.yul\":467:544   */\n    tag_302:\n        /* \"#utility.yul\":504:511   */\n      0x00\n        /* \"#utility.yul\":533:538   */\n      dup2\n        /* \"#utility.yul\":522:538   */\n      swap1\n      pop\n        /* \"#utility.yul\":467:544   */\n      swap2\n      swap1\n      pop\n      jump\t// out\n        /* \"#utility.yul\":550:668   */\n    tag_303:\n        /* \"#utility.yul\":637:661   */\n      tag_380\n        /* \"#utility.yul\":655:660   */\n      dup2\n        /* \"#utility.yul\":637:661   */\n      tag_302\n      jump\t// in\n    tag_380:\n        /* \"#utility.yul\":632:635   */\n      dup3\n        /* \"#utility.yul\":625:662   */\n      mstore\n        /* \"#utility.yul\":550:668   */\n      pop\n      pop\n      jump\t// out\n        /* \"#utility.yul\":674:896   */\n    tag_36:\n        /* \"#utility.yul\":767:771   */\n      0x00\n        /* \"#utility.yul\":805:807   */\n      0x20\n        /* \"#utility.yul\":794:803   */\n      dup3\n        /* \"#utility.yul\":790:808   */\n      add\n        /* \"#utility.yul\":782:808   */\n      swap1\n      pop\n        /* \"#utility.yul\":818:889   */\n      tag_382\n        /* \"#utility.yul\":886:887   */\n      0x00\n        /* \"#utility.yul\":875:884   */\n      dup4\n        /* \"#utility.yul\":871:888   */\n      add\n        /* \"#utility.yul\":862:868   */\n      dup5\n        /* \"#utility.yul\":818:889   */\n      tag_303\n      jump\t// in\n    tag_382:\n        /* \"#utility.yul\":674:896   */\n      swap3\n      swap2\n      pop\n      pop\n      jump\t// out\n        /* \"#utility.yul\":983:1100   */\n    tag_305:\n        /* \"#utility.yul\":1092:1093   */\n      0x00\n        /* \"#utility.yul\":1089:1090   */\n      0x00\n        /* \"#utility.yul\":1082:1094   */\n      revert\n        /* \"#utility.yul\":1106:1223   */\n    tag_306:\n        /* \"#utility.yul\":1215:1216   */\n      0x00\n        /* \"#utility.yul\":1212:1213   */\n      0x00\n        /* \"#utility.yul\":1205:1217   */\n      revert\n        /* \"#utility.yul\":1229:1351   */\n    tag_307:\n        /* \"#utility.yul\":1302:1326   */\n      tag_387\n        /* \"#utility.yul\":1320:1325   */\n      dup2\n        /* \"#utility.yul\":1302:1326   */\n      tag_302\n      jump\t// in\n    tag_387:\n        /* \"#utility.yul\":1295:1300   */\n      dup2\n        /* \"#utility.yul\":1292:1327   */\n      eq\n        /* \"#utility.yul\":1282:1345   */\n      tag_388\n      jumpi\n        /* \"#utility.yul\":1341:1342   */\n      0x00\n        /* \"#utility.yul\":1338:1339   */\n      0x00\n        /* \"#utility.yul\":1331:1343   */\n      revert\n        /* \"#utility.yul\":1282:1345   */\n    tag_388:\n        /* \"#utility.yul\":1229:1351   */\n      pop\n      jump\t// out\n        /* \"#utility.yul\":1357:1496   */\n    tag_308:\n        /* \"#utility.yul\":1403:1408   */\n      0x00\n        /* \"#utility.yul\":1441:1447   */\n      dup2\n        /* \"#utility.yul\":1428:1448   */\n      calldataload\n        /* \"#utility.yul\":1419:1448   */\n      swap1\n      pop\n        /* \"#utility.yul\":1457:1490   */\n      tag_390\n        /* \"#utility.yul\":1484:1489   */\n      dup2\n        /* \"#utility.yul\":1457:1490   */\n      tag_307\n      jump\t// in\n    tag_390:\n        /* \"#utility.yul\":1357:1496   */\n      swap3\n      swap2\n      pop\n      pop\n      jump\t// out\n        /* \"#utility.yul\":1502:1831   */\n    tag_40:\n        /* \"#utility.yul\":1561:1567   */\n      0x00\n        /* \"#utility.yul\":1610:1612   */\n      0x20\n        /* \"#utility.yul\":1598:1607   */\n      dup3\n        /* \"#utility.yul\":1589:1596   */\n      dup5\n        /* \"#utility.yul\":1585:1608   */\n      sub\n        /* \"#utility.yul\":1581:1613   */\n      slt\n        /* \"#utility.yul\":1578:1697   */\n      iszero\n      tag_392\n      jumpi\n        /* \"#utility.yul\":1616:1695   */\n      tag_393\n      tag_305\n      jump\t// in\n    tag_393:\n        /* \"#utility.yul\":1578:1697   */\n    tag_392:\n        /* \"#utility.yul\":1736:1737   */\n      0x00\n        /* \"#utility.yul\":1761:1814   */\n      tag_394\n        /* \"#utility.yul\":1806:1813   */\n      dup5\n        /* \"#utility.yul\":1797:1803   */\n      dup3\n        /* \"#utility.yul\":1786:1795   */\n      dup6\n        /* \"#utility.yul\":1782:1804   */\n      add\n        /* \"#utility.yul\":1761:1814   */\n      tag_308\n      jump\t// in\n    tag_394:\n        /* \"#utility.yul\":1751:1814   */\n      swap2\n      pop\n        /* \"#utility.yul\":1707:1824   */\n      pop\n        /* \"#utility.yul\":1502:1831   */\n      swap3\n      swap2\n      pop\n      pop\n      jump\t// out\n        /* \"#utility.yul\":1837:2311   */\n    tag_45:\n        /* \"#utility.yul\":1905:1911   */\n      0x00\n        /* \"#utility.yul\":1913:1919   */\n      0x00\n        /* \"#utility.yul\":1962:1964   */\n      0x40\n        /* \"#utility.yul\":1950:1959   */\n      dup4\n        /* \"#utility.yul\":1941:1948   */\n      dup6\n        /* \"#utility.yul\":1937:1960   */\n      sub\n        /* \"#utility.yul\":1933:1965   */\n      slt\n        /* \"#utility.yul\":1930:2049   */\n      iszero\n      tag_396\n      jumpi\n        /* \"#utility.yul\":1968:2047   */\n      tag_397\n      tag_305\n      jump\t// in\n    tag_397:\n        /* \"#utility.yul\":1930:2049   */\n    tag_396:\n        /* \"#utility.yul\":2088:2089   */\n      0x00\n        /* \"#utility.yul\":2113:2166   */\n      tag_398\n        /* \"#utility.yul\":2158:2165   */\n      dup6\n        /* \"#utility.yul\":2149:2155   */\n      dup3\n        /* \"#utility.yul\":2138:2147   */\n      dup7\n        /* \"#utility.yul\":2134:2156   */\n      add\n        /* \"#utility.yul\":2113:2166   */\n      tag_308\n      jump\t// in\n    tag_398:\n        /* \"#utility.yul\":2103:2166   */\n      swap3\n      pop\n        /* \"#utility.yul\":2059:2176   */\n      pop\n        /* \"#utility.yul\":2215:2217   */\n      0x20\n        /* \"#utility.yul\":2241:2294   */\n      tag_399\n        /* \"#utility.yul\":2286:2293   */\n      dup6\n        /* \"#utility.yul\":2277:2283   */\n      dup3\n        /* \"#utility.yul\":2266:2275   */\n      dup7\n        /* \"#utility.yul\":2262:2284   */\n      add\n        /* \"#utility.yul\":2241:2294   */\n      tag_308\n      jump\t// in\n    tag_399:\n        /* \"#utility.yul\":2231:2294   */\n      swap2\n      pop\n        /* \"#utility.yul\":2186:2304   */\n      pop\n        /* \"#utility.yul\":1837:2311   */\n      swap3\n      pop\n      swap3\n      swap1\n      pop\n      jump\t// out\n        /* \"#utility.yul\":2317:2759   */\n    tag_48:\n        /* \"#utility.yul\":2466:2470   */\n      0x00\n        /* \"#utility.yul\":2504:2506   */\n      0x60\n        /* \"#utility.yul\":2493:2502   */\n      dup3\n        /* \"#utility.yul\":2489:2507   */\n      add\n        /* \"#utility.yul\":2481:2507   */\n      swap1\n      pop\n        /* \"#utility.yul\":2517:2588   */\n      tag_401\n        /* \"#utility.yul\":2585:2586   */\n      0x00\n        /* \"#utility.yul\":2574:2583   */\n      dup4\n        /* \"#utility.yul\":2570:2587   */\n      add\n        /* \"#utility.yul\":2561:2567   */\n      dup7\n        /* \"#utility.yul\":2517:2588   */\n      tag_303\n      jump\t// in\n    tag_401:\n        /* \"#utility.yul\":2598:2670   */\n      tag_402\n        /* \"#utility.yul\":2666:2668   */\n      0x20\n        /* \"#utility.yul\":2655:2664   */\n      dup4\n        /* \"#utility.yul\":2651:2669   */\n      add\n        /* \"#utility.yul\":2642:2648   */\n      dup6\n        /* \"#utility.yul\":2598:2670   */\n      tag_303\n      jump\t// in\n    tag_402:\n        /* \"#utility.yul\":2680:2752   */\n      tag_403\n        /* \"#utility.yul\":2748:2750   */\n      0x40\n        /* \"#utility.yul\":2737:2746   */\n      dup4\n        /* \"#utility.yul\":2733:2751   */\n      add\n        /* \"#utility.yul\":2724:2730   */\n      dup5\n        /* \"#utility.yul\":2680:2752   */\n      tag_303\n      jump\t// in\n    tag_403:\n        /* \"#utility.yul\":2317:2759   */\n      swap5\n      swap4\n      pop\n      pop\n      pop\n      pop\n      jump\t// out\n        /* \"#utility.yul\":2765:2891   */\n    tag_309:\n        /* \"#utility.yul\":2802:2809   */\n      0x00\n        /* \"#utility.yul\":2842:2884   */\n      0xffffffffffffffffffffffffffffffffffffffff\n        /* \"#utility.yul\":2835:2840   */\n      dup3\n        /* \"#utility.yul\":2831:2885   */\n      and\n        /* \"#utility.yul\":2820:2885   */\n      swap1\n      pop\n        /* \"#utility.yul\":2765:2891   */\n      swap2\n      swap1\n      pop\n      jump\t// out\n        /* \"#utility.yul\":2897:2993   */\n    tag_310:\n        /* \"#utility.yul\":2934:2941   */\n      0x00\n        /* \"#utility.yul\":2963:2987   */\n      tag_406\n        /* \"#utility.yul\":2981:2986   */\n      dup3\n        /* \"#utility.yul\":2963:2987   */\n      tag_309\n      jump\t// in\n    tag_406:\n        /* \"#utility.yul\":2952:2987   */\n      swap1\n      pop\n        /* \"#utility.yul\":2897:2993   */\n      swap2\n      swap1\n      pop\n      jump\t// out\n        /* \"#utility.yul\":2999:3121   */\n    tag_311:\n        /* \"#utility.yul\":3072:3096   */\n      tag_408\n        /* \"#utility.yul\":3090:3095   */\n      dup2\n        /* \"#utility.yul\":3072:3096   */\n      tag_310\n      jump\t// in\n    tag_408:\n        /* \"#utility.yul\":3065:3070   */\n      dup2\n        /* \"#utility.yul\":3062:3097   */\n      eq\n        /* \"#utility.yul\":3052:3115   */\n      tag_409\n      jumpi\n        /* \"#utility.yul\":3111:3112   */\n      0x00\n        /* \"#utility.yul\":3108:3109   */\n      0x00\n        /* \"#utility.yul\":3101:3113   */\n      revert\n        /* \"#utility.yul\":3052:3115   */\n    tag_409:\n        /* \"#utility.yul\":2999:3121   */\n      pop\n      jump\t// out\n        /* \"#utility.yul\":3127:3266   */\n    tag_312:\n        /* \"#utility.yul\":3173:3178   */\n      0x00\n        /* \"#utility.yul\":3211:3217   */\n      dup2\n        /* \"#utility.yul\":3198:3218   */\n      calldataload\n        /* \"#utility.yul\":3189:3218   */\n      swap1\n      pop\n        /* \"#utility.yul\":3227:3260   */\n      tag_411\n        /* \"#utility.yul\":3254:3259   */\n      dup2\n        /* \"#utility.yul\":3227:3260   */\n      tag_311\n      jump\t// in\n    tag_411:\n        /* \"#utility.yul\":3127:3266   */\n      swap3\n      swap2\n      pop\n      pop\n      jump\t// out\n        /* \"#utility.yul\":3272:3389   */\n    tag_313:\n        /* \"#utility.yul\":3381:3382   */\n      0x00\n        /* \"#utility.yul\":3378:3379   */\n      0x00\n        /* \"#utility.yul\":3371:3383   */\n      revert\n        /* \"#utility.yul\":3395:3512   */\n    tag_314:\n        /* \"#utility.yul\":3504:3505   */\n      0x00\n        /* \"#utility.yul\":3501:3502   */\n      0x00\n        /* \"#utility.yul\":3494:3506   */\n      revert\n        /* \"#utility.yul\":3518:3635   */\n    tag_315:\n        /* \"#utility.yul\":3627:3628   */\n      0x00\n        /* \"#utility.yul\":3624:3625   */\n      0x00\n        /* \"#utility.yul\":3617:3629   */\n      revert\n        /* \"#utility.yul\":3655:4208   */\n    tag_316:\n        /* \"#utility.yul\":3713:3721   */\n      0x00\n        /* \"#utility.yul\":3723:3729   */\n      0x00\n        /* \"#utility.yul\":3773:3776   */\n      dup4\n        /* \"#utility.yul\":3766:3770   */\n      0x1f\n        /* \"#utility.yul\":3758:3764   */\n      dup5\n        /* \"#utility.yul\":3754:3771   */\n      add\n        /* \"#utility.yul\":3750:3777   */\n      slt\n        /* \"#utility.yul\":3740:3862   */\n      tag_416\n      jumpi\n        /* \"#utility.yul\":3781:3860   */\n      tag_417\n      tag_313\n      jump\t// in\n    tag_417:\n        /* \"#utility.yul\":3740:3862   */\n    tag_416:\n        /* \"#utility.yul\":3894:3900   */\n      dup3\n        /* \"#utility.yul\":3881:3901   */\n      calldataload\n        /* \"#utility.yul\":3871:3901   */\n      swap1\n      pop\n        /* \"#utility.yul\":3924:3942   */\n      0xffffffffffffffff\n        /* \"#utility.yul\":3916:3922   */\n      dup2\n        /* \"#utility.yul\":3913:3943   */\n      gt\n        /* \"#utility.yul\":3910:4027   */\n      iszero\n      tag_418\n      jumpi\n        /* \"#utility.yul\":3946:4025   */\n      tag_419\n      tag_314\n      jump\t// in\n    tag_419:\n        /* \"#utility.yul\":3910:4027   */\n    tag_418:\n        /* \"#utility.yul\":4060:4064   */\n      0x20\n        /* \"#utility.yul\":4052:4058   */\n      dup4\n        /* \"#utility.yul\":4048:4065   */\n      add\n        /* \"#utility.yul\":4036:4065   */\n      swap2\n      pop\n        /* \"#utility.yul\":4114:4117   */\n      dup4\n        /* \"#utility.yul\":4106:4110   */\n      0x01\n        /* \"#utility.yul\":4098:4104   */\n      dup3\n        /* \"#utility.yul\":4094:4111   */\n      mul\n        /* \"#utility.yul\":4084:4092   */\n      dup4\n        /* \"#utility.yul\":4080:4112   */\n      add\n        /* \"#utility.yul\":4077:4118   */\n      gt\n        /* \"#utility.yul\":4074:4202   */\n      iszero\n      tag_420\n      jumpi\n        /* \"#utility.yul\":4121:4200   */\n      tag_421\n      tag_315\n      jump\t// in\n    tag_421:\n        /* \"#utility.yul\":4074:4202   */\n    tag_420:\n        /* \"#utility.yul\":3655:4208   */\n      swap3\n      pop\n      swap3\n      swap1\n      pop\n      jump\t// out\n        /* \"#utility.yul\":4214:5325   */\n    tag_64:\n        /* \"#utility.yul\":4321:4327   */\n      0x00\n        /* \"#utility.yul\":4329:4335   */\n      0x00\n        /* \"#utility.yul\":4337:4343   */\n      0x00\n        /* \"#utility.yul\":4345:4351   */\n      0x00\n        /* \"#utility.yul\":4353:4359   */\n      0x00\n        /* \"#utility.yul\":4361:4367   */\n      0x00\n        /* \"#utility.yul\":4410:4413   */\n      0xa0\n        /* \"#utility.yul\":4398:4407   */\n      dup8\n        /* \"#utility.yul\":4389:4396   */\n      dup10\n        /* \"#utility.yul\":4385:4408   */\n      sub\n        /* \"#utility.yul\":4381:4414   */\n      slt\n        /* \"#utility.yul\":4378:4498   */\n      iszero\n      tag_423\n      jumpi\n        /* \"#utility.yul\":4417:4496   */\n      tag_424\n      tag_305\n      jump\t// in\n    tag_424:\n        /* \"#utility.yul\":4378:4498   */\n    tag_423:\n        /* \"#utility.yul\":4537:4538   */\n      0x00\n        /* \"#utility.yul\":4562:4615   */\n      tag_425\n        /* \"#utility.yul\":4607:4614   */\n      dup10\n        /* \"#utility.yul\":4598:4604   */\n      dup3\n        /* \"#utility.yul\":4587:4596   */\n      dup11\n        /* \"#utility.yul\":4583:4605   */\n      add\n        /* \"#utility.yul\":4562:4615   */\n      tag_308\n      jump\t// in\n    tag_425:\n        /* \"#utility.yul\":4552:4615   */\n      swap7\n      pop\n        /* \"#utility.yul\":4508:4625   */\n      pop\n        /* \"#utility.yul\":4664:4666   */\n      0x20\n        /* \"#utility.yul\":4690:4743   */\n      tag_426\n        /* \"#utility.yul\":4735:4742   */\n      dup10\n        /* \"#utility.yul\":4726:4732   */\n      dup3\n        /* \"#utility.yul\":4715:4724   */\n      dup11\n        /* \"#utility.yul\":4711:4733   */\n      add\n        /* \"#utility.yul\":4690:4743   */\n      tag_312\n      jump\t// in\n    tag_426:\n        /* \"#utility.yul\":4680:4743   */\n      swap6\n      pop\n        /* \"#utility.yul\":4635:4753   */\n      pop\n        /* \"#utility.yul\":4792:4794   */\n      0x40\n        /* \"#utility.yul\":4818:4871   */\n      tag_427\n        /* \"#utility.yul\":4863:4870   */\n      dup10\n        /* \"#utility.yul\":4854:4860   */\n      dup3\n        /* \"#utility.yul\":4843:4852   */\n      dup11\n        /* \"#utility.yul\":4839:4861   */\n      add\n        /* \"#utility.yul\":4818:4871   */\n      tag_308\n      jump\t// in\n    tag_427:\n        /* \"#utility.yul\":4808:4871   */\n      swap5\n      pop\n        /* \"#utility.yul\":4763:4881   */\n      pop\n        /* \"#utility.yul\":4920:4922   */\n      0x60\n        /* \"#utility.yul\":4946:4999   */\n      tag_428\n        /* \"#utility.yul\":4991:4998   */\n      dup10\n        /* \"#utility.yul\":4982:4988   */\n      dup3\n        /* \"#utility.yul\":4971:4980   */\n      dup11\n        /* \"#utility.yul\":4967:4989   */\n      add\n        /* \"#utility.yul\":4946:4999   */\n      tag_308\n      jump\t// in\n    tag_428:\n        /* \"#utility.yul\":4936:4999   */\n      swap4\n      pop\n        /* \"#utility.yul\":4891:5009   */\n      pop\n        /* \"#utility.yul\":5076:5079   */\n      0x80\n        /* \"#utility.yul\":5065:5074   */\n      dup8\n        /* \"#utility.yul\":5061:5080   */\n      add\n        /* \"#utility.yul\":5048:5081   */\n      calldataload\n        /* \"#utility.yul\":5108:5126   */\n      0xffffffffffffffff\n        /* \"#utility.yul\":5100:5106   */\n      dup2\n        /* \"#utility.yul\":5097:5127   */\n      gt\n        /* \"#utility.yul\":5094:5211   */\n      iszero\n      tag_429\n      jumpi\n        /* \"#utility.yul\":5130:5209   */\n      tag_430\n      tag_306\n      jump\t// in\n    tag_430:\n        /* \"#utility.yul\":5094:5211   */\n    tag_429:\n        /* \"#utility.yul\":5243:5308   */\n      tag_431\n        /* \"#utility.yul\":5300:5307   */\n      dup10\n        /* \"#utility.yul\":5291:5297   */\n      dup3\n        /* \"#utility.yul\":5280:5289   */\n      dup11\n        /* \"#utility.yul\":5276:5298   */\n      add\n        /* \"#utility.yul\":5243:5308   */\n      tag_316\n      jump\t// in\n    tag_431:\n        /* \"#utility.yul\":5225:5308   */\n      swap3\n      pop\n      swap3\n      pop\n        /* \"#utility.yul\":5019:5318   */\n      pop\n        /* \"#utility.yul\":4214:5325   */\n      swap3\n      swap6\n      pop\n      swap3\n      swap6\n      pop\n      swap3\n      swap6\n      jump\t// out\n        /* \"#utility.yul\":5331:5449   */\n    tag_317:\n        /* \"#utility.yul\":5418:5442   */\n      tag_433\n        /* \"#utility.yul\":5436:5441   */\n      dup2\n        /* \"#utility.yul\":5418:5442   */\n      tag_310\n      jump\t// in\n    tag_433:\n        /* \"#utility.yul\":5413:5416   */\n      dup3\n        /* \"#utility.yul\":5406:5443   */\n      mstore\n        /* \"#utility.yul\":5331:5449   */\n      pop\n      pop\n      jump\t// out\n        /* \"#utility.yul\":5455:5554   */\n    tag_318:\n        /* \"#utility.yul\":5507:5513   */\n      0x00\n        /* \"#utility.yul\":5541:5546   */\n      dup2\n        /* \"#utility.yul\":5535:5547   */\n      mload\n        /* \"#utility.yul\":5525:5547   */\n      swap1\n      pop\n        /* \"#utility.yul\":5455:5554   */\n      swap2\n      swap1\n      pop\n      jump\t// out\n        /* \"#utility.yul\":5560:5729   */\n    tag_319:\n        /* \"#utility.yul\":5644:5655   */\n      0x00\n        /* \"#utility.yul\":5678:5684   */\n      dup3\n        /* \"#utility.yul\":5673:5676   */\n      dup3\n        /* \"#utility.yul\":5666:5685   */\n      mstore\n        /* \"#utility.yul\":5718:5722   */\n      0x20\n        /* \"#utility.yul\":5713:5716   */\n      dup3\n        /* \"#utility.yul\":5709:5723   */\n      add\n        /* \"#utility.yul\":5694:5723   */\n      swap1\n      pop\n        /* \"#utility.yul\":5560:5729   */\n      swap3\n      swap2\n      pop\n      pop\n      jump\t// out\n        /* \"#utility.yul\":5735:5874   */\n    tag_320:\n        /* \"#utility.yul\":5824:5830   */\n      dup3\n        /* \"#utility.yul\":5819:5822   */\n      dup2\n        /* \"#utility.yul\":5814:5817   */\n      dup4\n        /* \"#utility.yul\":5808:5831   */\n      mcopy\n        /* \"#utility.yul\":5865:5866   */\n      0x00\n        /* \"#utility.yul\":5856:5862   */\n      dup4\n        /* \"#utility.yul\":5851:5854   */\n      dup4\n        /* \"#utility.yul\":5847:5863   */\n      add\n        /* \"#utility.yul\":5840:5867   */\n      mstore\n        /* \"#utility.yul\":5735:5874   */\n      pop\n      pop\n      pop\n      jump\t// out\n        /* \"#utility.yul\":5880:5982   */\n    tag_321:\n        /* \"#utility.yul\":5921:5927   */\n      0x00\n        /* \"#utility.yul\":5972:5974   */\n      0x1f\n        /* \"#utility.yul\":5968:5975   */\n      not\n        /* \"#utility.yul\":5963:5965   */\n      0x1f\n        /* \"#utility.yul\":5956:5961   */\n      dup4\n        /* \"#utility.yul\":5952:5966   */\n      add\n        /* \"#utility.yul\":5948:5976   */\n      and\n        /* \"#utility.yul\":5938:5976   */\n      swap1\n      pop\n        /* \"#utility.yul\":5880:5982   */\n      swap2\n      swap1\n      pop\n      jump\t// out\n        /* \"#utility.yul\":5988:6365   */\n    tag_322:\n        /* \"#utility.yul\":6076:6079   */\n      0x00\n        /* \"#utility.yul\":6104:6143   */\n      tag_439\n        /* \"#utility.yul\":6137:6142   */\n      dup3\n        /* \"#utility.yul\":6104:6143   */\n      tag_318\n      jump\t// in\n    tag_439:\n        /* \"#utility.yul\":6159:6230   */\n      tag_440\n        /* \"#utility.yul\":6223:6229   */\n      dup2\n        /* \"#utility.yul\":6218:6221   */\n      dup6\n        /* \"#utility.yul\":6159:6230   */\n      tag_319\n      jump\t// in\n    tag_440:\n        /* \"#utility.yul\":6152:6230   */\n      swap4\n      pop\n        /* \"#utility.yul\":6239:6304   */\n      tag_441\n        /* \"#utility.yul\":6297:6303   */\n      dup2\n        /* \"#utility.yul\":6292:6295   */\n      dup6\n        /* \"#utility.yul\":6285:6289   */\n      0x20\n        /* \"#utility.yul\":6278:6283   */\n      dup7\n        /* \"#utility.yul\":6274:6290   */\n      add\n        /* \"#utility.yul\":6239:6304   */\n      tag_320\n      jump\t// in\n    tag_441:\n        /* \"#utility.yul\":6329:6358   */\n      tag_442\n        /* \"#utility.yul\":6351:6357   */\n      dup2\n        /* \"#utility.yul\":6329:6358   */\n      tag_321\n      jump\t// in\n    tag_442:\n        /* \"#utility.yul\":6324:6327   */\n      dup5\n        /* \"#utility.yul\":6320:6359   */\n      add\n        /* \"#utility.yul\":6313:6359   */\n      swap2\n      pop\n        /* \"#utility.yul\":6080:6365   */\n      pop\n        /* \"#utility.yul\":5988:6365   */\n      swap3\n      swap2\n      pop\n      pop\n      jump\t// out\n        /* \"#utility.yul\":6371:6461   */\n    tag_323:\n        /* \"#utility.yul\":6405:6412   */\n      0x00\n        /* \"#utility.yul\":6448:6453   */\n      dup2\n        /* \"#utility.yul\":6441:6454   */\n      iszero\n        /* \"#utility.yul\":6434:6455   */\n      iszero\n        /* \"#utility.yul\":6423:6455   */\n      swap1\n      pop\n        /* \"#utility.yul\":6371:6461   */\n      swap2\n      swap1\n      pop\n      jump\t// out\n        /* \"#utility.yul\":6467:6576   */\n    tag_324:\n        /* \"#utility.yul\":6548:6569   */\n      tag_445\n        /* \"#utility.yul\":6563:6568   */\n      dup2\n        /* \"#utility.yul\":6548:6569   */\n      tag_323\n      jump\t// in\n    tag_445:\n        /* \"#utility.yul\":6543:6546   */\n      dup3\n        /* \"#utility.yul\":6536:6570   */\n      mstore\n        /* \"#utility.yul\":6467:6576   */\n      pop\n      pop\n      jump\t// out\n        /* \"#utility.yul\":6582:7527   */\n    tag_72:\n        /* \"#utility.yul\":6849:6853   */\n      0x00\n        /* \"#utility.yul\":6887:6890   */\n      0xc0\n        /* \"#utility.yul\":6876:6885   */\n      dup3\n        /* \"#utility.yul\":6872:6891   */\n      add\n        /* \"#utility.yul\":6864:6891   */\n      swap1\n      pop\n        /* \"#utility.yul\":6901:6972   */\n      tag_447\n        /* \"#utility.yul\":6969:6970   */\n      0x00\n        /* \"#utility.yul\":6958:6967   */\n      dup4\n        /* \"#utility.yul\":6954:6971   */\n      add\n        /* \"#utility.yul\":6945:6951   */\n      dup10\n        /* \"#utility.yul\":6901:6972   */\n      tag_317\n      jump\t// in\n    tag_447:\n        /* \"#utility.yul\":7019:7028   */\n      dup2\n        /* \"#utility.yul\":7013:7017   */\n      dup2\n        /* \"#utility.yul\":7009:7029   */\n      sub\n        /* \"#utility.yul\":7004:7006   */\n      0x20\n        /* \"#utility.yul\":6993:7002   */\n      dup4\n        /* \"#utility.yul\":6989:7007   */\n      add\n        /* \"#utility.yul\":6982:7030   */\n      mstore\n        /* \"#utility.yul\":7047:7125   */\n      tag_448\n        /* \"#utility.yul\":7120:7124   */\n      dup2\n        /* \"#utility.yul\":7111:7117   */\n      dup9\n        /* \"#utility.yul\":7047:7125   */\n      tag_322\n      jump\t// in\n    tag_448:\n        /* \"#utility.yul\":7039:7125   */\n      swap1\n      pop\n        /* \"#utility.yul\":7172:7181   */\n      dup2\n        /* \"#utility.yul\":7166:7170   */\n      dup2\n        /* \"#utility.yul\":7162:7182   */\n      sub\n        /* \"#utility.yul\":7157:7159   */\n      0x40\n        /* \"#utility.yul\":7146:7155   */\n      dup4\n        /* \"#utility.yul\":7142:7160   */\n      add\n        /* \"#utility.yul\":7135:7183   */\n      mstore\n        /* \"#utility.yul\":7200:7278   */\n      tag_449\n        /* \"#utility.yul\":7273:7277   */\n      dup2\n        /* \"#utility.yul\":7264:7270   */\n      dup8\n        /* \"#utility.yul\":7200:7278   */\n      tag_322\n      jump\t// in\n    tag_449:\n        /* \"#utility.yul\":7192:7278   */\n      swap1\n      pop\n        /* \"#utility.yul\":7288:7360   */\n      tag_450\n        /* \"#utility.yul\":7356:7358   */\n      0x60\n        /* \"#utility.yul\":7345:7354   */\n      dup4\n        /* \"#utility.yul\":7341:7359   */\n      add\n        /* \"#utility.yul\":7332:7338   */\n      dup7\n        /* \"#utility.yul\":7288:7360   */\n      tag_303\n      jump\t// in\n    tag_450:\n        /* \"#utility.yul\":7370:7443   */\n      tag_451\n        /* \"#utility.yul\":7438:7441   */\n      0x80\n        /* \"#utility.yul\":7427:7436   */\n      dup4\n        /* \"#utility.yul\":7423:7442   */\n      add\n        /* \"#utility.yul\":7414:7420   */\n      dup6\n        /* \"#utility.yul\":7370:7443   */\n      tag_303\n      jump\t// in\n    tag_451:\n        /* \"#utility.yul\":7453:7520   */\n      tag_452\n        /* \"#utility.yul\":7515:7518   */\n      0xa0\n        /* \"#utility.yul\":7504:7513   */\n      dup4\n        /* \"#utility.yul\":7500:7519   */\n      add\n        /* \"#utility.yul\":7491:7497   */\n      dup5\n        /* \"#utility.yul\":7453:7520   */\n      tag_324\n      jump\t// in\n    tag_452:\n        /* \"#utility.yul\":6582:7527   */\n      swap8\n      swap7\n      pop\n      pop\n      pop\n      pop\n      pop\n      pop\n      pop\n      jump\t// out\n        /* \"#utility.yul\":7533:7755   */\n    tag_77:\n        /* \"#utility.yul\":7626:7630   */\n      0x00\n        /* \"#utility.yul\":7664:7666   */\n      0x20\n        /* \"#utility.yul\":7653:7662   */\n      dup3\n        /* \"#utility.yul\":7649:7667   */\n      add\n        /* \"#utility.yul\":7641:7667   */\n      swap1\n      pop\n        /* \"#utility.yul\":7677:7748   */\n      tag_454\n        /* \"#utility.yul\":7745:7746   */\n      0x00\n        /* \"#utility.yul\":7734:7743   */\n      dup4\n        /* \"#utility.yul\":7730:7747   */\n      add\n        /* \"#utility.yul\":7721:7727   */\n      dup5\n        /* \"#utility.yul\":7677:7748   */\n      tag_317\n      jump\t// in\n    tag_454:\n        /* \"#utility.yul\":7533:7755   */\n      swap3\n      swap2\n      pop\n      pop\n      jump\t// out\n        /* \"#utility.yul\":7761:7941   */\n    tag_128:\n        /* \"#utility.yul\":7809:7886   */\n      0x4e487b7100000000000000000000000000000000000000000000000000000000\n        /* \"#utility.yul\":7806:7807   */\n      0x00\n        /* \"#utility.yul\":7799:7887   */\n      mstore\n        /* \"#utility.yul\":7906:7910   */\n      0x21\n        /* \"#utility.yul\":7903:7904   */\n      0x04\n        /* \"#utility.yul\":7896:7911   */\n      mstore\n        /* \"#utility.yul\":7930:7934   */\n      0x24\n        /* \"#utility.yul\":7927:7928   */\n      0x00\n        /* \"#utility.yul\":7920:7935   */\n      revert\n        /* \"#utility.yul\":7947:8067   */\n    tag_325:\n        /* \"#utility.yul\":8035:8036   */\n      0x06\n        /* \"#utility.yul\":8028:8033   */\n      dup2\n        /* \"#utility.yul\":8025:8037   */\n      lt\n        /* \"#utility.yul\":8015:8061   */\n      tag_457\n      jumpi\n        /* \"#utility.yul\":8041:8059   */\n      tag_458\n      tag_128\n      jump\t// in\n    tag_458:\n        /* \"#utility.yul\":8015:8061   */\n    tag_457:\n        /* \"#utility.yul\":7947:8067   */\n      pop\n      jump\t// out\n        /* \"#utility.yul\":8073:8214   */\n    tag_326:\n        /* \"#utility.yul\":8125:8132   */\n      0x00\n        /* \"#utility.yul\":8154:8159   */\n      dup2\n        /* \"#utility.yul\":8143:8159   */\n      swap1\n      pop\n        /* \"#utility.yul\":8160:8208   */\n      tag_460\n        /* \"#utility.yul\":8202:8207   */\n      dup3\n        /* \"#utility.yul\":8160:8208   */\n      tag_325\n      jump\t// in\n    tag_460:\n        /* \"#utility.yul\":8073:8214   */\n      swap2\n      swap1\n      pop\n      jump\t// out\n        /* \"#utility.yul\":8220:8361   */\n    tag_327:\n        /* \"#utility.yul\":8283:8292   */\n      0x00\n        /* \"#utility.yul\":8316:8355   */\n      tag_462\n        /* \"#utility.yul\":8349:8354   */\n      dup3\n        /* \"#utility.yul\":8316:8355   */\n      tag_326\n      jump\t// in\n    tag_462:\n        /* \"#utility.yul\":8303:8355   */\n      swap1\n      pop\n        /* \"#utility.yul\":8220:8361   */\n      swap2\n      swap1\n      pop\n      jump\t// out\n        /* \"#utility.yul\":8367:8524   */\n    tag_328:\n        /* \"#utility.yul\":8467:8517   */\n      tag_464\n        /* \"#utility.yul\":8511:8516   */\n      dup2\n        /* \"#utility.yul\":8467:8517   */\n      tag_327\n      jump\t// in\n    tag_464:\n        /* \"#utility.yul\":8462:8465   */\n      dup3\n        /* \"#utility.yul\":8455:8518   */\n      mstore\n        /* \"#utility.yul\":8367:8524   */\n      pop\n      pop\n      jump\t// out\n        /* \"#utility.yul\":8530:8631   */\n    tag_329:\n        /* \"#utility.yul\":8566:8573   */\n      0x00\n        /* \"#utility.yul\":8606:8624   */\n      0xffffffffffffffff\n        /* \"#utility.yul\":8599:8604   */\n      dup3\n        /* \"#utility.yul\":8595:8625   */\n      and\n        /* \"#utility.yul\":8584:8625   */\n      swap1\n      pop\n        /* \"#utility.yul\":8530:8631   */\n      swap2\n      swap1\n      pop\n      jump\t// out\n        /* \"#utility.yul\":8637:8752   */\n    tag_330:\n        /* \"#utility.yul\":8722:8745   */\n      tag_467\n        /* \"#utility.yul\":8739:8744   */\n      dup2\n        /* \"#utility.yul\":8722:8745   */\n      tag_329\n      jump\t// in\n    tag_467:\n        /* \"#utility.yul\":8717:8720   */\n      dup3\n        /* \"#utility.yul\":8710:8746   */\n      mstore\n        /* \"#utility.yul\":8637:8752   */\n      pop\n      pop\n      jump\t// out\n        /* \"#utility.yul\":8758:9888   */\n    tag_87:\n        /* \"#utility.yul\":9086:9090   */\n      0x00\n        /* \"#utility.yul\":9124:9127   */\n      0x0120\n        /* \"#utility.yul\":9113:9122   */\n      dup3\n        /* \"#utility.yul\":9109:9128   */\n      add\n        /* \"#utility.yul\":9101:9128   */\n      swap1\n      pop\n        /* \"#utility.yul\":9138:9209   */\n      tag_469\n        /* \"#utility.yul\":9206:9207   */\n      0x00\n        /* \"#utility.yul\":9195:9204   */\n      dup4\n        /* \"#utility.yul\":9191:9208   */\n      add\n        /* \"#utility.yul\":9182:9188   */\n      dup13\n        /* \"#utility.yul\":9138:9209   */\n      tag_303\n      jump\t// in\n    tag_469:\n        /* \"#utility.yul\":9219:9291   */\n      tag_470\n        /* \"#utility.yul\":9287:9289   */\n      0x20\n        /* \"#utility.yul\":9276:9285   */\n      dup4\n        /* \"#utility.yul\":9272:9290   */\n      add\n        /* \"#utility.yul\":9263:9269   */\n      dup12\n        /* \"#utility.yul\":9219:9291   */\n      tag_303\n      jump\t// in\n    tag_470:\n        /* \"#utility.yul\":9301:9373   */\n      tag_471\n        /* \"#utility.yul\":9369:9371   */\n      0x40\n        /* \"#utility.yul\":9358:9367   */\n      dup4\n        /* \"#utility.yul\":9354:9372   */\n      add\n        /* \"#utility.yul\":9345:9351   */\n      dup11\n        /* \"#utility.yul\":9301:9373   */\n      tag_317\n      jump\t// in\n    tag_471:\n        /* \"#utility.yul\":9383:9455   */\n      tag_472\n        /* \"#utility.yul\":9451:9453   */\n      0x60\n        /* \"#utility.yul\":9440:9449   */\n      dup4\n        /* \"#utility.yul\":9436:9454   */\n      add\n        /* \"#utility.yul\":9427:9433   */\n      dup10\n        /* \"#utility.yul\":9383:9455   */\n      tag_317\n      jump\t// in\n    tag_472:\n        /* \"#utility.yul\":9465:9538   */\n      tag_473\n        /* \"#utility.yul\":9533:9536   */\n      0x80\n        /* \"#utility.yul\":9522:9531   */\n      dup4\n        /* \"#utility.yul\":9518:9537   */\n      add\n        /* \"#utility.yul\":9509:9515   */\n      dup9\n        /* \"#utility.yul\":9465:9538   */\n      tag_303\n      jump\t// in\n    tag_473:\n        /* \"#utility.yul\":9548:9621   */\n      tag_474\n        /* \"#utility.yul\":9616:9619   */\n      0xa0\n        /* \"#utility.yul\":9605:9614   */\n      dup4\n        /* \"#utility.yul\":9601:9620   */\n      add\n        /* \"#utility.yul\":9592:9598   */\n      dup8\n        /* \"#utility.yul\":9548:9621   */\n      tag_303\n      jump\t// in\n    tag_474:\n        /* \"#utility.yul\":9631:9704   */\n      tag_475\n        /* \"#utility.yul\":9699:9702   */\n      0xc0\n        /* \"#utility.yul\":9688:9697   */\n      dup4\n        /* \"#utility.yul\":9684:9703   */\n      add\n        /* \"#utility.yul\":9675:9681   */\n      dup7\n        /* \"#utility.yul\":9631:9704   */\n      tag_303\n      jump\t// in\n    tag_475:\n        /* \"#utility.yul\":9714:9800   */\n      tag_476\n        /* \"#utility.yul\":9795:9798   */\n      0xe0\n        /* \"#utility.yul\":9784:9793   */\n      dup4\n        /* \"#utility.yul\":9780:9799   */\n      add\n        /* \"#utility.yul\":9771:9777   */\n      dup6\n        /* \"#utility.yul\":9714:9800   */\n      tag_328\n      jump\t// in\n    tag_476:\n        /* \"#utility.yul\":9810:9881   */\n      tag_477\n        /* \"#utility.yul\":9876:9879   */\n      0x0100\n        /* \"#utility.yul\":9865:9874   */\n      dup4\n        /* \"#utility.yul\":9861:9880   */\n      add\n        /* \"#utility.yul\":9852:9858   */\n      dup5\n        /* \"#utility.yul\":9810:9881   */\n      tag_330\n      jump\t// in\n    tag_477:\n        /* \"#utility.yul\":8758:9888   */\n      swap11\n      swap10\n      pop\n      pop\n      pop\n      pop\n      pop\n      pop\n      pop\n      pop\n      pop\n      pop\n      jump\t// out\n        /* \"#utility.yul\":9894:9998   */\n    tag_331:\n        /* \"#utility.yul\":9939:9946   */\n      0x00\n        /* \"#utility.yul\":9968:9992   */\n      tag_479\n        /* \"#utility.yul\":9986:9991   */\n      dup3\n        /* \"#utility.yul\":9968:9992   */\n      tag_309\n      jump\t// in\n    tag_479:\n        /* \"#utility.yul\":9957:9992   */\n      swap1\n      pop\n        /* \"#utility.yul\":9894:9998   */\n      swap2\n      swap1\n      pop\n      jump\t// out\n        /* \"#utility.yul\":10004:10142   */\n    tag_332:\n        /* \"#utility.yul\":10085:10117   */\n      tag_481\n        /* \"#utility.yul\":10111:10116   */\n      dup2\n        /* \"#utility.yul\":10085:10117   */\n      tag_331\n      jump\t// in\n    tag_481:\n        /* \"#utility.yul\":10078:10083   */\n      dup2\n        /* \"#utility.yul\":10075:10118   */\n      eq\n        /* \"#utility.yul\":10065:10136   */\n      tag_482\n      jumpi\n        /* \"#utility.yul\":10132:10133   */\n      0x00\n        /* \"#utility.yul\":10129:10130   */\n      0x00\n        /* \"#utility.yul\":10122:10134   */\n      revert\n        /* \"#utility.yul\":10065:10136   */\n    tag_482:\n        /* \"#utility.yul\":10004:10142   */\n      pop\n      jump\t// out\n        /* \"#utility.yul\":10148:10303   */\n    tag_333:\n        /* \"#utility.yul\":10202:10207   */\n      0x00\n        /* \"#utility.yul\":10240:10246   */\n      dup2\n        /* \"#utility.yul\":10227:10247   */\n      calldataload\n        /* \"#utility.yul\":10218:10247   */\n      swap1\n      pop\n        /* \"#utility.yul\":10256:10297   */\n      tag_484\n        /* \"#utility.yul\":10291:10296   */\n      dup2\n        /* \"#utility.yul\":10256:10297   */\n      tag_332\n      jump\t// in\n    tag_484:\n        /* \"#utility.yul\":10148:10303   */\n      swap3\n      swap2\n      pop\n      pop\n      jump\t// out\n        /* \"#utility.yul\":10309:10799   */\n    tag_91:\n        /* \"#utility.yul\":10385:10391   */\n      0x00\n        /* \"#utility.yul\":10393:10399   */\n      0x00\n        /* \"#utility.yul\":10442:10444   */\n      0x40\n        /* \"#utility.yul\":10430:10439   */\n      dup4\n        /* \"#utility.yul\":10421:10428   */\n      dup6\n        /* \"#utility.yul\":10417:10440   */\n      sub\n        /* \"#utility.yul\":10413:10445   */\n      slt\n        /* \"#utility.yul\":10410:10529   */\n      iszero\n      tag_486\n      jumpi\n        /* \"#utility.yul\":10448:10527   */\n      tag_487\n      tag_305\n      jump\t// in\n    tag_487:\n        /* \"#utility.yul\":10410:10529   */\n    tag_486:\n        /* \"#utility.yul\":10568:10569   */\n      0x00\n        /* \"#utility.yul\":10593:10654   */\n      tag_488\n        /* \"#utility.yul\":10646:10653   */\n      dup6\n        /* \"#utility.yul\":10637:10643   */\n      dup3\n        /* \"#utility.yul\":10626:10635   */\n      dup7\n        /* \"#utility.yul\":10622:10644   */\n      add\n        /* \"#utility.yul\":10593:10654   */\n      tag_333\n      jump\t// in\n    tag_488:\n        /* \"#utility.yul\":10583:10654   */\n      swap3\n      pop\n        /* \"#utility.yul\":10539:10664   */\n      pop\n        /* \"#utility.yul\":10703:10705   */\n      0x20\n        /* \"#utility.yul\":10729:10782   */\n      tag_489\n        /* \"#utility.yul\":10774:10781   */\n      dup6\n        /* \"#utility.yul\":10765:10771   */\n      dup3\n        /* \"#utility.yul\":10754:10763   */\n      dup7\n        /* \"#utility.yul\":10750:10772   */\n      add\n        /* \"#utility.yul\":10729:10782   */\n      tag_308\n      jump\t// in\n    tag_489:\n        /* \"#utility.yul\":10719:10782   */\n      swap2\n      pop\n        /* \"#utility.yul\":10674:10792   */\n      pop\n        /* \"#utility.yul\":10309:10799   */\n      swap3\n      pop\n      swap3\n      swap1\n      pop\n      jump\t// out\n        /* \"#utility.yul\":10805:10925   */\n    tag_334:\n        /* \"#utility.yul\":10877:10900   */\n      tag_491\n        /* \"#utility.yul\":10894:10899   */\n      dup2\n        /* \"#utility.yul\":10877:10900   */\n      tag_300\n      jump\t// in\n    tag_491:\n        /* \"#utility.yul\":10870:10875   */\n      dup2\n        /* \"#utility.yul\":10867:10901   */\n      eq\n        /* \"#utility.yul\":10857:10919   */\n      tag_492\n      jumpi\n        /* \"#utility.yul\":10915:10916   */\n      0x00\n        /* \"#utility.yul\":10912:10913   */\n      0x00\n        /* \"#utility.yul\":10905:10917   */\n      revert\n        /* \"#utility.yul\":10857:10919   */\n    tag_492:\n        /* \"#utility.yul\":10805:10925   */\n      pop\n      jump\t// out\n        /* \"#utility.yul\":10931:11068   */\n    tag_335:\n        /* \"#utility.yul\":10976:10981   */\n      0x00\n        /* \"#utility.yul\":11014:11020   */\n      dup2\n        /* \"#utility.yul\":11001:11021   */\n      calldataload\n        /* \"#utility.yul\":10992:11021   */\n      swap1\n      pop\n        /* \"#utility.yul\":11030:11062   */\n      tag_494\n        /* \"#utility.yul\":11056:11061   */\n      dup2\n        /* \"#utility.yul\":11030:11062   */\n      tag_334\n      jump\t// in\n    tag_494:\n        /* \"#utility.yul\":10931:11068   */\n      swap3\n      swap2\n      pop\n      pop\n      jump\t// out\n        /* \"#utility.yul\":11074:11401   */\n    tag_96:\n        /* \"#utility.yul\":11132:11138   */\n      0x00\n        /* \"#utility.yul\":11181:11183   */\n      0x20\n        /* \"#utility.yul\":11169:11178   */\n      dup3\n        /* \"#utility.yul\":11160:11167   */\n      dup5\n        /* \"#utility.yul\":11156:11179   */\n      sub\n        /* \"#utility.yul\":11152:11184   */\n      slt\n        /* \"#utility.yul\":11149:11268   */\n      iszero\n      tag_496\n      jumpi\n        /* \"#utility.yul\":11187:11266   */\n      tag_497\n      tag_305\n      jump\t// in\n    tag_497:\n        /* \"#utility.yul\":11149:11268   */\n    tag_496:\n        /* \"#utility.yul\":11307:11308   */\n      0x00\n        /* \"#utility.yul\":11332:11384   */\n      tag_498\n        /* \"#utility.yul\":11376:11383   */\n      dup5\n        /* \"#utility.yul\":11367:11373   */\n      dup3\n        /* \"#utility.yul\":11356:11365   */\n      dup6\n        /* \"#utility.yul\":11352:11374   */\n      add\n        /* \"#utility.yul\":11332:11384   */\n      tag_335\n      jump\t// in\n    tag_498:\n        /* \"#utility.yul\":11322:11384   */\n      swap2\n      pop\n        /* \"#utility.yul\":11278:11394   */\n      pop\n        /* \"#utility.yul\":11074:11401   */\n      swap3\n      swap2\n      pop\n      pop\n      jump\t// out\n        /* \"#utility.yul\":11407:12572   */\n    tag_106:\n        /* \"#utility.yul\":11517:11523   */\n      0x00\n        /* \"#utility.yul\":11525:11531   */\n      0x00\n        /* \"#utility.yul\":11533:11539   */\n      0x00\n        /* \"#utility.yul\":11541:11547   */\n      0x00\n        /* \"#utility.yul\":11549:11555   */\n      0x00\n        /* \"#utility.yul\":11557:11563   */\n      0x00\n        /* \"#utility.yul\":11606:11609   */\n      0x80\n        /* \"#utility.yul\":11594:11603   */\n      dup8\n        /* \"#utility.yul\":11585:11592   */\n      dup10\n        /* \"#utility.yul\":11581:11604   */\n      sub\n        /* \"#utility.yul\":11577:11610   */\n      slt\n        /* \"#utility.yul\":11574:11694   */\n      iszero\n      tag_500\n      jumpi\n        /* \"#utility.yul\":11613:11692   */\n      tag_501\n      tag_305\n      jump\t// in\n    tag_501:\n        /* \"#utility.yul\":11574:11694   */\n    tag_500:\n        /* \"#utility.yul\":11761:11762   */\n      0x00\n        /* \"#utility.yul\":11750:11759   */\n      dup8\n        /* \"#utility.yul\":11746:11763   */\n      add\n        /* \"#utility.yul\":11733:11764   */\n      calldataload\n        /* \"#utility.yul\":11791:11809   */\n      0xffffffffffffffff\n        /* \"#utility.yul\":11783:11789   */\n      dup2\n        /* \"#utility.yul\":11780:11810   */\n      gt\n        /* \"#utility.yul\":11777:11894   */\n      iszero\n      tag_502\n      jumpi\n        /* \"#utility.yul\":11813:11892   */\n      tag_503\n      tag_306\n      jump\t// in\n    tag_503:\n        /* \"#utility.yul\":11777:11894   */\n    tag_502:\n        /* \"#utility.yul\":11926:11991   */\n      tag_504\n        /* \"#utility.yul\":11983:11990   */\n      dup10\n        /* \"#utility.yul\":11974:11980   */\n      dup3\n        /* \"#utility.yul\":11963:11972   */\n      dup11\n        /* \"#utility.yul\":11959:11981   */\n      add\n        /* \"#utility.yul\":11926:11991   */\n      tag_316\n      jump\t// in\n    tag_504:\n        /* \"#utility.yul\":11908:11991   */\n      swap7\n      pop\n      swap7\n      pop\n        /* \"#utility.yul\":11704:12001   */\n      pop\n        /* \"#utility.yul\":12068:12070   */\n      0x20\n        /* \"#utility.yul\":12057:12066   */\n      dup8\n        /* \"#utility.yul\":12053:12071   */\n      add\n        /* \"#utility.yul\":12040:12072   */\n      calldataload\n        /* \"#utility.yul\":12099:12117   */\n      0xffffffffffffffff\n        /* \"#utility.yul\":12091:12097   */\n      dup2\n        /* \"#utility.yul\":12088:12118   */\n      gt\n        /* \"#utility.yul\":12085:12202   */\n      iszero\n      tag_505\n      jumpi\n        /* \"#utility.yul\":12121:12200   */\n      tag_506\n      tag_306\n      jump\t// in\n    tag_506:\n        /* \"#utility.yul\":12085:12202   */\n    tag_505:\n        /* \"#utility.yul\":12234:12299   */\n      tag_507\n        /* \"#utility.yul\":12291:12298   */\n      dup10\n        /* \"#utility.yul\":12282:12288   */\n      dup3\n        /* \"#utility.yul\":12271:12280   */\n      dup11\n        /* \"#utility.yul\":12267:12289   */\n      add\n        /* \"#utility.yul\":12234:12299   */\n      tag_316\n      jump\t// in\n    tag_507:\n        /* \"#utility.yul\":12216:12299   */\n      swap5\n      pop\n      swap5\n      pop\n        /* \"#utility.yul\":12011:12309   */\n      pop\n        /* \"#utility.yul\":12348:12350   */\n      0x40\n        /* \"#utility.yul\":12374:12427   */\n      tag_508\n        /* \"#utility.yul\":12419:12426   */\n      dup10\n        /* \"#utility.yul\":12410:12416   */\n      dup3\n        /* \"#utility.yul\":12399:12408   */\n      dup11\n        /* \"#utility.yul\":12395:12417   */\n      add\n        /* \"#utility.yul\":12374:12427   */\n      tag_308\n      jump\t// in\n    tag_508:\n        /* \"#utility.yul\":12364:12427   */\n      swap3\n      pop\n        /* \"#utility.yul\":12319:12437   */\n      pop\n        /* \"#utility.yul\":12476:12478   */\n      0x60\n        /* \"#utility.yul\":12502:12555   */\n      tag_509\n        /* \"#utility.yul\":12547:12554   */\n      dup10\n        /* \"#utility.yul\":12538:12544   */\n      dup3\n        /* \"#utility.yul\":12527:12536   */\n      dup11\n        /* \"#utility.yul\":12523:12545   */\n      add\n        /* \"#utility.yul\":12502:12555   */\n      tag_308\n      jump\t// in\n    tag_509:\n        /* \"#utility.yul\":12492:12555   */\n      swap2\n      pop\n        /* \"#utility.yul\":12447:12565   */\n      pop\n        /* \"#utility.yul\":11407:12572   */\n      swap3\n      swap6\n      pop\n      swap3\n      swap6\n      pop\n      swap3\n      swap6\n      jump\t// out\n        /* \"#utility.yul\":12578:12907   */\n    tag_116:\n        /* \"#utility.yul\":12637:12643   */\n      0x00\n        /* \"#utility.yul\":12686:12688   */\n      0x20\n        /* \"#utility.yul\":12674:12683   */\n      dup3\n        /* \"#utility.yul\":12665:12672   */\n      dup5\n        /* \"#utility.yul\":12661:12684   */\n      sub\n        /* \"#utility.yul\":12657:12689   */\n      slt\n        /* \"#utility.yul\":12654:12773   */\n      iszero\n      tag_511\n      jumpi\n        /* \"#utility.yul\":12692:12771   */\n      tag_512\n      tag_305\n      jump\t// in\n    tag_512:\n        /* \"#utility.yul\":12654:12773   */\n    tag_511:\n        /* \"#utility.yul\":12812:12813   */\n      0x00\n        /* \"#utility.yul\":12837:12890   */\n      tag_513\n        /* \"#utility.yul\":12882:12889   */\n      dup5\n        /* \"#utility.yul\":12873:12879   */\n      dup3\n        /* \"#utility.yul\":12862:12871   */\n      dup6\n        /* \"#utility.yul\":12858:12880   */\n      add\n        /* \"#utility.yul\":12837:12890   */\n      tag_312\n      jump\t// in\n    tag_513:\n        /* \"#utility.yul\":12827:12890   */\n      swap2\n      pop\n        /* \"#utility.yul\":12783:12900   */\n      pop\n        /* \"#utility.yul\":12578:12907   */\n      swap3\n      swap2\n      pop\n      pop\n      jump\t// out\n        /* \"#utility.yul\":12913:13029   */\n    tag_336:\n        /* \"#utility.yul\":12983:13004   */\n      tag_515\n        /* \"#utility.yul\":12998:13003   */\n      dup2\n        /* \"#utility.yul\":12983:13004   */\n      tag_323\n      jump\t// in\n    tag_515:\n        /* \"#utility.yul\":12976:12981   */\n      dup2\n        /* \"#utility.yul\":12973:13005   */\n      eq\n        /* \"#utility.yul\":12963:13023   */\n      tag_516\n      jumpi\n        /* \"#utility.yul\":13019:13020   */\n      0x00\n        /* \"#utility.yul\":13016:13017   */\n      0x00\n        /* \"#utility.yul\":13009:13021   */\n      revert\n        /* \"#utility.yul\":12963:13023   */\n    tag_516:\n        /* \"#utility.yul\":12913:13029   */\n      pop\n      jump\t// out\n        /* \"#utility.yul\":13035:13168   */\n    tag_337:\n        /* \"#utility.yul\":13078:13083   */\n      0x00\n        /* \"#utility.yul\":13116:13122   */\n      dup2\n        /* \"#utility.yul\":13103:13123   */\n      calldataload\n        /* \"#utility.yul\":13094:13123   */\n      swap1\n      pop\n        /* \"#utility.yul\":13132:13162   */\n      tag_518\n        /* \"#utility.yul\":13156:13161   */\n      dup2\n        /* \"#utility.yul\":13132:13162   */\n      tag_336\n      jump\t// in\n    tag_518:\n        /* \"#utility.yul\":13035:13168   */\n      swap3\n      swap2\n      pop\n      pop\n      jump\t// out\n        /* \"#utility.yul\":13174:13933   */\n    tag_121:\n        /* \"#utility.yul\":13257:13263   */\n      0x00\n        /* \"#utility.yul\":13265:13271   */\n      0x00\n        /* \"#utility.yul\":13273:13279   */\n      0x00\n        /* \"#utility.yul\":13281:13287   */\n      0x00\n        /* \"#utility.yul\":13330:13333   */\n      0x80\n        /* \"#utility.yul\":13318:13327   */\n      dup6\n        /* \"#utility.yul\":13309:13316   */\n      dup8\n        /* \"#utility.yul\":13305:13328   */\n      sub\n        /* \"#utility.yul\":13301:13334   */\n      slt\n        /* \"#utility.yul\":13298:13418   */\n      iszero\n      tag_520\n      jumpi\n        /* \"#utility.yul\":13337:13416   */\n      tag_521\n      tag_305\n      jump\t// in\n    tag_521:\n        /* \"#utility.yul\":13298:13418   */\n    tag_520:\n        /* \"#utility.yul\":13457:13458   */\n      0x00\n        /* \"#utility.yul\":13482:13535   */\n      tag_522\n        /* \"#utility.yul\":13527:13534   */\n      dup8\n        /* \"#utility.yul\":13518:13524   */\n      dup3\n        /* \"#utility.yul\":13507:13516   */\n      dup9\n        /* \"#utility.yul\":13503:13525   */\n      add\n        /* \"#utility.yul\":13482:13535   */\n      tag_308\n      jump\t// in\n    tag_522:\n        /* \"#utility.yul\":13472:13535   */\n      swap5\n      pop\n        /* \"#utility.yul\":13428:13545   */\n      pop\n        /* \"#utility.yul\":13584:13586   */\n      0x20\n        /* \"#utility.yul\":13610:13663   */\n      tag_523\n        /* \"#utility.yul\":13655:13662   */\n      dup8\n        /* \"#utility.yul\":13646:13652   */\n      dup3\n        /* \"#utility.yul\":13635:13644   */\n      dup9\n        /* \"#utility.yul\":13631:13653   */\n      add\n        /* \"#utility.yul\":13610:13663   */\n      tag_308\n      jump\t// in\n    tag_523:\n        /* \"#utility.yul\":13600:13663   */\n      swap4\n      pop\n        /* \"#utility.yul\":13555:13673   */\n      pop\n        /* \"#utility.yul\":13712:13714   */\n      0x40\n        /* \"#utility.yul\":13738:13791   */\n      tag_524\n        /* \"#utility.yul\":13783:13790   */\n      dup8\n        /* \"#utility.yul\":13774:13780   */\n      dup3\n        /* \"#utility.yul\":13763:13772   */\n      dup9\n        /* \"#utility.yul\":13759:13781   */\n      add\n        /* \"#utility.yul\":13738:13791   */\n      tag_308\n      jump\t// in\n    tag_524:\n        /* \"#utility.yul\":13728:13791   */\n      swap3\n      pop\n        /* \"#utility.yul\":13683:13801   */\n      pop\n        /* \"#utility.yul\":13840:13842   */\n      0x60\n        /* \"#utility.yul\":13866:13916   */\n      tag_525\n        /* \"#utility.yul\":13908:13915   */\n      dup8\n        /* \"#utility.yul\":13899:13905   */\n      dup3\n        /* \"#utility.yul\":13888:13897   */\n      dup9\n        /* \"#utility.yul\":13884:13906   */\n      add\n        /* \"#utility.yul\":13866:13916   */\n      tag_337\n      jump\t// in\n    tag_525:\n        /* \"#utility.yul\":13856:13916   */\n      swap2\n      pop\n        /* \"#utility.yul\":13811:13926   */\n      pop\n        /* \"#utility.yul\":13174:13933   */\n      swap3\n      swap6\n      swap2\n      swap5\n      pop\n      swap3\n      pop\n      jump\t// out\n        /* \"#utility.yul\":13939:14119   */\n    tag_338:\n        /* \"#utility.yul\":13987:14064   */\n      0x4e487b7100000000000000000000000000000000000000000000000000000000\n        /* \"#utility.yul\":13984:13985   */\n      0x00\n        /* \"#utility.yul\":13977:14065   */\n      mstore\n        /* \"#utility.yul\":14084:14088   */\n      0x11\n        /* \"#utility.yul\":14081:14082   */\n      0x04\n        /* \"#utility.yul\":14074:14089   */\n      mstore\n        /* \"#utility.yul\":14108:14112   */\n      0x24\n        /* \"#utility.yul\":14105:14106   */\n      0x00\n        /* \"#utility.yul\":14098:14113   */\n      revert\n        /* \"#utility.yul\":14125:14316   */\n    tag_136:\n        /* \"#utility.yul\":14165:14168   */\n      0x00\n        /* \"#utility.yul\":14184:14204   */\n      tag_528\n        /* \"#utility.yul\":14202:14203   */\n      dup3\n        /* \"#utility.yul\":14184:14204   */\n      tag_302\n      jump\t// in\n    tag_528:\n        /* \"#utility.yul\":14179:14204   */\n      swap2\n      pop\n        /* \"#utility.yul\":14218:14238   */\n      tag_529\n        /* \"#utility.yul\":14236:14237   */\n      dup4\n        /* \"#utility.yul\":14218:14238   */\n      tag_302\n      jump\t// in\n    tag_529:\n        /* \"#utility.yul\":14213:14238   */\n      swap3\n      pop\n        /* \"#utility.yul\":14261:14262   */\n      dup3\n        /* \"#utility.yul\":14258:14259   */\n      dup3\n        /* \"#utility.yul\":14254:14263   */\n      add\n        /* \"#utility.yul\":14247:14263   */\n      swap1\n      pop\n        /* \"#utility.yul\":14282:14285   */\n      dup1\n        /* \"#utility.yul\":14279:14280   */\n      dup3\n        /* \"#utility.yul\":14276:14286   */\n      gt\n        /* \"#utility.yul\":14273:14309   */\n      iszero\n      tag_530\n      jumpi\n        /* \"#utility.yul\":14289:14307   */\n      tag_531\n      tag_338\n      jump\t// in\n    tag_531:\n        /* \"#utility.yul\":14273:14309   */\n    tag_530:\n        /* \"#utility.yul\":14125:14316   */\n      swap3\n      swap2\n      pop\n      pop\n      jump\t// out\n        /* \"#utility.yul\":14322:14732   */\n    tag_138:\n        /* \"#utility.yul\":14362:14369   */\n      0x00\n        /* \"#utility.yul\":14385:14405   */\n      tag_533\n        /* \"#utility.yul\":14403:14404   */\n      dup3\n        /* \"#utility.yul\":14385:14405   */\n      tag_302\n      jump\t// in\n    tag_533:\n        /* \"#utility.yul\":14380:14405   */\n      swap2\n      pop\n        /* \"#utility.yul\":14419:14439   */\n      tag_534\n        /* \"#utility.yul\":14437:14438   */\n      dup4\n        /* \"#utility.yul\":14419:14439   */\n      tag_302\n      jump\t// in\n    tag_534:\n        /* \"#utility.yul\":14414:14439   */\n      swap3\n      pop\n        /* \"#utility.yul\":14474:14475   */\n      dup3\n        /* \"#utility.yul\":14471:14472   */\n      dup3\n        /* \"#utility.yul\":14467:14476   */\n      mul\n        /* \"#utility.yul\":14496:14526   */\n      tag_535\n        /* \"#utility.yul\":14514:14525   */\n      dup2\n        /* \"#utility.yul\":14496:14526   */\n      tag_302\n      jump\t// in\n    tag_535:\n        /* \"#utility.yul\":14485:14526   */\n      swap2\n      pop\n        /* \"#utility.yul\":14675:14676   */\n      dup3\n        /* \"#utility.yul\":14666:14673   */\n      dup3\n        /* \"#utility.yul\":14662:14677   */\n      div\n        /* \"#utility.yul\":14659:14660   */\n      dup5\n        /* \"#utility.yul\":14656:14678   */\n      eq\n        /* \"#utility.yul\":14636:14637   */\n      dup4\n        /* \"#utility.yul\":14629:14638   */\n      iszero\n        /* \"#utility.yul\":14609:14692   */\n      or\n        /* \"#utility.yul\":14586:14725   */\n      tag_536\n      jumpi\n        /* \"#utility.yul\":14705:14723   */\n      tag_537\n      tag_338\n      jump\t// in\n    tag_537:\n        /* \"#utility.yul\":14586:14725   */\n    tag_536:\n        /* \"#utility.yul\":14370:14732   */\n      pop\n        /* \"#utility.yul\":14322:14732   */\n      swap3\n      swap2\n      pop\n      pop\n      jump\t// out\n        /* \"#utility.yul\":14738:14918   */\n    tag_339:\n        /* \"#utility.yul\":14786:14863   */\n      0x4e487b7100000000000000000000000000000000000000000000000000000000\n        /* \"#utility.yul\":14783:14784   */\n      0x00\n        /* \"#utility.yul\":14776:14864   */\n      mstore\n        /* \"#utility.yul\":14883:14887   */\n      0x12\n        /* \"#utility.yul\":14880:14881   */\n      0x04\n        /* \"#utility.yul\":14873:14888   */\n      mstore\n        /* \"#utility.yul\":14907:14911   */\n      0x24\n        /* \"#utility.yul\":14904:14905   */\n      0x00\n        /* \"#utility.yul\":14897:14912   */\n      revert\n        /* \"#utility.yul\":14924:15109   */\n    tag_140:\n        /* \"#utility.yul\":14964:14965   */\n      0x00\n        /* \"#utility.yul\":14981:15001   */\n      tag_540\n        /* \"#utility.yul\":14999:15000   */\n      dup3\n        /* \"#utility.yul\":14981:15001   */\n      tag_302\n      jump\t// in\n    tag_540:\n        /* \"#utility.yul\":14976:15001   */\n      swap2\n      pop\n        /* \"#utility.yul\":15015:15035   */\n      tag_541\n        /* \"#utility.yul\":15033:15034   */\n      dup4\n        /* \"#utility.yul\":15015:15035   */\n      tag_302\n      jump\t// in\n    tag_541:\n        /* \"#utility.yul\":15010:15035   */\n      swap3\n      pop\n        /* \"#utility.yul\":15054:15055   */\n      dup3\n        /* \"#utility.yul\":15044:15079   */\n      tag_542\n      jumpi\n        /* \"#utility.yul\":15059:15077   */\n      tag_543\n      tag_339\n      jump\t// in\n    tag_543:\n        /* \"#utility.yul\":15044:15079   */\n    tag_542:\n        /* \"#utility.yul\":15101:15102   */\n      dup3\n        /* \"#utility.yul\":15098:15099   */\n      dup3\n        /* \"#utility.yul\":15094:15103   */\n      div\n        /* \"#utility.yul\":15089:15103   */\n      swap1\n      pop\n        /* \"#utility.yul\":14924:15109   */\n      swap3\n      swap2\n      pop\n      pop\n      jump\t// out\n        /* \"#utility.yul\":15115:15262   */\n    tag_340:\n        /* \"#utility.yul\":15216:15227   */\n      0x00\n        /* \"#utility.yul\":15253:15256   */\n      dup2\n        /* \"#utility.yul\":15238:15256   */\n      swap1\n      pop\n        /* \"#utility.yul\":15115:15262   */\n      swap3\n      swap2\n      pop\n      pop\n      jump\t// out\n        /* \"#utility.yul\":15268:15382   */\n    tag_341:\n      pop\n      jump\t// out\n        /* \"#utility.yul\":15388:15786   */\n    tag_342:\n        /* \"#utility.yul\":15547:15550   */\n      0x00\n        /* \"#utility.yul\":15568:15651   */\n      tag_547\n        /* \"#utility.yul\":15649:15650   */\n      0x00\n        /* \"#utility.yul\":15644:15647   */\n      dup4\n        /* \"#utility.yul\":15568:15651   */\n      tag_340\n      jump\t// in\n    tag_547:\n        /* \"#utility.yul\":15561:15651   */\n      swap2\n      pop\n        /* \"#utility.yul\":15660:15753   */\n      tag_548\n        /* \"#utility.yul\":15749:15752   */\n      dup3\n        /* \"#utility.yul\":15660:15753   */\n      tag_341\n      jump\t// in\n    tag_548:\n        /* \"#utility.yul\":15778:15779   */\n      0x00\n        /* \"#utility.yul\":15773:15776   */\n      dup3\n        /* \"#utility.yul\":15769:15780   */\n      add\n        /* \"#utility.yul\":15762:15780   */\n      swap1\n      pop\n        /* \"#utility.yul\":15388:15786   */\n      swap2\n      swap1\n      pop\n      jump\t// out\n        /* \"#utility.yul\":15792:16171   */\n    tag_143:\n        /* \"#utility.yul\":15976:15979   */\n      0x00\n        /* \"#utility.yul\":15998:16145   */\n      tag_550\n        /* \"#utility.yul\":16141:16144   */\n      dup3\n        /* \"#utility.yul\":15998:16145   */\n      tag_342\n      jump\t// in\n    tag_550:\n        /* \"#utility.yul\":15991:16145   */\n      swap2\n      pop\n        /* \"#utility.yul\":16162:16165   */\n      dup2\n        /* \"#utility.yul\":16155:16165   */\n      swap1\n      pop\n        /* \"#utility.yul\":15792:16171   */\n      swap2\n      swap1\n      pop\n      jump\t// out\n        /* \"#utility.yul\":16177:16340   */\n    tag_343:\n        /* \"#utility.yul\":16317:16332   */\n      0x726566756e64206661696c656400000000000000000000000000000000000000\n        /* \"#utility.yul\":16313:16314   */\n      0x00\n        /* \"#utility.yul\":16305:16311   */\n      dup3\n        /* \"#utility.yul\":16301:16315   */\n      add\n        /* \"#utility.yul\":16294:16333   */\n      mstore\n        /* \"#utility.yul\":16177:16340   */\n      pop\n      jump\t// out\n        /* \"#utility.yul\":16346:16712   */\n    tag_344:\n        /* \"#utility.yul\":16488:16491   */\n      0x00\n        /* \"#utility.yul\":16509:16576   */\n      tag_553\n        /* \"#utility.yul\":16573:16575   */\n      0x0d\n        /* \"#utility.yul\":16568:16571   */\n      dup4\n        /* \"#utility.yul\":16509:16576   */\n      tag_319\n      jump\t// in\n    tag_553:\n        /* \"#utility.yul\":16502:16576   */\n      swap2\n      pop\n        /* \"#utility.yul\":16585:16678   */\n      tag_554\n        /* \"#utility.yul\":16674:16677   */\n      dup3\n        /* \"#utility.yul\":16585:16678   */\n      tag_343\n      jump\t// in\n    tag_554:\n        /* \"#utility.yul\":16703:16705   */\n      0x20\n        /* \"#utility.yul\":16698:16701   */\n      dup3\n        /* \"#utility.yul\":16694:16706   */\n      add\n        /* \"#utility.yul\":16687:16706   */\n      swap1\n      pop\n        /* \"#utility.yul\":16346:16712   */\n      swap2\n      swap1\n      pop\n      jump\t// out\n        /* \"#utility.yul\":16718:17137   */\n    tag_149:\n        /* \"#utility.yul\":16884:16888   */\n      0x00\n        /* \"#utility.yul\":16922:16924   */\n      0x20\n        /* \"#utility.yul\":16911:16920   */\n      dup3\n        /* \"#utility.yul\":16907:16925   */\n      add\n        /* \"#utility.yul\":16899:16925   */\n      swap1\n      pop\n        /* \"#utility.yul\":16971:16980   */\n      dup2\n        /* \"#utility.yul\":16965:16969   */\n      dup2\n        /* \"#utility.yul\":16961:16981   */\n      sub\n        /* \"#utility.yul\":16957:16958   */\n      0x00\n        /* \"#utility.yul\":16946:16955   */\n      dup4\n        /* \"#utility.yul\":16942:16959   */\n      add\n        /* \"#utility.yul\":16935:16982   */\n      mstore\n        /* \"#utility.yul\":16999:17130   */\n      tag_556\n        /* \"#utility.yul\":17125:17129   */\n      dup2\n        /* \"#utility.yul\":16999:17130   */\n      tag_344\n      jump\t// in\n    tag_556:\n        /* \"#utility.yul\":16991:17130   */\n      swap1\n      pop\n        /* \"#utility.yul\":16718:17137   */\n      swap2\n      swap1\n      pop\n      jump\t// out\n        /* \"#utility.yul\":17143:17310   */\n    tag_345:\n        /* \"#utility.yul\":17283:17302   */\n      0x7061792073656c6c6572206661696c6564000000000000000000000000000000\n        /* \"#utility.yul\":17279:17280   */\n      0x00\n        /* \"#utility.yul\":17271:17277   */\n      dup3\n        /* \"#utility.yul\":17267:17281   */\n      add\n        /* \"#utility.yul\":17260:17303   */\n      mstore\n        /* \"#utility.yul\":17143:17310   */\n      pop\n      jump\t// out\n        /* \"#utility.yul\":17316:17682   */\n    tag_346:\n        /* \"#utility.yul\":17458:17461   */\n      0x00\n        /* \"#utility.yul\":17479:17546   */\n      tag_559\n        /* \"#utility.yul\":17543:17545   */\n      0x11\n        /* \"#utility.yul\":17538:17541   */\n      dup4\n        /* \"#utility.yul\":17479:17546   */\n      tag_319\n      jump\t// in\n    tag_559:\n        /* \"#utility.yul\":17472:17546   */\n      swap2\n      pop\n        /* \"#utility.yul\":17555:17648   */\n      tag_560\n        /* \"#utility.yul\":17644:17647   */\n      dup3\n        /* \"#utility.yul\":17555:17648   */\n      tag_345\n      jump\t// in\n    tag_560:\n        /* \"#utility.yul\":17673:17675   */\n      0x20\n        /* \"#utility.yul\":17668:17671   */\n      dup3\n        /* \"#utility.yul\":17664:17676   */\n      add\n        /* \"#utility.yul\":17657:17676   */\n      swap1\n      pop\n        /* \"#utility.yul\":17316:17682   */\n      swap2\n      swap1\n      pop\n      jump\t// out\n        /* \"#utility.yul\":17688:18107   */\n    tag_199:\n        /* \"#utility.yul\":17854:17858   */\n      0x00\n        /* \"#utility.yul\":17892:17894   */\n      0x20\n        /* \"#utility.yul\":17881:17890   */\n      dup3\n        /* \"#utility.yul\":17877:17895   */\n      add\n        /* \"#utility.yul\":17869:17895   */\n      swap1\n      pop\n        /* \"#utility.yul\":17941:17950   */\n      dup2\n        /* \"#utility.yul\":17935:17939   */\n      dup2\n        /* \"#utility.yul\":17931:17951   */\n      sub\n        /* \"#utility.yul\":17927:17928   */\n      0x00\n        /* \"#utility.yul\":17916:17925   */\n      dup4\n        /* \"#utility.yul\":17912:17929   */\n      add\n        /* \"#utility.yul\":17905:17952   */\n      mstore\n        /* \"#utility.yul\":17969:18100   */\n      tag_562\n        /* \"#utility.yul\":18095:18099   */\n      dup2\n        /* \"#utility.yul\":17969:18100   */\n      tag_346\n      jump\t// in\n    tag_562:\n        /* \"#utility.yul\":17961:18100   */\n      swap1\n      pop\n        /* \"#utility.yul\":17688:18107   */\n      swap2\n      swap1\n      pop\n      jump\t// out\n        /* \"#utility.yul\":18113:18445   */\n    tag_201:\n        /* \"#utility.yul\":18234:18238   */\n      0x00\n        /* \"#utility.yul\":18272:18274   */\n      0x40\n        /* \"#utility.yul\":18261:18270   */\n      dup3\n        /* \"#utility.yul\":18257:18275   */\n      add\n        /* \"#utility.yul\":18249:18275   */\n      swap1\n      pop\n        /* \"#utility.yul\":18285:18356   */\n      tag_564\n        /* \"#utility.yul\":18353:18354   */\n      0x00\n        /* \"#utility.yul\":18342:18351   */\n      dup4\n        /* \"#utility.yul\":18338:18355   */\n      add\n        /* \"#utility.yul\":18329:18335   */\n      dup6\n        /* \"#utility.yul\":18285:18356   */\n      tag_303\n      jump\t// in\n    tag_564:\n        /* \"#utility.yul\":18366:18438   */\n      tag_565\n        /* \"#utility.yul\":18434:18436   */\n      0x20\n        /* \"#utility.yul\":18423:18432   */\n      dup4\n        /* \"#utility.yul\":18419:18437   */\n      add\n        /* \"#utility.yul\":18410:18416   */\n      dup5\n        /* \"#utility.yul\":18366:18438   */\n      tag_303\n      jump\t// in\n    tag_565:\n        /* \"#utility.yul\":18113:18445   */\n      swap4\n      swap3\n      pop\n      pop\n      pop\n      jump\t// out\n        /* \"#utility.yul\":18451:18684   */\n    tag_209:\n        /* \"#utility.yul\":18490:18493   */\n      0x00\n        /* \"#utility.yul\":18513:18537   */\n      tag_567\n        /* \"#utility.yul\":18531:18536   */\n      dup3\n        /* \"#utility.yul\":18513:18537   */\n      tag_302\n      jump\t// in\n    tag_567:\n        /* \"#utility.yul\":18504:18537   */\n      swap2\n      pop\n        /* \"#utility.yul\":18559:18625   */\n      0xffffffffffffffffffffffffffffffffffffffffffffffffffffffffffffffff\n        /* \"#utility.yul\":18552:18557   */\n      dup3\n        /* \"#utility.yul\":18549:18626   */\n      sub\n        /* \"#utility.yul\":18546:18649   */\n      tag_568\n      jumpi\n        /* \"#utility.yul\":18629:18647   */\n      tag_569\n      tag_338\n      jump\t// in\n    tag_569:\n        /* \"#utility.yul\":18546:18649   */\n    tag_568:\n        /* \"#utility.yul\":18676:18677   */\n      0x01\n        /* \"#utility.yul\":18669:18674   */\n      dup3\n        /* \"#utility.yul\":18665:18678   */\n      add\n        /* \"#utility.yul\":18658:18678   */\n      swap1\n      pop\n        /* \"#utility.yul\":18451:18684   */\n      swap2\n      swap1\n      pop\n      jump\t// out\n        /* \"#utility.yul\":18690:18838   */\n    tag_347:\n        /* \"#utility.yul\":18788:18794   */\n      dup3\n        /* \"#utility.yul\":18783:18786   */\n      dup2\n        /* \"#utility.yul\":18778:18781   */\n      dup4\n        /* \"#utility.yul\":18765:18795   */\n      calldatacopy\n        /* \"#utility.yul\":18829:18830   */\n      0x00\n        /* \"#utility.yul\":18820:18826   */\n      dup4\n        /* \"#utility.yul\":18815:18818   */\n      dup4\n        /* \"#utility.yul\":18811:18827   */\n      add\n        /* \"#utility.yul\":18804:18831   */\n      mstore\n        /* \"#utility.yul\":18690:18838   */\n      pop\n      pop\n      pop\n      jump\t// out\n        /* \"#utility.yul\":18868:19185   */\n    tag_348:\n        /* \"#utility.yul\":18966:18969   */\n      0x00\n        /* \"#utility.yul\":18987:19058   */\n      tag_572\n        /* \"#utility.yul\":19051:19057   */\n      dup4\n        /* \"#utility.yul\":19046:19049   */\n      dup6\n        /* \"#utility.yul\":18987:19058   */\n      tag_319\n      jump\t// in\n    tag_572:\n        /* \"#utility.yul\":18980:19058   */\n      swap4\n      pop\n        /* \"#utility.yul\":19068:19124   */\n      tag_573\n        /* \"#utility.yul\":19117:19123   */\n      dup4\n        /* \"#utility.yul\":19112:19115   */\n      dup6\n        /* \"#utility.yul\":19105:19110   */\n      dup5\n        /* \"#utility.yul\":19068:19124   */\n      tag_347\n      jump\t// in\n    tag_573:\n        /* \"#utility.yul\":19149:19178   */\n      tag_574\n        /* \"#utility.yul\":19171:19177   */\n      dup4\n        /* \"#utility.yul\":19149:19178   */\n      tag_321\n      jump\t// in\n    tag_574:\n        /* \"#utility.yul\":19144:19147   */\n      dup5\n        /* \"#utility.yul\":19140:19179   */\n      add\n        /* \"#utility.yul\":19133:19179   */\n      swap1\n      pop\n        /* \"#utility.yul\":18868:19185   */\n      swap4\n      swap3\n      pop\n      pop\n      pop\n      jump\t// out\n        /* \"#utility.yul\":19191:19966   */\n    tag_215:\n        /* \"#utility.yul\":19426:19430   */\n      0x00\n        /* \"#utility.yul\":19464:19467   */\n      0xa0\n        /* \"#utility.yul\":19453:19462   */\n      dup3\n        /* \"#utility.yul\":19449:19468   */\n      add\n        /* \"#utility.yul\":19441:19468   */\n      swap1\n      pop\n        /* \"#utility.yul\":19478:19549   */\n      tag_576\n        /* \"#utility.yul\":19546:19547   */\n      0x00\n        /* \"#utility.yul\":19535:19544   */\n      dup4\n        /* \"#utility.yul\":19531:19548   */\n      add\n        /* \"#utility.yul\":19522:19528   */\n      dup10\n        /* \"#utility.yul\":19478:19549   */\n      tag_317\n      jump\t// in\n    tag_576:\n        /* \"#utility.yul\":19559:19631   */\n      tag_577\n        /* \"#utility.yul\":19627:19629   */\n      0x20\n        /* \"#utility.yul\":19616:19625   */\n      dup4\n        /* \"#utility.yul\":19612:19630   */\n      add\n        /* \"#utility.yul\":19603:19609   */\n      dup9\n        /* \"#utility.yul\":19559:19631   */\n      tag_303\n      jump\t// in\n    tag_577:\n        /* \"#utility.yul\":19641:19713   */\n      tag_578\n        /* \"#utility.yul\":19709:19711   */\n      0x40\n        /* \"#utility.yul\":19698:19707   */\n      dup4\n        /* \"#utility.yul\":19694:19712   */\n      add\n        /* \"#utility.yul\":19685:19691   */\n      dup8\n        /* \"#utility.yul\":19641:19713   */\n      tag_303\n      jump\t// in\n    tag_578:\n        /* \"#utility.yul\":19723:19795   */\n      tag_579\n        /* \"#utility.yul\":19791:19793   */\n      0x60\n        /* \"#utility.yul\":19780:19789   */\n      dup4\n        /* \"#utility.yul\":19776:19794   */\n      add\n        /* \"#utility.yul\":19767:19773   */\n      dup7\n        /* \"#utility.yul\":19723:19795   */\n      tag_303\n      jump\t// in\n    tag_579:\n        /* \"#utility.yul\":19843:19852   */\n      dup2\n        /* \"#utility.yul\":19837:19841   */\n      dup2\n        /* \"#utility.yul\":19833:19853   */\n      sub\n        /* \"#utility.yul\":19827:19830   */\n      0x80\n        /* \"#utility.yul\":19816:19825   */\n      dup4\n        /* \"#utility.yul\":19812:19831   */\n      add\n        /* \"#utility.yul\":19805:19854   */\n      mstore\n        /* \"#utility.yul\":19871:19959   */\n      tag_580\n        /* \"#utility.yul\":19954:19958   */\n      dup2\n        /* \"#utility.yul\":19945:19951   */\n      dup5\n        /* \"#utility.yul\":19937:19943   */\n      dup7\n        /* \"#utility.yul\":19871:19959   */\n      tag_348\n      jump\t// in\n    tag_580:\n        /* \"#utility.yul\":19863:19959   */\n      swap1\n      pop\n        /* \"#utility.yul\":19191:19966   */\n      swap8\n      swap7\n      pop\n      pop\n      pop\n      pop\n      pop\n      pop\n      pop\n      jump\t// out\n        /* \"#utility.yul\":19972:20152   */\n    tag_349:\n        /* \"#utility.yul\":20020:20097   */\n      0x4e487b7100000000000000000000000000000000000000000000000000000000\n        /* \"#utility.yul\":20017:20018   */\n      0x00\n        /* \"#utility.yul\":20010:20098   */\n      mstore\n        /* \"#utility.yul\":20117:20121   */\n      0x22\n        /* \"#utility.yul\":20114:20115   */\n      0x04\n        /* \"#utility.yul\":20107:20122   */\n      mstore\n        /* \"#utility.yul\":20141:20145   */\n      0x24\n        /* \"#utility.yul\":20138:20139   */\n      0x00\n        /* \"#utility.yul\":20131:20146   */\n      revert\n        /* \"#utility.yul\":20158:20478   */\n    tag_217:\n        /* \"#utility.yul\":20202:20208   */\n      0x00\n        /* \"#utility.yul\":20239:20240   */\n      0x02\n        /* \"#utility.yul\":20233:20237   */\n      dup3\n        /* \"#utility.yul\":20229:20241   */\n      div\n        /* \"#utility.yul\":20219:20241   */\n      swap1\n      pop\n        /* \"#utility.yul\":20286:20287   */\n      0x01\n        /* \"#utility.yul\":20280:20284   */\n      dup3\n        /* \"#utility.yul\":20276:20288   */\n      and\n        /* \"#utility.yul\":20307:20325   */\n      dup1\n        /* \"#utility.yul\":20297:20378   */\n      tag_583\n      jumpi\n        /* \"#utility.yul\":20363:20367   */\n      0x7f\n        /* \"#utility.yul\":20355:20361   */\n      dup3\n        /* \"#utility.yul\":20351:20368   */\n      and\n        /* \"#utility.yul\":20341:20368   */\n      swap2\n      pop\n        /* \"#utility.yul\":20297:20378   */\n    tag_583:\n        /* \"#utility.yul\":20425:20427   */\n      0x20\n        /* \"#utility.yul\":20417:20423   */\n      dup3\n        /* \"#utility.yul\":20414:20428   */\n      lt\n        /* \"#utility.yul\":20394:20412   */\n      dup2\n        /* \"#utility.yul\":20391:20429   */\n      sub\n        /* \"#utility.yul\":20388:20472   */\n      tag_584\n      jumpi\n        /* \"#utility.yul\":20444:20462   */\n      tag_585\n      tag_349\n      jump\t// in\n    tag_585:\n        /* \"#utility.yul\":20388:20472   */\n    tag_584:\n        /* \"#utility.yul\":20209:20478   */\n      pop\n        /* \"#utility.yul\":20158:20478   */\n      swap2\n      swap1\n      pop\n      jump\t// out\n        /* \"#utility.yul\":20484:20646   */\n    tag_350:\n        /* \"#utility.yul\":20624:20638   */\n      0x6578636565647320666565730000000000000000000000000000000000000000\n        /* \"#utility.yul\":20620:20621   */\n      0x00\n        /* \"#utility.yul\":20612:20618   */\n      dup3\n        /* \"#utility.yul\":20608:20622   */\n      add\n        /* \"#utility.yul\":20601:20639   */\n      mstore\n        /* \"#utility.yul\":20484:20646   */\n      pop\n      jump\t// out\n        /* \"#utility.yul\":20652:21018   */\n    tag_351:\n        /* \"#utility.yul\":20794:20797   */\n      0x00\n        /* \"#utility.yul\":20815:20882   */\n      tag_588\n        /* \"#utility.yul\":20879:20881   */\n      0x0c\n        /* \"#utility.yul\":20874:20877   */\n      dup4\n        /* \"#utility.yul\":20815:20882   */\n      tag_319\n      jump\t// in\n    tag_588:\n        /* \"#utility.yul\":20808:20882   */\n      swap2\n      pop\n        /* \"#utility.yul\":20891:20984   */\n      tag_589\n        /* \"#utility.yul\":20980:20983   */\n      dup3\n        /* \"#utility.yul\":20891:20984   */\n      tag_350\n      jump\t// in\n    tag_589:\n        /* \"#utility.yul\":21009:21011   */\n      0x20\n        /* \"#utility.yul\":21004:21007   */\n      dup3\n        /* \"#utility.yul\":21000:21012   */\n      add\n        /* \"#utility.yul\":20993:21012   */\n      swap1\n      pop\n        /* \"#utility.yul\":20652:21018   */\n      swap2\n      swap1\n      pop\n      jump\t// out\n        /* \"#utility.yul\":21024:21443   */\n    tag_234:\n        /* \"#utility.yul\":21190:21194   */\n      0x00\n        /* \"#utility.yul\":21228:21230   */\n      0x20\n        /* \"#utility.yul\":21217:21226   */\n      dup3\n        /* \"#utility.yul\":21213:21231   */\n      add\n        /* \"#utility.yul\":21205:21231   */\n      swap1\n      pop\n        /* \"#utility.yul\":21277:21286   */\n      dup2\n        /* \"#utility.yul\":21271:21275   */\n      dup2\n        /* \"#utility.yul\":21267:21287   */\n      sub\n        /* \"#utility.yul\":21263:21264   */\n      0x00\n        /* \"#utility.yul\":21252:21261   */\n      dup4\n        /* \"#utility.yul\":21248:21265   */\n      add\n        /* \"#utility.yul\":21241:21288   */\n      mstore\n        /* \"#utility.yul\":21305:21436   */\n      tag_591\n        /* \"#utility.yul\":21431:21435   */\n      dup2\n        /* \"#utility.yul\":21305:21436   */\n      tag_351\n      jump\t// in\n    tag_591:\n        /* \"#utility.yul\":21297:21436   */\n      swap1\n      pop\n        /* \"#utility.yul\":21024:21443   */\n      swap2\n      swap1\n      pop\n      jump\t// out\n        /* \"#utility.yul\":21449:21643   */\n    tag_236:\n        /* \"#utility.yul\":21489:21493   */\n      0x00\n        /* \"#utility.yul\":21509:21529   */\n      tag_593\n        /* \"#utility.yul\":21527:21528   */\n      dup3\n        /* \"#utility.yul\":21509:21529   */\n      tag_302\n      jump\t// in\n    tag_593:\n        /* \"#utility.yul\":21504:21529   */\n      swap2\n      pop\n        /* \"#utility.yul\":21543:21563   */\n      tag_594\n        /* \"#utility.yul\":21561:21562   */\n      dup4\n        /* \"#utility.yul\":21543:21563   */\n      tag_302\n      jump\t// in\n    tag_594:\n        /* \"#utility.yul\":21538:21563   */\n      swap3\n      pop\n        /* \"#utility.yul\":21587:21588   */\n      dup3\n        /* \"#utility.yul\":21584:21585   */\n      dup3\n        /* \"#utility.yul\":21580:21589   */\n      sub\n        /* \"#utility.yul\":21572:21589   */\n      swap1\n      pop\n        /* \"#utility.yul\":21611:21612   */\n      dup2\n        /* \"#utility.yul\":21605:21609   */\n      dup2\n        /* \"#utility.yul\":21602:21613   */\n      gt\n        /* \"#utility.yul\":21599:21636   */\n      iszero\n      tag_595\n      jumpi\n        /* \"#utility.yul\":21616:21634   */\n      tag_596\n      tag_338\n      jump\t// in\n    tag_596:\n        /* \"#utility.yul\":21599:21636   */\n    tag_595:\n        /* \"#utility.yul\":21449:21643   */\n      swap3\n      swap2\n      pop\n      pop\n      jump\t// out\n        /* \"#utility.yul\":21649:21814   */\n    tag_352:\n        /* \"#utility.yul\":21789:21806   */\n      0x7769746864726177206661696c65640000000000000000000000000000000000\n        /* \"#utility.yul\":21785:21786   */\n      0x00\n        /* \"#utility.yul\":21777:21783   */\n      dup3\n        /* \"#utility.yul\":21773:21787   */\n      add\n        /* \"#utility.yul\":21766:21807   */\n      mstore\n        /* \"#utility.yul\":21649:21814   */\n      pop\n      jump\t// out\n        /* \"#utility.yul\":21820:22186   */\n    tag_353:\n        /* \"#utility.yul\":21962:21965   */\n      0x00\n        /* \"#utility.yul\":21983:22050   */\n      tag_599\n        /* \"#utility.yul\":22047:22049   */\n      0x0f\n        /* \"#utility.yul\":22042:22045   */\n      dup4\n        /* \"#utility.yul\":21983:22050   */\n      tag_319\n      jump\t// in\n    tag_599:\n        /* \"#utility.yul\":21976:22050   */\n      swap2\n      pop\n        /* \"#utility.yul\":22059:22152   */\n      tag_600\n        /* \"#utility.yul\":22148:22151   */\n      dup3\n        /* \"#utility.yul\":22059:22152   */\n      tag_352\n      jump\t// in\n    tag_600:\n        /* \"#utility.yul\":22177:22179   */\n      0x20\n        /* \"#utility.yul\":22172:22175   */\n      dup3\n        /* \"#utility.yul\":22168:22180   */\n      add\n        /* \"#utility.yul\":22161:22180   */\n      swap1\n      pop\n        /* \"#utility.yul\":21820:22186   */\n      swap2\n      swap1\n      pop\n      jump\t// out\n        /* \"#utility.yul\":22192:22611   */\n    tag_243:\n        /* \"#utility.yul\":22358:22362   */\n      0x00\n        /* \"#utility.yul\":22396:22398   */\n      0x20\n        /* \"#utility.yul\":22385:22394   */\n      dup3\n        /* \"#utility.yul\":22381:22399   */\n      add\n        /* \"#utility.yul\":22373:22399   */\n      swap1\n      pop\n        /* \"#utility.yul\":22445:22454   */\n      dup2\n        /* \"#utility.yul\":22439:22443   */\n      dup2\n        /* \"#utility.yul\":22435:22455   */\n      sub\n        /* \"#utility.yul\":22431:22432   */\n      0x00\n        /* \"#utility.yul\":22420:22429   */\n      dup4\n        /* \"#utility.yul\":22416:22433   */\n      add\n        /* \"#utility.yul\":22409:22456   */\n      mstore\n        /* \"#utility.yul\":22473:22604   */\n      tag_602\n        /* \"#utility.yul\":22599:22603   */\n      dup2\n        /* \"#utility.yul\":22473:22604   */\n      tag_353\n      jump\t// in\n    tag_602:\n        /* \"#utility.yul\":22465:22604   */\n      swap1\n      pop\n        /* \"#utility.yul\":22192:22611   */\n      swap2\n      swap1\n      pop\n      jump\t// out\n        /* \"#utility.yul\":22617:22774   */\n    tag_354:\n        /* \"#utility.yul\":22757:22766   */\n      0x6d61782031302500000000000000000000000000000000000000000000000000\n        /* \"#utility.yul\":22753:22754   */\n      0x00\n        /* \"#utility.yul\":22745:22751   */\n      dup3\n        /* \"#utility.yul\":22741:22755   */\n      add\n        /* \"#utility.yul\":22734:22767   */\n      mstore\n        /* \"#utility.yul\":22617:22774   */\n      pop\n      jump\t// out\n        /* \"#utility.yul\":22780:23145   */\n    tag_355:\n        /* \"#utility.yul\":22922:22925   */\n      0x00\n        /* \"#utility.yul\":22943:23009   */\n      tag_605\n        /* \"#utility.yul\":23007:23008   */\n      0x07\n        /* \"#utility.yul\":23002:23005   */\n      dup4\n        /* \"#utility.yul\":22943:23009   */\n      tag_319\n      jump\t// in\n    tag_605:\n        /* \"#utility.yul\":22936:23009   */\n      swap2\n      pop\n        /* \"#utility.yul\":23018:23111   */\n      tag_606\n        /* \"#utility.yul\":23107:23110   */\n      dup3\n        /* \"#utility.yul\":23018:23111   */\n      tag_354\n      jump\t// in\n    tag_606:\n        /* \"#utility.yul\":23136:23138   */\n      0x20\n        /* \"#utility.yul\":23131:23134   */\n      dup3\n        /* \"#utility.yul\":23127:23139   */\n      add\n        /* \"#utility.yul\":23120:23139   */\n      swap1\n      pop\n        /* \"#utility.yul\":22780:23145   */\n      swap2\n      swap1\n      pop\n      jump\t// out\n        /* \"#utility.yul\":23151:23570   */\n    tag_249:\n        /* \"#utility.yul\":23317:23321   */\n      0x00\n        /* \"#utility.yul\":23355:23357   */\n      0x20\n        /* \"#utility.yul\":23344:23353   */\n      dup3\n        /* \"#utility.yul\":23340:23358   */\n      add\n        /* \"#utility.yul\":23332:23358   */\n      swap1\n      pop\n        /* \"#utility.yul\":23404:23413   */\n      dup2\n        /* \"#utility.yul\":23398:23402   */\n      dup2\n        /* \"#utility.yul\":23394:23414   */\n      sub\n        /* \"#utility.yul\":23390:23391   */\n      0x00\n        /* \"#utility.yul\":23379:23388   */\n      dup4\n        /* \"#utility.yul\":23375:23392   */\n      add\n        /* \"#utility.yul\":23368:23415   */\n      mstore\n        /* \"#utility.yul\":23432:23563   */\n      tag_608\n        /* \"#utility.yul\":23558:23562   */\n      dup2\n        /* \"#utility.yul\":23432:23563   */\n      tag_355\n      jump\t// in\n    tag_608:\n        /* \"#utility.yul\":23424:23563   */\n      swap1\n      pop\n        /* \"#utility.yul\":23151:23570   */\n      swap2\n      swap1\n      pop\n      jump\t// out\n        /* \"#utility.yul\":23576:23756   */\n    tag_356:\n        /* \"#utility.yul\":23624:23701   */\n      0x4e487b7100000000000000000000000000000000000000000000000000000000\n        /* \"#utility.yul\":23621:23622   */\n      0x00\n        /* \"#utility.yul\":23614:23702   */\n      mstore\n        /* \"#utility.yul\":23721:23725   */\n      0x41\n        /* \"#utility.yul\":23718:23719   */\n      0x04\n        /* \"#utility.yul\":23711:23726   */\n      mstore\n        /* \"#utility.yul\":23745:23749   */\n      0x24\n        /* \"#utility.yul\":23742:23743   */\n      0x00\n        /* \"#utility.yul\":23735:23750   */\n      revert\n        /* \"#utility.yul\":23762:23903   */\n    tag_357:\n        /* \"#utility.yul\":23811:23815   */\n      0x00\n        /* \"#utility.yul\":23834:23837   */\n      dup2\n        /* \"#utility.yul\":23826:23837   */\n      swap1\n      pop\n        /* \"#utility.yul\":23857:23860   */\n      dup2\n        /* \"#utility.yul\":23854:23855   */\n      0x00\n        /* \"#utility.yul\":23847:23861   */\n      mstore\n        /* \"#utility.yul\":23891:23895   */\n      0x20\n        /* \"#utility.yul\":23888:23889   */\n      0x00\n        /* \"#utility.yul\":23878:23896   */\n      keccak256\n        /* \"#utility.yul\":23870:23896   */\n      swap1\n      pop\n        /* \"#utility.yul\":23762:23903   */\n      swap2\n      swap1\n      pop\n      jump\t// out\n        /* \"#utility.yul\":23909:24002   */\n    tag_358:\n        /* \"#utility.yul\":23946:23952   */\n      0x00\n        /* \"#utility.yul\":23993:23995   */\n      0x20\n        /* \"#utility.yul\":23988:23990   */\n      0x1f\n        /* \"#utility.yul\":23981:23986   */\n      dup4\n        /* \"#utility.yul\":23977:23991   */\n      add\n        /* \"#utility.yul\":23973:23996   */\n      div\n        /* \"#utility.yul\":23963:23996   */\n      swap1\n      pop\n        /* \"#utility.yul\":23909:24002   */\n      swap2\n      swap1\n      pop\n      jump\t// out\n        /* \"#utility.yul\":24008:24115   */\n    tag_359:\n        /* \"#utility.yul\":24052:24060   */\n      0x00\n        /* \"#utility.yul\":24102:24107   */\n      dup3\n        /* \"#utility.yul\":24096:24100   */\n      dup3\n        /* \"#utility.yul\":24092:24108   */\n      shl\n        /* \"#utility.yul\":24071:24108   */\n      swap1\n      pop\n        /* \"#utility.yul\":24008:24115   */\n      swap3\n      swap2\n      pop\n      pop\n      jump\t// out\n        /* \"#utility.yul\":24121:24514   */\n    tag_360:\n        /* \"#utility.yul\":24190:24196   */\n      0x00\n        /* \"#utility.yul\":24240:24241   */\n      0x08\n        /* \"#utility.yul\":24228:24238   */\n      dup4\n        /* \"#utility.yul\":24224:24242   */\n      mul\n        /* \"#utility.yul\":24263:24360   */\n      tag_614\n        /* \"#utility.yul\":24293:24359   */\n      0xffffffffffffffffffffffffffffffffffffffffffffffffffffffffffffffff\n        /* \"#utility.yul\":24282:24291   */\n      dup3\n        /* \"#utility.yul\":24263:24360   */\n      tag_359\n      jump\t// in\n    tag_614:\n        /* \"#utility.yul\":24381:24420   */\n      tag_615\n        /* \"#utility.yul\":24411:24419   */\n      dup7\n        /* \"#utility.yul\":24400:24409   */\n      dup4\n        /* \"#utility.yul\":24381:24420   */\n      tag_359\n      jump\t// in\n    tag_615:\n        /* \"#utility.yul\":24369:24420   */\n      swap6\n      pop\n        /* \"#utility.yul\":24453:24457   */\n      dup1\n        /* \"#utility.yul\":24449:24458   */\n      not\n        /* \"#utility.yul\":24442:24447   */\n      dup5\n        /* \"#utility.yul\":24438:24459   */\n      and\n        /* \"#utility.yul\":24429:24459   */\n      swap4\n      pop\n        /* \"#utility.yul\":24502:24506   */\n      dup1\n        /* \"#utility.yul\":24492:24500   */\n      dup7\n        /* \"#utility.yul\":24488:24507   */\n      and\n        /* \"#utility.yul\":24481:24486   */\n      dup5\n        /* \"#utility.yul\":24478:24508   */\n      or\n        /* \"#utility.yul\":24468:24508   */\n      swap3\n      pop\n        /* \"#utility.yul\":24197:24514   */\n      pop\n      pop\n        /* \"#utility.yul\":24121:24514   */\n      swap4\n      swap3\n      pop\n      pop\n      pop\n      jump\t// out\n        /* \"#utility.yul\":24520:24580   */\n    tag_361:\n        /* \"#utility.yul\":24548:24551   */\n      0x00\n        /* \"#utility.yul\":24569:24574   */\n      dup2\n        /* \"#utility.yul\":24562:24574   */\n      swap1\n      pop\n        /* \"#utility.yul\":24520:24580   */\n      swap2\n      swap1\n      pop\n      jump\t// out\n        /* \"#utility.yul\":24586:24728   */\n    tag_362:\n        /* \"#utility.yul\":24636:24645   */\n      0x00\n        /* \"#utility.yul\":24669:24722   */\n      tag_618\n        /* \"#utility.yul\":24687:24721   */\n      tag_619\n        /* \"#utility.yul\":24696:24720   */\n      tag_620\n        /* \"#utility.yul\":24714:24719   */\n      dup5\n        /* \"#utility.yul\":24696:24720   */\n      tag_302\n      jump\t// in\n    tag_620:\n        /* \"#utility.yul\":24687:24721   */\n      tag_361\n      jump\t// in\n    tag_619:\n        /* \"#utility.yul\":24669:24722   */\n      tag_302\n      jump\t// in\n    tag_618:\n        /* \"#utility.yul\":24656:24722   */\n      swap1\n      pop\n        /* \"#utility.yul\":24586:24728   */\n      swap2\n      swap1\n      pop\n      jump\t// out\n        /* \"#utility.yul\":24734:24809   */\n    tag_363:\n        /* \"#utility.yul\":24777:24780   */\n      0x00\n        /* \"#utility.yul\":24798:24803   */\n      dup2\n        /* \"#utility.yul\":24791:24803   */\n      swap1\n      pop\n        /* \"#utility.yul\":24734:24809   */\n      swap2\n      swap1\n      pop\n      jump\t// out\n        /* \"#utility.yul\":24815:25084   */\n    tag_364:\n        /* \"#utility.yul\":24925:24964   */\n      tag_623\n        /* \"#utility.yul\":24956:24963   */\n      dup4\n        /* \"#utility.yul\":24925:24964   */\n      tag_362\n      jump\t// in\n    tag_623:\n        /* \"#utility.yul\":24986:25077   */\n      tag_624\n        /* \"#utility.yul\":25035:25076   */\n      tag_625\n        /* \"#utility.yul\":25059:25075   */\n      dup3\n        /* \"#utility.yul\":25035:25076   */\n      tag_363\n      jump\t// in\n    tag_625:\n        /* \"#utility.yul\":25027:25033   */\n      dup5\n        /* \"#utility.yul\":25020:25024   */\n      dup5\n        /* \"#utility.yul\":25014:25025   */\n      sload\n        /* \"#utility.yul\":24986:25077   */\n      tag_360\n      jump\t// in\n    tag_624:\n        /* \"#utility.yul\":24980:24984   */\n      dup3\n        /* \"#utility.yul\":24973:25078   */\n      sstore\n        /* \"#utility.yul\":24891:25084   */\n      pop\n        /* \"#utility.yul\":24815:25084   */\n      pop\n      pop\n      pop\n      jump\t// out\n        /* \"#utility.yul\":25090:25163   */\n    tag_365:\n        /* \"#utility.yul\":25135:25138   */\n      0x00\n        /* \"#utility.yul\":25156:25157   */\n      0x00\n        /* \"#utility.yul\":25149:25157   */\n      swap1\n      pop\n        /* \"#utility.yul\":25090:25163   */\n      swap1\n      jump\t// out\n        /* \"#utility.yul\":25169:25358   */\n    tag_366:\n        /* \"#utility.yul\":25246:25278   */\n      tag_628\n      tag_365\n      jump\t// in\n    tag_628:\n        /* \"#utility.yul\":25287:25352   */\n      tag_629\n        /* \"#utility.yul\":25345:25351   */\n      dup2\n        /* \"#utility.yul\":25337:25343   */\n      dup5\n        /* \"#utility.yul\":25331:25335   */\n      dup5\n        /* \"#utility.yul\":25287:25352   */\n      tag_364\n      jump\t// in\n    tag_629:\n        /* \"#utility.yul\":25222:25358   */\n      pop\n        /* \"#utility.yul\":25169:25358   */\n      pop\n      pop\n      jump\t// out\n        /* \"#utility.yul\":25364:25550   */\n    tag_367:\n        /* \"#utility.yul\":25424:25544   */\n    tag_631:\n        /* \"#utility.yul\":25441:25444   */\n      dup2\n        /* \"#utility.yul\":25434:25439   */\n      dup2\n        /* \"#utility.yul\":25431:25445   */\n      lt\n        /* \"#utility.yul\":25424:25544   */\n      iszero\n      tag_633\n      jumpi\n        /* \"#utility.yul\":25495:25534   */\n      tag_634\n        /* \"#utility.yul\":25532:25533   */\n      0x00\n        /* \"#utility.yul\":25525:25530   */\n      dup3\n        /* \"#utility.yul\":25495:25534   */\n      tag_366\n      jump\t// in\n    tag_634:\n        /* \"#utility.yul\":25468:25469   */\n      0x01\n        /* \"#utility.yul\":25461:25466   */\n      dup2\n        /* \"#utility.yul\":25457:25470   */\n      add\n        /* \"#utility.yul\":25448:25470   */\n      swap1\n      pop\n        /* \"#utility.yul\":25424:25544   */\n      jump(tag_631)\n    tag_633:\n        /* \"#utility.yul\":25364:25550   */\n      pop\n      pop\n      jump\t// out\n        /* \"#utility.yul\":25556:26099   */\n    tag_368:\n        /* \"#utility.yul\":25657:25659   */\n      0x1f\n        /* \"#utility.yul\":25652:25655   */\n      dup3\n        /* \"#utility.yul\":25649:25660   */\n      gt\n        /* \"#utility.yul\":25646:26092   */\n      iszero\n      tag_636\n      jumpi\n        /* \"#utility.yul\":25691:25729   */\n      tag_637\n        /* \"#utility.yul\":25723:25728   */\n      dup2\n        /* \"#utility.yul\":25691:25729   */\n      tag_357\n      jump\t// in\n    tag_637:\n        /* \"#utility.yul\":25775:25804   */\n      tag_638\n        /* \"#utility.yul\":25793:25803   */\n      dup5\n        /* \"#utility.yul\":25775:25804   */\n      tag_358\n      jump\t// in\n    tag_638:\n        /* \"#utility.yul\":25765:25773   */\n      dup2\n        /* \"#utility.yul\":25761:25805   */\n      add\n        /* \"#utility.yul\":25958:25960   */\n      0x20\n        /* \"#utility.yul\":25946:25956   */\n      dup6\n        /* \"#utility.yul\":25943:25961   */\n      lt\n        /* \"#utility.yul\":25940:25989   */\n      iszero\n      tag_639\n      jumpi\n        /* \"#utility.yul\":25979:25987   */\n      dup2\n        /* \"#utility.yul\":25964:25987   */\n      swap1\n      pop\n        /* \"#utility.yul\":25940:25989   */\n    tag_639:\n        /* \"#utility.yul\":26002:26082   */\n      tag_640\n        /* \"#utility.yul\":26058:26080   */\n      tag_641\n        /* \"#utility.yul\":26076:26079   */\n      dup6\n        /* \"#utility.yul\":26058:26080   */\n      tag_358\n      jump\t// in\n    tag_641:\n        /* \"#utility.yul\":26048:26056   */\n      dup4\n        /* \"#utility.yul\":26044:26081   */\n      add\n        /* \"#utility.yul\":26031:26042   */\n      dup3\n        /* \"#utility.yul\":26002:26082   */\n      tag_367\n      jump\t// in\n    tag_640:\n        /* \"#utility.yul\":25661:26092   */\n      pop\n      pop\n        /* \"#utility.yul\":25646:26092   */\n    tag_636:\n        /* \"#utility.yul\":25556:26099   */\n      pop\n      pop\n      pop\n      jump\t// out\n        /* \"#utility.yul\":26105:26222   */\n    tag_369:\n        /* \"#utility.yul\":26159:26167   */\n      0x00\n        /* \"#utility.yul\":26209:26214   */\n      dup3\n        /* \"#utility.yul\":26203:26207   */\n      dup3\n        /* \"#utility.yul\":26199:26215   */\n      shr\n        /* \"#utility.yul\":26178:26215   */\n      swap1\n      pop\n        /* \"#utility.yul\":26105:26222   */\n      swap3\n      swap2\n      pop\n      pop\n      jump\t// out\n        /* \"#utility.yul\":26228:26397   */\n    tag_370:\n        /* \"#utility.yul\":26272:26278   */\n      0x00\n        /* \"#utility.yul\":26305:26356   */\n      tag_644\n        /* \"#utility.yul\":26353:26354   */\n      0x00\n        /* \"#utility.yul\":26349:26355   */\n      not\n        /* \"#utility.yul\":26341:26346   */\n      dup5\n        /* \"#utility.yul\":26338:26339   */\n      0x08\n        /* \"#utility.yul\":26334:26347   */\n      mul\n        /* \"#utility.yul\":26305:26356   */\n      tag_369\n      jump\t// in\n    tag_644:\n        /* \"#utility.yul\":26301:26357   */\n      not\n        /* \"#utility.yul\":26386:26390   */\n      dup1\n        /* \"#utility.yul\":26380:26384   */\n      dup4\n        /* \"#utility.yul\":26376:26391   */\n      and\n        /* \"#utility.yul\":26366:26391   */\n      swap2\n      pop\n        /* \"#utility.yul\":26279:26397   */\n      pop\n        /* \"#utility.yul\":26228:26397   */\n      swap3\n      swap2\n      pop\n      pop\n      jump\t// out\n        /* \"#utility.yul\":26402:26697   */\n    tag_371:\n        /* \"#utility.yul\":26478:26482   */\n      0x00\n        /* \"#utility.yul\":26624:26653   */\n      tag_646\n        /* \"#utility.yul\":26649:26652   */\n      dup4\n        /* \"#utility.yul\":26643:26647   */\n      dup4\n        /* \"#utility.yul\":26624:26653   */\n      tag_370\n      jump\t// in\n    tag_646:\n        /* \"#utility.yul\":26616:26653   */\n      swap2\n      pop\n        /* \"#utility.yul\":26686:26689   */\n      dup3\n        /* \"#utility.yul\":26683:26684   */\n      0x02\n        /* \"#utility.yul\":26679:26690   */\n      mul\n        /* \"#utility.yul\":26673:26677   */\n      dup3\n        /* \"#utility.yul\":26670:26691   */\n      or\n        /* \"#utility.yul\":26662:26691   */\n      swap1\n      pop\n        /* \"#utility.yul\":26402:26697   */\n      swap3\n      swap2\n      pop\n      pop\n      jump\t// out\n        /* \"#utility.yul\":26702:28097   */\n    tag_266:\n        /* \"#utility.yul\":26819:26856   */\n      tag_648\n        /* \"#utility.yul\":26852:26855   */\n      dup3\n        /* \"#utility.yul\":26819:26856   */\n      tag_318\n      jump\t// in\n    tag_648:\n        /* \"#utility.yul\":26921:26939   */\n      0xffffffffffffffff\n        /* \"#utility.yul\":26913:26919   */\n      dup2\n        /* \"#utility.yul\":26910:26940   */\n      gt\n        /* \"#utility.yul\":26907:26963   */\n      iszero\n      tag_649\n      jumpi\n        /* \"#utility.yul\":26943:26961   */\n      tag_650\n      tag_356\n      jump\t// in\n    tag_650:\n        /* \"#utility.yul\":26907:26963   */\n    tag_649:\n        /* \"#utility.yul\":26987:27025   */\n      tag_651\n        /* \"#utility.yul\":27019:27023   */\n      dup3\n        /* \"#utility.yul\":27013:27024   */\n      sload\n        /* \"#utility.yul\":26987:27025   */\n      tag_217\n      jump\t// in\n    tag_651:\n        /* \"#utility.yul\":27072:27139   */\n      tag_652\n        /* \"#utility.yul\":27132:27138   */\n      dup3\n        /* \"#utility.yul\":27124:27130   */\n      dup3\n        /* \"#utility.yul\":27118:27122   */\n      dup6\n        /* \"#utility.yul\":27072:27139   */\n      tag_368\n      jump\t// in\n    tag_652:\n        /* \"#utility.yul\":27166:27167   */\n      0x00\n        /* \"#utility.yul\":27190:27194   */\n      0x20\n        /* \"#utility.yul\":27177:27194   */\n      swap1\n      pop\n        /* \"#utility.yul\":27222:27224   */\n      0x1f\n        /* \"#utility.yul\":27214:27220   */\n      dup4\n        /* \"#utility.yul\":27211:27225   */\n      gt\n        /* \"#utility.yul\":27239:27240   */\n      0x01\n        /* \"#utility.yul\":27234:27852   */\n      dup2\n      eq\n      tag_654\n      jumpi\n        /* \"#utility.yul\":27896:27897   */\n      0x00\n        /* \"#utility.yul\":27913:27919   */\n      dup5\n        /* \"#utility.yul\":27910:27987   */\n      iszero\n      tag_655\n      jumpi\n        /* \"#utility.yul\":27962:27971   */\n      dup3\n        /* \"#utility.yul\":27957:27960   */\n      dup8\n        /* \"#utility.yul\":27953:27972   */\n      add\n        /* \"#utility.yul\":27947:27973   */\n      mload\n        /* \"#utility.yul\":27938:27973   */\n      swap1\n      pop\n        /* \"#utility.yul\":27910:27987   */\n    tag_655:\n        /* \"#utility.yul\":28013:28080   */\n      tag_656\n        /* \"#utility.yul\":28073:28079   */\n      dup6\n        /* \"#utility.yul\":28066:28071   */\n      dup3\n        /* \"#utility.yul\":28013:28080   */\n      tag_371\n      jump\t// in\n    tag_656:\n        /* \"#utility.yul\":28007:28011   */\n      dup7\n        /* \"#utility.yul\":28000:28081   */\n      sstore\n        /* \"#utility.yul\":27869:28091   */\n      pop\n        /* \"#utility.yul\":27204:28091   */\n      jump(tag_653)\n        /* \"#utility.yul\":27234:27852   */\n    tag_654:\n        /* \"#utility.yul\":27286:27290   */\n      0x1f\n        /* \"#utility.yul\":27282:27291   */\n      not\n        /* \"#utility.yul\":27274:27280   */\n      dup5\n        /* \"#utility.yul\":27270:27292   */\n      and\n        /* \"#utility.yul\":27320:27357   */\n      tag_657\n        /* \"#utility.yul\":27352:27356   */\n      dup7\n        /* \"#utility.yul\":27320:27357   */\n      tag_357\n      jump\t// in\n    tag_657:\n        /* \"#utility.yul\":27379:27380   */\n      0x00\n        /* \"#utility.yul\":27393:27601   */\n    tag_658:\n        /* \"#utility.yul\":27407:27414   */\n      dup3\n        /* \"#utility.yul\":27404:27405   */\n      dup2\n        /* \"#utility.yul\":27401:27415   */\n      lt\n        /* \"#utility.yul\":27393:27601   */\n      iszero\n      tag_660\n      jumpi\n        /* \"#utility.yul\":27486:27495   */\n      dup5\n        /* \"#utility.yul\":27481:27484   */\n      dup10\n        /* \"#utility.yul\":27477:27496   */\n      add\n        /* \"#utility.yul\":27471:27497   */\n      mload\n        /* \"#utility.yul\":27463:27469   */\n      dup3\n        /* \"#utility.yul\":27456:27498   */\n      sstore\n        /* \"#utility.yul\":27537:27538   */\n      0x01\n        /* \"#utility.yul\":27529:27535   */\n      dup3\n        /* \"#utility.yul\":27525:27539   */\n      add\n        /* \"#utility.yul\":27515:27539   */\n      swap2\n      pop\n        /* \"#utility.yul\":27584:27586   */\n      0x20\n        /* \"#utility.yul\":27573:27582   */\n      dup6\n        /* \"#utility.yul\":27569:27587   */\n      add\n        /* \"#utility.yul\":27556:27587   */\n      swap5\n      pop\n        /* \"#utility.yul\":27430:27434   */\n      0x20\n        /* \"#utility.yul\":27427:27428   */\n      dup2\n        /* \"#utility.yul\":27423:27435   */\n      add\n        /* \"#utility.yul\":27418:27435   */\n      swap1\n      pop\n        /* \"#utility.yul\":27393:27601   */\n      jump(tag_658)\n    tag_660:\n        /* \"#utility.yul\":27629:27635   */\n      dup7\n        /* \"#utility.yul\":27620:27627   */\n      dup4\n        /* \"#utility.yul\":27617:27636   */\n      lt\n        /* \"#utility.yul\":27614:27793   */\n      iszero\n      tag_661\n      jumpi\n        /* \"#utility.yul\":27687:27696   */\n      dup5\n        /* \"#utility.yul\":27682:27685   */\n      dup10\n        /* \"#utility.yul\":27678:27697   */\n      add\n        /* \"#utility.yul\":27672:27698   */\n      mload\n        /* \"#utility.yul\":27730:27778   */\n      tag_662\n        /* \"#utility.yul\":27772:27776   */\n      0x1f\n        /* \"#utility.yul\":27764:27770   */\n      dup10\n        /* \"#utility.yul\":27760:27777   */\n      and\n        /* \"#utility.yul\":27749:27758   */\n      dup3\n        /* \"#utility.yul\":27730:27778   */\n      tag_370\n      jump\t// in\n    tag_662:\n        /* \"#utility.yul\":27722:27728   */\n      dup4\n        /* \"#utility.yul\":27715:27779   */\n      sstore\n        /* \"#utility.yul\":27637:27793   */\n      pop\n        /* \"#utility.yul\":27614:27793   */\n    tag_661:\n        /* \"#utility.yul\":27839:27840   */\n      0x01\n        /* \"#utility.yul\":27835:27836   */\n      0x02\n        /* \"#utility.yul\":27827:27833   */\n      dup9\n        /* \"#utility.yul\":27823:27837   */\n      mul\n        /* \"#utility.yul\":27819:27841   */\n      add\n        /* \"#utility.yul\":27813:27817   */\n      dup9\n        /* \"#utility.yul\":27806:27842   */\n      sstore\n        /* \"#utility.yul\":27241:27852   */\n      pop\n      pop\n      pop\n        /* \"#utility.yul\":27204:28091   */\n    tag_653:\n      pop\n        /* \"#utility.yul\":26794:28097   */\n      pop\n      pop\n      pop\n        /* \"#utility.yul\":26702:28097   */\n      pop\n      pop\n      jump\t// out\n        /* \"#utility.yul\":28103:28878   */\n    tag_269:\n        /* \"#utility.yul\":28340:28344   */\n      0x00\n        /* \"#utility.yul\":28378:28381   */\n      0x80\n        /* \"#utility.yul\":28367:28376   */\n      dup3\n        /* \"#utility.yul\":28363:28382   */\n      add\n        /* \"#utility.yul\":28355:28382   */\n      swap1\n      pop\n        /* \"#utility.yul\":28428:28437   */\n      dup2\n        /* \"#utility.yul\":28422:28426   */\n      dup2\n        /* \"#utility.yul\":28418:28438   */\n      sub\n        /* \"#utility.yul\":28414:28415   */\n      0x00\n        /* \"#utility.yul\":28403:28412   */\n      dup4\n        /* \"#utility.yul\":28399:28416   */\n      add\n        /* \"#utility.yul\":28392:28439   */\n      mstore\n        /* \"#utility.yul\":28456:28544   */\n      tag_664\n        /* \"#utility.yul\":28539:28543   */\n      dup2\n        /* \"#utility.yul\":28530:28536   */\n      dup9\n        /* \"#utility.yul\":28522:28528   */\n      dup11\n        /* \"#utility.yul\":28456:28544   */\n      tag_348\n      jump\t// in\n    tag_664:\n        /* \"#utility.yul\":28448:28544   */\n      swap1\n      pop\n        /* \"#utility.yul\":28591:28600   */\n      dup2\n        /* \"#utility.yul\":28585:28589   */\n      dup2\n        /* \"#utility.yul\":28581:28601   */\n      sub\n        /* \"#utility.yul\":28576:28578   */\n      0x20\n        /* \"#utility.yul\":28565:28574   */\n      dup4\n        /* \"#utility.yul\":28561:28579   */\n      add\n        /* \"#utility.yul\":28554:28602   */\n      mstore\n        /* \"#utility.yul\":28619:28707   */\n      tag_665\n        /* \"#utility.yul\":28702:28706   */\n      dup2\n        /* \"#utility.yul\":28693:28699   */\n      dup7\n        /* \"#utility.yul\":28685:28691   */\n      dup9\n        /* \"#utility.yul\":28619:28707   */\n      tag_348\n      jump\t// in\n    tag_665:\n        /* \"#utility.yul\":28611:28707   */\n      swap1\n      pop\n        /* \"#utility.yul\":28717:28789   */\n      tag_666\n        /* \"#utility.yul\":28785:28787   */\n      0x40\n        /* \"#utility.yul\":28774:28783   */\n      dup4\n        /* \"#utility.yul\":28770:28788   */\n      add\n        /* \"#utility.yul\":28761:28767   */\n      dup6\n        /* \"#utility.yul\":28717:28789   */\n      tag_303\n      jump\t// in\n    tag_666:\n        /* \"#utility.yul\":28799:28871   */\n      tag_667\n        /* \"#utility.yul\":28867:28869   */\n      0x60\n        /* \"#utility.yul\":28856:28865   */\n      dup4\n        /* \"#utility.yul\":28852:28870   */\n      add\n        /* \"#utility.yul\":28843:28849   */\n      dup5\n        /* \"#utility.yul\":28799:28871   */\n      tag_303\n      jump\t// in\n    tag_667:\n        /* \"#utility.yul\":28103:28878   */\n      swap8\n      swap7\n      pop\n      pop\n      pop\n      pop\n      pop\n      pop\n      pop\n      jump\t// out\n        /* \"#utility.yul\":28884:29544   */\n    tag_286:\n        /* \"#utility.yul\":29087:29091   */\n      0x00\n        /* \"#utility.yul\":29125:29128   */\n      0xa0\n        /* \"#utility.yul\":29114:29123   */\n      dup3\n        /* \"#utility.yul\":29110:29129   */\n      add\n        /* \"#utility.yul\":29102:29129   */\n      swap1\n      pop\n        /* \"#utility.yul\":29139:29210   */\n      tag_669\n        /* \"#utility.yul\":29207:29208   */\n      0x00\n        /* \"#utility.yul\":29196:29205   */\n      dup4\n        /* \"#utility.yul\":29192:29209   */\n      add\n        /* \"#utility.yul\":29183:29189   */\n      dup9\n        /* \"#utility.yul\":29139:29210   */\n      tag_317\n      jump\t// in\n    tag_669:\n        /* \"#utility.yul\":29220:29292   */\n      tag_670\n        /* \"#utility.yul\":29288:29290   */\n      0x20\n        /* \"#utility.yul\":29277:29286   */\n      dup4\n        /* \"#utility.yul\":29273:29291   */\n      add\n        /* \"#utility.yul\":29264:29270   */\n      dup8\n        /* \"#utility.yul\":29220:29292   */\n      tag_303\n      jump\t// in\n    tag_670:\n        /* \"#utility.yul\":29302:29374   */\n      tag_671\n        /* \"#utility.yul\":29370:29372   */\n      0x40\n        /* \"#utility.yul\":29359:29368   */\n      dup4\n        /* \"#utility.yul\":29355:29373   */\n      add\n        /* \"#utility.yul\":29346:29352   */\n      dup7\n        /* \"#utility.yul\":29302:29374   */\n      tag_303\n      jump\t// in\n    tag_671:\n        /* \"#utility.yul\":29384:29456   */\n      tag_672\n        /* \"#utility.yul\":29452:29454   */\n      0x60\n        /* \"#utility.yul\":29441:29450   */\n      dup4\n        /* \"#utility.yul\":29437:29455   */\n      add\n        /* \"#utility.yul\":29428:29434   */\n      dup6\n        /* \"#utility.yul\":29384:29456   */\n      tag_303\n      jump\t// in\n    tag_672:\n        /* \"#utility.yul\":29466:29537   */\n      tag_673\n        /* \"#utility.yul\":29532:29535   */\n      0x80\n        /* \"#utility.yul\":29521:29530   */\n      dup4\n        /* \"#utility.yul\":29517:29536   */\n      add\n        /* \"#utility.yul\":29508:29514   */\n      dup5\n        /* \"#utility.yul\":29466:29537   */\n      tag_301\n      jump\t// in\n    tag_673:\n        /* \"#utility.yul\":28884:29544   */\n      swap7\n      swap6\n      pop\n      pop\n      pop\n      pop\n      pop\n      pop\n      jump\t// out\n        /* \"#utility.yul\":29550:29980   */\n    tag_295:\n        /* \"#utility.yul\":29693:29697   */\n      0x00\n        /* \"#utility.yul\":29731:29733   */\n      0x60\n        /* \"#utility.yul\":29720:29729   */\n      dup3\n        /* \"#utility.yul\":29716:29734   */\n      add\n        /* \"#utility.yul\":29708:29734   */\n      swap1\n      pop\n        /* \"#utility.yul\":29744:29815   */\n      tag_675\n        /* \"#utility.yul\":29812:29813   */\n      0x00\n        /* \"#utility.yul\":29801:29810   */\n      dup4\n        /* \"#utility.yul\":29797:29814   */\n      add\n        /* \"#utility.yul\":29788:29794   */\n      dup7\n        /* \"#utility.yul\":29744:29815   */\n      tag_303\n      jump\t// in\n    tag_675:\n        /* \"#utility.yul\":29825:29897   */\n      tag_676\n        /* \"#utility.yul\":29893:29895   */\n      0x20\n        /* \"#utility.yul\":29882:29891   */\n      dup4\n        /* \"#utility.yul\":29878:29896   */\n      add\n        /* \"#utility.yul\":29869:29875   */\n      dup6\n        /* \"#utility.yul\":29825:29897   */\n      tag_303\n      jump\t// in\n    tag_676:\n        /* \"#utility.yul\":29907:29973   */\n      tag_677\n        /* \"#utility.yul\":29969:29971   */\n      0x40\n        /* \"#utility.yul\":29958:29967   */\n      dup4\n        /* \"#utility.yul\":29954:29972   */\n      add\n        /* \"#utility.yul\":29945:29951   */\n      dup5\n        /* \"#utility.yul\":29907:29973   */\n      tag_324\n      jump\t// in\n    tag_677:\n        /* \"#utility.yul\":29550:29980   */\n      swap5\n      swap4\n      pop\n      pop\n      pop\n      pop\n      jump\t// out\n\n    auxdata: 0xa2646970667358221220b007cf7848361cf600ad3c2efefbfc9477cfec567e8b418e61ecd59c13d825df64736f6c634300081e0033\n}\n",
				"bytecode": {
					"linkReferences": {},
					"object": "6080604052348015600e575f5ffd5b50335f5f6101000a81548173ffffffffffffffffffffffffffffffffffffffff021916908373ffffffffffffffffffffffffffffffffffffffff1602179055503373ffffffffffffffffffffffffffffffffffffffff165f73ffffffffffffffffffffffffffffffffffffffff167f8be0079c531659141344cd1fd0a4f28419497f9722a3daafe3b4186f6b6457e060405160405180910390a3613502806100b55f395ff3fe608060405260043610610117575f3560e01c80638da5cb5b1161009f578063bb119f6e11610063578063bb119f6e146103bb578063be126a94146103fc578063d6febde814610438578063f2fde38b14610468578063faaac390146104905761011e565b80638da5cb5b146102d357806394db0595146102fd578063a85c38ef14610327578063ad3b1b471461036b578063b7f1564e146103935761011e565b80634c48ede7116100e65780634c48ede7146101dc5780634d397fd5146102045780634de91a631461022c57806356104161146102565780637acc0b20146102925761011e565b806324a9d853146101225780632a58b3301461014c578063301e8a0514610176578063315f1a411461019e5761011e565b3661011e57005b5f5ffd5b34801561012d575f5ffd5b506101366104b8565b60405161014391906125a8565b60405180910390f35b348015610157575f5ffd5b506101606104d5565b60405161016d91906125d9565b60405180910390f35b348015610181575f5ffd5b5061019c60048036038101906101979190612624565b6104db565b005b3480156101a9575f5ffd5b506101c460048036038101906101bf919061264f565b6108d2565b6040516101d39392919061268d565b60405180910390f35b3480156101e7575f5ffd5b5061020260048036038101906101fd9190612624565b6108fc565b005b34801561020f575f5ffd5b5061022a60048036038101906102259190612624565b610cb3565b005b348015610237575f5ffd5b506102406110b4565b60405161024d91906125d9565b60405180910390f35b348015610261575f5ffd5b5061027c6004803603810190610277919061277d565b6110ba565b60405161028991906125d9565b60405180910390f35b34801561029d575f5ffd5b506102b860048036038101906102b39190612624565b6114c3565b6040516102ca969594939291906128ac565b60405180910390f35b3480156102de575f5ffd5b506102e7611632565b6040516102f49190612919565b60405180910390f35b348015610308575f5ffd5b50610311611656565b60405161031e91906125d9565b60405180910390f35b348015610332575f5ffd5b5061034d60048036038101906103489190612624565b61165c565b604051610362999897969594939291906129c7565b60405180910390f35b348015610376575f5ffd5b50610391600480360381019061038c9190612a8d565b611704565b005b34801561039e575f5ffd5b506103b960048036038101906103b49190612af5565b6118dc565b005b3480156103c6575f5ffd5b506103e160048036038101906103dc9190612624565b6119e7565b6040516103f3969594939291906128ac565b60405180910390f35b348015610407575f5ffd5b50610422600480360381019061041d9190612b20565b611b72565b60405161042f91906125d9565b60405180910390f35b610452600480360381019061044d919061264f565b611de1565b60405161045f91906125d9565b60405180910390f35b348015610473575f5ffd5b5061048e60048036038101906104899190612bc3565b61222b565b005b34801561049b575f5ffd5b506104b660048036038101906104b19190612c18565b6123d1565b005b60045f9054906101000a90046bffffffffffffffffffffffff1681565b60035481565b6001805403610516576040517fab143c0600000000000000000000000000000000000000000000000000000000815260040160405180910390fd5b600180819055506001600581111561053157610530612932565b5b60075f8381526020019081526020015f206007015f9054906101000a900460ff16600581111561056457610563612932565b5b1461059b576040517f67909b1500000000000000000000000000000000000000000000000000000000815260040160405180910390fd5b60075f8281526020019081526020015f206003015f9054906101000a900473ffffffffffffffffffffffffffffffffffffffff1673ffffffffffffffffffffffffffffffffffffffff163373ffffffffffffffffffffffffffffffffffffffff1614610633576040517f5ec8235100000000000000000000000000000000000000000000000000000000815260040160405180910390fd5b600460075f8381526020019081526020015f206007015f6101000a81548160ff0219169083600581111561066a57610669612932565b5b021790555060075f8281526020019081526020015f206004015460065f60075f8581526020019081526020015f206001015481526020019081526020015f206004015f8282546106ba9190612ca9565b925050819055505f61271060045f9054906101000a90046bffffffffffffffffffffffff166bffffffffffffffffffffffff1660075f8581526020019081526020015f206006015461070c9190612cdc565b6107169190612d4a565b90505f8160075f8581526020019081526020015f20600601546107399190612ca9565b90505f60075f8581526020019081526020015f206002015f9054906101000a900473ffffffffffffffffffffffffffffffffffffffff1673ffffffffffffffffffffffffffffffffffffffff168260405161079390612da7565b5f6040518083038185875af1925050503d805f81146107cd576040519150601f19603f3d011682016040523d82523d5f602084013e6107d2565b606091505b5050905080610816576040517f08c379a000000000000000000000000000000000000000000000000000000000815260040161080d90612e05565b60405180910390fd5b837f61b9399f2f0f32ca39ce8d7be32caed5ec22fe07a6daba3a467ed479ec60658260405160405180910390a260075f8581526020019081526020015f206002015f9054906101000a900473ffffffffffffffffffffffffffffffffffffffff1673ffffffffffffffffffffffffffffffffffffffff16847fe18debf292fbfc1f009a15d4e4932c1da2be34d7343f86f50989d09a04571e1b846040516108bd91906125d9565b60405180910390a35050505f60018190555050565b5f5f5f6108df8585612515565b809350819450505081836108f39190612ca9565b90509250925092565b5f5f9054906101000a900473ffffffffffffffffffffffffffffffffffffffff1673ffffffffffffffffffffffffffffffffffffffff163373ffffffffffffffffffffffffffffffffffffffff1614610981576040517f5fc483c500000000000000000000000000000000000000000000000000000000815260040160405180910390fd5b60018054036109bc576040517fab143c0600000000000000000000000000000000000000000000000000000000815260040160405180910390fd5b60018081905550600160058111156109d7576109d6612932565b5b60075f8381526020019081526020015f206007015f9054906101000a900460ff166005811115610a0a57610a09612932565b5b14610a41576040517f3742d1f600000000000000000000000000000000000000000000000000000000815260040160405180910390fd5b600360075f8381526020019081526020015f206007015f6101000a81548160ff02191690836005811115610a7857610a77612932565b5b021790555060075f8281526020019081526020015f206004015460065f60075f8581526020019081526020015f206001015481526020019081526020015f206004015f828254610ac89190612ca9565b925050819055505f61271060045f9054906101000a90046bffffffffffffffffffffffff166bffffffffffffffffffffffff1660075f8581526020019081526020015f2060060154610b1a9190612cdc565b610b249190612d4a565b90505f8160075f8581526020019081526020015f2060060154610b479190612ca9565b90505f60075f8581526020019081526020015f206002015f9054906101000a900473ffffffffffffffffffffffffffffffffffffffff1673ffffffffffffffffffffffffffffffffffffffff1682604051610ba190612da7565b5f6040518083038185875af1925050503d805f8114610bdb576040519150601f19603f3d011682016040523d82523d5f602084013e610be0565b606091505b5050905080610c24576040517f08c379a0000000000000000000000000000000000000000000000000000000008152600401610c1b90612e05565b60405180910390fd5b60075f8581526020019081526020015f206002015f9054906101000a900473ffffffffffffffffffffffffffffffffffffffff1673ffffffffffffffffffffffffffffffffffffffff16847fe18debf292fbfc1f009a15d4e4932c1da2be34d7343f86f50989d09a04571e1b84604051610c9e91906125d9565b60405180910390a35050505f60018190555050565b6001805403610cee576040517fab143c0600000000000000000000000000000000000000000000000000000000815260040160405180910390fd5b6001808190555060016005811115610d0957610d08612932565b5b60075f8381526020019081526020015f206007015f9054906101000a900460ff166005811115610d3c57610d3b612932565b5b14610d73576040517fa5eeaea300000000000000000000000000000000000000000000000000000000815260040160405180910390fd5b60075f8281526020019081526020015f206002015f9054906101000a900473ffffffffffffffffffffffffffffffffffffffff1673ffffffffffffffffffffffffffffffffffffffff163373ffffffffffffffffffffffffffffffffffffffff1614610e0b576040517f472e017e00000000000000000000000000000000000000000000000000000000815260040160405180910390fd5b600260075f8381526020019081526020015f206007015f6101000a81548160ff02191690836005811115610e4257610e41612932565b5b02179055505f61271060045f9054906101000a90046bffffffffffffffffffffffff166bffffffffffffffffffffffff1660075f8581526020019081526020015f2060060154610e929190612cdc565b610e9c9190612d4a565b90505f60075f8481526020019081526020015f206006015490505f60045f9054906101000a90046bffffffffffffffffffffffff166bffffffffffffffffffffffff161115610efe578160055f828254610ef69190612ca9565b925050819055505b5f60075f8581526020019081526020015f206003015f9054906101000a900473ffffffffffffffffffffffffffffffffffffffff1673ffffffffffffffffffffffffffffffffffffffff1682604051610f5690612da7565b5f6040518083038185875af1925050503d805f8114610f90576040519150601f19603f3d011682016040523d82523d5f602084013e610f95565b606091505b5050905080610fd9576040517f08c379a0000000000000000000000000000000000000000000000000000000008152600401610fd090612e6d565b60405180910390fd5b60075f8581526020019081526020015f206003015f9054906101000a900473ffffffffffffffffffffffffffffffffffffffff1673ffffffffffffffffffffffffffffffffffffffff1660075f8681526020019081526020015f206002015f9054906101000a900473ffffffffffffffffffffffffffffffffffffffff1673ffffffffffffffffffffffffffffffffffffffff16857fea444e36ddc975c66fb8b391c01dfd6f4482f51e19554ccc5bd80c647f4dfb07858760405161109f929190612e8b565b60405180910390a45050505f60018190555050565b60025481565b5f3373ffffffffffffffffffffffffffffffffffffffff1660065f8981526020019081526020015f205f015f9054906101000a900473ffffffffffffffffffffffffffffffffffffffff1673ffffffffffffffffffffffffffffffffffffffff161415801561117557505f5f9054906101000a900473ffffffffffffffffffffffffffffffffffffffff1673ffffffffffffffffffffffffffffffffffffffff163373ffffffffffffffffffffffffffffffffffffffff1614155b156111ac576040517f5ec8235100000000000000000000000000000000000000000000000000000000815260040160405180910390fd5b5f85036111e5576040517fd481977e00000000000000000000000000000000000000000000000000000000815260040160405180910390fd5b5f840361121e576040517fe528e11e00000000000000000000000000000000000000000000000000000000815260040160405180910390fd5b5f858561122b9190612cdc565b905060035f815461123b90612eb2565b91905081905591506040518061012001604052808381526020018981526020018873ffffffffffffffffffffffffffffffffffffffff16815260200160065f8b81526020019081526020015f205f015f9054906101000a900473ffffffffffffffffffffffffffffffffffffffff1673ffffffffffffffffffffffffffffffffffffffff1681526020018781526020018681526020018281526020016005808111156112ea576112e9612932565b5b81526020014267ffffffffffffffff1681525060075f8481526020019081526020015f205f820151815f0155602082015181600101556040820151816002015f6101000a81548173ffffffffffffffffffffffffffffffffffffffff021916908373ffffffffffffffffffffffffffffffffffffffff1602179055506060820151816003015f6101000a81548173ffffffffffffffffffffffffffffffffffffffff021916908373ffffffffffffffffffffffffffffffffffffffff1602179055506080820151816004015560a0820151816005015560c0820151816006015560e0820151816007015f6101000a81548160ff021916908360058111156113f4576113f3612932565b5b02179055506101008201518160070160016101000a81548167ffffffffffffffff021916908367ffffffffffffffff1602179055509050508673ffffffffffffffffffffffffffffffffffffffff1688837f4407b6b6e998539a49e8aa044ff1a64c6d92b26870352c041a86cc0ef9cbff8660065f8d81526020019081526020015f205f015f9054906101000a900473ffffffffffffffffffffffffffffffffffffffff168a8a878b8b6040516114b096959493929190612f33565b60405180910390a4509695505050505050565b6006602052805f5260405f205f91509050805f015f9054906101000a900473ffffffffffffffffffffffffffffffffffffffff169080600101805461150790612fba565b80601f016020809104026020016040519081016040528092919081815260200182805461153390612fba565b801561157e5780601f106115555761010080835404028352916020019161157e565b820191905f5260205f20905b81548152906001019060200180831161156157829003601f168201915b50505050509080600201805461159390612fba565b80601f01602080910402602001604051908101604052809291908181526020018280546115bf90612fba565b801561160a5780601f106115e15761010080835404028352916020019161160a565b820191905f5260205f20905b8154815290600101906020018083116115ed57829003601f168201915b505050505090806003015490806004015490806005015f9054906101000a900460ff16905086565b5f5f9054906101000a900473ffffffffffffffffffffffffffffffffffffffff1681565b60055481565b6007602052805f5260405f205f91509050805f015490806001015490806002015f9054906101000a900473ffffffffffffffffffffffffffffffffffffffff1690806003015f9054906101000a900473ffffffffffffffffffffffffffffffffffffffff1690806004015490806005015490806006015490806007015f9054906101000a900460ff16908060070160019054906101000a900467ffffffffffffffff16905089565b5f5f9054906101000a900473ffffffffffffffffffffffffffffffffffffffff1673ffffffffffffffffffffffffffffffffffffffff163373ffffffffffffffffffffffffffffffffffffffff1614611789576040517f5fc483c500000000000000000000000000000000000000000000000000000000815260040160405180910390fd5b60018054036117c4576040517fab143c0600000000000000000000000000000000000000000000000000000000815260040160405180910390fd5b60018081905550600554811115611810576040517f08c379a000000000000000000000000000000000000000000000000000000000815260040161180790613034565b60405180910390fd5b8060055f8282546118219190613052565b925050819055505f8273ffffffffffffffffffffffffffffffffffffffff168260405161184d90612da7565b5f6040518083038185875af1925050503d805f8114611887576040519150601f19603f3d011682016040523d82523d5f602084013e61188c565b606091505b50509050806118d0576040517f08c379a00000000000000000000000000000000000000000000000000000000081526004016118c7906130cf565b60405180910390fd5b505f6001819055505050565b5f5f9054906101000a900473ffffffffffffffffffffffffffffffffffffffff1673ffffffffffffffffffffffffffffffffffffffff163373ffffffffffffffffffffffffffffffffffffffff1614611961576040517f5fc483c500000000000000000000000000000000000000000000000000000000815260040160405180910390fd5b6103e8816bffffffffffffffffffffffff1611156119b4576040517f08c379a00000000000000000000000000000000000000000000000000000000081526004016119ab90613137565b60405180910390fd5b8060045f6101000a8154816bffffffffffffffffffffffff02191690836bffffffffffffffffffffffff16021790555050565b5f6060805f5f5f5f60065f8981526020019081526020015f209050805f015f9054906101000a900473ffffffffffffffffffffffffffffffffffffffff16816001018260020183600301548460040154856005015f9054906101000a900460ff16848054611a5490612fba565b80601f0160208091040260200160405190810160405280929190818152602001828054611a8090612fba565b8015611acb5780601f10611aa257610100808354040283529160200191611acb565b820191905f5260205f20905b815481529060010190602001808311611aae57829003601f168201915b50505050509450838054611ade90612fba565b80601f0160208091040260200160405190810160405280929190818152602001828054611b0a90612fba565b8015611b555780601f10611b2c57610100808354040283529160200191611b55565b820191905f5260205f20905b815481529060010190602001808311611b3857829003601f168201915b505050505093509650965096509650965096505091939550919395565b5f5f8303611bac576040517fe528e11e00000000000000000000000000000000000000000000000000000000815260040160405180910390fd5b5f8203611be5576040517fd481977e00000000000000000000000000000000000000000000000000000000815260040160405180910390fd5b60025f8154611bf390612eb2565b91905081905590506040518060c001604052803373ffffffffffffffffffffffffffffffffffffffff16815260200188888080601f0160208091040260200160405190810160405280939291908181526020018383808284375f81840152601f19601f82011690508083019250505050505050815260200186868080601f0160208091040260200160405190810160405280939291908181526020018383808284375f81840152601f19601f8201169050808301925050505050505081526020018481526020018381526020016001151581525060065f8381526020019081526020015f205f820151815f015f6101000a81548173ffffffffffffffffffffffffffffffffffffffff021916908373ffffffffffffffffffffffffffffffffffffffff1602179055506020820151816001019081611d319190613322565b506040820151816002019081611d479190613322565b50606082015181600301556080820151816004015560a0820151816005015f6101000a81548160ff0219169083151502179055509050503373ffffffffffffffffffffffffffffffffffffffff16817fe8afb275df5dc1626ad09a4d4e6e646bc6cb51e8b63f8274a81248b0fbc067cb898989898989604051611dcf969594939291906133f1565b60405180910390a39695505050505050565b5f6001805403611e1d576040517fab143c0600000000000000000000000000000000000000000000000000000000815260040160405180910390fd5b6001808190555060065f8481526020019081526020015f206005015f9054906101000a900460ff16611e7b576040517fa10e397d00000000000000000000000000000000000000000000000000000000815260040160405180910390fd5b5f821480611e9c575060065f8481526020019081526020015f206004015482115b15611ed3576040517f888e58a800000000000000000000000000000000000000000000000000000000815260040160405180910390fd5b5f5f611edf8585612515565b915091508082611eef9190612ca9565b3414611f27576040517f98d4901c00000000000000000000000000000000000000000000000000000000815260040160405180910390fd5b8360065f8781526020019081526020015f206004015f828254611f4a9190613052565b9250508190555060035f8154611f5f90612eb2565b91905081905592506040518061012001604052808481526020018681526020013373ffffffffffffffffffffffffffffffffffffffff16815260200160065f8881526020019081526020015f205f015f9054906101000a900473ffffffffffffffffffffffffffffffffffffffff1673ffffffffffffffffffffffffffffffffffffffff16815260200185815260200160065f8881526020019081526020015f206003015481526020018381526020016001600581111561202357612022612932565b5b81526020014267ffffffffffffffff1681525060075f8581526020019081526020015f205f820151815f0155602082015181600101556040820151816002015f6101000a81548173ffffffffffffffffffffffffffffffffffffffff021916908373ffffffffffffffffffffffffffffffffffffffff1602179055506060820151816003015f6101000a81548173ffffffffffffffffffffffffffffffffffffffff021916908373ffffffffffffffffffffffffffffffffffffffff1602179055506080820151816004015560a0820151816005015560c0820151816006015560e0820151816007015f6101000a81548160ff0219169083600581111561212d5761212c612932565b5b02179055506101008201518160070160016101000a81548167ffffffffffffffff021916908367ffffffffffffffff1602179055509050503373ffffffffffffffffffffffffffffffffffffffff1685847fb05d81effad3ee84ee036ba00fe39c2434981b97189a33164e7288215ab0e8df60065f8a81526020019081526020015f205f015f9054906101000a900473ffffffffffffffffffffffffffffffffffffffff168860065f8c81526020019081526020015f20600301548860045f9054906101000a90046bffffffffffffffffffffffff16604051612214959493929190613446565b60405180910390a450505f60018190555092915050565b5f5f9054906101000a900473ffffffffffffffffffffffffffffffffffffffff1673ffffffffffffffffffffffffffffffffffffffff163373ffffffffffffffffffffffffffffffffffffffff16146122b0576040517f5fc483c500000000000000000000000000000000000000000000000000000000815260040160405180910390fd5b5f73ffffffffffffffffffffffffffffffffffffffff168173ffffffffffffffffffffffffffffffffffffffff1603612315576040517fd92e233d00000000000000000000000000000000000000000000000000000000815260040160405180910390fd5b8073ffffffffffffffffffffffffffffffffffffffff165f5f9054906101000a900473ffffffffffffffffffffffffffffffffffffffff1673ffffffffffffffffffffffffffffffffffffffff167f8be0079c531659141344cd1fd0a4f28419497f9722a3daafe3b4186f6b6457e060405160405180910390a3805f5f6101000a81548173ffffffffffffffffffffffffffffffffffffffff021916908373ffffffffffffffffffffffffffffffffffffffff16021790555050565b5f60065f8681526020019081526020015f2090503373ffffffffffffffffffffffffffffffffffffffff16815f015f9054906101000a900473ffffffffffffffffffffffffffffffffffffffff1673ffffffffffffffffffffffffffffffffffffffff161461246c576040517f5ec8235100000000000000000000000000000000000000000000000000000000815260040160405180910390fd5b5f84036124a5576040517fe528e11e00000000000000000000000000000000000000000000000000000000815260040160405180910390fd5b83816003018190555082816004018190555081816005015f6101000a81548160ff021916908315150217905550847f24833e9f5188ae0f7e72e30363b10145255676df1ab74b5137059e1b8e4cba6685858560405161250693929190613497565b60405180910390a25050505050565b5f5f8260065f8681526020019081526020015f20600301546125379190612cdc565b915061271060045f9054906101000a90046bffffffffffffffffffffffff166bffffffffffffffffffffffff168361256f9190612cdc565b6125799190612d4a565b90509250929050565b5f6bffffffffffffffffffffffff82169050919050565b6125a281612582565b82525050565b5f6020820190506125bb5f830184612599565b92915050565b5f819050919050565b6125d3816125c1565b82525050565b5f6020820190506125ec5f8301846125ca565b92915050565b5f5ffd5b5f5ffd5b612603816125c1565b811461260d575f5ffd5b50565b5f8135905061261e816125fa565b92915050565b5f60208284031215612639576126386125f2565b5b5f61264684828501612610565b91505092915050565b5f5f60408385031215612665576126646125f2565b5b5f61267285828601612610565b925050602061268385828601612610565b9150509250929050565b5f6060820190506126a05f8301866125ca565b6126ad60208301856125ca565b6126ba60408301846125ca565b949350505050565b5f73ffffffffffffffffffffffffffffffffffffffff82169050919050565b5f6126eb826126c2565b9050919050565b6126fb816126e1565b8114612705575f5ffd5b50565b5f81359050612716816126f2565b92915050565b5f5ffd5b5f5ffd5b5f5ffd5b5f5f83601f84011261273d5761273c61271c565b5b8235905067ffffffffffffffff81111561275a57612759612720565b5b60208301915083600182028301111561277657612775612724565b5b9250929050565b5f5f5f5f5f5f60a08789031215612797576127966125f2565b5b5f6127a489828a01612610565b96505060206127b589828a01612708565b95505060406127c689828a01612610565b94505060606127d789828a01612610565b935050608087013567ffffffffffffffff8111156127f8576127f76125f6565b5b61280489828a01612728565b92509250509295509295509295565b61281c816126e1565b82525050565b5f81519050919050565b5f82825260208201905092915050565b8281835e5f83830152505050565b5f601f19601f8301169050919050565b5f61286482612822565b61286e818561282c565b935061287e81856020860161283c565b6128878161284a565b840191505092915050565b5f8115159050919050565b6128a681612892565b82525050565b5f60c0820190506128bf5f830189612813565b81810360208301526128d1818861285a565b905081810360408301526128e5818761285a565b90506128f460608301866125ca565b61290160808301856125ca565b61290e60a083018461289d565b979650505050505050565b5f60208201905061292c5f830184612813565b92915050565b7f4e487b71000000000000000000000000000000000000000000000000000000005f52602160045260245ffd5b600681106129705761296f612932565b5b50565b5f8190506129808261295f565b919050565b5f61298f82612973565b9050919050565b61299f81612985565b82525050565b5f67ffffffffffffffff82169050919050565b6129c1816129a5565b82525050565b5f610120820190506129db5f83018c6125ca565b6129e8602083018b6125ca565b6129f5604083018a612813565b612a026060830189612813565b612a0f60808301886125ca565b612a1c60a08301876125ca565b612a2960c08301866125ca565b612a3660e0830185612996565b612a446101008301846129b8565b9a9950505050505050505050565b5f612a5c826126c2565b9050919050565b612a6c81612a52565b8114612a76575f5ffd5b50565b5f81359050612a8781612a63565b92915050565b5f5f60408385031215612aa357612aa26125f2565b5b5f612ab085828601612a79565b9250506020612ac185828601612610565b9150509250929050565b612ad481612582565b8114612ade575f5ffd5b50565b5f81359050612aef81612acb565b92915050565b5f60208284031215612b0a57612b096125f2565b5b5f612b1784828501612ae1565b91505092915050565b5f5f5f5f5f5f60808789031215612b3a57612b396125f2565b5b5f87013567ffffffffffffffff811115612b5757612b566125f6565b5b612b6389828a01612728565b9650965050602087013567ffffffffffffffff811115612b8657612b856125f6565b5b612b9289828a01612728565b94509450506040612ba589828a01612610565b9250506060612bb689828a01612610565b9150509295509295509295565b5f60208284031215612bd857612bd76125f2565b5b5f612be584828501612708565b91505092915050565b612bf781612892565b8114612c01575f5ffd5b50565b5f81359050612c1281612bee565b92915050565b5f5f5f5f60808587031215612c3057612c2f6125f2565b5b5f612c3d87828801612610565b9450506020612c4e87828801612610565b9350506040612c5f87828801612610565b9250506060612c7087828801612c04565b91505092959194509250565b7f4e487b71000000000000000000000000000000000000000000000000000000005f52601160045260245ffd5b5f612cb3826125c1565b9150612cbe836125c1565b9250828201905080821115612cd657612cd5612c7c565b5b92915050565b5f612ce6826125c1565b9150612cf1836125c1565b9250828202612cff816125c1565b91508282048414831517612d1657612d15612c7c565b5b5092915050565b7f4e487b71000000000000000000000000000000000000000000000000000000005f52601260045260245ffd5b5f612d54826125c1565b9150612d5f836125c1565b925082612d6f57612d6e612d1d565b5b828204905092915050565b5f81905092915050565b50565b5f612d925f83612d7a565b9150612d9d82612d84565b5f82019050919050565b5f612db182612d87565b9150819050919050565b7f726566756e64206661696c6564000000000000000000000000000000000000005f82015250565b5f612def600d8361282c565b9150612dfa82612dbb565b602082019050919050565b5f6020820190508181035f830152612e1c81612de3565b9050919050565b7f7061792073656c6c6572206661696c65640000000000000000000000000000005f82015250565b5f612e5760118361282c565b9150612e6282612e23565b602082019050919050565b5f6020820190508181035f830152612e8481612e4b565b9050919050565b5f604082019050612e9e5f8301856125ca565b612eab60208301846125ca565b9392505050565b5f612ebc826125c1565b91507fffffffffffffffffffffffffffffffffffffffffffffffffffffffffffffffff8203612eee57612eed612c7c565b5b600182019050919050565b828183375f83830152505050565b5f612f12838561282c565b9350612f1f838584612ef9565b612f288361284a565b840190509392505050565b5f60a082019050612f465f830189612813565b612f5360208301886125ca565b612f6060408301876125ca565b612f6d60608301866125ca565b8181036080830152612f80818486612f07565b9050979650505050505050565b7f4e487b71000000000000000000000000000000000000000000000000000000005f52602260045260245ffd5b5f6002820490506001821680612fd157607f821691505b602082108103612fe457612fe3612f8d565b5b50919050565b7f65786365656473206665657300000000000000000000000000000000000000005f82015250565b5f61301e600c8361282c565b915061302982612fea565b602082019050919050565b5f6020820190508181035f83015261304b81613012565b9050919050565b5f61305c826125c1565b9150613067836125c1565b925082820390508181111561307f5761307e612c7c565b5b92915050565b7f7769746864726177206661696c656400000000000000000000000000000000005f82015250565b5f6130b9600f8361282c565b91506130c482613085565b602082019050919050565b5f6020820190508181035f8301526130e6816130ad565b9050919050565b7f6d617820313025000000000000000000000000000000000000000000000000005f82015250565b5f61312160078361282c565b915061312c826130ed565b602082019050919050565b5f6020820190508181035f83015261314e81613115565b9050919050565b7f4e487b71000000000000000000000000000000000000000000000000000000005f52604160045260245ffd5b5f819050815f5260205f209050919050565b5f6020601f8301049050919050565b5f82821b905092915050565b5f600883026131de7fffffffffffffffffffffffffffffffffffffffffffffffffffffffffffffffff826131a3565b6131e886836131a3565b95508019841693508086168417925050509392505050565b5f819050919050565b5f61322361321e613219846125c1565b613200565b6125c1565b9050919050565b5f819050919050565b61323c83613209565b6132506132488261322a565b8484546131af565b825550505050565b5f5f905090565b613267613258565b613272818484613233565b505050565b5b818110156132955761328a5f8261325f565b600181019050613278565b5050565b601f8211156132da576132ab81613182565b6132b484613194565b810160208510156132c3578190505b6132d76132cf85613194565b830182613277565b50505b505050565b5f82821c905092915050565b5f6132fa5f19846008026132df565b1980831691505092915050565b5f61331283836132eb565b9150826002028217905092915050565b61332b82612822565b67ffffffffffffffff81111561334457613343613155565b5b61334e8254612fba565b613359828285613299565b5f60209050601f83116001811461338a575f8415613378578287015190505b6133828582613307565b8655506133e9565b601f19841661339886613182565b5f5b828110156133bf5784890151825560018201915060208501945060208101905061339a565b868310156133dc57848901516133d8601f8916826132eb565b8355505b6001600288020188555050505b505050505050565b5f6080820190508181035f83015261340a81888a612f07565b9050818103602083015261341f818688612f07565b905061342e60408301856125ca565b61343b60608301846125ca565b979650505050505050565b5f60a0820190506134595f830188612813565b61346660208301876125ca565b61347360408301866125ca565b61348060608301856125ca565b61348d6080830184612599565b9695505050505050565b5f6060820190506134aa5f8301866125ca565b6134b760208301856125ca565b6134c4604083018461289d565b94935050505056fea2646970667358221220b007cf7848361cf600ad3c2efefbfc9477cfec567e8b418e61ecd59c13d825df64736f6c634300081e0033",
					"opcodes": "PUSH1 0x80 PUSH1 0x40 MSTORE CALLVALUE DUP1 ISZERO PUSH1 0xE JUMPI PUSH0 PUSH0 REVERT JUMPDEST POP CALLER PUSH0 PUSH0 PUSH2 0x100 EXP DUP2 SLOAD DUP2 PUSH20 0xFFFFFFFFFFFFFFFFFFFFFFFFFFFFFFFFFFFFFFFF MUL NOT AND SWAP1 DUP4 PUSH20 0xFFFFFFFFFFFFFFFFFFFFFFFFFFFFFFFFFFFFFFFF AND MUL OR SWAP1 SSTORE POP CALLER PUSH20 0xFFFFFFFFFFFFFFFFFFFFFFFFFFFFFFFFFFFFFFFF AND PUSH0 PUSH20 0xFFFFFFFFFFFFFFFFFFFFFFFFFFFFFFFFFFFFFFFF AND PUSH32 0x8BE0079C531659141344CD1FD0A4F28419497F9722A3DAAFE3B4186F6B6457E0 PUSH1 0x40 MLOAD PUSH1 0x40 MLOAD DUP1 SWAP2 SUB SWAP1 LOG3 PUSH2 0x3502 DUP1 PUSH2 0xB5 PUSH0 CODECOPY PUSH0 RETURN INVALID PUSH1 0x80 PUSH1 0x40 MSTORE PUSH1 0x4 CALLDATASIZE LT PUSH2 0x117 JUMPI PUSH0 CALLDATALOAD PUSH1 0xE0 SHR DUP1 PUSH4 0x8DA5CB5B GT PUSH2 0x9F JUMPI DUP1 PUSH4 0xBB119F6E GT PUSH2 0x63 JUMPI DUP1 PUSH4 0xBB119F6E EQ PUSH2 0x3BB JUMPI DUP1 PUSH4 0xBE126A94 EQ PUSH2 0x3FC JUMPI DUP1 PUSH4 0xD6FEBDE8 EQ PUSH2 0x438 JUMPI DUP1 PUSH4 0xF2FDE38B EQ PUSH2 0x468 JUMPI DUP1 PUSH4 0xFAAAC390 EQ PUSH2 0x490 JUMPI PUSH2 0x11E JUMP JUMPDEST DUP1 PUSH4 0x8DA5CB5B EQ PUSH2 0x2D3 JUMPI DUP1 PUSH4 0x94DB0595 EQ PUSH2 0x2FD JUMPI DUP1 PUSH4 0xA85C38EF EQ PUSH2 0x327 JUMPI DUP1 PUSH4 0xAD3B1B47 EQ PUSH2 0x36B JUMPI DUP1 PUSH4 0xB7F1564E EQ PUSH2 0x393 JUMPI PUSH2 0x11E JUMP JUMPDEST DUP1 PUSH4 0x4C48EDE7 GT PUSH2 0xE6 JUMPI DUP1 PUSH4 0x4C48EDE7 EQ PUSH2 0x1DC JUMPI DUP1 PUSH4 0x4D397FD5 EQ PUSH2 0x204 JUMPI DUP1 PUSH4 0x4DE91A63 EQ PUSH2 0x22C JUMPI DUP1 PUSH4 0x56104161 EQ PUSH2 0x256 JUMPI DUP1 PUSH4 0x7ACC0B20 EQ PUSH2 0x292 JUMPI PUSH2 0x11E JUMP JUMPDEST DUP1 PUSH4 0x24A9D853 EQ PUSH2 0x122 JUMPI DUP1 PUSH4 0x2A58B330 EQ PUSH2 0x14C JUMPI DUP1 PUSH4 0x301E8A05 EQ PUSH2 0x176 JUMPI DUP1 PUSH4 0x315F1A41 EQ PUSH2 0x19E JUMPI PUSH2 0x11E JUMP JUMPDEST CALLDATASIZE PUSH2 0x11E JUMPI STOP JUMPDEST PUSH0 PUSH0 REVERT JUMPDEST CALLVALUE DUP1 ISZERO PUSH2 0x12D JUMPI PUSH0 PUSH0 REVERT JUMPDEST POP PUSH2 0x136 PUSH2 0x4B8 JUMP JUMPDEST PUSH1 0x40 MLOAD PUSH2 0x143 SWAP2 SWAP1 PUSH2 0x25A8 JUMP JUMPDEST PUSH1 0x40 MLOAD DUP1 SWAP2 SUB SWAP1 RETURN JUMPDEST CALLVALUE DUP1 ISZERO PUSH2 0x157 JUMPI PUSH0 PUSH0 REVERT JUMPDEST POP PUSH2 0x160 PUSH2 0x4D5 JUMP JUMPDEST PUSH1 0x40 MLOAD PUSH2 0x16D SWAP2 SWAP1 PUSH2 0x25D9 JUMP JUMPDEST PUSH1 0x40 MLOAD DUP1 SWAP2 SUB SWAP1 RETURN JUMPDEST CALLVALUE DUP1 ISZERO PUSH2 0x181 JUMPI PUSH0 PUSH0 REVERT JUMPDEST POP PUSH2 0x19C PUSH1 0x4 DUP1 CALLDATASIZE SUB DUP2 ADD SWAP1 PUSH2 0x197 SWAP2 SWAP1 PUSH2 0x2624 JUMP JUMPDEST PUSH2 0x4DB JUMP JUMPDEST STOP JUMPDEST CALLVALUE DUP1 ISZERO PUSH2 0x1A9 JUMPI PUSH0 PUSH0 REVERT JUMPDEST POP PUSH2 0x1C4 PUSH1 0x4 DUP1 CALLDATASIZE SUB DUP2 ADD SWAP1 PUSH2 0x1BF SWAP2 SWAP1 PUSH2 0x264F JUMP JUMPDEST PUSH2 0x8D2 JUMP JUMPDEST PUSH1 0x40 MLOAD PUSH2 0x1D3 SWAP4 SWAP3 SWAP2 SWAP1 PUSH2 0x268D JUMP JUMPDEST PUSH1 0x40 MLOAD DUP1 SWAP2 SUB SWAP1 RETURN JUMPDEST CALLVALUE DUP1 ISZERO PUSH2 0x1E7 JUMPI PUSH0 PUSH0 REVERT JUMPDEST POP PUSH2 0x202 PUSH1 0x4 DUP1 CALLDATASIZE SUB DUP2 ADD SWAP1 PUSH2 0x1FD SWAP2 SWAP1 PUSH2 0x2624 JUMP JUMPDEST PUSH2 0x8FC JUMP JUMPDEST STOP JUMPDEST CALLVALUE DUP1 ISZERO PUSH2 0x20F JUMPI PUSH0 PUSH0 REVERT JUMPDEST POP PUSH2 0x22A PUSH1 0x4 DUP1 CALLDATASIZE SUB DUP2 ADD SWAP1 PUSH2 0x225 SWAP2 SWAP1 PUSH2 0x2624 JUMP JUMPDEST PUSH2 0xCB3 JUMP JUMPDEST STOP JUMPDEST CALLVALUE DUP1 ISZERO PUSH2 0x237 JUMPI PUSH0 PUSH0 REVERT JUMPDEST POP PUSH2 0x240 PUSH2 0x10B4 JUMP JUMPDEST PUSH1 0x40 MLOAD PUSH2 0x24D SWAP2 SWAP1 PUSH2 0x25D9 JUMP JUMPDEST PUSH1 0x40 MLOAD DUP1 SWAP2 SUB SWAP1 RETURN JUMPDEST CALLVALUE DUP1 ISZERO PUSH2 0x261 JUMPI PUSH0 PUSH0 REVERT JUMPDEST POP PUSH2 0x27C PUSH1 0x4 DUP1 CALLDATASIZE SUB DUP2 ADD SWAP1 PUSH2 0x277 SWAP2 SWAP1 PUSH2 0x277D JUMP JUMPDEST PUSH2 0x10BA JUMP JUMPDEST PUSH1 0x40 MLOAD PUSH2 0x289 SWAP2 SWAP1 PUSH2 0x25D9 JUMP JUMPDEST PUSH1 0x40 MLOAD DUP1 SWAP2 SUB SWAP1 RETURN JUMPDEST CALLVALUE DUP1 ISZERO PUSH2 0x29D JUMPI PUSH0 PUSH0 REVERT JUMPDEST POP PUSH2 0x2B8 PUSH1 0x4 DUP1 CALLDATASIZE SUB DUP2 ADD SWAP1 PUSH2 0x2B3 SWAP2 SWAP1 PUSH2 0x2624 JUMP JUMPDEST PUSH2 0x14C3 JUMP JUMPDEST PUSH1 0x40 MLOAD PUSH2 0x2CA SWAP7 SWAP6 SWAP5 SWAP4 SWAP3 SWAP2 SWAP1 PUSH2 0x28AC JUMP JUMPDEST PUSH1 0x40 MLOAD DUP1 SWAP2 SUB SWAP1 RETURN JUMPDEST CALLVALUE DUP1 ISZERO PUSH2 0x2DE JUMPI PUSH0 PUSH0 REVERT JUMPDEST POP PUSH2 0x2E7 PUSH2 0x1632 JUMP JUMPDEST PUSH1 0x40 MLOAD PUSH2 0x2F4 SWAP2 SWAP1 PUSH2 0x2919 JUMP JUMPDEST PUSH1 0x40 MLOAD DUP1 SWAP2 SUB SWAP1 RETURN JUMPDEST CALLVALUE DUP1 ISZERO PUSH2 0x308 JUMPI PUSH0 PUSH0 REVERT JUMPDEST POP PUSH2 0x311 PUSH2 0x1656 JUMP JUMPDEST PUSH1 0x40 MLOAD PUSH2 0x31E SWAP2 SWAP1 PUSH2 0x25D9 JUMP JUMPDEST PUSH1 0x40 MLOAD DUP1 SWAP2 SUB SWAP1 RETURN JUMPDEST CALLVALUE DUP1 ISZERO PUSH2 0x332 JUMPI PUSH0 PUSH0 REVERT JUMPDEST POP PUSH2 0x34D PUSH1 0x4 DUP1 CALLDATASIZE SUB DUP2 ADD SWAP1 PUSH2 0x348 SWAP2 SWAP1 PUSH2 0x2624 JUMP JUMPDEST PUSH2 0x165C JUMP JUMPDEST PUSH1 0x40 MLOAD PUSH2 0x362 SWAP10 SWAP9 SWAP8 SWAP7 SWAP6 SWAP5 SWAP4 SWAP3 SWAP2 SWAP1 PUSH2 0x29C7 JUMP JUMPDEST PUSH1 0x40 MLOAD DUP1 SWAP2 SUB SWAP1 RETURN JUMPDEST CALLVALUE DUP1 ISZERO PUSH2 0x376 JUMPI PUSH0 PUSH0 REVERT JUMPDEST POP PUSH2 0x391 PUSH1 0x4 DUP1 CALLDATASIZE SUB DUP2 ADD SWAP1 PUSH2 0x38C SWAP2 SWAP1 PUSH2 0x2A8D JUMP JUMPDEST PUSH2 0x1704 JUMP JUMPDEST STOP JUMPDEST CALLVALUE DUP1 ISZERO PUSH2 0x39E JUMPI PUSH0 PUSH0 REVERT JUMPDEST POP PUSH2 0x3B9 PUSH1 0x4 DUP1 CALLDATASIZE SUB DUP2 ADD SWAP1 PUSH2 0x3B4 SWAP2 SWAP1 PUSH2 0x2AF5 JUMP JUMPDEST PUSH2 0x18DC JUMP JUMPDEST STOP JUMPDEST CALLVALUE DUP1 ISZERO PUSH2 0x3C6 JUMPI PUSH0 PUSH0 REVERT JUMPDEST POP PUSH2 0x3E1 PUSH1 0x4 DUP1 CALLDATASIZE SUB DUP2 ADD SWAP1 PUSH2 0x3DC SWAP2 SWAP1 PUSH2 0x2624 JUMP JUMPDEST PUSH2 0x19E7 JUMP JUMPDEST PUSH1 0x40 MLOAD PUSH2 0x3F3 SWAP7 SWAP6 SWAP5 SWAP4 SWAP3 SWAP2 SWAP1 PUSH2 0x28AC JUMP JUMPDEST PUSH1 0x40 MLOAD DUP1 SWAP2 SUB SWAP1 RETURN JUMPDEST CALLVALUE DUP1 ISZERO PUSH2 0x407 JUMPI PUSH0 PUSH0 REVERT JUMPDEST POP PUSH2 0x422 PUSH1 0x4 DUP1 CALLDATASIZE SUB DUP2 ADD SWAP1 PUSH2 0x41D SWAP2 SWAP1 PUSH2 0x2B20 JUMP JUMPDEST PUSH2 0x1B72 JUMP JUMPDEST PUSH1 0x40 MLOAD PUSH2 0x42F SWAP2 SWAP1 PUSH2 0x25D9 JUMP JUMPDEST PUSH1 0x40 MLOAD DUP1 SWAP2 SUB SWAP1 RETURN JUMPDEST PUSH2 0x452 PUSH1 0x4 DUP1 CALLDATASIZE SUB DUP2 ADD SWAP1 PUSH2 0x44D SWAP2 SWAP1 PUSH2 0x264F JUMP JUMPDEST PUSH2 0x1DE1 JUMP JUMPDEST PUSH1 0x40 MLOAD PUSH2 0x45F SWAP2 SWAP1 PUSH2 0x25D9 JUMP JUMPDEST PUSH1 0x40 MLOAD DUP1 SWAP2 SUB SWAP1 RETURN JUMPDEST CALLVALUE DUP1 ISZERO PUSH2 0x473 JUMPI PUSH0 PUSH0 REVERT JUMPDEST POP PUSH2 0x48E PUSH1 0x4 DUP1 CALLDATASIZE SUB DUP2 ADD SWAP1 PUSH2 0x489 SWAP2 SWAP1 PUSH2 0x2BC3 JUMP JUMPDEST PUSH2 0x222B JUMP JUMPDEST STOP JUMPDEST CALLVALUE DUP1 ISZERO PUSH2 0x49B JUMPI PUSH0 PUSH0 REVERT JUMPDEST POP PUSH2 0x4B6 PUSH1 0x4 DUP1 CALLDATASIZE SUB DUP2 ADD SWAP1 PUSH2 0x4B1 SWAP2 SWAP1 PUSH2 0x2C18 JUMP JUMPDEST PUSH2 0x23D1 JUMP JUMPDEST STOP JUMPDEST PUSH1 0x4 PUSH0 SWAP1 SLOAD SWAP1 PUSH2 0x100 EXP SWAP1 DIV PUSH12 0xFFFFFFFFFFFFFFFFFFFFFFFF AND DUP2 JUMP JUMPDEST PUSH1 0x3 SLOAD DUP2 JUMP JUMPDEST PUSH1 0x1 DUP1 SLOAD SUB PUSH2 0x516 JUMPI PUSH1 0x40 MLOAD PUSH32 0xAB143C0600000000000000000000000000000000000000000000000000000000 DUP2 MSTORE PUSH1 0x4 ADD PUSH1 0x40 MLOAD DUP1 SWAP2 SUB SWAP1 REVERT JUMPDEST PUSH1 0x1 DUP1 DUP2 SWAP1 SSTORE POP PUSH1 0x1 PUSH1 0x5 DUP2 GT ISZERO PUSH2 0x531 JUMPI PUSH2 0x530 PUSH2 0x2932 JUMP JUMPDEST JUMPDEST PUSH1 0x7 PUSH0 DUP4 DUP2 MSTORE PUSH1 0x20 ADD SWAP1 DUP2 MSTORE PUSH1 0x20 ADD PUSH0 KECCAK256 PUSH1 0x7 ADD PUSH0 SWAP1 SLOAD SWAP1 PUSH2 0x100 EXP SWAP1 DIV PUSH1 0xFF AND PUSH1 0x5 DUP2 GT ISZERO PUSH2 0x564 JUMPI PUSH2 0x563 PUSH2 0x2932 JUMP JUMPDEST JUMPDEST EQ PUSH2 0x59B JUMPI PUSH1 0x40 MLOAD PUSH32 0x67909B1500000000000000000000000000000000000000000000000000000000 DUP2 MSTORE PUSH1 0x4 ADD PUSH1 0x40 MLOAD DUP1 SWAP2 SUB SWAP1 REVERT JUMPDEST PUSH1 0x7 PUSH0 DUP3 DUP2 MSTORE PUSH1 0x20 ADD SWAP1 DUP2 MSTORE PUSH1 0x20 ADD PUSH0 KECCAK256 PUSH1 0x3 ADD PUSH0 SWAP1 SLOAD SWAP1 PUSH2 0x100 EXP SWAP1 DIV PUSH20 0xFFFFFFFFFFFFFFFFFFFFFFFFFFFFFFFFFFFFFFFF AND PUSH20 0xFFFFFFFFFFFFFFFFFFFFFFFFFFFFFFFFFFFFFFFF AND CALLER PUSH20 0xFFFFFFFFFFFFFFFFFFFFFFFFFFFFFFFFFFFFFFFF AND EQ PUSH2 0x633 JUMPI PUSH1 0x40 MLOAD PUSH32 0x5EC8235100000000000000000000000000000000000000000000000000000000 DUP2 MSTORE PUSH1 0x4 ADD PUSH1 0x40 MLOAD DUP1 SWAP2 SUB SWAP1 REVERT JUMPDEST PUSH1 0x4 PUSH1 0x7 PUSH0 DUP4 DUP2 MSTORE PUSH1 0x20 ADD SWAP1 DUP2 MSTORE PUSH1 0x20 ADD PUSH0 KECCAK256 PUSH1 0x7 ADD PUSH0 PUSH2 0x100 EXP DUP2 SLOAD DUP2 PUSH1 0xFF MUL NOT AND SWAP1 DUP4 PUSH1 0x5 DUP2 GT ISZERO PUSH2 0x66A JUMPI PUSH2 0x669 PUSH2 0x2932 JUMP JUMPDEST JUMPDEST MUL OR SWAP1 SSTORE POP PUSH1 0x7 PUSH0 DUP3 DUP2 MSTORE PUSH1 0x20 ADD SWAP1 DUP2 MSTORE PUSH1 0x20 ADD PUSH0 KECCAK256 PUSH1 0x4 ADD SLOAD PUSH1 0x6 PUSH0 PUSH1 0x7 PUSH0 DUP6 DUP2 MSTORE PUSH1 0x20 ADD SWAP1 DUP2 MSTORE PUSH1 0x20 ADD PUSH0 KECCAK256 PUSH1 0x1 ADD SLOAD DUP2 MSTORE PUSH1 0x20 ADD SWAP1 DUP2 MSTORE PUSH1 0x20 ADD PUSH0 KECCAK256 PUSH1 0x4 ADD PUSH0 DUP3 DUP3 SLOAD PUSH2 0x6BA SWAP2 SWAP1 PUSH2 0x2CA9 JUMP JUMPDEST SWAP3 POP POP DUP2 SWAP1 SSTORE POP PUSH0 PUSH2 0x2710 PUSH1 0x4 PUSH0 SWAP1 SLOAD SWAP1 PUSH2 0x100 EXP SWAP1 DIV PUSH12 0xFFFFFFFFFFFFFFFFFFFFFFFF AND PUSH12 0xFFFFFFFFFFFFFFFFFFFFFFFF AND PUSH1 0x7 PUSH0 DUP6 DUP2 MSTORE PUSH1 0x20 ADD SWAP1 DUP2 MSTORE PUSH1 0x20 ADD PUSH0 KECCAK256 PUSH1 0x6 ADD SLOAD PUSH2 0x70C SWAP2 SWAP1 PUSH2 0x2CDC JUMP JUMPDEST PUSH2 0x716 SWAP2 SWAP1 PUSH2 0x2D4A JUMP JUMPDEST SWAP1 POP PUSH0 DUP2 PUSH1 0x7 PUSH0 DUP6 DUP2 MSTORE PUSH1 0x20 ADD SWAP1 DUP2 MSTORE PUSH1 0x20 ADD PUSH0 KECCAK256 PUSH1 0x6 ADD SLOAD PUSH2 0x739 SWAP2 SWAP1 PUSH2 0x2CA9 JUMP JUMPDEST SWAP1 POP PUSH0 PUSH1 0x7 PUSH0 DUP6 DUP2 MSTORE PUSH1 0x20 ADD SWAP1 DUP2 MSTORE PUSH1 0x20 ADD PUSH0 KECCAK256 PUSH1 0x2 ADD PUSH0 SWAP1 SLOAD SWAP1 PUSH2 0x100 EXP SWAP1 DIV PUSH20 0xFFFFFFFFFFFFFFFFFFFFFFFFFFFFFFFFFFFFFFFF AND PUSH20 0xFFFFFFFFFFFFFFFFFFFFFFFFFFFFFFFFFFFFFFFF AND DUP3 PUSH1 0x40 MLOAD PUSH2 0x793 SWAP1 PUSH2 0x2DA7 JUMP JUMPDEST PUSH0 PUSH1 0x40 MLOAD DUP1 DUP4 SUB DUP2 DUP6 DUP8 GAS CALL SWAP3 POP POP POP RETURNDATASIZE DUP1 PUSH0 DUP2 EQ PUSH2 0x7CD JUMPI PUSH1 0x40 MLOAD SWAP2 POP PUSH1 0x1F NOT PUSH1 0x3F RETURNDATASIZE ADD AND DUP3 ADD PUSH1 0x40 MSTORE RETURNDATASIZE DUP3 MSTORE RETURNDATASIZE PUSH0 PUSH1 0x20 DUP5 ADD RETURNDATACOPY PUSH2 0x7D2 JUMP JUMPDEST PUSH1 0x60 SWAP2 POP JUMPDEST POP POP SWAP1 POP DUP1 PUSH2 0x816 JUMPI PUSH1 0x40 MLOAD PUSH32 0x8C379A000000000000000000000000000000000000000000000000000000000 DUP2 MSTORE PUSH1 0x4 ADD PUSH2 0x80D SWAP1 PUSH2 0x2E05 JUMP JUMPDEST PUSH1 0x40 MLOAD DUP1 SWAP2 SUB SWAP1 REVERT JUMPDEST DUP4 PUSH32 0x61B9399F2F0F32CA39CE8D7BE32CAED5EC22FE07A6DABA3A467ED479EC606582 PUSH1 0x40 MLOAD PUSH1 0x40 MLOAD DUP1 SWAP2 SUB SWAP1 LOG2 PUSH1 0x7 PUSH0 DUP6 DUP2 MSTORE PUSH1 0x20 ADD SWAP1 DUP2 MSTORE PUSH1 0x20 ADD PUSH0 KECCAK256 PUSH1 0x2 ADD PUSH0 SWAP1 SLOAD SWAP1 PUSH2 0x100 EXP SWAP1 DIV PUSH20 0xFFFFFFFFFFFFFFFFFFFFFFFFFFFFFFFFFFFFFFFF AND PUSH20 0xFFFFFFFFFFFFFFFFFFFFFFFFFFFFFFFFFFFFFFFF AND DUP5 PUSH32 0xE18DEBF292FBFC1F009A15D4E4932C1DA2BE34D7343F86F50989D09A04571E1B DUP5 PUSH1 0x40 MLOAD PUSH2 0x8BD SWAP2 SWAP1 PUSH2 0x25D9 JUMP JUMPDEST PUSH1 0x40 MLOAD DUP1 SWAP2 SUB SWAP1 LOG3 POP POP POP PUSH0 PUSH1 0x1 DUP2 SWAP1 SSTORE POP POP JUMP JUMPDEST PUSH0 PUSH0 PUSH0 PUSH2 0x8DF DUP6 DUP6 PUSH2 0x2515 JUMP JUMPDEST DUP1 SWAP4 POP DUP2 SWAP5 POP POP POP DUP2 DUP4 PUSH2 0x8F3 SWAP2 SWAP1 PUSH2 0x2CA9 JUMP JUMPDEST SWAP1 POP SWAP3 POP SWAP3 POP SWAP3 JUMP JUMPDEST PUSH0 PUSH0 SWAP1 SLOAD SWAP1 PUSH2 0x100 EXP SWAP1 DIV PUSH20 0xFFFFFFFFFFFFFFFFFFFFFFFFFFFFFFFFFFFFFFFF AND PUSH20 0xFFFFFFFFFFFFFFFFFFFFFFFFFFFFFFFFFFFFFFFF AND CALLER PUSH20 0xFFFFFFFFFFFFFFFFFFFFFFFFFFFFFFFFFFFFFFFF AND EQ PUSH2 0x981 JUMPI PUSH1 0x40 MLOAD PUSH32 0x5FC483C500000000000000000000000000000000000000000000000000000000 DUP2 MSTORE PUSH1 0x4 ADD PUSH1 0x40 MLOAD DUP1 SWAP2 SUB SWAP1 REVERT JUMPDEST PUSH1 0x1 DUP1 SLOAD SUB PUSH2 0x9BC JUMPI PUSH1 0x40 MLOAD PUSH32 0xAB143C0600000000000000000000000000000000000000000000000000000000 DUP2 MSTORE PUSH1 0x4 ADD PUSH1 0x40 MLOAD DUP1 SWAP2 SUB SWAP1 REVERT JUMPDEST PUSH1 0x1 DUP1 DUP2 SWAP1 SSTORE POP PUSH1 0x1 PUSH1 0x5 DUP2 GT ISZERO PUSH2 0x9D7 JUMPI PUSH2 0x9D6 PUSH2 0x2932 JUMP JUMPDEST JUMPDEST PUSH1 0x7 PUSH0 DUP4 DUP2 MSTORE PUSH1 0x20 ADD SWAP1 DUP2 MSTORE PUSH1 0x20 ADD PUSH0 KECCAK256 PUSH1 0x7 ADD PUSH0 SWAP1 SLOAD SWAP1 PUSH2 0x100 EXP SWAP1 DIV PUSH1 0xFF AND PUSH1 0x5 DUP2 GT ISZERO PUSH2 0xA0A JUMPI PUSH2 0xA09 PUSH2 0x2932 JUMP JUMPDEST JUMPDEST EQ PUSH2 0xA41 JUMPI PUSH1 0x40 MLOAD PUSH32 0x3742D1F600000000000000000000000000000000000000000000000000000000 DUP2 MSTORE PUSH1 0x4 ADD PUSH1 0x40 MLOAD DUP1 SWAP2 SUB SWAP1 REVERT JUMPDEST PUSH1 0x3 PUSH1 0x7 PUSH0 DUP4 DUP2 MSTORE PUSH1 0x20 ADD SWAP1 DUP2 MSTORE PUSH1 0x20 ADD PUSH0 KECCAK256 PUSH1 0x7 ADD PUSH0 PUSH2 0x100 EXP DUP2 SLOAD DUP2 PUSH1 0xFF MUL NOT AND SWAP1 DUP4 PUSH1 0x5 DUP2 GT ISZERO PUSH2 0xA78 JUMPI PUSH2 0xA77 PUSH2 0x2932 JUMP JUMPDEST JUMPDEST MUL OR SWAP1 SSTORE POP PUSH1 0x7 PUSH0 DUP3 DUP2 MSTORE PUSH1 0x20 ADD SWAP1 DUP2 MSTORE PUSH1 0x20 ADD PUSH0 KECCAK256 PUSH1 0x4 ADD SLOAD PUSH1 0x6 PUSH0 PUSH1 0x7 PUSH0 DUP6 DUP2 MSTORE PUSH1 0x20 ADD SWAP1 DUP2 MSTORE PUSH1 0x20 ADD PUSH0 KECCAK256 PUSH1 0x1 ADD SLOAD DUP2 MSTORE PUSH1 0x20 ADD SWAP1 DUP2 MSTORE PUSH1 0x20 ADD PUSH0 KECCAK256 PUSH1 0x4 ADD PUSH0 DUP3 DUP3 SLOAD PUSH2 0xAC8 SWAP2 SWAP1 PUSH2 0x2CA9 JUMP JUMPDEST SWAP3 POP POP DUP2 SWAP1 SSTORE POP PUSH0 PUSH2 0x2710 PUSH1 0x4 PUSH0 SWAP1 SLOAD SWAP1 PUSH2 0x100 EXP SWAP1 DIV PUSH12 0xFFFFFFFFFFFFFFFFFFFFFFFF AND PUSH12 0xFFFFFFFFFFFFFFFFFFFFFFFF AND PUSH1 0x7 PUSH0 DUP6 DUP2 MSTORE PUSH1 0x20 ADD SWAP1 DUP2 MSTORE PUSH1 0x20 ADD PUSH0 KECCAK256 PUSH1 0x6 ADD SLOAD PUSH2 0xB1A SWAP2 SWAP1 PUSH2 0x2CDC JUMP JUMPDEST PUSH2 0xB24 SWAP2 SWAP1 PUSH2 0x2D4A JUMP JUMPDEST SWAP1 POP PUSH0 DUP2 PUSH1 0x7 PUSH0 DUP6 DUP2 MSTORE PUSH1 0x20 ADD SWAP1 DUP2 MSTORE PUSH1 0x20 ADD PUSH0 KECCAK256 PUSH1 0x6 ADD SLOAD PUSH2 0xB47 SWAP2 SWAP1 PUSH2 0x2CA9 JUMP JUMPDEST SWAP1 POP PUSH0 PUSH1 0x7 PUSH0 DUP6 DUP2 MSTORE PUSH1 0x20 ADD SWAP1 DUP2 MSTORE PUSH1 0x20 ADD PUSH0 KECCAK256 PUSH1 0x2 ADD PUSH0 SWAP1 SLOAD SWAP1 PUSH2 0x100 EXP SWAP1 DIV PUSH20 0xFFFFFFFFFFFFFFFFFFFFFFFFFFFFFFFFFFFFFFFF AND PUSH20 0xFFFFFFFFFFFFFFFFFFFFFFFFFFFFFFFFFFFFFFFF AND DUP3 PUSH1 0x40 MLOAD PUSH2 0xBA1 SWAP1 PUSH2 0x2DA7 JUMP JUMPDEST PUSH0 PUSH1 0x40 MLOAD DUP1 DUP4 SUB DUP2 DUP6 DUP8 GAS CALL SWAP3 POP POP POP RETURNDATASIZE DUP1 PUSH0 DUP2 EQ PUSH2 0xBDB JUMPI PUSH1 0x40 MLOAD SWAP2 POP PUSH1 0x1F NOT PUSH1 0x3F RETURNDATASIZE ADD AND DUP3 ADD PUSH1 0x40 MSTORE RETURNDATASIZE DUP3 MSTORE RETURNDATASIZE PUSH0 PUSH1 0x20 DUP5 ADD RETURNDATACOPY PUSH2 0xBE0 JUMP JUMPDEST PUSH1 0x60 SWAP2 POP JUMPDEST POP POP SWAP1 POP DUP1 PUSH2 0xC24 JUMPI PUSH1 0x40 MLOAD PUSH32 0x8C379A000000000000000000000000000000000000000000000000000000000 DUP2 MSTORE PUSH1 0x4 ADD PUSH2 0xC1B SWAP1 PUSH2 0x2E05 JUMP JUMPDEST PUSH1 0x40 MLOAD DUP1 SWAP2 SUB SWAP1 REVERT JUMPDEST PUSH1 0x7 PUSH0 DUP6 DUP2 MSTORE PUSH1 0x20 ADD SWAP1 DUP2 MSTORE PUSH1 0x20 ADD PUSH0 KECCAK256 PUSH1 0x2 ADD PUSH0 SWAP1 SLOAD SWAP1 PUSH2 0x100 EXP SWAP1 DIV PUSH20 0xFFFFFFFFFFFFFFFFFFFFFFFFFFFFFFFFFFFFFFFF AND PUSH20 0xFFFFFFFFFFFFFFFFFFFFFFFFFFFFFFFFFFFFFFFF AND DUP5 PUSH32 0xE18DEBF292FBFC1F009A15D4E4932C1DA2BE34D7343F86F50989D09A04571E1B DUP5 PUSH1 0x40 MLOAD PUSH2 0xC9E SWAP2 SWAP1 PUSH2 0x25D9 JUMP JUMPDEST PUSH1 0x40 MLOAD DUP1 SWAP2 SUB SWAP1 LOG3 POP POP POP PUSH0 PUSH1 0x1 DUP2 SWAP1 SSTORE POP POP JUMP JUMPDEST PUSH1 0x1 DUP1 SLOAD SUB PUSH2 0xCEE JUMPI PUSH1 0x40 MLOAD PUSH32 0xAB143C0600000000000000000000000000000000000000000000000000000000 DUP2 MSTORE PUSH1 0x4 ADD PUSH1 0x40 MLOAD DUP1 SWAP2 SUB SWAP1 REVERT JUMPDEST PUSH1 0x1 DUP1 DUP2 SWAP1 SSTORE POP PUSH1 0x1 PUSH1 0x5 DUP2 GT ISZERO PUSH2 0xD09 JUMPI PUSH2 0xD08 PUSH2 0x2932 JUMP JUMPDEST JUMPDEST PUSH1 0x7 PUSH0 DUP4 DUP2 MSTORE PUSH1 0x20 ADD SWAP1 DUP2 MSTORE PUSH1 0x20 ADD PUSH0 KECCAK256 PUSH1 0x7 ADD PUSH0 SWAP1 SLOAD SWAP1 PUSH2 0x100 EXP SWAP1 DIV PUSH1 0xFF AND PUSH1 0x5 DUP2 GT ISZERO PUSH2 0xD3C JUMPI PUSH2 0xD3B PUSH2 0x2932 JUMP JUMPDEST JUMPDEST EQ PUSH2 0xD73 JUMPI PUSH1 0x40 MLOAD PUSH32 0xA5EEAEA300000000000000000000000000000000000000000000000000000000 DUP2 MSTORE PUSH1 0x4 ADD PUSH1 0x40 MLOAD DUP1 SWAP2 SUB SWAP1 REVERT JUMPDEST PUSH1 0x7 PUSH0 DUP3 DUP2 MSTORE PUSH1 0x20 ADD SWAP1 DUP2 MSTORE PUSH1 0x20 ADD PUSH0 KECCAK256 PUSH1 0x2 ADD PUSH0 SWAP1 SLOAD SWAP1 PUSH2 0x100 EXP SWAP1 DIV PUSH20 0xFFFFFFFFFFFFFFFFFFFFFFFFFFFFFFFFFFFFFFFF AND PUSH20 0xFFFFFFFFFFFFFFFFFFFFFFFFFFFFFFFFFFFFFFFF AND CALLER PUSH20 0xFFFFFFFFFFFFFFFFFFFFFFFFFFFFFFFFFFFFFFFF AND EQ PUSH2 0xE0B JUMPI PUSH1 0x40 MLOAD PUSH32 0x472E017E00000000000000000000000000000000000000000000000000000000 DUP2 MSTORE PUSH1 0x4 ADD PUSH1 0x40 MLOAD DUP1 SWAP2 SUB SWAP1 REVERT JUMPDEST PUSH1 0x2 PUSH1 0x7 PUSH0 DUP4 DUP2 MSTORE PUSH1 0x20 ADD SWAP1 DUP2 MSTORE PUSH1 0x20 ADD PUSH0 KECCAK256 PUSH1 0x7 ADD PUSH0 PUSH2 0x100 EXP DUP2 SLOAD DUP2 PUSH1 0xFF MUL NOT AND SWAP1 DUP4 PUSH1 0x5 DUP2 GT ISZERO PUSH2 0xE42 JUMPI PUSH2 0xE41 PUSH2 0x2932 JUMP JUMPDEST JUMPDEST MUL OR SWAP1 SSTORE POP PUSH0 PUSH2 0x2710 PUSH1 0x4 PUSH0 SWAP1 SLOAD SWAP1 PUSH2 0x100 EXP SWAP1 DIV PUSH12 0xFFFFFFFFFFFFFFFFFFFFFFFF AND PUSH12 0xFFFFFFFFFFFFFFFFFFFFFFFF AND PUSH1 0x7 PUSH0 DUP6 DUP2 MSTORE PUSH1 0x20 ADD SWAP1 DUP2 MSTORE PUSH1 0x20 ADD PUSH0 KECCAK256 PUSH1 0x6 ADD SLOAD PUSH2 0xE92 SWAP2 SWAP1 PUSH2 0x2CDC JUMP JUMPDEST PUSH2 0xE9C SWAP2 SWAP1 PUSH2 0x2D4A JUMP JUMPDEST SWAP1 POP PUSH0 PUSH1 0x7 PUSH0 DUP5 DUP2 MSTORE PUSH1 0x20 ADD SWAP1 DUP2 MSTORE PUSH1 0x20 ADD PUSH0 KECCAK256 PUSH1 0x6 ADD SLOAD SWAP1 POP PUSH0 PUSH1 0x4 PUSH0 SWAP1 SLOAD SWAP1 PUSH2 0x100 EXP SWAP1 DIV PUSH12 0xFFFFFFFFFFFFFFFFFFFFFFFF AND PUSH12 0xFFFFFFFFFFFFFFFFFFFFFFFF AND GT ISZERO PUSH2 0xEFE JUMPI DUP2 PUSH1 0x5 PUSH0 DUP3 DUP3 SLOAD PUSH2 0xEF6 SWAP2 SWAP1 PUSH2 0x2CA9 JUMP JUMPDEST SWAP3 POP POP DUP2 SWAP1 SSTORE POP JUMPDEST PUSH0 PUSH1 0x7 PUSH0 DUP6 DUP2 MSTORE PUSH1 0x20 ADD SWAP1 DUP2 MSTORE PUSH1 0x20 ADD PUSH0 KECCAK256 PUSH1 0x3 ADD PUSH0 SWAP1 SLOAD SWAP1 PUSH2 0x100 EXP SWAP1 DIV PUSH20 0xFFFFFFFFFFFFFFFFFFFFFFFFFFFFFFFFFFFFFFFF AND PUSH20 0xFFFFFFFFFFFFFFFFFFFFFFFFFFFFFFFFFFFFFFFF AND DUP3 PUSH1 0x40 MLOAD PUSH2 0xF56 SWAP1 PUSH2 0x2DA7 JUMP JUMPDEST PUSH0 PUSH1 0x40 MLOAD DUP1 DUP4 SUB DUP2 DUP6 DUP8 GAS CALL SWAP3 POP POP POP RETURNDATASIZE DUP1 PUSH0 DUP2 EQ PUSH2 0xF90 JUMPI PUSH1 0x40 MLOAD SWAP2 POP PUSH1 0x1F NOT PUSH1 0x3F RETURNDATASIZE ADD AND DUP3 ADD PUSH1 0x40 MSTORE RETURNDATASIZE DUP3 MSTORE RETURNDATASIZE PUSH0 PUSH1 0x20 DUP5 ADD RETURNDATACOPY PUSH2 0xF95 JUMP JUMPDEST PUSH1 0x60 SWAP2 POP JUMPDEST POP POP SWAP1 POP DUP1 PUSH2 0xFD9 JUMPI PUSH1 0x40 MLOAD PUSH32 0x8C379A000000000000000000000000000000000000000000000000000000000 DUP2 MSTORE PUSH1 0x4 ADD PUSH2 0xFD0 SWAP1 PUSH2 0x2E6D JUMP JUMPDEST PUSH1 0x40 MLOAD DUP1 SWAP2 SUB SWAP1 REVERT JUMPDEST PUSH1 0x7 PUSH0 DUP6 DUP2 MSTORE PUSH1 0x20 ADD SWAP1 DUP2 MSTORE PUSH1 0x20 ADD PUSH0 KECCAK256 PUSH1 0x3 ADD PUSH0 SWAP1 SLOAD SWAP1 PUSH2 0x100 EXP SWAP1 DIV PUSH20 0xFFFFFFFFFFFFFFFFFFFFFFFFFFFFFFFFFFFFFFFF AND PUSH20 0xFFFFFFFFFFFFFFFFFFFFFFFFFFFFFFFFFFFFFFFF AND PUSH1 0x7 PUSH0 DUP7 DUP2 MSTORE PUSH1 0x20 ADD SWAP1 DUP2 MSTORE PUSH1 0x20 ADD PUSH0 KECCAK256 PUSH1 0x2 ADD PUSH0 SWAP1 SLOAD SWAP1 PUSH2 0x100 EXP SWAP1 DIV PUSH20 0xFFFFFFFFFFFFFFFFFFFFFFFFFFFFFFFFFFFFFFFF AND PUSH20 0xFFFFFFFFFFFFFFFFFFFFFFFFFFFFFFFFFFFFFFFF AND DUP6 PUSH32 0xEA444E36DDC975C66FB8B391C01DFD6F4482F51E19554CCC5BD80C647F4DFB07 DUP6 DUP8 PUSH1 0x40 MLOAD PUSH2 0x109F SWAP3 SWAP2 SWAP1 PUSH2 0x2E8B JUMP JUMPDEST PUSH1 0x40 MLOAD DUP1 SWAP2 SUB SWAP1 LOG4 POP POP POP PUSH0 PUSH1 0x1 DUP2 SWAP1 SSTORE POP POP JUMP JUMPDEST PUSH1 0x2 SLOAD DUP2 JUMP JUMPDEST PUSH0 CALLER PUSH20 0xFFFFFFFFFFFFFFFFFFFFFFFFFFFFFFFFFFFFFFFF AND PUSH1 0x6 PUSH0 DUP10 DUP2 MSTORE PUSH1 0x20 ADD SWAP1 DUP2 MSTORE PUSH1 0x20 ADD PUSH0 KECCAK256 PUSH0 ADD PUSH0 SWAP1 SLOAD SWAP1 PUSH2 0x100 EXP SWAP1 DIV PUSH20 0xFFFFFFFFFFFFFFFFFFFFFFFFFFFFFFFFFFFFFFFF AND PUSH20 0xFFFFFFFFFFFFFFFFFFFFFFFFFFFFFFFFFFFFFFFF AND EQ ISZERO DUP1 ISZERO PUSH2 0x1175 JUMPI POP PUSH0 PUSH0 SWAP1 SLOAD SWAP1 PUSH2 0x100 EXP SWAP1 DIV PUSH20 0xFFFFFFFFFFFFFFFFFFFFFFFFFFFFFFFFFFFFFFFF AND PUSH20 0xFFFFFFFFFFFFFFFFFFFFFFFFFFFFFFFFFFFFFFFF AND CALLER PUSH20 0xFFFFFFFFFFFFFFFFFFFFFFFFFFFFFFFFFFFFFFFF AND EQ ISZERO JUMPDEST ISZERO PUSH2 0x11AC JUMPI PUSH1 0x40 MLOAD PUSH32 0x5EC8235100000000000000000000000000000000000000000000000000000000 DUP2 MSTORE PUSH1 0x4 ADD PUSH1 0x40 MLOAD DUP1 SWAP2 SUB SWAP1 REVERT JUMPDEST PUSH0 DUP6 SUB PUSH2 0x11E5 JUMPI PUSH1 0x40 MLOAD PUSH32 0xD481977E00000000000000000000000000000000000000000000000000000000 DUP2 MSTORE PUSH1 0x4 ADD PUSH1 0x40 MLOAD DUP1 SWAP2 SUB SWAP1 REVERT JUMPDEST PUSH0 DUP5 SUB PUSH2 0x121E JUMPI PUSH1 0x40 MLOAD PUSH32 0xE528E11E00000000000000000000000000000000000000000000000000000000 DUP2 MSTORE PUSH1 0x4 ADD PUSH1 0x40 MLOAD DUP1 SWAP2 SUB SWAP1 REVERT JUMPDEST PUSH0 DUP6 DUP6 PUSH2 0x122B SWAP2 SWAP1 PUSH2 0x2CDC JUMP JUMPDEST SWAP1 POP PUSH1 0x3 PUSH0 DUP2 SLOAD PUSH2 0x123B SWAP1 PUSH2 0x2EB2 JUMP JUMPDEST SWAP2 SWAP1 POP DUP2 SWAP1 SSTORE SWAP2 POP PUSH1 0x40 MLOAD DUP1 PUSH2 0x120 ADD PUSH1 0x40 MSTORE DUP1 DUP4 DUP2 MSTORE PUSH1 0x20 ADD DUP10 DUP2 MSTORE PUSH1 0x20 ADD DUP9 PUSH20 0xFFFFFFFFFFFFFFFFFFFFFFFFFFFFFFFFFFFFFFFF AND DUP2 MSTORE PUSH1 0x20 ADD PUSH1 0x6 PUSH0 DUP12 DUP2 MSTORE PUSH1 0x20 ADD SWAP1 DUP2 MSTORE PUSH1 0x20 ADD PUSH0 KECCAK256 PUSH0 ADD PUSH0 SWAP1 SLOAD SWAP1 PUSH2 0x100 EXP SWAP1 DIV PUSH20 0xFFFFFFFFFFFFFFFFFFFFFFFFFFFFFFFFFFFFFFFF AND PUSH20 0xFFFFFFFFFFFFFFFFFFFFFFFFFFFFFFFFFFFFFFFF AND DUP2 MSTORE PUSH1 0x20 ADD DUP8 DUP2 MSTORE PUSH1 0x20 ADD DUP7 DUP2 MSTORE PUSH1 0x20 ADD DUP3 DUP2 MSTORE PUSH1 0x20 ADD PUSH1 0x5 DUP1 DUP2 GT ISZERO PUSH2 0x12EA JUMPI PUSH2 0x12E9 PUSH2 0x2932 JUMP JUMPDEST JUMPDEST DUP2 MSTORE PUSH1 0x20 ADD TIMESTAMP PUSH8 0xFFFFFFFFFFFFFFFF AND DUP2 MSTORE POP PUSH1 0x7 PUSH0 DUP5 DUP2 MSTORE PUSH1 0x20 ADD SWAP1 DUP2 MSTORE PUSH1 0x20 ADD PUSH0 KECCAK256 PUSH0 DUP3 ADD MLOAD DUP2 PUSH0 ADD SSTORE PUSH1 0x20 DUP3 ADD MLOAD DUP2 PUSH1 0x1 ADD SSTORE PUSH1 0x40 DUP3 ADD MLOAD DUP2 PUSH1 0x2 ADD PUSH0 PUSH2 0x100 EXP DUP2 SLOAD DUP2 PUSH20 0xFFFFFFFFFFFFFFFFFFFFFFFFFFFFFFFFFFFFFFFF MUL NOT AND SWAP1 DUP4 PUSH20 0xFFFFFFFFFFFFFFFFFFFFFFFFFFFFFFFFFFFFFFFF AND MUL OR SWAP1 SSTORE POP PUSH1 0x60 DUP3 ADD MLOAD DUP2 PUSH1 0x3 ADD PUSH0 PUSH2 0x100 EXP DUP2 SLOAD DUP2 PUSH20 0xFFFFFFFFFFFFFFFFFFFFFFFFFFFFFFFFFFFFFFFF MUL NOT AND SWAP1 DUP4 PUSH20 0xFFFFFFFFFFFFFFFFFFFFFFFFFFFFFFFFFFFFFFFF AND MUL OR SWAP1 SSTORE POP PUSH1 0x80 DUP3 ADD MLOAD DUP2 PUSH1 0x4 ADD SSTORE PUSH1 0xA0 DUP3 ADD MLOAD DUP2 PUSH1 0x5 ADD SSTORE PUSH1 0xC0 DUP3 ADD MLOAD DUP2 PUSH1 0x6 ADD SSTORE PUSH1 0xE0 DUP3 ADD MLOAD DUP2 PUSH1 0x7 ADD PUSH0 PUSH2 0x100 EXP DUP2 SLOAD DUP2 PUSH1 0xFF MUL NOT AND SWAP1 DUP4 PUSH1 0x5 DUP2 GT ISZERO PUSH2 0x13F4 JUMPI PUSH2 0x13F3 PUSH2 0x2932 JUMP JUMPDEST JUMPDEST MUL OR SWAP1 SSTORE POP PUSH2 0x100 DUP3 ADD MLOAD DUP2 PUSH1 0x7 ADD PUSH1 0x1 PUSH2 0x100 EXP DUP2 SLOAD DUP2 PUSH8 0xFFFFFFFFFFFFFFFF MUL NOT AND SWAP1 DUP4 PUSH8 0xFFFFFFFFFFFFFFFF AND MUL OR SWAP1 SSTORE POP SWAP1 POP POP DUP7 PUSH20 0xFFFFFFFFFFFFFFFFFFFFFFFFFFFFFFFFFFFFFFFF AND DUP9 DUP4 PUSH32 0x4407B6B6E998539A49E8AA044FF1A64C6D92B26870352C041A86CC0EF9CBFF86 PUSH1 0x6 PUSH0 DUP14 DUP2 MSTORE PUSH1 0x20 ADD SWAP1 DUP2 MSTORE PUSH1 0x20 ADD PUSH0 KECCAK256 PUSH0 ADD PUSH0 SWAP1 SLOAD SWAP1 PUSH2 0x100 EXP SWAP1 DIV PUSH20 0xFFFFFFFFFFFFFFFFFFFFFFFFFFFFFFFFFFFFFFFF AND DUP11 DUP11 DUP8 DUP12 DUP12 PUSH1 0x40 MLOAD PUSH2 0x14B0 SWAP7 SWAP6 SWAP5 SWAP4 SWAP3 SWAP2 SWAP1 PUSH2 0x2F33 JUMP JUMPDEST PUSH1 0x40 MLOAD DUP1 SWAP2 SUB SWAP1 LOG4 POP SWAP7 SWAP6 POP POP POP POP POP POP JUMP JUMPDEST PUSH1 0x6 PUSH1 0x20 MSTORE DUP1 PUSH0 MSTORE PUSH1 0x40 PUSH0 KECCAK256 PUSH0 SWAP2 POP SWAP1 POP DUP1 PUSH0 ADD PUSH0 SWAP1 SLOAD SWAP1 PUSH2 0x100 EXP SWAP1 DIV PUSH20 0xFFFFFFFFFFFFFFFFFFFFFFFFFFFFFFFFFFFFFFFF AND SWAP1 DUP1 PUSH1 0x1 ADD DUP1 SLOAD PUSH2 0x1507 SWAP1 PUSH2 0x2FBA JUMP JUMPDEST DUP1 PUSH1 0x1F ADD PUSH1 0x20 DUP1 SWAP2 DIV MUL PUSH1 0x20 ADD PUSH1 0x40 MLOAD SWAP1 DUP2 ADD PUSH1 0x40 MSTORE DUP1 SWAP3 SWAP2 SWAP1 DUP2 DUP2 MSTORE PUSH1 0x20 ADD DUP3 DUP1 SLOAD PUSH2 0x1533 SWAP1 PUSH2 0x2FBA JUMP JUMPDEST DUP1 ISZERO PUSH2 0x157E JUMPI DUP1 PUSH1 0x1F LT PUSH2 0x1555 JUMPI PUSH2 0x100 DUP1 DUP4 SLOAD DIV MUL DUP4 MSTORE SWAP2 PUSH1 0x20 ADD SWAP2 PUSH2 0x157E JUMP JUMPDEST DUP3 ADD SWAP2 SWAP1 PUSH0 MSTORE PUSH1 0x20 PUSH0 KECCAK256 SWAP1 JUMPDEST DUP2 SLOAD DUP2 MSTORE SWAP1 PUSH1 0x1 ADD SWAP1 PUSH1 0x20 ADD DUP1 DUP4 GT PUSH2 0x1561 JUMPI DUP3 SWAP1 SUB PUSH1 0x1F AND DUP3 ADD SWAP2 JUMPDEST POP POP POP POP POP SWAP1 DUP1 PUSH1 0x2 ADD DUP1 SLOAD PUSH2 0x1593 SWAP1 PUSH2 0x2FBA JUMP JUMPDEST DUP1 PUSH1 0x1F ADD PUSH1 0x20 DUP1 SWAP2 DIV MUL PUSH1 0x20 ADD PUSH1 0x40 MLOAD SWAP1 DUP2 ADD PUSH1 0x40 MSTORE DUP1 SWAP3 SWAP2 SWAP1 DUP2 DUP2 MSTORE PUSH1 0x20 ADD DUP3 DUP1 SLOAD PUSH2 0x15BF SWAP1 PUSH2 0x2FBA JUMP JUMPDEST DUP1 ISZERO PUSH2 0x160A JUMPI DUP1 PUSH1 0x1F LT PUSH2 0x15E1 JUMPI PUSH2 0x100 DUP1 DUP4 SLOAD DIV MUL DUP4 MSTORE SWAP2 PUSH1 0x20 ADD SWAP2 PUSH2 0x160A JUMP JUMPDEST DUP3 ADD SWAP2 SWAP1 PUSH0 MSTORE PUSH1 0x20 PUSH0 KECCAK256 SWAP1 JUMPDEST DUP2 SLOAD DUP2 MSTORE SWAP1 PUSH1 0x1 ADD SWAP1 PUSH1 0x20 ADD DUP1 DUP4 GT PUSH2 0x15ED JUMPI DUP3 SWAP1 SUB PUSH1 0x1F AND DUP3 ADD SWAP2 JUMPDEST POP POP POP POP POP SWAP1 DUP1 PUSH1 0x3 ADD SLOAD SWAP1 DUP1 PUSH1 0x4 ADD SLOAD SWAP1 DUP1 PUSH1 0x5 ADD PUSH0 SWAP1 SLOAD SWAP1 PUSH2 0x100 EXP SWAP1 DIV PUSH1 0xFF AND SWAP1 POP DUP7 JUMP JUMPDEST PUSH0 PUSH0 SWAP1 SLOAD SWAP1 PUSH2 0x100 EXP SWAP1 DIV PUSH20 0xFFFFFFFFFFFFFFFFFFFFFFFFFFFFFFFFFFFFFFFF AND DUP2 JUMP JUMPDEST PUSH1 0x5 SLOAD DUP2 JUMP JUMPDEST PUSH1 0x7 PUSH1 0x20 MSTORE DUP1 PUSH0 MSTORE PUSH1 0x40 PUSH0 KECCAK256 PUSH0 SWAP2 POP SWAP1 POP DUP1 PUSH0 ADD SLOAD SWAP1 DUP1 PUSH1 0x1 ADD SLOAD SWAP1 DUP1 PUSH1 0x2 ADD PUSH0 SWAP1 SLOAD SWAP1 PUSH2 0x100 EXP SWAP1 DIV PUSH20 0xFFFFFFFFFFFFFFFFFFFFFFFFFFFFFFFFFFFFFFFF AND SWAP1 DUP1 PUSH1 0x3 ADD PUSH0 SWAP1 SLOAD SWAP1 PUSH2 0x100 EXP SWAP1 DIV PUSH20 0xFFFFFFFFFFFFFFFFFFFFFFFFFFFFFFFFFFFFFFFF AND SWAP1 DUP1 PUSH1 0x4 ADD SLOAD SWAP1 DUP1 PUSH1 0x5 ADD SLOAD SWAP1 DUP1 PUSH1 0x6 ADD SLOAD SWAP1 DUP1 PUSH1 0x7 ADD PUSH0 SWAP1 SLOAD SWAP1 PUSH2 0x100 EXP SWAP1 DIV PUSH1 0xFF AND SWAP1 DUP1 PUSH1 0x7 ADD PUSH1 0x1 SWAP1 SLOAD SWAP1 PUSH2 0x100 EXP SWAP1 DIV PUSH8 0xFFFFFFFFFFFFFFFF AND SWAP1 POP DUP10 JUMP JUMPDEST PUSH0 PUSH0 SWAP1 SLOAD SWAP1 PUSH2 0x100 EXP SWAP1 DIV PUSH20 0xFFFFFFFFFFFFFFFFFFFFFFFFFFFFFFFFFFFFFFFF AND PUSH20 0xFFFFFFFFFFFFFFFFFFFFFFFFFFFFFFFFFFFFFFFF AND CALLER PUSH20 0xFFFFFFFFFFFFFFFFFFFFFFFFFFFFFFFFFFFFFFFF AND EQ PUSH2 0x1789 JUMPI PUSH1 0x40 MLOAD PUSH32 0x5FC483C500000000000000000000000000000000000000000000000000000000 DUP2 MSTORE PUSH1 0x4 ADD PUSH1 0x40 MLOAD DUP1 SWAP2 SUB SWAP1 REVERT JUMPDEST PUSH1 0x1 DUP1 SLOAD SUB PUSH2 0x17C4 JUMPI PUSH1 0x40 MLOAD PUSH32 0xAB143C0600000000000000000000000000000000000000000000000000000000 DUP2 MSTORE PUSH1 0x4 ADD PUSH1 0x40 MLOAD DUP1 SWAP2 SUB SWAP1 REVERT JUMPDEST PUSH1 0x1 DUP1 DUP2 SWAP1 SSTORE POP PUSH1 0x5 SLOAD DUP2 GT ISZERO PUSH2 0x1810 JUMPI PUSH1 0x40 MLOAD PUSH32 0x8C379A000000000000000000000000000000000000000000000000000000000 DUP2 MSTORE PUSH1 0x4 ADD PUSH2 0x1807 SWAP1 PUSH2 0x3034 JUMP JUMPDEST PUSH1 0x40 MLOAD DUP1 SWAP2 SUB SWAP1 REVERT JUMPDEST DUP1 PUSH1 0x5 PUSH0 DUP3 DUP3 SLOAD PUSH2 0x1821 SWAP2 SWAP1 PUSH2 0x3052 JUMP JUMPDEST SWAP3 POP POP DUP2 SWAP1 SSTORE POP PUSH0 DUP3 PUSH20 0xFFFFFFFFFFFFFFFFFFFFFFFFFFFFFFFFFFFFFFFF AND DUP3 PUSH1 0x40 MLOAD PUSH2 0x184D SWAP1 PUSH2 0x2DA7 JUMP JUMPDEST PUSH0 PUSH1 0x40 MLOAD DUP1 DUP4 SUB DUP2 DUP6 DUP8 GAS CALL SWAP3 POP POP POP RETURNDATASIZE DUP1 PUSH0 DUP2 EQ PUSH2 0x1887 JUMPI PUSH1 0x40 MLOAD SWAP2 POP PUSH1 0x1F NOT PUSH1 0x3F RETURNDATASIZE ADD AND DUP3 ADD PUSH1 0x40 MSTORE RETURNDATASIZE DUP3 MSTORE RETURNDATASIZE PUSH0 PUSH1 0x20 DUP5 ADD RETURNDATACOPY PUSH2 0x188C JUMP JUMPDEST PUSH1 0x60 SWAP2 POP JUMPDEST POP POP SWAP1 POP DUP1 PUSH2 0x18D0 JUMPI PUSH1 0x40 MLOAD PUSH32 0x8C379A000000000000000000000000000000000000000000000000000000000 DUP2 MSTORE PUSH1 0x4 ADD PUSH2 0x18C7 SWAP1 PUSH2 0x30CF JUMP JUMPDEST PUSH1 0x40 MLOAD DUP1 SWAP2 SUB SWAP1 REVERT JUMPDEST POP PUSH0 PUSH1 0x1 DUP2 SWAP1 SSTORE POP POP POP JUMP JUMPDEST PUSH0 PUSH0 SWAP1 SLOAD SWAP1 PUSH2 0x100 EXP SWAP1 DIV PUSH20 0xFFFFFFFFFFFFFFFFFFFFFFFFFFFFFFFFFFFFFFFF AND PUSH20 0xFFFFFFFFFFFFFFFFFFFFFFFFFFFFFFFFFFFFFFFF AND CALLER PUSH20 0xFFFFFFFFFFFFFFFFFFFFFFFFFFFFFFFFFFFFFFFF AND EQ PUSH2 0x1961 JUMPI PUSH1 0x40 MLOAD PUSH32 0x5FC483C500000000000000000000000000000000000000000000000000000000 DUP2 MSTORE PUSH1 0x4 ADD PUSH1 0x40 MLOAD DUP1 SWAP2 SUB SWAP1 REVERT JUMPDEST PUSH2 0x3E8 DUP2 PUSH12 0xFFFFFFFFFFFFFFFFFFFFFFFF AND GT ISZERO PUSH2 0x19B4 JUMPI PUSH1 0x40 MLOAD PUSH32 0x8C379A000000000000000000000000000000000000000000000000000000000 DUP2 MSTORE PUSH1 0x4 ADD PUSH2 0x19AB SWAP1 PUSH2 0x3137 JUMP JUMPDEST PUSH1 0x40 MLOAD DUP1 SWAP2 SUB SWAP1 REVERT JUMPDEST DUP1 PUSH1 0x4 PUSH0 PUSH2 0x100 EXP DUP2 SLOAD DUP2 PUSH12 0xFFFFFFFFFFFFFFFFFFFFFFFF MUL NOT AND SWAP1 DUP4 PUSH12 0xFFFFFFFFFFFFFFFFFFFFFFFF AND MUL OR SWAP1 SSTORE POP POP JUMP JUMPDEST PUSH0 PUSH1 0x60 DUP1 PUSH0 PUSH0 PUSH0 PUSH0 PUSH1 0x6 PUSH0 DUP10 DUP2 MSTORE PUSH1 0x20 ADD SWAP1 DUP2 MSTORE PUSH1 0x20 ADD PUSH0 KECCAK256 SWAP1 POP DUP1 PUSH0 ADD PUSH0 SWAP1 SLOAD SWAP1 PUSH2 0x100 EXP SWAP1 DIV PUSH20 0xFFFFFFFFFFFFFFFFFFFFFFFFFFFFFFFFFFFFFFFF AND DUP2 PUSH1 0x1 ADD DUP3 PUSH1 0x2 ADD DUP4 PUSH1 0x3 ADD SLOAD DUP5 PUSH1 0x4 ADD SLOAD DUP6 PUSH1 0x5 ADD PUSH0 SWAP1 SLOAD SWAP1 PUSH2 0x100 EXP SWAP1 DIV PUSH1 0xFF AND DUP5 DUP1 SLOAD PUSH2 0x1A54 SWAP1 PUSH2 0x2FBA JUMP JUMPDEST DUP1 PUSH1 0x1F ADD PUSH1 0x20 DUP1 SWAP2 DIV MUL PUSH1 0x20 ADD PUSH1 0x40 MLOAD SWAP1 DUP2 ADD PUSH1 0x40 MSTORE DUP1 SWAP3 SWAP2 SWAP1 DUP2 DUP2 MSTORE PUSH1 0x20 ADD DUP3 DUP1 SLOAD PUSH2 0x1A80 SWAP1 PUSH2 0x2FBA JUMP JUMPDEST DUP1 ISZERO PUSH2 0x1ACB JUMPI DUP1 PUSH1 0x1F LT PUSH2 0x1AA2 JUMPI PUSH2 0x100 DUP1 DUP4 SLOAD DIV MUL DUP4 MSTORE SWAP2 PUSH1 0x20 ADD SWAP2 PUSH2 0x1ACB JUMP JUMPDEST DUP3 ADD SWAP2 SWAP1 PUSH0 MSTORE PUSH1 0x20 PUSH0 KECCAK256 SWAP1 JUMPDEST DUP2 SLOAD DUP2 MSTORE SWAP1 PUSH1 0x1 ADD SWAP1 PUSH1 0x20 ADD DUP1 DUP4 GT PUSH2 0x1AAE JUMPI DUP3 SWAP1 SUB PUSH1 0x1F AND DUP3 ADD SWAP2 JUMPDEST POP POP POP POP POP SWAP5 POP DUP4 DUP1 SLOAD PUSH2 0x1ADE SWAP1 PUSH2 0x2FBA JUMP JUMPDEST DUP1 PUSH1 0x1F ADD PUSH1 0x20 DUP1 SWAP2 DIV MUL PUSH1 0x20 ADD PUSH1 0x40 MLOAD SWAP1 DUP2 ADD PUSH1 0x40 MSTORE DUP1 SWAP3 SWAP2 SWAP1 DUP2 DUP2 MSTORE PUSH1 0x20 ADD DUP3 DUP1 SLOAD PUSH2 0x1B0A SWAP1 PUSH2 0x2FBA JUMP JUMPDEST DUP1 ISZERO PUSH2 0x1B55 JUMPI DUP1 PUSH1 0x1F LT PUSH2 0x1B2C JUMPI PUSH2 0x100 DUP1 DUP4 SLOAD DIV MUL DUP4 MSTORE SWAP2 PUSH1 0x20 ADD SWAP2 PUSH2 0x1B55 JUMP JUMPDEST DUP3 ADD SWAP2 SWAP1 PUSH0 MSTORE PUSH1 0x20 PUSH0 KECCAK256 SWAP1 JUMPDEST DUP2 SLOAD DUP2 MSTORE SWAP1 PUSH1 0x1 ADD SWAP1 PUSH1 0x20 ADD DUP1 DUP4 GT PUSH2 0x1B38 JUMPI DUP3 SWAP1 SUB PUSH1 0x1F AND DUP3 ADD SWAP2 JUMPDEST POP POP POP POP POP SWAP4 POP SWAP7 POP SWAP7 POP SWAP7 POP SWAP7 POP SWAP7 POP SWAP7 POP POP SWAP2 SWAP4 SWAP6 POP SWAP2 SWAP4 SWAP6 JUMP JUMPDEST PUSH0 PUSH0 DUP4 SUB PUSH2 0x1BAC JUMPI PUSH1 0x40 MLOAD PUSH32 0xE528E11E00000000000000000000000000000000000000000000000000000000 DUP2 MSTORE PUSH1 0x4 ADD PUSH1 0x40 MLOAD DUP1 SWAP2 SUB SWAP1 REVERT JUMPDEST PUSH0 DUP3 SUB PUSH2 0x1BE5 JUMPI PUSH1 0x40 MLOAD PUSH32 0xD481977E00000000000000000000000000000000000000000000000000000000 DUP2 MSTORE PUSH1 0x4 ADD PUSH1 0x40 MLOAD DUP1 SWAP2 SUB SWAP1 REVERT JUMPDEST PUSH1 0x2 PUSH0 DUP2 SLOAD PUSH2 0x1BF3 SWAP1 PUSH2 0x2EB2 JUMP JUMPDEST SWAP2 SWAP1 POP DUP2 SWAP1 SSTORE SWAP1 POP PUSH1 0x40 MLOAD DUP1 PUSH1 0xC0 ADD PUSH1 0x40 MSTORE DUP1 CALLER PUSH20 0xFFFFFFFFFFFFFFFFFFFFFFFFFFFFFFFFFFFFFFFF AND DUP2 MSTORE PUSH1 0x20 ADD DUP9 DUP9 DUP1 DUP1 PUSH1 0x1F ADD PUSH1 0x20 DUP1 SWAP2 DIV MUL PUSH1 0x20 ADD PUSH1 0x40 MLOAD SWAP1 DUP2 ADD PUSH1 0x40 MSTORE DUP1 SWAP4 SWAP3 SWAP2 SWAP1 DUP2 DUP2 MSTORE PUSH1 0x20 ADD DUP4 DUP4 DUP1 DUP3 DUP5 CALLDATACOPY PUSH0 DUP2 DUP5 ADD MSTORE PUSH1 0x1F NOT PUSH1 0x1F DUP3 ADD AND SWAP1 POP DUP1 DUP4 ADD SWAP3 POP POP POP POP POP POP POP DUP2 MSTORE PUSH1 0x20 ADD DUP7 DUP7 DUP1 DUP1 PUSH1 0x1F ADD PUSH1 0x20 DUP1 SWAP2 DIV MUL PUSH1 0x20 ADD PUSH1 0x40 MLOAD SWAP1 DUP2 ADD PUSH1 0x40 MSTORE DUP1 SWAP4 SWAP3 SWAP2 SWAP1 DUP2 DUP2 MSTORE PUSH1 0x20 ADD DUP4 DUP4 DUP1 DUP3 DUP5 CALLDATACOPY PUSH0 DUP2 DUP5 ADD MSTORE PUSH1 0x1F NOT PUSH1 0x1F DUP3 ADD AND SWAP1 POP DUP1 DUP4 ADD SWAP3 POP POP POP POP POP POP POP DUP2 MSTORE PUSH1 0x20 ADD DUP5 DUP2 MSTORE PUSH1 0x20 ADD DUP4 DUP2 MSTORE PUSH1 0x20 ADD PUSH1 0x1 ISZERO ISZERO DUP2 MSTORE POP PUSH1 0x6 PUSH0 DUP4 DUP2 MSTORE PUSH1 0x20 ADD SWAP1 DUP2 MSTORE PUSH1 0x20 ADD PUSH0 KECCAK256 PUSH0 DUP3 ADD MLOAD DUP2 PUSH0 ADD PUSH0 PUSH2 0x100 EXP DUP2 SLOAD DUP2 PUSH20 0xFFFFFFFFFFFFFFFFFFFFFFFFFFFFFFFFFFFFFFFF MUL NOT AND SWAP1 DUP4 PUSH20 0xFFFFFFFFFFFFFFFFFFFFFFFFFFFFFFFFFFFFFFFF AND MUL OR SWAP1 SSTORE POP PUSH1 0x20 DUP3 ADD MLOAD DUP2 PUSH1 0x1 ADD SWAP1 DUP2 PUSH2 0x1D31 SWAP2 SWAP1 PUSH2 0x3322 JUMP JUMPDEST POP PUSH1 0x40 DUP3 ADD MLOAD DUP2 PUSH1 0x2 ADD SWAP1 DUP2 PUSH2 0x1D47 SWAP2 SWAP1 PUSH2 0x3322 JUMP JUMPDEST POP PUSH1 0x60 DUP3 ADD MLOAD DUP2 PUSH1 0x3 ADD SSTORE PUSH1 0x80 DUP3 ADD MLOAD DUP2 PUSH1 0x4 ADD SSTORE PUSH1 0xA0 DUP3 ADD MLOAD DUP2 PUSH1 0x5 ADD PUSH0 PUSH2 0x100 EXP DUP2 SLOAD DUP2 PUSH1 0xFF MUL NOT AND SWAP1 DUP4 ISZERO ISZERO MUL OR SWAP1 SSTORE POP SWAP1 POP POP CALLER PUSH20 0xFFFFFFFFFFFFFFFFFFFFFFFFFFFFFFFFFFFFFFFF AND DUP2 PUSH32 0xE8AFB275DF5DC1626AD09A4D4E6E646BC6CB51E8B63F8274A81248B0FBC067CB DUP10 DUP10 DUP10 DUP10 DUP10 DUP10 PUSH1 0x40 MLOAD PUSH2 0x1DCF SWAP7 SWAP6 SWAP5 SWAP4 SWAP3 SWAP2 SWAP1 PUSH2 0x33F1 JUMP JUMPDEST PUSH1 0x40 MLOAD DUP1 SWAP2 SUB SWAP1 LOG3 SWAP7 SWAP6 POP POP POP POP POP POP JUMP JUMPDEST PUSH0 PUSH1 0x1 DUP1 SLOAD SUB PUSH2 0x1E1D JUMPI PUSH1 0x40 MLOAD PUSH32 0xAB143C0600000000000000000000000000000000000000000000000000000000 DUP2 MSTORE PUSH1 0x4 ADD PUSH1 0x40 MLOAD DUP1 SWAP2 SUB SWAP1 REVERT JUMPDEST PUSH1 0x1 DUP1 DUP2 SWAP1 SSTORE POP PUSH1 0x6 PUSH0 DUP5 DUP2 MSTORE PUSH1 0x20 ADD SWAP1 DUP2 MSTORE PUSH1 0x20 ADD PUSH0 KECCAK256 PUSH1 0x5 ADD PUSH0 SWAP1 SLOAD SWAP1 PUSH2 0x100 EXP SWAP1 DIV PUSH1 0xFF AND PUSH2 0x1E7B JUMPI PUSH1 0x40 MLOAD PUSH32 0xA10E397D00000000000000000000000000000000000000000000000000000000 DUP2 MSTORE PUSH1 0x4 ADD PUSH1 0x40 MLOAD DUP1 SWAP2 SUB SWAP1 REVERT JUMPDEST PUSH0 DUP3 EQ DUP1 PUSH2 0x1E9C JUMPI POP PUSH1 0x6 PUSH0 DUP5 DUP2 MSTORE PUSH1 0x20 ADD SWAP1 DUP2 MSTORE PUSH1 0x20 ADD PUSH0 KECCAK256 PUSH1 0x4 ADD SLOAD DUP3 GT JUMPDEST ISZERO PUSH2 0x1ED3 JUMPI PUSH1 0x40 MLOAD PUSH32 0x888E58A800000000000000000000000000000000000000000000000000000000 DUP2 MSTORE PUSH1 0x4 ADD PUSH1 0x40 MLOAD DUP1 SWAP2 SUB SWAP1 REVERT JUMPDEST PUSH0 PUSH0 PUSH2 0x1EDF DUP6 DUP6 PUSH2 0x2515 JUMP JUMPDEST SWAP2 POP SWAP2 POP DUP1 DUP3 PUSH2 0x1EEF SWAP2 SWAP1 PUSH2 0x2CA9 JUMP JUMPDEST CALLVALUE EQ PUSH2 0x1F27 JUMPI PUSH1 0x40 MLOAD PUSH32 0x98D4901C00000000000000000000000000000000000000000000000000000000 DUP2 MSTORE PUSH1 0x4 ADD PUSH1 0x40 MLOAD DUP1 SWAP2 SUB SWAP1 REVERT JUMPDEST DUP4 PUSH1 0x6 PUSH0 DUP8 DUP2 MSTORE PUSH1 0x20 ADD SWAP1 DUP2 MSTORE PUSH1 0x20 ADD PUSH0 KECCAK256 PUSH1 0x4 ADD PUSH0 DUP3 DUP3 SLOAD PUSH2 0x1F4A SWAP2 SWAP1 PUSH2 0x3052 JUMP JUMPDEST SWAP3 POP POP DUP2 SWAP1 SSTORE POP PUSH1 0x3 PUSH0 DUP2 SLOAD PUSH2 0x1F5F SWAP1 PUSH2 0x2EB2 JUMP JUMPDEST SWAP2 SWAP1 POP DUP2 SWAP1 SSTORE SWAP3 POP PUSH1 0x40 MLOAD DUP1 PUSH2 0x120 ADD PUSH1 0x40 MSTORE DUP1 DUP5 DUP2 MSTORE PUSH1 0x20 ADD DUP7 DUP2 MSTORE PUSH1 0x20 ADD CALLER PUSH20 0xFFFFFFFFFFFFFFFFFFFFFFFFFFFFFFFFFFFFFFFF AND DUP2 MSTORE PUSH1 0x20 ADD PUSH1 0x6 PUSH0 DUP9 DUP2 MSTORE PUSH1 0x20 ADD SWAP1 DUP2 MSTORE PUSH1 0x20 ADD PUSH0 KECCAK256 PUSH0 ADD PUSH0 SWAP1 SLOAD SWAP1 PUSH2 0x100 EXP SWAP1 DIV PUSH20 0xFFFFFFFFFFFFFFFFFFFFFFFFFFFFFFFFFFFFFFFF AND PUSH20 0xFFFFFFFFFFFFFFFFFFFFFFFFFFFFFFFFFFFFFFFF AND DUP2 MSTORE PUSH1 0x20 ADD DUP6 DUP2 MSTORE PUSH1 0x20 ADD PUSH1 0x6 PUSH0 DUP9 DUP2 MSTORE PUSH1 0x20 ADD SWAP1 DUP2 MSTORE PUSH1 0x20 ADD PUSH0 KECCAK256 PUSH1 0x3 ADD SLOAD DUP2 MSTORE PUSH1 0x20 ADD DUP4 DUP2 MSTORE PUSH1 0x20 ADD PUSH1 0x1 PUSH1 0x5 DUP2 GT ISZERO PUSH2 0x2023 JUMPI PUSH2 0x2022 PUSH2 0x2932 JUMP JUMPDEST JUMPDEST DUP2 MSTORE PUSH1 0x20 ADD TIMESTAMP PUSH8 0xFFFFFFFFFFFFFFFF AND DUP2 MSTORE POP PUSH1 0x7 PUSH0 DUP6 DUP2 MSTORE PUSH1 0x20 ADD SWAP1 DUP2 MSTORE PUSH1 0x20 ADD PUSH0 KECCAK256 PUSH0 DUP3 ADD MLOAD DUP2 PUSH0 ADD SSTORE PUSH1 0x20 DUP3 ADD MLOAD DUP2 PUSH1 0x1 ADD SSTORE PUSH1 0x40 DUP3 ADD MLOAD DUP2 PUSH1 0x2 ADD PUSH0 PUSH2 0x100 EXP DUP2 SLOAD DUP2 PUSH20 0xFFFFFFFFFFFFFFFFFFFFFFFFFFFFFFFFFFFFFFFF MUL NOT AND SWAP1 DUP4 PUSH20 0xFFFFFFFFFFFFFFFFFFFFFFFFFFFFFFFFFFFFFFFF AND MUL OR SWAP1 SSTORE POP PUSH1 0x60 DUP3 ADD MLOAD DUP2 PUSH1 0x3 ADD PUSH0 PUSH2 0x100 EXP DUP2 SLOAD DUP2 PUSH20 0xFFFFFFFFFFFFFFFFFFFFFFFFFFFFFFFFFFFFFFFF MUL NOT AND SWAP1 DUP4 PUSH20 0xFFFFFFFFFFFFFFFFFFFFFFFFFFFFFFFFFFFFFFFF AND MUL OR SWAP1 SSTORE POP PUSH1 0x80 DUP3 ADD MLOAD DUP2 PUSH1 0x4 ADD SSTORE PUSH1 0xA0 DUP3 ADD MLOAD DUP2 PUSH1 0x5 ADD SSTORE PUSH1 0xC0 DUP3 ADD MLOAD DUP2 PUSH1 0x6 ADD SSTORE PUSH1 0xE0 DUP3 ADD MLOAD DUP2 PUSH1 0x7 ADD PUSH0 PUSH2 0x100 EXP DUP2 SLOAD DUP2 PUSH1 0xFF MUL NOT AND SWAP1 DUP4 PUSH1 0x5 DUP2 GT ISZERO PUSH2 0x212D JUMPI PUSH2 0x212C PUSH2 0x2932 JUMP JUMPDEST JUMPDEST MUL OR SWAP1 SSTORE POP PUSH2 0x100 DUP3 ADD MLOAD DUP2 PUSH1 0x7 ADD PUSH1 0x1 PUSH2 0x100 EXP DUP2 SLOAD DUP2 PUSH8 0xFFFFFFFFFFFFFFFF MUL NOT AND SWAP1 DUP4 PUSH8 0xFFFFFFFFFFFFFFFF AND MUL OR SWAP1 SSTORE POP SWAP1 POP POP CALLER PUSH20 0xFFFFFFFFFFFFFFFFFFFFFFFFFFFFFFFFFFFFFFFF AND DUP6 DUP5 PUSH32 0xB05D81EFFAD3EE84EE036BA00FE39C2434981B97189A33164E7288215AB0E8DF PUSH1 0x6 PUSH0 DUP11 DUP2 MSTORE PUSH1 0x20 ADD SWAP1 DUP2 MSTORE PUSH1 0x20 ADD PUSH0 KECCAK256 PUSH0 ADD PUSH0 SWAP1 SLOAD SWAP1 PUSH2 0x100 EXP SWAP1 DIV PUSH20 0xFFFFFFFFFFFFFFFFFFFFFFFFFFFFFFFFFFFFFFFF AND DUP9 PUSH1 0x6 PUSH0 DUP13 DUP2 MSTORE PUSH1 0x20 ADD SWAP1 DUP2 MSTORE PUSH1 0x20 ADD PUSH0 KECCAK256 PUSH1 0x3 ADD SLOAD DUP9 PUSH1 0x4 PUSH0 SWAP1 SLOAD SWAP1 PUSH2 0x100 EXP SWAP1 DIV PUSH12 0xFFFFFFFFFFFFFFFFFFFFFFFF AND PUSH1 0x40 MLOAD PUSH2 0x2214 SWAP6 SWAP5 SWAP4 SWAP3 SWAP2 SWAP1 PUSH2 0x3446 JUMP JUMPDEST PUSH1 0x40 MLOAD DUP1 SWAP2 SUB SWAP1 LOG4 POP POP PUSH0 PUSH1 0x1 DUP2 SWAP1 SSTORE POP SWAP3 SWAP2 POP POP JUMP JUMPDEST PUSH0 PUSH0 SWAP1 SLOAD SWAP1 PUSH2 0x100 EXP SWAP1 DIV PUSH20 0xFFFFFFFFFFFFFFFFFFFFFFFFFFFFFFFFFFFFFFFF AND PUSH20 0xFFFFFFFFFFFFFFFFFFFFFFFFFFFFFFFFFFFFFFFF AND CALLER PUSH20 0xFFFFFFFFFFFFFFFFFFFFFFFFFFFFFFFFFFFFFFFF AND EQ PUSH2 0x22B0 JUMPI PUSH1 0x40 MLOAD PUSH32 0x5FC483C500000000000000000000000000000000000000000000000000000000 DUP2 MSTORE PUSH1 0x4 ADD PUSH1 0x40 MLOAD DUP1 SWAP2 SUB SWAP1 REVERT JUMPDEST PUSH0 PUSH20 0xFFFFFFFFFFFFFFFFFFFFFFFFFFFFFFFFFFFFFFFF AND DUP2 PUSH20 0xFFFFFFFFFFFFFFFFFFFFFFFFFFFFFFFFFFFFFFFF AND SUB PUSH2 0x2315 JUMPI PUSH1 0x40 MLOAD PUSH32 0xD92E233D00000000000000000000000000000000000000000000000000000000 DUP2 MSTORE PUSH1 0x4 ADD PUSH1 0x40 MLOAD DUP1 SWAP2 SUB SWAP1 REVERT JUMPDEST DUP1 PUSH20 0xFFFFFFFFFFFFFFFFFFFFFFFFFFFFFFFFFFFFFFFF AND PUSH0 PUSH0 SWAP1 SLOAD SWAP1 PUSH2 0x100 EXP SWAP1 DIV PUSH20 0xFFFFFFFFFFFFFFFFFFFFFFFFFFFFFFFFFFFFFFFF AND PUSH20 0xFFFFFFFFFFFFFFFFFFFFFFFFFFFFFFFFFFFFFFFF AND PUSH32 0x8BE0079C531659141344CD1FD0A4F28419497F9722A3DAAFE3B4186F6B6457E0 PUSH1 0x40 MLOAD PUSH1 0x40 MLOAD DUP1 SWAP2 SUB SWAP1 LOG3 DUP1 PUSH0 PUSH0 PUSH2 0x100 EXP DUP2 SLOAD DUP2 PUSH20 0xFFFFFFFFFFFFFFFFFFFFFFFFFFFFFFFFFFFFFFFF MUL NOT AND SWAP1 DUP4 PUSH20 0xFFFFFFFFFFFFFFFFFFFFFFFFFFFFFFFFFFFFFFFF AND MUL OR SWAP1 SSTORE POP POP JUMP JUMPDEST PUSH0 PUSH1 0x6 PUSH0 DUP7 DUP2 MSTORE PUSH1 0x20 ADD SWAP1 DUP2 MSTORE PUSH1 0x20 ADD PUSH0 KECCAK256 SWAP1 POP CALLER PUSH20 0xFFFFFFFFFFFFFFFFFFFFFFFFFFFFFFFFFFFFFFFF AND DUP2 PUSH0 ADD PUSH0 SWAP1 SLOAD SWAP1 PUSH2 0x100 EXP SWAP1 DIV PUSH20 0xFFFFFFFFFFFFFFFFFFFFFFFFFFFFFFFFFFFFFFFF AND PUSH20 0xFFFFFFFFFFFFFFFFFFFFFFFFFFFFFFFFFFFFFFFF AND EQ PUSH2 0x246C JUMPI PUSH1 0x40 MLOAD PUSH32 0x5EC8235100000000000000000000000000000000000000000000000000000000 DUP2 MSTORE PUSH1 0x4 ADD PUSH1 0x40 MLOAD DUP1 SWAP2 SUB SWAP1 REVERT JUMPDEST PUSH0 DUP5 SUB PUSH2 0x24A5 JUMPI PUSH1 0x40 MLOAD PUSH32 0xE528E11E00000000000000000000000000000000000000000000000000000000 DUP2 MSTORE PUSH1 0x4 ADD PUSH1 0x40 MLOAD DUP1 SWAP2 SUB SWAP1 REVERT JUMPDEST DUP4 DUP2 PUSH1 0x3 ADD DUP2 SWAP1 SSTORE POP DUP3 DUP2 PUSH1 0x4 ADD DUP2 SWAP1 SSTORE POP DUP2 DUP2 PUSH1 0x5 ADD PUSH0 PUSH2 0x100 EXP DUP2 SLOAD DUP2 PUSH1 0xFF MUL NOT AND SWAP1 DUP4 ISZERO ISZERO MUL OR SWAP1 SSTORE POP DUP5 PUSH32 0x24833E9F5188AE0F7E72E30363B10145255676DF1AB74B5137059E1B8E4CBA66 DUP6 DUP6 DUP6 PUSH1 0x40 MLOAD PUSH2 0x2506 SWAP4 SWAP3 SWAP2 SWAP1 PUSH2 0x3497 JUMP JUMPDEST PUSH1 0x40 MLOAD DUP1 SWAP2 SUB SWAP1 LOG2 POP POP POP POP POP JUMP JUMPDEST PUSH0 PUSH0 DUP3 PUSH1 0x6 PUSH0 DUP7 DUP2 MSTORE PUSH1 0x20 ADD SWAP1 DUP2 MSTORE PUSH1 0x20 ADD PUSH0 KECCAK256 PUSH1 0x3 ADD SLOAD PUSH2 0x2537 SWAP2 SWAP1 PUSH2 0x2CDC JUMP JUMPDEST SWAP2 POP PUSH2 0x2710 PUSH1 0x4 PUSH0 SWAP1 SLOAD SWAP1 PUSH2 0x100 EXP SWAP1 DIV PUSH12 0xFFFFFFFFFFFFFFFFFFFFFFFF AND PUSH12 0xFFFFFFFFFFFFFFFFFFFFFFFF AND DUP4 PUSH2 0x256F SWAP2 SWAP1 PUSH2 0x2CDC JUMP JUMPDEST PUSH2 0x2579 SWAP2 SWAP1 PUSH2 0x2D4A JUMP JUMPDEST SWAP1 POP SWAP3 POP SWAP3 SWAP1 POP JUMP JUMPDEST PUSH0 PUSH12 0xFFFFFFFFFFFFFFFFFFFFFFFF DUP3 AND SWAP1 POP SWAP2 SWAP1 POP JUMP JUMPDEST PUSH2 0x25A2 DUP2 PUSH2 0x2582 JUMP JUMPDEST DUP3 MSTORE POP POP JUMP JUMPDEST PUSH0 PUSH1 0x20 DUP3 ADD SWAP1 POP PUSH2 0x25BB PUSH0 DUP4 ADD DUP5 PUSH2 0x2599 JUMP JUMPDEST SWAP3 SWAP2 POP POP JUMP JUMPDEST PUSH0 DUP2 SWAP1 POP SWAP2 SWAP1 POP JUMP JUMPDEST PUSH2 0x25D3 DUP2 PUSH2 0x25C1 JUMP JUMPDEST DUP3 MSTORE POP POP JUMP JUMPDEST PUSH0 PUSH1 0x20 DUP3 ADD SWAP1 POP PUSH2 0x25EC PUSH0 DUP4 ADD DUP5 PUSH2 0x25CA JUMP JUMPDEST SWAP3 SWAP2 POP POP JUMP JUMPDEST PUSH0 PUSH0 REVERT JUMPDEST PUSH0 PUSH0 REVERT JUMPDEST PUSH2 0x2603 DUP2 PUSH2 0x25C1 JUMP JUMPDEST DUP2 EQ PUSH2 0x260D JUMPI PUSH0 PUSH0 REVERT JUMPDEST POP JUMP JUMPDEST PUSH0 DUP2 CALLDATALOAD SWAP1 POP PUSH2 0x261E DUP2 PUSH2 0x25FA JUMP JUMPDEST SWAP3 SWAP2 POP POP JUMP JUMPDEST PUSH0 PUSH1 0x20 DUP3 DUP5 SUB SLT ISZERO PUSH2 0x2639 JUMPI PUSH2 0x2638 PUSH2 0x25F2 JUMP JUMPDEST JUMPDEST PUSH0 PUSH2 0x2646 DUP5 DUP3 DUP6 ADD PUSH2 0x2610 JUMP JUMPDEST SWAP2 POP POP SWAP3 SWAP2 POP POP JUMP JUMPDEST PUSH0 PUSH0 PUSH1 0x40 DUP4 DUP6 SUB SLT ISZERO PUSH2 0x2665 JUMPI PUSH2 0x2664 PUSH2 0x25F2 JUMP JUMPDEST JUMPDEST PUSH0 PUSH2 0x2672 DUP6 DUP3 DUP7 ADD PUSH2 0x2610 JUMP JUMPDEST SWAP3 POP POP PUSH1 0x20 PUSH2 0x2683 DUP6 DUP3 DUP7 ADD PUSH2 0x2610 JUMP JUMPDEST SWAP2 POP POP SWAP3 POP SWAP3 SWAP1 POP JUMP JUMPDEST PUSH0 PUSH1 0x60 DUP3 ADD SWAP1 POP PUSH2 0x26A0 PUSH0 DUP4 ADD DUP7 PUSH2 0x25CA JUMP JUMPDEST PUSH2 0x26AD PUSH1 0x20 DUP4 ADD DUP6 PUSH2 0x25CA JUMP JUMPDEST PUSH2 0x26BA PUSH1 0x40 DUP4 ADD DUP5 PUSH2 0x25CA JUMP JUMPDEST SWAP5 SWAP4 POP POP POP POP JUMP JUMPDEST PUSH0 PUSH20 0xFFFFFFFFFFFFFFFFFFFFFFFFFFFFFFFFFFFFFFFF DUP3 AND SWAP1 POP SWAP2 SWAP1 POP JUMP JUMPDEST PUSH0 PUSH2 0x26EB DUP3 PUSH2 0x26C2 JUMP JUMPDEST SWAP1 POP SWAP2 SWAP1 POP JUMP JUMPDEST PUSH2 0x26FB DUP2 PUSH2 0x26E1 JUMP JUMPDEST DUP2 EQ PUSH2 0x2705 JUMPI PUSH0 PUSH0 REVERT JUMPDEST POP JUMP JUMPDEST PUSH0 DUP2 CALLDATALOAD SWAP1 POP PUSH2 0x2716 DUP2 PUSH2 0x26F2 JUMP JUMPDEST SWAP3 SWAP2 POP POP JUMP JUMPDEST PUSH0 PUSH0 REVERT JUMPDEST PUSH0 PUSH0 REVERT JUMPDEST PUSH0 PUSH0 REVERT JUMPDEST PUSH0 PUSH0 DUP4 PUSH1 0x1F DUP5 ADD SLT PUSH2 0x273D JUMPI PUSH2 0x273C PUSH2 0x271C JUMP JUMPDEST JUMPDEST DUP3 CALLDATALOAD SWAP1 POP PUSH8 0xFFFFFFFFFFFFFFFF DUP2 GT ISZERO PUSH2 0x275A JUMPI PUSH2 0x2759 PUSH2 0x2720 JUMP JUMPDEST JUMPDEST PUSH1 0x20 DUP4 ADD SWAP2 POP DUP4 PUSH1 0x1 DUP3 MUL DUP4 ADD GT ISZERO PUSH2 0x2776 JUMPI PUSH2 0x2775 PUSH2 0x2724 JUMP JUMPDEST JUMPDEST SWAP3 POP SWAP3 SWAP1 POP JUMP JUMPDEST PUSH0 PUSH0 PUSH0 PUSH0 PUSH0 PUSH0 PUSH1 0xA0 DUP8 DUP10 SUB SLT ISZERO PUSH2 0x2797 JUMPI PUSH2 0x2796 PUSH2 0x25F2 JUMP JUMPDEST JUMPDEST PUSH0 PUSH2 0x27A4 DUP10 DUP3 DUP11 ADD PUSH2 0x2610 JUMP JUMPDEST SWAP7 POP POP PUSH1 0x20 PUSH2 0x27B5 DUP10 DUP3 DUP11 ADD PUSH2 0x2708 JUMP JUMPDEST SWAP6 POP POP PUSH1 0x40 PUSH2 0x27C6 DUP10 DUP3 DUP11 ADD PUSH2 0x2610 JUMP JUMPDEST SWAP5 POP POP PUSH1 0x60 PUSH2 0x27D7 DUP10 DUP3 DUP11 ADD PUSH2 0x2610 JUMP JUMPDEST SWAP4 POP POP PUSH1 0x80 DUP8 ADD CALLDATALOAD PUSH8 0xFFFFFFFFFFFFFFFF DUP2 GT ISZERO PUSH2 0x27F8 JUMPI PUSH2 0x27F7 PUSH2 0x25F6 JUMP JUMPDEST JUMPDEST PUSH2 0x2804 DUP10 DUP3 DUP11 ADD PUSH2 0x2728 JUMP JUMPDEST SWAP3 POP SWAP3 POP POP SWAP3 SWAP6 POP SWAP3 SWAP6 POP SWAP3 SWAP6 JUMP JUMPDEST PUSH2 0x281C DUP2 PUSH2 0x26E1 JUMP JUMPDEST DUP3 MSTORE POP POP JUMP JUMPDEST PUSH0 DUP2 MLOAD SWAP1 POP SWAP2 SWAP1 POP JUMP JUMPDEST PUSH0 DUP3 DUP3 MSTORE PUSH1 0x20 DUP3 ADD SWAP1 POP SWAP3 SWAP2 POP POP JUMP JUMPDEST DUP3 DUP2 DUP4 MCOPY PUSH0 DUP4 DUP4 ADD MSTORE POP POP POP JUMP JUMPDEST PUSH0 PUSH1 0x1F NOT PUSH1 0x1F DUP4 ADD AND SWAP1 POP SWAP2 SWAP1 POP JUMP JUMPDEST PUSH0 PUSH2 0x2864 DUP3 PUSH2 0x2822 JUMP JUMPDEST PUSH2 0x286E DUP2 DUP6 PUSH2 0x282C JUMP JUMPDEST SWAP4 POP PUSH2 0x287E DUP2 DUP6 PUSH1 0x20 DUP7 ADD PUSH2 0x283C JUMP JUMPDEST PUSH2 0x2887 DUP2 PUSH2 0x284A JUMP JUMPDEST DUP5 ADD SWAP2 POP POP SWAP3 SWAP2 POP POP JUMP JUMPDEST PUSH0 DUP2 ISZERO ISZERO SWAP1 POP SWAP2 SWAP1 POP JUMP JUMPDEST PUSH2 0x28A6 DUP2 PUSH2 0x2892 JUMP JUMPDEST DUP3 MSTORE POP POP JUMP JUMPDEST PUSH0 PUSH1 0xC0 DUP3 ADD SWAP1 POP PUSH2 0x28BF PUSH0 DUP4 ADD DUP10 PUSH2 0x2813 JUMP JUMPDEST DUP2 DUP2 SUB PUSH1 0x20 DUP4 ADD MSTORE PUSH2 0x28D1 DUP2 DUP9 PUSH2 0x285A JUMP JUMPDEST SWAP1 POP DUP2 DUP2 SUB PUSH1 0x40 DUP4 ADD MSTORE PUSH2 0x28E5 DUP2 DUP8 PUSH2 0x285A JUMP JUMPDEST SWAP1 POP PUSH2 0x28F4 PUSH1 0x60 DUP4 ADD DUP7 PUSH2 0x25CA JUMP JUMPDEST PUSH2 0x2901 PUSH1 0x80 DUP4 ADD DUP6 PUSH2 0x25CA JUMP JUMPDEST PUSH2 0x290E PUSH1 0xA0 DUP4 ADD DUP5 PUSH2 0x289D JUMP JUMPDEST SWAP8 SWAP7 POP POP POP POP POP POP POP JUMP JUMPDEST PUSH0 PUSH1 0x20 DUP3 ADD SWAP1 POP PUSH2 0x292C PUSH0 DUP4 ADD DUP5 PUSH2 0x2813 JUMP JUMPDEST SWAP3 SWAP2 POP POP JUMP JUMPDEST PUSH32 0x4E487B7100000000000000000000000000000000000000000000000000000000 PUSH0 MSTORE PUSH1 0x21 PUSH1 0x4 MSTORE PUSH1 0x24 PUSH0 REVERT JUMPDEST PUSH1 0x6 DUP2 LT PUSH2 0x2970 JUMPI PUSH2 0x296F PUSH2 0x2932 JUMP JUMPDEST JUMPDEST POP JUMP JUMPDEST PUSH0 DUP2 SWAP1 POP PUSH2 0x2980 DUP3 PUSH2 0x295F JUMP JUMPDEST SWAP2 SWAP1 POP JUMP JUMPDEST PUSH0 PUSH2 0x298F DUP3 PUSH2 0x2973 JUMP JUMPDEST SWAP1 POP SWAP2 SWAP1 POP JUMP JUMPDEST PUSH2 0x299F DUP2 PUSH2 0x2985 JUMP JUMPDEST DUP3 MSTORE POP POP JUMP JUMPDEST PUSH0 PUSH8 0xFFFFFFFFFFFFFFFF DUP3 AND SWAP1 POP SWAP2 SWAP1 POP JUMP JUMPDEST PUSH2 0x29C1 DUP2 PUSH2 0x29A5 JUMP JUMPDEST DUP3 MSTORE POP POP JUMP JUMPDEST PUSH0 PUSH2 0x120 DUP3 ADD SWAP1 POP PUSH2 0x29DB PUSH0 DUP4 ADD DUP13 PUSH2 0x25CA JUMP JUMPDEST PUSH2 0x29E8 PUSH1 0x20 DUP4 ADD DUP12 PUSH2 0x25CA JUMP JUMPDEST PUSH2 0x29F5 PUSH1 0x40 DUP4 ADD DUP11 PUSH2 0x2813 JUMP JUMPDEST PUSH2 0x2A02 PUSH1 0x60 DUP4 ADD DUP10 PUSH2 0x2813 JUMP JUMPDEST PUSH2 0x2A0F PUSH1 0x80 DUP4 ADD DUP9 PUSH2 0x25CA JUMP JUMPDEST PUSH2 0x2A1C PUSH1 0xA0 DUP4 ADD DUP8 PUSH2 0x25CA JUMP JUMPDEST PUSH2 0x2A29 PUSH1 0xC0 DUP4 ADD DUP7 PUSH2 0x25CA JUMP JUMPDEST PUSH2 0x2A36 PUSH1 0xE0 DUP4 ADD DUP6 PUSH2 0x2996 JUMP JUMPDEST PUSH2 0x2A44 PUSH2 0x100 DUP4 ADD DUP5 PUSH2 0x29B8 JUMP JUMPDEST SWAP11 SWAP10 POP POP POP POP POP POP POP POP POP POP JUMP JUMPDEST PUSH0 PUSH2 0x2A5C DUP3 PUSH2 0x26C2 JUMP JUMPDEST SWAP1 POP SWAP2 SWAP1 POP JUMP JUMPDEST PUSH2 0x2A6C DUP2 PUSH2 0x2A52 JUMP JUMPDEST DUP2 EQ PUSH2 0x2A76 JUMPI PUSH0 PUSH0 REVERT JUMPDEST POP JUMP JUMPDEST PUSH0 DUP2 CALLDATALOAD SWAP1 POP PUSH2 0x2A87 DUP2 PUSH2 0x2A63 JUMP JUMPDEST SWAP3 SWAP2 POP POP JUMP JUMPDEST PUSH0 PUSH0 PUSH1 0x40 DUP4 DUP6 SUB SLT ISZERO PUSH2 0x2AA3 JUMPI PUSH2 0x2AA2 PUSH2 0x25F2 JUMP JUMPDEST JUMPDEST PUSH0 PUSH2 0x2AB0 DUP6 DUP3 DUP7 ADD PUSH2 0x2A79 JUMP JUMPDEST SWAP3 POP POP PUSH1 0x20 PUSH2 0x2AC1 DUP6 DUP3 DUP7 ADD PUSH2 0x2610 JUMP JUMPDEST SWAP2 POP POP SWAP3 POP SWAP3 SWAP1 POP JUMP JUMPDEST PUSH2 0x2AD4 DUP2 PUSH2 0x2582 JUMP JUMPDEST DUP2 EQ PUSH2 0x2ADE JUMPI PUSH0 PUSH0 REVERT JUMPDEST POP JUMP JUMPDEST PUSH0 DUP2 CALLDATALOAD SWAP1 POP PUSH2 0x2AEF DUP2 PUSH2 0x2ACB JUMP JUMPDEST SWAP3 SWAP2 POP POP JUMP JUMPDEST PUSH0 PUSH1 0x20 DUP3 DUP5 SUB SLT ISZERO PUSH2 0x2B0A JUMPI PUSH2 0x2B09 PUSH2 0x25F2 JUMP JUMPDEST JUMPDEST PUSH0 PUSH2 0x2B17 DUP5 DUP3 DUP6 ADD PUSH2 0x2AE1 JUMP JUMPDEST SWAP2 POP POP SWAP3 SWAP2 POP POP JUMP JUMPDEST PUSH0 PUSH0 PUSH0 PUSH0 PUSH0 PUSH0 PUSH1 0x80 DUP8 DUP10 SUB SLT ISZERO PUSH2 0x2B3A JUMPI PUSH2 0x2B39 PUSH2 0x25F2 JUMP JUMPDEST JUMPDEST PUSH0 DUP8 ADD CALLDATALOAD PUSH8 0xFFFFFFFFFFFFFFFF DUP2 GT ISZERO PUSH2 0x2B57 JUMPI PUSH2 0x2B56 PUSH2 0x25F6 JUMP JUMPDEST JUMPDEST PUSH2 0x2B63 DUP10 DUP3 DUP11 ADD PUSH2 0x2728 JUMP JUMPDEST SWAP7 POP SWAP7 POP POP PUSH1 0x20 DUP8 ADD CALLDATALOAD PUSH8 0xFFFFFFFFFFFFFFFF DUP2 GT ISZERO PUSH2 0x2B86 JUMPI PUSH2 0x2B85 PUSH2 0x25F6 JUMP JUMPDEST JUMPDEST PUSH2 0x2B92 DUP10 DUP3 DUP11 ADD PUSH2 0x2728 JUMP JUMPDEST SWAP5 POP SWAP5 POP POP PUSH1 0x40 PUSH2 0x2BA5 DUP10 DUP3 DUP11 ADD PUSH2 0x2610 JUMP JUMPDEST SWAP3 POP POP PUSH1 0x60 PUSH2 0x2BB6 DUP10 DUP3 DUP11 ADD PUSH2 0x2610 JUMP JUMPDEST SWAP2 POP POP SWAP3 SWAP6 POP SWAP3 SWAP6 POP SWAP3 SWAP6 JUMP JUMPDEST PUSH0 PUSH1 0x20 DUP3 DUP5 SUB SLT ISZERO PUSH2 0x2BD8 JUMPI PUSH2 0x2BD7 PUSH2 0x25F2 JUMP JUMPDEST JUMPDEST PUSH0 PUSH2 0x2BE5 DUP5 DUP3 DUP6 ADD PUSH2 0x2708 JUMP JUMPDEST SWAP2 POP POP SWAP3 SWAP2 POP POP JUMP JUMPDEST PUSH2 0x2BF7 DUP2 PUSH2 0x2892 JUMP JUMPDEST DUP2 EQ PUSH2 0x2C01 JUMPI PUSH0 PUSH0 REVERT JUMPDEST POP JUMP JUMPDEST PUSH0 DUP2 CALLDATALOAD SWAP1 POP PUSH2 0x2C12 DUP2 PUSH2 0x2BEE JUMP JUMPDEST SWAP3 SWAP2 POP POP JUMP JUMPDEST PUSH0 PUSH0 PUSH0 PUSH0 PUSH1 0x80 DUP6 DUP8 SUB SLT ISZERO PUSH2 0x2C30 JUMPI PUSH2 0x2C2F PUSH2 0x25F2 JUMP JUMPDEST JUMPDEST PUSH0 PUSH2 0x2C3D DUP8 DUP3 DUP9 ADD PUSH2 0x2610 JUMP JUMPDEST SWAP5 POP POP PUSH1 0x20 PUSH2 0x2C4E DUP8 DUP3 DUP9 ADD PUSH2 0x2610 JUMP JUMPDEST SWAP4 POP POP PUSH1 0x40 PUSH2 0x2C5F DUP8 DUP3 DUP9 ADD PUSH2 0x2610 JUMP JUMPDEST SWAP3 POP POP PUSH1 0x60 PUSH2 0x2C70 DUP8 DUP3 DUP9 ADD PUSH2 0x2C04 JUMP JUMPDEST SWAP2 POP POP SWAP3 SWAP6 SWAP2 SWAP5 POP SWAP3 POP JUMP JUMPDEST PUSH32 0x4E487B7100000000000000000000000000000000000000000000000000000000 PUSH0 MSTORE PUSH1 0x11 PUSH1 0x4 MSTORE PUSH1 0x24 PUSH0 REVERT JUMPDEST PUSH0 PUSH2 0x2CB3 DUP3 PUSH2 0x25C1 JUMP JUMPDEST SWAP2 POP PUSH2 0x2CBE DUP4 PUSH2 0x25C1 JUMP JUMPDEST SWAP3 POP DUP3 DUP3 ADD SWAP1 POP DUP1 DUP3 GT ISZERO PUSH2 0x2CD6 JUMPI PUSH2 0x2CD5 PUSH2 0x2C7C JUMP JUMPDEST JUMPDEST SWAP3 SWAP2 POP POP JUMP JUMPDEST PUSH0 PUSH2 0x2CE6 DUP3 PUSH2 0x25C1 JUMP JUMPDEST SWAP2 POP PUSH2 0x2CF1 DUP4 PUSH2 0x25C1 JUMP JUMPDEST SWAP3 POP DUP3 DUP3 MUL PUSH2 0x2CFF DUP2 PUSH2 0x25C1 JUMP JUMPDEST SWAP2 POP DUP3 DUP3 DIV DUP5 EQ DUP4 ISZERO OR PUSH2 0x2D16 JUMPI PUSH2 0x2D15 PUSH2 0x2C7C JUMP JUMPDEST JUMPDEST POP SWAP3 SWAP2 POP POP JUMP JUMPDEST PUSH32 0x4E487B7100000000000000000000000000000000000000000000000000000000 PUSH0 MSTORE PUSH1 0x12 PUSH1 0x4 MSTORE PUSH1 0x24 PUSH0 REVERT JUMPDEST PUSH0 PUSH2 0x2D54 DUP3 PUSH2 0x25C1 JUMP JUMPDEST SWAP2 POP PUSH2 0x2D5F DUP4 PUSH2 0x25C1 JUMP JUMPDEST SWAP3 POP DUP3 PUSH2 0x2D6F JUMPI PUSH2 0x2D6E PUSH2 0x2D1D JUMP JUMPDEST JUMPDEST DUP3 DUP3 DIV SWAP1 POP SWAP3 SWAP2 POP POP JUMP JUMPDEST PUSH0 DUP2 SWAP1 POP SWAP3 SWAP2 POP POP JUMP JUMPDEST POP JUMP JUMPDEST PUSH0 PUSH2 0x2D92 PUSH0 DUP4 PUSH2 0x2D7A JUMP JUMPDEST SWAP2 POP PUSH2 0x2D9D DUP3 PUSH2 0x2D84 JUMP JUMPDEST PUSH0 DUP3 ADD SWAP1 POP SWAP2 SWAP1 POP JUMP JUMPDEST PUSH0 PUSH2 0x2DB1 DUP3 PUSH2 0x2D87 JUMP JUMPDEST SWAP2 POP DUP2 SWAP1 POP SWAP2 SWAP1 POP JUMP JUMPDEST PUSH32 0x726566756E64206661696C656400000000000000000000000000000000000000 PUSH0 DUP3 ADD MSTORE POP JUMP JUMPDEST PUSH0 PUSH2 0x2DEF PUSH1 0xD DUP4 PUSH2 0x282C JUMP JUMPDEST SWAP2 POP PUSH2 0x2DFA DUP3 PUSH2 0x2DBB JUMP JUMPDEST PUSH1 0x20 DUP3 ADD SWAP1 POP SWAP2 SWAP1 POP JUMP JUMPDEST PUSH0 PUSH1 0x20 DUP3 ADD SWAP1 POP DUP2 DUP2 SUB PUSH0 DUP4 ADD MSTORE PUSH2 0x2E1C DUP2 PUSH2 0x2DE3 JUMP JUMPDEST SWAP1 POP SWAP2 SWAP1 POP JUMP JUMPDEST PUSH32 0x7061792073656C6C6572206661696C6564000000000000000000000000000000 PUSH0 DUP3 ADD MSTORE POP JUMP JUMPDEST PUSH0 PUSH2 0x2E57 PUSH1 0x11 DUP4 PUSH2 0x282C JUMP JUMPDEST SWAP2 POP PUSH2 0x2E62 DUP3 PUSH2 0x2E23 JUMP JUMPDEST PUSH1 0x20 DUP3 ADD SWAP1 POP SWAP2 SWAP1 POP JUMP JUMPDEST PUSH0 PUSH1 0x20 DUP3 ADD SWAP1 POP DUP2 DUP2 SUB PUSH0 DUP4 ADD MSTORE PUSH2 0x2E84 DUP2 PUSH2 0x2E4B JUMP JUMPDEST SWAP1 POP SWAP2 SWAP1 POP JUMP JUMPDEST PUSH0 PUSH1 0x40 DUP3 ADD SWAP1 POP PUSH2 0x2E9E PUSH0 DUP4 ADD DUP6 PUSH2 0x25CA JUMP JUMPDEST PUSH2 0x2EAB PUSH1 0x20 DUP4 ADD DUP5 PUSH2 0x25CA JUMP JUMPDEST SWAP4 SWAP3 POP POP POP JUMP JUMPDEST PUSH0 PUSH2 0x2EBC DUP3 PUSH2 0x25C1 JUMP JUMPDEST SWAP2 POP PUSH32 0xFFFFFFFFFFFFFFFFFFFFFFFFFFFFFFFFFFFFFFFFFFFFFFFFFFFFFFFFFFFFFFFF DUP3 SUB PUSH2 0x2EEE JUMPI PUSH2 0x2EED PUSH2 0x2C7C JUMP JUMPDEST JUMPDEST PUSH1 0x1 DUP3 ADD SWAP1 POP SWAP2 SWAP1 POP JUMP JUMPDEST DUP3 DUP2 DUP4 CALLDATACOPY PUSH0 DUP4 DUP4 ADD MSTORE POP POP POP JUMP JUMPDEST PUSH0 PUSH2 0x2F12 DUP4 DUP6 PUSH2 0x282C JUMP JUMPDEST SWAP4 POP PUSH2 0x2F1F DUP4 DUP6 DUP5 PUSH2 0x2EF9 JUMP JUMPDEST PUSH2 0x2F28 DUP4 PUSH2 0x284A JUMP JUMPDEST DUP5 ADD SWAP1 POP SWAP4 SWAP3 POP POP POP JUMP JUMPDEST PUSH0 PUSH1 0xA0 DUP3 ADD SWAP1 POP PUSH2 0x2F46 PUSH0 DUP4 ADD DUP10 PUSH2 0x2813 JUMP JUMPDEST PUSH2 0x2F53 PUSH1 0x20 DUP4 ADD DUP9 PUSH2 0x25CA JUMP JUMPDEST PUSH2 0x2F60 PUSH1 0x40 DUP4 ADD DUP8 PUSH2 0x25CA JUMP JUMPDEST PUSH2 0x2F6D PUSH1 0x60 DUP4 ADD DUP7 PUSH2 0x25CA JUMP JUMPDEST DUP2 DUP2 SUB PUSH1 0x80 DUP4 ADD MSTORE PUSH2 0x2F80 DUP2 DUP5 DUP7 PUSH2 0x2F07 JUMP JUMPDEST SWAP1 POP SWAP8 SWAP7 POP POP POP POP POP POP POP JUMP JUMPDEST PUSH32 0x4E487B7100000000000000000000000000000000000000000000000000000000 PUSH0 MSTORE PUSH1 0x22 PUSH1 0x4 MSTORE PUSH1 0x24 PUSH0 REVERT JUMPDEST PUSH0 PUSH1 0x2 DUP3 DIV SWAP1 POP PUSH1 0x1 DUP3 AND DUP1 PUSH2 0x2FD1 JUMPI PUSH1 0x7F DUP3 AND SWAP2 POP JUMPDEST PUSH1 0x20 DUP3 LT DUP2 SUB PUSH2 0x2FE4 JUMPI PUSH2 0x2FE3 PUSH2 0x2F8D JUMP JUMPDEST JUMPDEST POP SWAP2 SWAP1 POP JUMP JUMPDEST PUSH32 0x6578636565647320666565730000000000000000000000000000000000000000 PUSH0 DUP3 ADD MSTORE POP JUMP JUMPDEST PUSH0 PUSH2 0x301E PUSH1 0xC DUP4 PUSH2 0x282C JUMP JUMPDEST SWAP2 POP PUSH2 0x3029 DUP3 PUSH2 0x2FEA JUMP JUMPDEST PUSH1 0x20 DUP3 ADD SWAP1 POP SWAP2 SWAP1 POP JUMP JUMPDEST PUSH0 PUSH1 0x20 DUP3 ADD SWAP1 POP DUP2 DUP2 SUB PUSH0 DUP4 ADD MSTORE PUSH2 0x304B DUP2 PUSH2 0x3012 JUMP JUMPDEST SWAP1 POP SWAP2 SWAP1 POP JUMP JUMPDEST PUSH0 PUSH2 0x305C DUP3 PUSH2 0x25C1 JUMP JUMPDEST SWAP2 POP PUSH2 0x3067 DUP4 PUSH2 0x25C1 JUMP JUMPDEST SWAP3 POP DUP3 DUP3 SUB SWAP1 POP DUP2 DUP2 GT ISZERO PUSH2 0x307F JUMPI PUSH2 0x307E PUSH2 0x2C7C JUMP JUMPDEST JUMPDEST SWAP3 SWAP2 POP POP JUMP JUMPDEST PUSH32 0x7769746864726177206661696C65640000000000000000000000000000000000 PUSH0 DUP3 ADD MSTORE POP JUMP JUMPDEST PUSH0 PUSH2 0x30B9 PUSH1 0xF DUP4 PUSH2 0x282C JUMP JUMPDEST SWAP2 POP PUSH2 0x30C4 DUP3 PUSH2 0x3085 JUMP JUMPDEST PUSH1 0x20 DUP3 ADD SWAP1 POP SWAP2 SWAP1 POP JUMP JUMPDEST PUSH0 PUSH1 0x20 DUP3 ADD SWAP1 POP DUP2 DUP2 SUB PUSH0 DUP4 ADD MSTORE PUSH2 0x30E6 DUP2 PUSH2 0x30AD JUMP JUMPDEST SWAP1 POP SWAP2 SWAP1 POP JUMP JUMPDEST PUSH32 0x6D61782031302500000000000000000000000000000000000000000000000000 PUSH0 DUP3 ADD MSTORE POP JUMP JUMPDEST PUSH0 PUSH2 0x3121 PUSH1 0x7 DUP4 PUSH2 0x282C JUMP JUMPDEST SWAP2 POP PUSH2 0x312C DUP3 PUSH2 0x30ED JUMP JUMPDEST PUSH1 0x20 DUP3 ADD SWAP1 POP SWAP2 SWAP1 POP JUMP JUMPDEST PUSH0 PUSH1 0x20 DUP3 ADD SWAP1 POP DUP2 DUP2 SUB PUSH0 DUP4 ADD MSTORE PUSH2 0x314E DUP2 PUSH2 0x3115 JUMP JUMPDEST SWAP1 POP SWAP2 SWAP1 POP JUMP JUMPDEST PUSH32 0x4E487B7100000000000000000000000000000000000000000000000000000000 PUSH0 MSTORE PUSH1 0x41 PUSH1 0x4 MSTORE PUSH1 0x24 PUSH0 REVERT JUMPDEST PUSH0 DUP2 SWAP1 POP DUP2 PUSH0 MSTORE PUSH1 0x20 PUSH0 KECCAK256 SWAP1 POP SWAP2 SWAP1 POP JUMP JUMPDEST PUSH0 PUSH1 0x20 PUSH1 0x1F DUP4 ADD DIV SWAP1 POP SWAP2 SWAP1 POP JUMP JUMPDEST PUSH0 DUP3 DUP3 SHL SWAP1 POP SWAP3 SWAP2 POP POP JUMP JUMPDEST PUSH0 PUSH1 0x8 DUP4 MUL PUSH2 0x31DE PUSH32 0xFFFFFFFFFFFFFFFFFFFFFFFFFFFFFFFFFFFFFFFFFFFFFFFFFFFFFFFFFFFFFFFF DUP3 PUSH2 0x31A3 JUMP JUMPDEST PUSH2 0x31E8 DUP7 DUP4 PUSH2 0x31A3 JUMP JUMPDEST SWAP6 POP DUP1 NOT DUP5 AND SWAP4 POP DUP1 DUP7 AND DUP5 OR SWAP3 POP POP POP SWAP4 SWAP3 POP POP POP JUMP JUMPDEST PUSH0 DUP2 SWAP1 POP SWAP2 SWAP1 POP JUMP JUMPDEST PUSH0 PUSH2 0x3223 PUSH2 0x321E PUSH2 0x3219 DUP5 PUSH2 0x25C1 JUMP JUMPDEST PUSH2 0x3200 JUMP JUMPDEST PUSH2 0x25C1 JUMP JUMPDEST SWAP1 POP SWAP2 SWAP1 POP JUMP JUMPDEST PUSH0 DUP2 SWAP1 POP SWAP2 SWAP1 POP JUMP JUMPDEST PUSH2 0x323C DUP4 PUSH2 0x3209 JUMP JUMPDEST PUSH2 0x3250 PUSH2 0x3248 DUP3 PUSH2 0x322A JUMP JUMPDEST DUP5 DUP5 SLOAD PUSH2 0x31AF JUMP JUMPDEST DUP3 SSTORE POP POP POP POP JUMP JUMPDEST PUSH0 PUSH0 SWAP1 POP SWAP1 JUMP JUMPDEST PUSH2 0x3267 PUSH2 0x3258 JUMP JUMPDEST PUSH2 0x3272 DUP2 DUP5 DUP5 PUSH2 0x3233 JUMP JUMPDEST POP POP POP JUMP JUMPDEST JUMPDEST DUP2 DUP2 LT ISZERO PUSH2 0x3295 JUMPI PUSH2 0x328A PUSH0 DUP3 PUSH2 0x325F JUMP JUMPDEST PUSH1 0x1 DUP2 ADD SWAP1 POP PUSH2 0x3278 JUMP JUMPDEST POP POP JUMP JUMPDEST PUSH1 0x1F DUP3 GT ISZERO PUSH2 0x32DA JUMPI PUSH2 0x32AB DUP2 PUSH2 0x3182 JUMP JUMPDEST PUSH2 0x32B4 DUP5 PUSH2 0x3194 JUMP JUMPDEST DUP2 ADD PUSH1 0x20 DUP6 LT ISZERO PUSH2 0x32C3 JUMPI DUP2 SWAP1 POP JUMPDEST PUSH2 0x32D7 PUSH2 0x32CF DUP6 PUSH2 0x3194 JUMP JUMPDEST DUP4 ADD DUP3 PUSH2 0x3277 JUMP JUMPDEST POP POP JUMPDEST POP POP POP JUMP JUMPDEST PUSH0 DUP3 DUP3 SHR SWAP1 POP SWAP3 SWAP2 POP POP JUMP JUMPDEST PUSH0 PUSH2 0x32FA PUSH0 NOT DUP5 PUSH1 0x8 MUL PUSH2 0x32DF JUMP JUMPDEST NOT DUP1 DUP4 AND SWAP2 POP POP SWAP3 SWAP2 POP POP JUMP JUMPDEST PUSH0 PUSH2 0x3312 DUP4 DUP4 PUSH2 0x32EB JUMP JUMPDEST SWAP2 POP DUP3 PUSH1 0x2 MUL DUP3 OR SWAP1 POP SWAP3 SWAP2 POP POP JUMP JUMPDEST PUSH2 0x332B DUP3 PUSH2 0x2822 JUMP JUMPDEST PUSH8 0xFFFFFFFFFFFFFFFF DUP2 GT ISZERO PUSH2 0x3344 JUMPI PUSH2 0x3343 PUSH2 0x3155 JUMP JUMPDEST JUMPDEST PUSH2 0x334E DUP3 SLOAD PUSH2 0x2FBA JUMP JUMPDEST PUSH2 0x3359 DUP3 DUP3 DUP6 PUSH2 0x3299 JUMP JUMPDEST PUSH0 PUSH1 0x20 SWAP1 POP PUSH1 0x1F DUP4 GT PUSH1 0x1 DUP2 EQ PUSH2 0x338A JUMPI PUSH0 DUP5 ISZERO PUSH2 0x3378 JUMPI DUP3 DUP8 ADD MLOAD SWAP1 POP JUMPDEST PUSH2 0x3382 DUP6 DUP3 PUSH2 0x3307 JUMP JUMPDEST DUP7 SSTORE POP PUSH2 0x33E9 JUMP JUMPDEST PUSH1 0x1F NOT DUP5 AND PUSH2 0x3398 DUP7 PUSH2 0x3182 JUMP JUMPDEST PUSH0 JUMPDEST DUP3 DUP2 LT ISZERO PUSH2 0x33BF JUMPI DUP5 DUP10 ADD MLOAD DUP3 SSTORE PUSH1 0x1 DUP3 ADD SWAP2 POP PUSH1 0x20 DUP6 ADD SWAP5 POP PUSH1 0x20 DUP2 ADD SWAP1 POP PUSH2 0x339A JUMP JUMPDEST DUP7 DUP4 LT ISZERO PUSH2 0x33DC JUMPI DUP5 DUP10 ADD MLOAD PUSH2 0x33D8 PUSH1 0x1F DUP10 AND DUP3 PUSH2 0x32EB JUMP JUMPDEST DUP4 SSTORE POP JUMPDEST PUSH1 0x1 PUSH1 0x2 DUP9 MUL ADD DUP9 SSTORE POP POP POP JUMPDEST POP POP POP POP POP POP JUMP JUMPDEST PUSH0 PUSH1 0x80 DUP3 ADD SWAP1 POP DUP2 DUP2 SUB PUSH0 DUP4 ADD MSTORE PUSH2 0x340A DUP2 DUP9 DUP11 PUSH2 0x2F07 JUMP JUMPDEST SWAP1 POP DUP2 DUP2 SUB PUSH1 0x20 DUP4 ADD MSTORE PUSH2 0x341F DUP2 DUP7 DUP9 PUSH2 0x2F07 JUMP JUMPDEST SWAP1 POP PUSH2 0x342E PUSH1 0x40 DUP4 ADD DUP6 PUSH2 0x25CA JUMP JUMPDEST PUSH2 0x343B PUSH1 0x60 DUP4 ADD DUP5 PUSH2 0x25CA JUMP JUMPDEST SWAP8 SWAP7 POP POP POP POP POP POP POP JUMP JUMPDEST PUSH0 PUSH1 0xA0 DUP3 ADD SWAP1 POP PUSH2 0x3459 PUSH0 DUP4 ADD DUP9 PUSH2 0x2813 JUMP JUMPDEST PUSH2 0x3466 PUSH1 0x20 DUP4 ADD DUP8 PUSH2 0x25CA JUMP JUMPDEST PUSH2 0x3473 PUSH1 0x40 DUP4 ADD DUP7 PUSH2 0x25CA JUMP JUMPDEST PUSH2 0x3480 PUSH1 0x60 DUP4 ADD DUP6 PUSH2 0x25CA JUMP JUMPDEST PUSH2 0x348D PUSH1 0x80 DUP4 ADD DUP5 PUSH2 0x2599 JUMP JUMPDEST SWAP7 SWAP6 POP POP POP POP POP POP JUMP JUMPDEST PUSH0 PUSH1 0x60 DUP3 ADD SWAP1 POP PUSH2 0x34AA PUSH0 DUP4 ADD DUP7 PUSH2 0x25CA JUMP JUMPDEST PUSH2 0x34B7 PUSH1 0x20 DUP4 ADD DUP6 PUSH2 0x25CA JUMP JUMPDEST PUSH2 0x34C4 PUSH1 0x40 DUP4 ADD DUP5 PUSH2 0x289D JUMP JUMPDEST SWAP5 SWAP4 POP POP POP POP JUMP INVALID LOG2 PUSH5 0x6970667358 0x22 SLT KECCAK256 0xB0 SMOD 0xCF PUSH25 0x48361CF600AD3C2EFEFBFC9477CFEC567E8B418E61ECD59C13 0xD8 0x25 0xDF PUSH5 0x736F6C6343 STOP ADDMOD 0x1E STOP CALLER "
				},
				"gasEstimates": {
					"creation": {
						"codeDepositCost": "2714000",
						"executionCost": "28758",
						"totalCost": "2742758"
					},
					"external": {
						"adminRefund(uint256)": "infinite",
						"buy(uint256,uint256)": "infinite",
						"buyerConfirmReceived(uint256)": "infinite",
						"feeBps()": "2490",
						"feesAccrued()": "2470",
						"listProduct(string,string,uint256,uint256)": "infinite",
						"nextOrderId()": "2471",
						"nextProductId()": "2492",
						"orders(uint256)": "infinite",
						"owner()": "2530",
						"productInfo(uint256)": "infinite",
						"products(uint256)": "infinite",
						"quote(uint256,uint256)": "infinite",
						"recordOffchainSale(uint256,address,uint256,uint256,string)": "infinite",
						"sellerCancel(uint256)": "infinite",
						"setFeeBps(uint96)": "26984",
						"transferOwnership(address)": "30683",
						"updateProduct(uint256,uint256,uint256,bool)": "infinite",
						"withdrawFees(address,uint256)": "infinite"
					}
				},
				"methodIdentifiers": {
					"adminRefund(uint256)": "4c48ede7",
					"buy(uint256,uint256)": "d6febde8",
					"buyerConfirmReceived(uint256)": "4d397fd5",
					"feeBps()": "24a9d853",
					"feesAccrued()": "94db0595",
					"listProduct(string,string,uint256,uint256)": "be126a94",
					"nextOrderId()": "2a58b330",
					"nextProductId()": "4de91a63",
					"orders(uint256)": "a85c38ef",
					"owner()": "8da5cb5b",
					"productInfo(uint256)": "bb119f6e",
					"products(uint256)": "7acc0b20",
					"quote(uint256,uint256)": "315f1a41",
					"recordOffchainSale(uint256,address,uint256,uint256,string)": "56104161",
					"sellerCancel(uint256)": "301e8a05",
					"setFeeBps(uint96)": "b7f1564e",
					"transferOwnership(address)": "f2fde38b",
					"updateProduct(uint256,uint256,uint256,bool)": "faaac390",
					"withdrawFees(address,uint256)": "ad3b1b47"
				}
			},
			"storageLayout": {
				"storage": [
					{
						"astId": 152,
						"contract": "contracts/CropMarketplace.sol:CropMarketplace",
						"label": "owner",
						"offset": 0,
						"slot": "0",
						"type": "t_address"
					},
					{
						"astId": 216,
						"contract": "contracts/CropMarketplace.sol:CropMarketplace",
						"label": "_status",
						"offset": 0,
						"slot": "1",
						"type": "t_uint256"
					},
					{
						"astId": 1230,
						"contract": "contracts/CropMarketplace.sol:CropMarketplace",
						"label": "nextProductId",
						"offset": 0,
						"slot": "2",
						"type": "t_uint256"
					},
					{
						"astId": 1232,
						"contract": "contracts/CropMarketplace.sol:CropMarketplace",
						"label": "nextOrderId",
						"offset": 0,
						"slot": "3",
						"type": "t_uint256"
					},
					{
						"astId": 1234,
						"contract": "contracts/CropMarketplace.sol:CropMarketplace",
						"label": "feeBps",
						"offset": 0,
						"slot": "4",
						"type": "t_uint96"
					},
					{
						"astId": 1236,
						"contract": "contracts/CropMarketplace.sol:CropMarketplace",
						"label": "feesAccrued",
						"offset": 0,
						"slot": "5",
						"type": "t_uint256"
					},
					{
						"astId": 1241,
						"contract": "contracts/CropMarketplace.sol:CropMarketplace",
						"label": "products",
						"offset": 0,
						"slot": "6",
						"type": "t_mapping(t_uint256,t_struct(Product)258_storage)"
					},
					{
						"astId": 1246,
						"contract": "contracts/CropMarketplace.sol:CropMarketplace",
						"label": "orders",
						"offset": 0,
						"slot": "7",
						"type": "t_mapping(t_uint256,t_struct(Order)278_storage)"
					}
				],
				"types": {
					"t_address": {
						"encoding": "inplace",
						"label": "address",
						"numberOfBytes": "20"
					},
					"t_bool": {
						"encoding": "inplace",
						"label": "bool",
						"numberOfBytes": "1"
					},
					"t_enum(OrderStatus)245": {
						"encoding": "inplace",
						"label": "enum OrderStatus",
						"numberOfBytes": "1"
					},
					"t_mapping(t_uint256,t_struct(Order)278_storage)": {
						"encoding": "mapping",
						"key": "t_uint256",
						"label": "mapping(uint256 => struct Order)",
						"numberOfBytes": "32",
						"value": "t_struct(Order)278_storage"
					},
					"t_mapping(t_uint256,t_struct(Product)258_storage)": {
						"encoding": "mapping",
						"key": "t_uint256",
						"label": "mapping(uint256 => struct Product)",
						"numberOfBytes": "32",
						"value": "t_struct(Product)258_storage"
					},
					"t_string_storage": {
						"encoding": "bytes",
						"label": "string",
						"numberOfBytes": "32"
					},
					"t_struct(Order)278_storage": {
						"encoding": "inplace",
						"label": "struct Order",
						"members": [
							{
								"astId": 260,
								"contract": "contracts/CropMarketplace.sol:CropMarketplace",
								"label": "id",
								"offset": 0,
								"slot": "0",
								"type": "t_uint256"
							},
							{
								"astId": 262,
								"contract": "contracts/CropMarketplace.sol:CropMarketplace",
								"label": "productId",
								"offset": 0,
								"slot": "1",
								"type": "t_uint256"
							},
							{
								"astId": 264,
								"contract": "contracts/CropMarketplace.sol:CropMarketplace",
								"label": "buyer",
								"offset": 0,
								"slot": "2",
								"type": "t_address"
							},
							{
								"astId": 266,
								"contract": "contracts/CropMarketplace.sol:CropMarketplace",
								"label": "seller",
								"offset": 0,
								"slot": "3",
								"type": "t_address"
							},
							{
								"astId": 268,
								"contract": "contracts/CropMarketplace.sol:CropMarketplace",
								"label": "quantity",
								"offset": 0,
								"slot": "4",
								"type": "t_uint256"
							},
							{
								"astId": 270,
								"contract": "contracts/CropMarketplace.sol:CropMarketplace",
								"label": "unitPriceWei",
								"offset": 0,
								"slot": "5",
								"type": "t_uint256"
							},
							{
								"astId": 272,
								"contract": "contracts/CropMarketplace.sol:CropMarketplace",
								"label": "totalWei",
								"offset": 0,
								"slot": "6",
								"type": "t_uint256"
							},
							{
								"astId": 275,
								"contract": "contracts/CropMarketplace.sol:CropMarketplace",
								"label": "status",
								"offset": 0,
								"slot": "7",
								"type": "t_enum(OrderStatus)245"
							},
							{
								"astId": 277,
								"contract": "contracts/CropMarketplace.sol:CropMarketplace",
								"label": "placedAt",
								"offset": 1,
								"slot": "7",
								"type": "t_uint64"
							}
						],
						"numberOfBytes": "256"
					},
					"t_struct(Product)258_storage": {
						"encoding": "inplace",
						"label": "struct Product",
						"members": [
							{
								"astId": 247,
								"contract": "contracts/CropMarketplace.sol:CropMarketplace",
								"label": "seller",
								"offset": 0,
								"slot": "0",
								"type": "t_address"
							},
							{
								"astId": 249,
								"contract": "contracts/CropMarketplace.sol:CropMarketplace",
								"label": "name",
								"offset": 0,
								"slot": "1",
								"type": "t_string_storage"
							},
							{
								"astId": 251,
								"contract": "contracts/CropMarketplace.sol:CropMarketplace",
								"label": "unit",
								"offset": 0,
								"slot": "2",
								"type": "t_string_storage"
							},
							{
								"astId": 253,
								"contract": "contracts/CropMarketplace.sol:CropMarketplace",
								"label": "unitPriceWei",
								"offset": 0,
								"slot": "3",
								"type": "t_uint256"
							},
							{
								"astId": 255,
								"contract": "contracts/CropMarketplace.sol:CropMarketplace",
								"label": "availableQty",
								"offset": 0,
								"slot": "4",
								"type": "t_uint256"
							},
							{
								"astId": 257,
								"contract": "contracts/CropMarketplace.sol:CropMarketplace",
								"label": "active",
								"offset": 0,
								"slot": "5",
								"type": "t_bool"
							}
						],
						"numberOfBytes": "192"
					},
					"t_uint256": {
						"encoding": "inplace",
						"label": "uint256",
						"numberOfBytes": "32"
					},
					"t_uint64": {
						"encoding": "inplace",
						"label": "uint64",
						"numberOfBytes": "8"
					},
					"t_uint96": {
						"encoding": "inplace",
						"label": "uint96",
						"numberOfBytes": "12"
					}
				}
			},
			"userdoc": {
				"kind": "user",
				"methods": {},
				"version": 1
			}
		}
	}
}